:100000004E0D040000000000000000000000000091
:1000100000000000000000000000000000000000E0
:1000200000000000000000000000000000000000D0
:1000300000000000000000000000000000000000C0
:1000400000000000000000000000000000000000B0
:101A9C000F862000F0FF270020A0B70010002000C8
:101AAC0034A0B700400020004420B7006A0D0200AB
:101ABC0000000000D1FF0700ADFF07001DFF07006D
:081ACC00FEFF3700FFFF3700A9
:101A08008A1F78008B1F78008C1F78001820EF0041
:101A18007BC0B3001420EF00ACFE07001820EF00D5
:101A28001BC0B3001420EF00A8FE07001820EF0029
:101A38001620EF001420EF00A4FE07001820EF0086
:101A48002BC0B3001420EF00A0FE07001820EF0001
:101A58006BC0B3001420EF009CFE070040F02C0080
:101A6800800578001420EF0022FF070038002000CE
:101A7800578D20000E20ED00FEFF3A001020ED00EB
:101A8800FCFF3A004F067800CF0578004F05780034
:041A98000000060044
:1014D4008A1F78008B1F78000A0037000B457800BC
:1014E4008C457800F4FE07000B0037000B457800AC
:1014F4008C45780099FE07000700370010C0B30040
:10150400050037006054E100F4FF32006154E1004B
:10151400F6FF3200F9FF3700CF0578004F05780059
:0415240000000600BD
:1010BC003B0037001600AE00C702A9001600AF00B7
:1010CC00C702A8004F0037001600AE00CC22A900C2
:1010DC001600AF00CC22A8004A0037001600AE0064
:1010EC00CC42A9001600AF00CC42A8004500370046
:1010FC001600AE00DEC2A9001600AF00DEC2A800CA
:10110C00400037001600AE00DEE2A9001600AF006A
:10111C00DEE2A8003B0037001600AE00DF02A9009B
:10112C001600AF00DF02A800360037001600AE0034
:10113C00D202A9001600AF00D202A800310037007D
:10114C0010C0B300300037001600AE00DE82A900DC
:10115C001600AF00DE82A8002A0037001600AE0091
:10116C00DEA2A9001600AF00DEA2A8002500370001
:10117C001600AE00C042A9001600AF00C042A80085
:10118C00200037001600AE00C062A9001600AF00A8
:10119C00C062A8001B00370010C0B3001A00370053
:1011AC006054E100C3FF32006154E100C6FF32001D
:1011BC006254E100C9FF32006354E100CCFF3200FD
:1011CC006454E100CFFF32006554E100D2FF3200DD
:1011DC006654E100D5FF32006754E100D8FF3200BD
:1011EC006854E100D8FF32006954E100DBFF3200A3
:1011FC006A54E100DEFF32006B54E100E1FF320083
:0C120C00E5FF370000C0B3000000060042
:100F60003B0037001600AE00C722A9001600AF00F4
:100F7000C722A8004F0037001600AE00CC62A900BF
:100F80001600AF00CC62A8004A0037001600AE0081
:100F9000CC82A9001600AF00CC82A8004500370023
:100FA0001600AE00DEC2A9001600AF00DEC2A80027
:100FB000400037001600AE00DEE2A9001600AF00C8
:100FC000DEE2A8003B0037001600AE00DF02A900F9
:100FD0001600AF00DF02A800360037001600AE0092
:100FE000D222A9001600AF00D222A800310037009B
:100FF00010C0B300300037001600AE00DF82A90039
:101000001600AF00DF82A8002A0037001600AE00ED
:10101000DFA2A9001600AF00DFA2A800250037005C
:101020001600AE00C042A9001600AF00C042A800E2
:10103000200037001600AE00C062A9001600AF0005
:10104000C062A8001B00370010C0B3001A003700B0
:101050006054E100C3FF32006154E100C6FF32007A
:101060006254E100C9FF32006354E100CCFF32005A
:101070006454E100CFFF32006554E100D2FF32003A
:101080006654E100D5FF32006754E100D8FF32001A
:101090006854E100D8FF32006954E100DBFF320000
:1010A0006A54E100DEFF32006B54E100E1FF3200E0
:0C10B000E5FF370000C0B30000000600A0
:1016FC008A1F7800080037000B057800E6FE07000B
:10170C000A0037000B057800C0FE07000700370001
:10171C0010C0B300050037006054E100F6FF320042
:10172C006154E100F7FF3200F9FF37004F057800F4
:04173C0000000600A3
:1012A4008A1F78008B1F78008C1F78008D1F7800B0
:1012B400FC00450091037800F80045001103780014
:1012C400F400450091027800F00045001102780016
:1012D400EC00450091017800E80045001101780018
:1012E400E4004500910078001A0078008306780035
:1012F400020678008105780000057800871F7800D1
:10130400861F7800851F7800841F780077FC07000B
:101314008F00B10000C0B300CF0678004F067800FC
:0C132400CF0578004F057800000006009F
:1004F0000000FA00CEB897003EBA97002EB99700D8
:100500009EB997004022EF004222EF000020200019
:100510006042880080232000704288000B00750034
:100520000C0070000D0070000100700004007000ED
:1005300082007000202420000388700040C2A900BF
:0C05400041E2A8000080FA000000060064
:101218008A1F78008B1F78008C1F78008D1F78003C
:10122800FC00450091037800F800450011037800A0
:10123800F400450091027800F000450011027800A2
:10124800EC00450091017800E800450011017800A4
:10125800E4004500910078001A00780083067800C1
:10126800020678008105780000057800871F78005D
:10127800861F7800851F7800841F78009AFC070075
:101288008F00B10000C0B300CF0678004F06780089
:0C129800CF0578004F057800000006002C
:10197C008A1F78008B1F78008C1F7800ABF22C002C
:10198C004AED2C0000FF07000DFF0700FAFF2F00A7
:10199C005DFC07000CC0B3001620EF006A802C0021
:1019AC00DEFE0700AC002000FB0020005A80200067
:1019BC008BFE0700EC0120005B002000CA80200099
:1019CC0087FE0700DC0220005B002000EA8120007B
:1019DC0083FE070058012000B78525000E20ED007E
:1019EC00FEFF3A001020ED00FCFF3A004F06780095
:0C19FC00CF0578004F05780000000600C1
:101594008A1F78008A1F78000B05780069FE07000F
:1015A4004F0578004EFE07001AC0B3005042800079
:1015B400000001001AC0B3003042800000000100A6
:0815C4004F057800000006004D
:100F48001A007800C0428800E200450011007800CD
:080F5800D042880000000600F1
:100EE4001A007800B04288006400450010007800C1
:100EF400504288006200450010007800E0428800FB
:100F04006C00450010007800304288006E004500F7
:0C0F140010007800F04288000000060089
:100ED0001400AE00CB02A9001400AF00CB02A800A2
:040EE0000000060008
:100F34001400AE00D022A9001400AF00D022A800F3
:040F440000000600A3
:100F20001400AE00D042A9001400AF00D042A800C7
:040F300000000600B7
:101330001400AE00E2C2A9001400AF00E2C2A8008F
:0413400000000600A3
:1013B0001400AE00E2E2A9001400AF00E2E2A800CF
:0413C0000000060023
:1013D8001400AE00E302A9001400AF00E302A80065
:0413E80000000600FB
:1013C4001400AE00D602A9001400AF00D602A80093
:0413D400000006000F
:0813940000000000000006004B
:101358001400AE00E282A9001400AF00E282A800E7
:04136800000006007B
:101380001400AE00E2A2A9001400AF00E2A2A8007F
:041390000000060053
:10136C001400AE00C442A9001400AF00C442A8008F
:04137C000000060067
:101344001400AE00C462A9001400AF00C462A80077
:04135400000006008F
:10139C001400AE00CB22A9001400AF00CB22A80091
:0413AC000000060037
:100EBC001400AE00D062A9001400AF00D062A800EC
:040ECC00000006001C
:1008A4001400AE00D082A9001400AF00D082A800CA
:0408B400000006003A
:10087C001400AE00E2C2A9001400AF00E2C2A8004E
:04088C000000060062
:100868001400AE00E2E2A9001400AF00E2E2A80022
:040878000000060076
:100890001400AE00E302A9001400AF00E302A800B8
:0408A000000006004E
:10082C001400AE00D622A9001400AF00D622A800F6
:04083C0000000600B2
:080824000000000000000600C6
:100854001400AE00E382A9001400AF00E382A800F4
:04086400000006008A
:100840001400AE00E3A2A9001400AF00E3A2A800C8
:04085000000006009E
:100E60001400AE00C442A9001400AF00C442A800A0
:040E70000000060078
:100E4C001400AE00C462A9001400AF00C462A80074
:040E5C00000006008C
:1015CC008A1F78008B1F78008C1F78001AC0B3001C
:1015DC0034FE070024FE07001C002000BB83200003
:1015EC00DACFB300B1FC07001C0020002B802000D8
:1015FC00DACFB300ADFC07001820EF001620EF0087
:10160C00EACAB300A9FC07001C002000DB83200001
:10161C000ACAB300A5FC07001C002000AB83200005
:10162C00AACCB300A1FC07001C0020003B802000CA
:10163C001ACAB3009DFC07001C0020004B80200040
:10164C002ACAB30099FC07001C002000DB81200093
:10165C00EACBB30095FC07001C0020000B80200097
:10166C003ACBB30091FC07001C0020001B8020002B
:10167C001ACBB3008DFC07001C0020009B832000BC
:10168C006ACBB30089FC07001C002000CB83200030
:10169C007ACCB30085FC07003C002000FB822000C4
:1016AC001ACCB30081FC07003C0020002B832000E7
:1016BC004ACBB3007DFC07001820EF001620EF008A
:1016CC006ACAB30079FC07001820EF001620EF005F
:1016DC00FACAB30075FC07001420EF000AFD0700DE
:1016EC004F067800CF0578004F0578000000060003
:0016FC00EE
:0C0EB000F042800000000100000006007D
:100E74008A1F78001AC0B300E0428000000001001D
:100E84007EFD07001420EF00E04280000000010016
:100E94007AFD07001AC0B300E042800000000100A0
:0C0EA4007BFD07004F05780000000600F1
:10048000575320000E20ED00FEFF3A000000000050
:040490000000060062
:1004940038002000578D20000E20ED00FEFF3A00AA
:0C04A4001020ED00FCFF3A0000000600F4
:1008B8000400FA008A1F78008B1F78002A479800E6
:1008C8000B0798008C1F78001420EF00504280001E
:1008D800000001001420EF003042800000000100F9
:1008E800620047001B00200000057800EEFE0700AC
:1008F8001AC0B30030428000000001004F067800A3
:100908001800E200030032008C0578000E05900004
:10091800E5FE07001AC0B300504280000000010045
:10092800CF0578004F0578000080FA000000060027
:00093800BF
:1004B0000A0178008B007800618055008005780083
:1004C0000200E20009003200821F78008A9FBE000D
:1004D0001285FB00C0428000000001004F05BE00F5
:1004E0004F0178000420EC00F2FF37000000060006
:0004F0000C
:100470000000FA00E2FF07000080FA00000006001A
:000480007C
:100400000000FA0040C2A9004022AE0001003700FF
:10041000FDFF37004A1288004002AF00010037009C
:10042000FDFF37004882BF000080FA000000060090
:00043000CC
:100460000000FA00F2FF07000080FA00000006001A
:000470008C
:100430000000FA0060C2A9006022AE00010037008F
:10044000FDFF37004A1388006002AF00010037004B
:10045000FDFF37006882BF000080FA000000060040
:000460009C
:100B14008A1F78008B1F78008C1F78008D1F780047
:100B24008A1F78000DC6B3000CC6B3001620EF0070
:100B34001420EF00CBFE07002F00B100CF06780091
:100B44004F067800CF0578004F05780000000600B6
:000B5400A1
:100668000600FA008A1F78008B1F78008C1F78001C
:10067800CEB99700C0052000204798008C80FB0069
:100688000A80FB00008150008D80FB000B80FB007E
:10069800008050000010B8000007980000002000FB
:1006A80030479800000020004047980000C6B3007B
:1006B8000054E10004003E0000C6B3000064E100FD
:1006C80001003E00010037004F00370000C6B300AC
:1006D800005CE10004003E0000C6B300006CE100CD
:1006E80001003E0001003700470037000A64E100BE
:1006F800030039000B6CE1000100390001003700EC
:100708004100370050832000704845000C80FB00F2
:10071800F00040006083200061C850007083200012
:100728000B4878008D80FB008083200061C8500052
:1007380063014700C818DE001280FB00010070004A
:10074800004978000420EC00F00F20008080610050
:100758001280FB0001007000004978002C00200086
:100768005B8320005AC1B300510007002C00200011
:100778007B8320005AC7B3004D0007001420EF0008
:1007880050428000000001001420EF003042800039
:1007980000000100620047001B00200000057800EF
:1007A80041FF07001AC0B30030428000000001007A
:1007B8000E0190008E009000600047006188500094
:1007C8000400E20009003200630047008C9FBE006D
:1007D8008A9FBE002B0020000005780032FF07002A
:1007E8004F05BE004F06BE00F1FF37008C9FBE00CC
:1007F8008A9FBE001AC0B30050428000000001006A
:100808004F05BE004F06BE004F067800CF057800A2
:0C0818004F0578000080FA000000060088
:101528008A428800E200450091417800E3004500C6
:10153800114078000080FB004801DD008380FB003B
:101548002085200002884000E40045009141780091
:10155800E5004500114078000080FB004801DD00EF
:101568008380FB002084200002884000E6004500BC
:10157800114078000080FB0020428800FB41880071
:0C158800008420000C48780000000600E1
:1013EC008A007800000620000058E100040031005B
:1013FC00000620000060E100010031000100370010
:10140C000F0037004B428800AC4288000100780086
:10141C001004E0000A003200801F78008C1F780056
:10142C008A9FBE001085FB00C7FD07004F05BE005C
:10143C004F0678004F0078000020EC00F4FF3700D6
:04144C000000060096
:100B54000A00FA008B1F78008C1F78000000200028
:100B64003007980000002000004F980020852000E6
:100B74001050E10001003100AF0037002084200054
:100B84001050E10001003600AB0037002085200042
:100B940010005500C200DD00804280006800400063
:100BA400010340001640780040479800E1004300EC
:100BB400114078000082FB008002EB00E200430059
:100BC400114078000081FB008001EB00C818DD00B3
:100BD4004810DE00810070004810DD000001420072
:100BE40081814A00E3004300114078000080FB004B
:100BF4008000EB00800078000000EB000001410061
:100C040081814900018520006200470011084100EC
:100C140000842000104078006004E10005003200E8
:100C240000842000104078006204E10001003200DA
:100C340044003700A44280000620EF008380FB00BC
:100C4400408420001008E10034003100404280005C
:100C5400300798000020EF00104F98000020EF00AC
:100C640000479800034178008E40900064004700DC
:100C7400100CE10026003100690047001004E00078
:100C840008003A009E00900011407800004F980040
:100C94009E009000620047006188400010C0B300CD
:100CA400104F9800680047009080FB0069004700DF
:100CB4001080FB00008060000A003200821F780070
:100CC400841F78008A1F7800FC41800084457800E6
:100CD4006E4590001CFE07004F0578004F02780017
:100CE4004F017800BE009000660047006188400014
:100CF400690047001080FB004100DD00104F9800A0
:100D04008E4090006000470061C84000D6FF370065
:100D14000820EC00E1414100C8FF370000842000B6
:100D2400104078006004E10004003A00BE00900026
:100D3400808420006188400001003700A4428800BC
:100D44003D003700444280000620EF008380FB0012
:100D5400408420001008E10034003100A0428000EB
:100D6400300798000020EF00104F98000020EF009B
:100D740000479800034178008E40900064004700CB
:100D8400100CE100260031001E4890006004E100D0
:100D940008003A009E00900011407800004F98002F
:100DA4009E009000620047006188400010C0B300BC
:100DB400104F9800680047009080FB0069004700CE
:100DC4001080FB00008060000A003200821F78005F
:100DD400841F78008A1F7800FC418000EE45900053
:100DE40004457800D8FD07004F0578004F027800CD
:100DF4004F017800BE0090006600470061885000F3
:100E0400690047001080FB004100DD00104F98008E
:100E14008E4090006000470061C84000D6FF370054
:100E24000820EC00E1414100C8FF3700BE009000FB
:100E340040852000618850004F067800CF05780077
:080E44000080FA000000060026
:10054C000400FA008A1F78008B1F78008C1F78003B
:10055C00C0052000004798000000200010479800BC
:10056C00000020002047980000C6B3000054E100B2
:10057C0004003E0000C6B300005CE10001003E0038
:10058C0001003700300037005083200070484500D0
:10059C0061832000508320009048780070832000F5
:1005AC000B487800808320000B48780061014700DD
:1005BC00C860DE001280FB0001007000004978006A
:1005CC000420EC00F00F2000800066001280FB007D
:1005DC0001007000004978002C0020005B83200093
:1005EC005AC1B300B10007002C0020007B8320000F
:1005FC005AC7B300AD0007001420EF005042800032
:10060C00000001001420EF003042800000000100C7
:10061C00600047001B00200000057800A1FF0700C8
:10062C001AC0B30030428000000001006100470096
:10063C002B002000000578009AFF07001AC0B300B9
:10064C0050428000000001004F067800CF05780072
:0C065C004F0578000080FA000000060046
:101740008A1F78008B1F78008C1F78008D1F78000F
:10175000FAFF2F00EFFC07004EFB07000DC6B30099
:101760000CC6B3001620EF001420EF0000002F007D
:10177000801F780050FF07002F00B100B800200044
:10178000D7C222000E20ED00FEFF3A001020ED002F
:10179000FCFF3A00BDC5B300BCC5B3005BC0B300DD
:1017A0005AC0B30000F02F00801F780042FF0700EE
:1017B0002F00B100B8002000D7C222000E20ED009B
:1017C000FEFF3A001020ED00FCFF3A006DC5B300AB
:1017D0006CC5B300ABC0B300AAC0B300000F2000BB
:1017E000801F780034FF07002F00B100B8002000F0
:1017F000D7C222000E20ED00FEFF3A001020ED00BF
:10180000FCFF3A001DC5B3001CC5B300FBC0B3000C
:10181000FAC0B300F0F02000801F780026FF070018
:101820002F00B100B8002000D7C222000E20ED002A
:10183000FEFF3A001020ED00FCFF3A00CDC4B300DB
:10184000CCC4B3004BC1B3004AC1B30000002F00A9
:10185000801F780018FF07002F00B100B80020009B
:10186000D7C222000E20ED00FEFF3A001020ED004E
:10187000FCFF3A007DC4B3007CC4B3009BC1B3003D
:101880009AC1B30000F02F00801F78000AFF070004
:101890002F00B100FFFA0700BDC1B3007CC4B30044
:1018A0009BC1B3009AC1B3000020EF00801F7800F5
:1018B00001FF07002F00B100F6FA07009DC4B30036
:1018C0007CC4B3007BC4B3009AC1B3000020EF0016
:1018D000801F7800F8FE07002F00B100EDFA070026
:1018E0007DC4B300BCC1B3009BC1B3009AC1B300B7
:1018F0000020EF00801F7800EFFE07002F00B100EE
:10190000E4FA07007DC4B3007CC4B3009BC1B300FC
:101910004AC4B3000020EF00801F7800E6FE0700F5
:101920002F00B100E8032000379120000E20ED00C9
:10193000FEFF3A001020ED00FCFF3A00000000001E
:101940001820EF001620EF000A002800C0FE070054
:1019500098022000770B2B000E20ED00FEFF3A00CE
:101960001020ED00FCFF3A00CF0678004F0678000B
:0C197000CF0578004F057800000006004D
:1014B8000000FA004EB89700801F780068FC07000B
:0C14C8002F00B1000080FA0000000600B8
:101450008A1F78008B1F78008C1F78008D1F780002
:10146000E4004500114078008C80FB000080FB0008
:1014700000814000E2004500114078008B80FB00B5
:101480000080FB00008040008A1F780082467800C0
:101490000B4578008C4578000046780026FD070053
:1014A0002F00B100CF0678004F067800CF057800F6
:0814B0004F0578000000060062
:100938000A00FA008A1F78008B1F78008C1F780045
:10094800CEB99700E400470040F22C0001000900EE
:10095800B0187800B05878008C80FB000A80FB0043
:10096800008150008D80FB000B80FB000080500050
:100978000010B80000079800620047006688410030
:1009880000C6B3000054E10004003E0000C6B300F6
:100998000064E10001003E00010037005600370006
:1009A80000C6B300005CE10004003E0000C6B300CE
:1009B800006CE10001003E00010037004E003700E6
:1009C8000A64E100030039000B6CE1000100390002
:1009D8000100370048003700508320007048450068
:1009E8000C80FB00F00040006083200061C85000CC
:1009F800708320000B4878008D80FB0080832000E6
:100A080061C850002C0020005B8320005AC1B3004D
:100A1800A7FF07002C0020007B8320005AC7B300E3
:100A2800A3FF07001420EF005042800000000100DF
:100A38001420EF00304280000000010066004700EB
:100A48001B0020000005780097FE07001AC0B300BD
:100A580030428000000001000E0190008E009000DE
:100A680060004700618850000400E2001B0032006B
:100A78002E009000E1004000620047009080400096
:100A880011407800704798009E009000640047006D
:100A98009080400011407800004F980067004700A0
:100AA8008C9FBE008A9FBE001B00200000057800B6
:100AB8007DFE0700680047001B0020000005780045
:100AC80079FE07004F05BE004F06BE00AE0090003D
:100AD8006400470062884000DFFF37008C9FBE003B
:100AE8008A9FBE001AC0B300504280000000010077
:100AF8004F05BE004F06BE004F067800CF057800B0
:0C0B08004F0578000080FA000000060095
:101AD4000180200050E92C003D000900B058780036
:041AE40000000600F8
:020000040001F9
:10000000001000006000000060000000FFFF000022
:10001000FFFF0000FFFF0000FFFF0000FFFF0000E8
:10002000FFFF0000FFFF0000FFFF0000FFFF0000D8
:10003000FFFF0000FFFF0000FFFF0000FFFF0000C8
:10004000FFFF0000FFFF0000FFFF0000FFFF0000B8
:101870005DFF00003CFF00003CFF00003CFF00005B
:101880003CFF00003CFF00003CFF00003CFF00006C
:101890003CFF00003CFF00003CFF00003CFF00005C
:1018A0003CFF00003CFF00003CFF00003CFF00004C
:1018B0003CFF00003CFF00003CFF00003CFF00003C
:1018C0003CFF00003CFF00003CFF00003CFF00002C
:1018D0003CFF00003CFF00003CFF00003CFF00001C
:1018E0003CFF00003CFF00003CFF00003CFF00000C
:1018F0003CFF00003CFF00003CFF00003CFF0000FC
:101900003CFF00003CFF00003CFF00003CFF0000EB
:101910003CFF00003CFF00003CFF00003CFF0000DB
:101920005DFF0000FFFF0000FFFF0000FFFF000061
:10193000FFFF0000FFFF0000FFFF0000FFFF0000AF
:10194000FFFF0000FFFF0000FFFF0000FFFF00009F
:10195000FFFF0000FFFF0000FFFF0000FFFF00008F
:10196000FFFF0000FFFF0000FFFF0000FFFF00007F
:10197000FFFF0000FFFF0000FFFF0000FFFF00006F
:10198000FFFF0000FFFF0000FFFF0000FFFF00005F
:10199000FFFF0000FFFF0000FFFF0000FFFF00004F
:1019A000FFFF0000FFFF0000FFFF0000FFFF00003F
:1019B000FFFF0000FFFF0000FFFF0000FFFF00002F
:1019C000FFFF0000FFFF0000FFFF0000FFFF00001F
:1019D000FFFF0000FFFF0000FFFF0000FFFF00000F
:1019E000FFFF0000FFFF000079FE0000D3F40000BD
:1019F000EFF30000CFF30000CFF30000CFF30000BF
:101A0000CFF30000CFF30000CFF30000CFF30000CE
:101A1000CFF30000CFF30000CFF30000CFF30000BE
:101A2000CFF30000CFF30000CFF30000CFF30000AE
:101A3000CFF30000CFF30000CFF30000CFF300009E
:101A4000CFF30000CFF30000CFF30000CFF300008E
:101A5000CFF30000CFF30000CFF30000CFF300007E
:101A6000CFF30000CFF30000CFF30000CFF300006E
:101A7000CFF30000CFF30000CFF30000CFF300005E
:101A8000CFF30000CFF30000CFF30000CFF300004E
:101A9000CFF30000CFF30000CFF30000CFF300003E
:101AA000EFF30000D3F40000BAFE0000FFFF0000D7
:101AB000FFFF0000FFFF0000FFFF0000FFFF00002E
:101AC000FFFF0000FFFF0000FFFF0000FFFF00001E
:101AD000FFFF0000FFFF0000FFFF0000FFFF00000E
:101AE000FFFF0000FFFF0000FFFF0000FFFF0000FE
:101AF000FFFF0000FFFF0000FFFF0000FFFF0000EE
:101B0000FFFF0000FFFF0000FFFF0000FFFF0000DD
:101B1000FFFF0000FFFF0000FFFF0000FFFF0000CD
:101B2000FFFF0000FFFF0000FFFF0000FFFF0000BD
:101B3000FFFF0000FFFF0000FFFF0000FFFF0000AD
:101B4000FFFF0000FFFF0000FFFF0000FFFF00009D
:101B5000FFFF0000FFFF0000FFFF0000FFFF00008D
:101B6000FFFF00009AFE0000CBF20000E7E9000052
:101B7000CBEA0000CBEA0000CBEA0000CBEA000091
:101B8000CBEA0000CBEA0000CBEA0000CBEA000081
:101B9000CBEA0000CBEA0000CBEA0000CBEA000071
:101BA000CBEA0000CBEA0000CBEA0000CBEA000061
:101BB000CBEA0000CBEA0000CBEA0000CBEA000051
:101BC000CBEA0000CBEA0000CBEA0000CBEA000041
:101BD000CBEA0000CBEA0000CBEA0000CBEA000031
:101BE000CBEA0000CBEA0000CBEA0000CBEA000021
:101BF000CBEA0000CBEA0000CBEA0000CBEA000011
:101C0000CBEA0000CBEA0000CBEA0000CBEA000000
:101C1000CBEA0000CBEA0000CBEA0000CBEA0000F0
:101C2000CBEA0000E7E900000CF3000059FE0000D9
:101C3000FFFF0000FFFF0000FFFF0000FFFF0000AC
:101C4000FFFF0000FFFF0000FFFF0000FFFF00009C
:101C5000FFFF0000FFFF0000FFFF0000FFFF00008C
:101C6000FFFF0000FFFF0000FFFF0000FFFF00007C
:101C7000FFFF0000FFFF0000FFFF0000FFFF00006C
:101C8000FFFF0000FFFF0000FFFF0000FFFF00005C
:101C9000FFFF0000FFFF0000FFFF0000FFFF00004C
:101CA000FFFF0000FFFF0000FFFF0000FFFF00003C
:101CB000FFFF0000FFFF0000FFFF0000FFFF00002C
:101CC000FFFF0000FFFF0000FFFF0000FFFF00001C
:101CD000FFFF0000FFFF0000FFFF0000FFFF00000C
:101CE000DFFF0000CBF20000A6E90000F7FD0000D6
:101CF0005DFF0000FCFE00001CFF00001CFF000058
:101D00001CFF00001CFF00001CFF00001CFF000067
:101D10001CFF00001CFF00001CFF00001CFF000057
:101D20001CFF00001CFF00001CFF00001CFF000047
:101D30001CFF00001CFF00001CFF00001CFF000037
:101D40001CFF00001CFF00001CFF00001CFF000027
:101D50001CFF00001CFF00001CFF00001CFF000017
:101D60001CFF00001CFF00001CFF00001CFF000007
:101D70001CFF00001CFF00001CFF00001CFF0000F7
:101D80001CFF00001CFF00001CFF00001CFF0000E7
:101D90001CFF00001CFF00001CFF0000FBFE0000F9
:101DA0005DFF000018FE000086E900006AF20000F6
:101DB000FFFF0000FFFF0000FFFF0000FFFF00002B
:101DC000FFFF0000FFFF0000FFFF0000FFFF00001B
:101DD000FFFF0000FFFF0000FFFF0000FFFF00000B
:101DE000FFFF0000FFFF0000FFFF0000FFFF0000FB
:101DF000FFFF0000FFFF0000FFFF0000FFFF0000EB
:101E0000FFFF0000FFFF0000FFFF0000FFFF0000DA
:101E1000FFFF0000FFFF0000FFFF0000FFFF0000CA
:101E2000FFFF0000FFFF0000FFFF0000FFFF0000BA
:101E3000FFFF0000FFFF0000FFFF0000FFFF0000AA
:101E4000FFFF0000FFFF0000FFFF0000FFFF00009A
:101E5000FFFF0000FFFF0000FFFF0000FFFF00008A
:101E6000FBFE000021E8000018FE0000FBFE000061
:101E7000B2F40000AFF30000EFF30000F0F3000055
:101E8000EFF30000EFF30000EFF30000EFF30000CA
:101E9000EFF30000EFF30000EFF30000F0F30000B9
:101EA000F0F30000F0F30000F0F30000F0F30000A6
:101EB000F0F30000F0F30000F0F30000F0F3000096
:101EC000F0F30000F0F30000F0F30000EFF3000087
:101ED000EFF30000EFF30000F0F30000F0F3000078
:101EE000EFF30000EFF30000EFF30000EFF300006A
:101EF000F0F30000F0F30000F0F30000F0F3000056
:101F0000F0F30000F0F30000F0F30000F0F3000045
:101F1000F0F30000F0F30000EFF30000AFF3000077
:101F2000B2F40000FCFE0000D7FD000041E8000014
:101F30003CFF0000FFFF0000FFFF0000FFFF00006C
:101F4000FFFF0000FFFF0000FFFF0000FFFF000099
:101F5000FFFF0000FFFF0000FFFF0000FFFF000089
:101F6000FFFF0000FFFF0000FFFF0000FFFF000079
:101F7000FFFF0000FFFF0000FFFF0000FFFF000069
:101F8000FFFF0000FFFF0000FFFF0000FFFF000059
:101F9000FFFF0000FFFF0000FFFF0000FFFF000049
:101FA000FFFF0000FFFF0000FFFF0000FFFF000039
:101FB000FFFF0000FFFF0000FFFF0000FFFF000029
:101FC000FFFF0000FFFF0000FFFF0000FFFF000019
:101FD000FFFF0000FFFF0000FFFF0000FFFF000009
:101FE000F4F4000082E80000FFFF00006EF3000040
:101FF00020E8000021E8000021E8000000E80000DF
:1020000020E8000041E8000041E8000021E800006D
:1020100021E8000020E8000020E8000000E80000BF
:1020200021E8000021E8000021E8000021E800008C
:1020300021E8000021E8000021E8000021E800007C
:1020400021E8000021E8000000E8000020E800008E
:1020500041E8000061E8000062E8000082E800005A
:1020600062E8000061E8000041E8000020E80000AC
:1020700000E8000021E8000021E8000021E800005D
:1020800021E8000021E8000021E8000021E800002C
:1020900021E8000021E8000021E8000021E800001C
:1020A00020E800008EF30000FFFF000025E900009B
:1020B00092F40000FFFF0000FFFF0000FFFF0000A0
:1020C000FFFF0000FFFF0000FFFF0000FFFF000018
:1020D000FFFF0000FFFF0000FFFF0000FFFF000008
:1020E000FFFF0000FFFF0000FFFF0000FFFF0000F8
:1020F000FFFF0000FFFF0000FFFF0000FFFF0000E8
:10210000FFFF0000FFFF0000FFFF0000FFFF0000D7
:10211000FFFF0000FFFF0000FFFF0000FFFF0000C7
:10212000FFFF0000FFFF0000FFFF0000FFFF0000B7
:10213000FFFF0000FFFF0000FFFF0000FFFF0000A7
:10214000FFFF0000FFFF0000FFFF0000FFFF000097
:10215000FFFF0000FFFF0000FFFF0000FFFF000087
:1021600031F4000086E90000FFFF000029F20000C2
:1021700062E80000E4E80000A3E80000C3E8000013
:1021800086E90000C8E90000C7E90000A7E90000EF
:10219000A7E9000086E9000045E90000E3E8000047
:1021A00083E80000C4E80000E4E80000E4E8000080
:1021B000E4E80000E4E80000E4E80000C3E8000010
:1021C000A3E8000083E80000C3E8000045E9000040
:1021D00029EA0000ABF20000ECF200000CF3000072
:1021E000ECF200008AF2000008EA000045E9000075
:1021F000C3E8000083E80000A3E80000C3E8000093
:10220000E4E80000E4E80000E4E80000E4E800009E
:10221000E4E80000E4E80000E4E80000E4E800008E
:1022200062E8000009F20000FFFF0000C8E90000BA
:1022300010F40000FFFF0000FFFF0000FFFF0000A0
:10224000FFFF0000FFFF0000FFFF0000FFFF000096
:10225000FFFF0000FFFF0000FFFF0000FFFF000086
:10226000FFFF0000FFFF0000FFFF0000FFFF000076
:10227000FFFF0000FFFF0000FFFF0000FFFF000066
:10228000FFFF0000FFFF0000FFFF0000FFFF000056
:10229000FFFF0000FFFF0000FFFF0000FFFF000046
:1022A000FFFF0000FFFF0000FFFF0000FFFF000036
:1022B000FFFF0000FFFF0000FFFF0000FFFF000026
:1022C000FFFF0000FFFF0000FFFF0000FFFF000016
:1022D000FFFF0000FFFF0000FFFF0000FFFF000006
:1022E00051F4000066E90000FFFF00006AF2000000
:1022F00062E8000082E8000004E90000D7F5000071
:10230000BEFF0000BEFF00009EFF00009EFF000019
:102310007EFF00007DFF00005DFF0000BAFE0000B0
:102320006AEA000062E80000C4E80000E4E8000097
:10233000E4E80000E4E80000A3E8000061E8000031
:10234000A3E80000ECF2000018FE00005DFF0000B2
:10235000FFFF0000FFFF0000FFFF0000FFFF000085
:10236000FFFF0000FFFF0000DFFF00005DFF000037
:10237000D7F50000ECF20000A3E8000062E80000DE
:10238000A3E80000E4E80000E4E80000E4E800005E
:10239000E4E80000E4E80000E4E80000E4E800000D
:1023A00062E800004AEA0000FFFF0000C7E9000001
:1023B00030F40000FFFF0000FFFF0000FFFF0000FF
:1023C000FFFF0000FFFF0000FFFF0000FFFF000015
:1023D000FFFF0000FFFF0000FFFF0000FFFF000005
:1023E000FFFF0000FFFF0000FFFF0000FFFF0000F5
:1023F000FFFF0000FFFF0000FFFF0000FFFF0000E5
:10240000FFFF0000FFFF0000FFFF0000FFFF0000D4
:10241000FFFF0000FFFF0000FFFF0000FFFF0000C4
:10242000FFFF0000FFFF0000FFFF0000FFFF0000B4
:10243000FFFF0000FFFF0000FFFF0000FFFF0000A4
:10244000FFFF0000FFFF0000FFFF0000FFFF000094
:10245000FFFF0000FFFF0000FFFF0000FFFF000084
:1024600051F4000066E90000FFFF00006AF200007E
:1024700021E80000A3E80000DBFE0000FFFF0000F1
:10248000FFFF0000FFFF0000FFFF0000FFFF000054
:10249000FFFF0000FFFF0000FFFF0000FFFF000044
:1024A000FFFF000029F2000062E80000E4E80000FD
:1024B000E4E8000042E8000021E80000B3F4000076
:1024C000DFFF0000FFFF0000FFFF0000FFFF000034
:1024D000FFFF0000FFFF0000FFFF0000FFFF000004
:1024E000FFFF0000FFFF0000FFFF0000FFFF0000F4
:1024F000FFFF0000FFFF0000DFFF000092F400007C
:1025000021E8000041E80000E4E80000E4E8000001
:10251000E4E80000E4E80000E4E80000E4E800008B
:1025200062E800006AF20000FFFF0000C7E9000057
:1025300031F40000FFFF0000FFFF0000FFFF00007C
:10254000FFFF0000FFFF0000FFFF0000FFFF000093
:10255000FFFF0000FFFF0000FFFF0000FFFF000083
:10256000FFFF0000FFFF0000FFFF0000FFFF000073
:10257000FFFF0000FFFF0000FFFF0000FFFF000063
:10258000FFFF0000FFFF0000FFFF0000FFFF000053
:10259000FFFF0000FFFF0000FFFF0000FFFF000043
:1025A000FFFF0000FFFF0000FFFF0000FFFF000033
:1025B000FFFF0000FFFF0000FFFF0000FFFF000023
:1025C000FFFF0000FFFF0000FFFF0000FFFF000013
:1025D000FFFF0000FFFF0000FFFF0000FFFF000003
:1025E00051F4000066E90000FFFF00006AF20000FD
:1025F00000E800008EF30000FFFF0000FFFF000076
:10260000FFFF0000FFFF0000FFFF0000FFFF0000D2
:10261000FFFF0000FFFF0000FFFF0000FFFF0000C2
:10262000FFFF000075F50000C4E80000C4E80000EA
:1026300000E80000C7E90000DFFF0000FFFF000026
:10264000FFFF0000FFFF0000FFFF0000FFFF000092
:10265000FFFF0000FFFF0000FFFF0000FFFF000082
:10266000FFFF0000FFFF0000FFFF0000FFFF000072
:10267000FFFF0000FFFF0000FFFF0000FFFF000062
:10268000DFFF000008EA000000E80000E4E80000C6
:10269000E4E80000E4E80000E4E80000E4E800000A
:1026A00062E800006AF20000FFFF0000C7E90000D6
:1026B00031F40000FFFF0000FFFF0000FFFF0000FB
:1026C000FFFF0000FFFF0000FFFF0000FFFF000012
:1026D000FFFF0000FFFF0000FFFF0000FFFF000002
:1026E000FFFF0000FFFF0000FFFF0000FFFF0000F2
:1026F000FFFF0000FFFF0000FFFF0000FFFF0000E2
:10270000FFFF0000FFFF0000FFFF0000FFFF0000D1
:10271000FFFF0000FFFF0000FFFF0000FFFF0000C1
:10272000FFFF0000FFFF0000FFFF0000FFFF0000B1
:10273000FFFF0000FFFF0000FFFF0000FFFF0000A1
:10274000FFFF0000FFFF0000FFFF0000FFFF000091
:10275000FFFF0000FFFF0000FFFF0000FFFF000081
:1027600051F4000066E90000FFFF000049EA0000A4
:1027700001E80000B3F40000FFFF0000FFFF0000CD
:10278000FFFF0000FFFF0000FFFF0000FFFF000051
:10279000FFFF0000FFFF0000FFFF0000FFFF000041
:1027A000FFFF0000DBFE000046E9000000E800003B
:1027B000A7E90000BEFF0000FFFF0000FFFF0000D0
:1027C000FFFF0000FFFF0000FFFF0000FFFF000011
:1027D000FFFF0000FFFF0000FFFF0000FFFF000001
:1027E000FFFF0000FFFF0000FFFF0000FFFF0000F1
:1027F000FFFF0000FFFF0000FFFF0000FFFF0000E1
:10280000FFFF0000BEFF000009EA000000E8000032
:10281000E4E80000E4E80000E4E80000E4E8000088
:1028200062E800006AF20000FFFF0000C7E9000054
:1028300031F40000FFFF0000FFFF0000FFFF000079
:10284000FFFF0000FFFF0000FFFF0000FFFF000090
:10285000FFFF0000FFFF0000FFFF0000FFFF000080
:10286000FFFF0000FFFF0000FFFF0000FFFF000070
:10287000FFFF0000FFFF0000FFFF0000FFFF000060
:10288000FFFF0000FFFF0000FFFF0000FFFF000050
:10289000FFFF0000FFFF0000FFFF0000FFFF000040
:1028A000FFFF0000FFFF0000FFFF0000FFFF000030
:1028B000FFFF0000FFFF0000FFFF0000FFFF000020
:1028C000FFFF0000FFFF0000FFFF0000FFFF000010
:1028D000FFFF0000FFFF0000FFFF0000FFFF000000
:1028E00051F4000066E90000FFFF000049F200001B
:1028F00021E8000014F50000FFFF00008EF3000047
:10290000E3E80000E3E80000E3E80000E3E800009B
:10291000E3E80000E3E80000E3E0000009EA00006B
:10292000FFFF00007DFF0000A3E80000C3E80000F7
:102930005DFF0000FFFF0000FFFF0000FFFF000041
:10294000FFFF0000FFFF0000FFFF0000FFFF00008F
:10295000FFFF0000FFFF0000FFFF0000FFFF00007F
:10296000FFFF0000FFFF0000FFFF0000FFFF00006F
:10297000FFFF0000FFFF0000FFFF0000FFFF00005F
:10298000FFFF0000FFFF00005DFF00006AF2000093
:1029900020E80000E4E80000E4E80000E4E80000CB
:1029A00062E800006AF20000FFFF0000C7E90000D3
:1029B00031F40000FFFF0000FFFF0000FFFF0000F8
:1029C000FFFF0000FFFF0000FFFF0000FFFF00000F
:1029D000FFFF0000FFFF0000FFFF0000FFFF0000FF
:1029E000FFFF0000FFFF0000FFFF0000FFFF0000EF
:1029F000FFFF0000FFFF0000FFFF0000FFFF0000DF
:102A0000FFFF0000FFFF0000FFFF0000FFFF0000CE
:102A1000FFFF0000FFFF0000FFFF0000FFFF0000BE
:102A2000FFFF0000FFFF0000FFFF0000FFFF0000AE
:102A3000FFFF0000FFFF0000FFFF0000FFFF00009E
:102A4000FFFF0000FFFF0000FFFF0000FFFF00008E
:102A5000FFFF0000FFFF0000FFFF0000FFFF00007E
:102A600051F4000066E90000FFFF000049EA0000A1
:102A700021E80000F4F40000FFFF00003CFF00002C
:102A8000BAFE0000BAFE0000BAFE0000BAFE000066
:102A9000BAFE0000BAFE0000BAFE0000FBFE000015
:102AA000FFFF0000F0F3000021E8000059FE0000E5
:102AB000FFFF0000FFFF0000FFFF0000FFFF00001E
:102AC000FFFF0000FFFF0000FFFF0000FFFF00000E
:102AD000FFFF0000FFFF0000FFFF0000FFFF0000FE
:102AE000FFFF0000FFFF0000FFFF0000FFFF0000EE
:102AF000FFFF0000FFFF0000FFFF0000FFFF0000DE
:102B0000FFFF0000FFFF0000FFFF00001CFF0000B0
:102B100004E9000082E80000E4E80000E4E80000C6
:102B200062E800006AF20000FFFF0000C7E9000051
:102B300031F40000FFFF0000FFFF0000FFFF000076
:102B4000FFFF0000FFFF0000FFFF0000FFFF00008D
:102B5000FFFF0000FFFF0000FFFF0000FFFF00007D
:102B6000FFFF0000FFFF0000FFFF0000FFFF00006D
:102B7000FFFF0000FFFF0000FFFF0000FFFF00005D
:102B8000FFFF0000FFFF0000FFFF0000FFFF00004D
:102B9000FFFF0000FFFF0000FFFF0000FFFF00003D
:102BA000FFFF0000FFFF0000FFFF0000FFFF00002D
:102BB000FFFF0000FFFF0000FFFF0000FFFF00001D
:102BC000FFFF0000FFFF0000FFFF0000FFFF00000D
:102BD000FFFF0000FFFF0000FFFF0000FFFF0000FD
:102BE00051F4000066E90000FFFF00006AF20000F7
:102BF00000E8000051F40000FFFF0000FFFF0000AC
:102C0000FFFF0000FFFF0000FFFF0000FFFF0000CC
:102C1000FFFF0000FFFF0000FFFF0000FFFF0000BC
:102C20007DFF0000E4E800000CF30000DFFF00007F
:102C3000FFFF0000FFFF0000FFFF0000FFFF00009C
:102C4000FFFF0000FFFF0000FFFF0000FFFF00008C
:102C5000FFFF0000FFFF0000FFFF0000FFFF00007C
:102C6000FFFF0000FFFF0000FFFF0000FFFF00006C
:102C7000FFFF0000FFFF0000FFFF0000FFFF00005C
:102C8000FFFF0000FFFF0000FFFF0000FFFF00004C
:102C900034F5000020E80000E4E80000E4E800006B
:102CA00062E800006AF20000FFFF0000C7E90000D0
:102CB00031F40000FFFF0000FFFF0000FFFF0000F5
:102CC000FFFF0000FFFF0000FFFF0000FFFF00000C
:102CD000FFFF0000FFFF0000FFFF0000FFFF0000FC
:102CE000FFFF0000FFFF0000FFFF0000FFFF0000EC
:102CF000FFFF0000FFFF0000FFFF0000FFFF0000DC
:102D0000FFFF0000FFFF0000FFFF0000FFFF0000CB
:102D1000FFFF0000FFFF0000FFFF0000FFFF0000BB
:102D2000FFFF0000FFFF0000FFFF0000FFFF0000AB
:102D3000FFFF0000FFFF0000FFFF0000FFFF00009B
:102D4000FFFF0000FFFF0000FFFF0000FFFF00008B
:102D5000FFFF0000FFFF0000FFFF0000FFFF00007B
:102D600051F4000066E90000FFFF00006AF2000075
:102D700000E80000C8E900005DFF0000FFFF000060
:102D8000FFFF0000FFFF0000FFFF0000FFFF00004B
:102D9000FFFF0000FFFF0000FFFF0000FFFF00003B
:102DA00034F5000021E8000059FE0000FFFF00009C
:102DB000FFFF0000FFFF0000FFFF0000FFFF00001B
:102DC000FFFF0000FFFF0000FFFF0000FFFF00000B
:102DD000FFFF0000FFFF0000FFFF000059FE0000A2
:102DE0003CFF0000FFFF0000FFFF0000FFFF0000AE
:102DF000FFFF0000FFFF0000FFFF0000FFFF0000DB
:102E0000FFFF0000FFFF0000FFFF0000FFFF0000CA
:102E10007EFF0000C7E9000062E80000E4E800006F
:102E200062E800006AF20000FFFF0000C7E900004E
:102E300031F40000FFFF0000FFFF0000FFFF000073
:102E4000FFFF0000FFFF0000FFFF0000FFFF00008A
:102E5000FFFF0000FFFF0000FFFF0000FFFF00007A
:102E6000FFFF0000FFFF0000FFFF0000FFFF00006A
:102E7000FFFF0000FFFF0000FFFF0000FFFF00005A
:102E8000FFFF0000FFFF0000FFFF0000FFFF00004A
:102E9000FFFF0000FFFF0000FFFF0000FFFF00003A
:102EA000FFFF0000FFFF0000FFFF0000FFFF00002A
:102EB000FFFF0000FFFF0000FFFF0000FFFF00001A
:102EC000FFFF0000FFFF0000FFFF0000FFFF00000A
:102ED000FFFF0000FFFF0000FFFF0000FFFF0000FA
:102EE00051F4000066E90000FFFF00006AF20000F4
:102EF00042E8000082E800000CF30000FBFE000046
:102F0000FFFF0000FFFF0000FFFF0000FFFF0000C9
:102F1000FFFF0000FFFF0000FFFF0000BEFF0000FA
:102F20000CF3000066E900009EFF0000FFFF0000B8
:102F3000FFFF0000FFFF0000FFFF0000FFFF000099
:102F4000FFFF0000FFFF0000FFFF0000FFFF000089
:102F5000FFFF0000FFFF000051F40000E7E9000060
:102F60004AF20000BAFE0000FFFF0000FFFF000071
:102F7000FFFF0000FFFF0000FFFF0000FFFF000059
:102F8000FFFF0000FFFF0000FFFF0000FFFF000049
:102F9000FFFF000010F4000042E80000C4E8000059
:102FA00062E800006AF20000FFFF0000C7E90000CD
:102FB00031F40000FFFF0000FFFF0000FFFF0000F2
:102FC000FFFF0000FFFF0000FFFF0000FFFF000009
:102FD000FFFF0000FFFF0000FFFF0000FFFF0000F9
:102FE000FFFF0000FFFF0000FFFF0000FFFF0000E9
:102FF000FFFF0000FFFF0000FFFF0000FFFF0000D9
:10300000FFFF0000FFFF0000FFFF0000FFFF0000C8
:10301000FFFF0000FFFF0000FFFF0000FFFF0000B8
:10302000FFFF0000FFFF0000FFFF0000FFFF0000A8
:10303000FFFF0000FFFF0000FFFF0000FFFF000098
:10304000FFFF0000FFFF0000FFFF0000FFFF000088
:10305000FFFF0000FFFF0000FFFF0000FFFF000078
:1030600051F4000066E90000FFFF00006AF2000072
:1030700062E80000A3E80000A3E800008AEA00007C
:103080004DF30000AFF30000CFF30000AFF30000FA
:10309000AFF300008EF300002DF30000EBF2000010
:1030A000E3E800006EF30000DFFF0000FFFF000018
:1030B000FFFF0000FFFF0000FFFF0000FFFF000018
:1030C000FFFF0000FFFF0000FFFF0000FFFF000008
:1030D000FFFF0000DFFF000066E9000041E800009C
:1030E00041E8000051F40000FFFF0000FFFF000076
:1030F000FFFF0000FFFF0000FFFF0000FFFF0000D8
:10310000FFFF0000FFFF0000FFFF0000FFFF0000C7
:10311000FFFF0000B6FD000082E80000C3E80000E9
:1031200062E800006AF20000FFFF0000C7E900004B
:1031300031F40000FFFF0000FFFF0000FFFF000070
:10314000FFFF0000FFFF0000FFFF0000FFFF000087
:10315000FFFF0000FFFF0000FFFF0000FFFF000077
:10316000FFFF0000FFFF0000FFFF0000FFFF000067
:10317000FFFF0000FFFF0000FFFF0000FFFF000057
:10318000FFFF0000FFFF0000FFFF0000FFFF000047
:10319000FFFF0000FFFF0000FFFF0000FFFF000037
:1031A000FFFF0000FFFF0000FFFF0000FFFF000027
:1031B000FFFF0000FFFF0000FFFF0000FFFF000017
:1031C000FFFF0000FFFF0000FFFF0000FFFF000007
:1031D000FFFF0000FFFF0000FFFF0000FFFF0000F7
:1031E00051F4000066E90000FFFF00004AF2000011
:1031F00021E800008EF3000092F4000092F4000039
:10320000B3F400000CF3000082E80000C4E8000002
:10321000C3E80000A3E8000083E8000062E80000C3
:1032200021E8000014F50000FFFF0000FFFF000090
:10323000FFFF0000FFFF0000FFFF0000FFFF000096
:10324000FFFF0000FFFF0000FFFF0000FFFF000086
:10325000FFFF0000BEFF000083E8000083E80000DD
:1032600062E80000CBF20000FFFF0000FFFF00005B
:10327000FFFF0000FFFF0000FFFF0000FFFF000056
:10328000FFFF0000FFFF0000FFFF0000FFFF000046
:10329000FFFF0000DBFE000045E9000083E80000BE
:1032A00062E800006AF20000FFFF0000C7E90000CA
:1032B00031F40000FFFF0000FFFF0000FFFF0000EF
:1032C000FFFF0000FFFF0000FFFF0000FFFF000006
:1032D000FFFF0000FFFF0000FFFF0000FFFF0000F6
:1032E000FFFF0000FFFF0000FFFF0000FFFF0000E6
:1032F000FFFF0000FFFF0000FFFF0000FFFF0000D6
:10330000FFFF0000FFFF0000FFFF0000FFFF0000C5
:10331000FFFF0000FFFF0000FFFF0000FFFF0000B5
:10332000FFFF0000FFFF0000FFFF0000FFFF0000A5
:10333000FFFF0000FFFF0000FFFF0000FFFF000095
:10334000FFFF0000FFFF0000FFFF0000FFFF000085
:10335000FFFF0000FFFF0000FFFF0000FFFF000075
:1033600051F4000066E90000FFFF00006AF200006F
:1033700000E800000CF30000FCFE0000FFFF00006E
:10338000FFFF0000F7FD000000E8000062E8000019
:1033900062E8000062E8000062E8000083E80000E4
:1033A00041E8000038FE0000FFFF0000FFFF0000C2
:1033B000FFFF0000FFFF0000FFFF0000FFFF000015
:1033C000FFFF0000FFFF0000FFFF0000FFFF000005
:1033D000FFFF00007DFF000062E80000A3E800009E
:1033E00062E8000029EA0000FFFF0000FFFF000084
:1033F000FFFF0000FFFF0000FFFF0000FFFF0000D5
:10340000FFFF0000FFFF0000FFFF0000FFFF0000C4
:10341000FFFF00007DFF00004AF2000062E80000AC
:1034200062E800006AF20000FFFF0000C7E9000048
:1034300031F40000FFFF0000FFFF0000FFFF00006D
:10344000FFFF0000FFFF0000FFFF0000FFFF000084
:10345000FFFF0000FFFF0000FFFF0000FFFF000074
:10346000FFFF0000FFFF0000FFFF0000FFFF000064
:10347000FFFF0000FFFF0000FFFF0000FFFF000054
:10348000FFFF0000FFFF0000FFFF0000FFFF000044
:10349000FFFF0000FFFF0000FFFF0000FFFF000034
:1034A000FFFF0000FFFF0000FFFF0000FFFF000024
:1034B000FFFF0000FFFF0000FFFF0000FFFF000014
:1034C000FFFF0000FFFF0000FFFF0000FFFF000004
:1034D000FFFF0000FFFF0000FFFF0000FFFF0000F4
:1034E00051F4000066E90000FFFF00006AF20000EE
:1034F00001E80000C7E9000038FE0000FFFF0000FF
:10350000FFFF00009EFF00008EF300004DF300005F
:103510004DF300004DF30000AFF3000029F200006E
:1035200082E80000BBFE0000FFFF0000FFFF00007C
:10353000FFFF0000FFFF0000FFFF0000FFFF000093
:10354000FFFF0000FFFF0000FFFF0000FFFF000083
:10355000FFFF00003CFF000062E80000A3E800005D
:1035600082E80000E8E90000FFFF0000FFFF000024
:10357000FFFF0000FFFF0000FFFF0000FFFF000053
:10358000FFFF0000FFFF0000FFFF0000FFFF000043
:10359000FFFF0000DFFF00002DF3000021E8000026
:1035A00062E800006AF20000FFFF0000C7E90000C7
:1035B00031F40000FFFF0000FFFF0000FFFF0000EC
:1035C000FFFF0000FFFF0000FFFF0000FFFF000003
:1035D000FFFF0000FFFF0000FFFF0000FFFF0000F3
:1035E000FFFF0000FFFF0000FFFF0000FFFF0000E3
:1035F000FFFF0000FFFF0000FFFF0000FFFF0000D3
:10360000FFFF0000FFFF0000FFFF0000FFFF0000C2
:10361000FFFF0000FFFF0000FFFF0000FFFF0000B2
:10362000FFFF0000FFFF0000FFFF0000FFFF0000A2
:10363000FFFF0000FFFF0000FFFF0000FFFF000092
:10364000FFFF0000FFFF0000FFFF0000FFFF000082
:10365000FFFF0000FFFF0000FFFF0000FFFF000072
:1036600051F4000066E90000FFFF00006AF200006C
:1036700000E800006EF30000FBFE0000FFFF00000A
:10368000FFFF0000FFFF0000BEFF00003CFF000046
:103690003CFF00003CFF0000BEFF000071F4000092
:1036A000C3E80000FBFE0000FFFF0000FFFF00007A
:1036B000FFFF0000FFFF0000FFFF0000FFFF000012
:1036C000FFFF0000FFFF0000FFFF0000FFFF000002
:1036D000FFFF00001CFF000062E80000C3E80000DC
:1036E00082E80000C7E90000FFFF0000FFFF0000C4
:1036F000FFFF0000FFFF0000FFFF0000FFFF0000D2
:10370000FFFF0000FFFF0000FFFF0000FFFF0000C1
:10371000FFFF0000FFFF0000CFF3000021E80000E2
:1037200062E800006AF20000FFFF0000C7E9000045
:1037300031F40000FFFF0000FFFF0000FFFF00006A
:10374000FFFF0000FFFF0000FFFF0000FFFF000081
:10375000FFFF0000FFFF0000FFFF0000FFFF000071
:10376000FFFF0000FFFF0000FFFF0000FFFF000061
:10377000FFFF0000FFFF0000FFFF0000FFFF000051
:10378000FFFF0000FFFF0000FFFF0000FFFF000041
:10379000FFFF0000FFFF0000FFFF0000FFFF000031
:1037A000FFFF0000FFFF0000FFFF0000FFFF000021
:1037B000FFFF0000FFFF0000FFFF0000FFFF000011
:1037C000FFFF0000FFFF0000FFFF0000FFFF000001
:1037D000FFFF0000FFFF0000FFFF0000FFFF0000F1
:1037E00051F4000066E90000FFFF00006AF20000EB
:1037F00000E8000031F40000FFFF0000FFFF0000C0
:10380000FFFF0000FFFF0000FFFF0000FFFF0000C0
:10381000FFFF0000FFFF0000FFFF000072F4000048
:1038200005E900001CFF0000FFFF0000FFFF000093
:10383000FFFF0000FFFF0000FFFF0000FFFF000090
:10384000FFFF0000FFFF0000FFFF0000FFFF000080
:10385000FFFF00001CFF000062E80000C3E800005A
:1038600082E80000C7E90000FFFF0000FFFF000042
:10387000FFFF0000FFFF0000FFFF0000FFFF000050
:10388000FFFF0000FFFF0000FFFF0000FFFF000040
:10389000FFFF0000FFFF000092F4000021E800009D
:1038A00062E800006AF20000FFFF0000C7E90000C4
:1038B00031F40000FFFF0000FFFF0000FFFF0000E9
:1038C000FFFF0000FFFF0000FFFF0000FFFF000000
:1038D000FFFF0000FFFF0000FFFF0000FFFF0000F0
:1038E000FFFF0000FFFF0000FFFF0000FFFF0000E0
:1038F000FFFF0000FFFF0000FFFF0000FFFF0000D0
:10390000FFFF0000FFFF0000FFFF0000FFFF0000BF
:10391000FFFF0000FFFF0000FFFF0000FFFF0000AF
:10392000FFFF0000FFFF0000FFFF0000FFFF00009F
:10393000FFFF0000FFFF0000FFFF0000FFFF00008F
:10394000FFFF0000FFFF0000FFFF0000FFFF00007F
:10395000FFFF0000FFFF0000FFFF0000FFFF00006F
:1039600051F4000066E90000FFFF00006AF2000069
:1039700000E8000031F40000FFFF0000FFFF00003E
:10398000FFFF0000FFFF0000FFFF0000FFFF00003F
:10399000FFFF0000FFFF0000FFFF000031F4000008
:1039A00066E900003CFF0000FFFF0000FFFF000091
:1039B000FFFF0000FFFF0000FFFF0000FFFF00000F
:1039C000FFFF0000FFFF0000FFFF0000FFFF0000FF
:1039D000FFFF00001CFF000041E8000082E800003B
:1039E00062E8000086E90000FFFF0000FFFF000022
:1039F000FFFF0000FFFF0000FFFF0000FFFF0000CF
:103A0000FFFF0000FFFF0000FFFF0000FFFF0000BE
:103A1000FFFF0000FFFF0000F4F4000082E8000058
:103A200042E800006AF20000FFFF0000C7E9000062
:103A300031F40000FFFF0000FFFF0000FFFF000067
:103A4000FFFF0000FFFF0000FFFF0000FFFF00007E
:103A5000FFFF0000FFFF0000FFFF0000FFFF00006E
:103A6000FFFF0000FFFF0000FFFF0000FFFF00005E
:103A7000FFFF0000FFFF0000FFFF0000FFFF00004E
:103A8000FFFF0000FFFF0000FFFF0000FFFF00003E
:103A9000FFFF0000FFFF0000FFFF0000FFFF00002E
:103AA000FFFF0000FFFF0000FFFF0000FFFF00001E
:103AB000FFFF0000FFFF0000FFFF0000FFFF00000E
:103AC000FFFF0000FFFF0000FFFF0000FFFF0000FE
:103AD000FFFF0000FFFF0000FFFF0000FFFF0000EE
:103AE00051F4000066E90000FFFF00006AF20000E8
:103AF00000E80000AFF3000059FE000018FE0000CF
:103B000018FE000018FE000038FE000018FE00003D
:103B100018FE000018FE000059FE0000AFF3000080
:103B200086E900003DFF0000FFFF0000FFFF0000EE
:103B3000FFFF0000FFFF0000FFFF0000FFFF00008D
:103B4000FFFF0000FFFF0000FFFF0000FFFF00007D
:103B5000FFFF00001CFF000024E9000025E9000031
:103B600025E9000008F20000FFFF0000FFFF000051
:103B7000FFFF0000FFFF0000FFFF0000FFFF00004D
:103B8000FFFF0000FFFF0000FFFF0000FFFF00003D
:103B9000FFFF0000FFFF000014F50000A3E8000095
:103BA00042E800006AF20000FFFF0000C7E90000E1
:103BB00031F40000FFFF0000FFFF0000FFFF0000E6
:103BC000FFFF0000FFFF0000FFFF0000FFFF0000FD
:103BD000FFFF0000FFFF0000FFFF0000FFFF0000ED
:103BE000FFFF0000FFFF0000FFFF0000FFFF0000DD
:103BF000FFFF0000FFFF0000FFFF0000FFFF0000CD
:103C0000FFFF0000FFFF0000FFFF0000FFFF0000BC
:103C1000FFFF0000FFFF0000FFFF0000FFFF0000AC
:103C2000FFFF0000FFFF0000FFFF0000FFFF00009C
:103C3000FFFF0000FFFF0000FFFF0000FFFF00008C
:103C4000FFFF0000FFFF0000FFFF0000FFFF00007C
:103C5000FFFF0000FFFF0000FFFF0000FFFF00006C
:103C600051F4000066E90000FFFF00006AF2000066
:103C700021E8000009EA00006AF2000045E90000BE
:103C800082E8000062E8000082E8000062E80000CC
:103C9000C3E8000045E900008AF20000A7E900003F
:103CA000C7E900005DFF0000FFFF0000FFFF00000C
:103CB000FFFF0000FFFF0000FFFF0000FFFF00000C
:103CC000FFFF0000FFFF0000FFFF0000FFFF0000FC
:103CD000FFFF0000BEFF000055FD000076FD000064
:103CE00075FD0000D7FD0000FFFF0000FFFF000092
:103CF000FFFF0000FFFF0000FFFF0000FFFF0000CC
:103D0000FFFF0000FFFF0000FFFF0000FFFF0000BB
:103D1000FFFF0000FFFF000034F50000A3E80000F3
:103D200041E800006AF20000FFFF0000C7E9000060
:103D300031F40000FFFF0000FFFF0000FFFF000064
:103D4000FFFF0000FFFF0000FFFF0000FFFF00007B
:103D5000FFFF0000FFFF0000FFFF0000FFFF00006B
:103D6000FFFF0000FFFF0000FFFF0000FFFF00005B
:103D7000FFFF0000FFFF0000FFFF0000FFFF00004B
:103D8000FFFF0000FFFF0000FFFF0000FFFF00003B
:103D9000FFFF0000FFFF0000FFFF0000FFFF00002B
:103DA000FFFF0000FFFF0000FFFF0000FFFF00001B
:103DB000FFFF0000FFFF0000FFFF0000FFFF00000B
:103DC000FFFF0000FFFF0000FFFF0000FFFF0000FB
:103DD000FFFF0000FFFF0000FFFF0000FFFF0000EB
:103DE00051F4000066E90000FFFF00006AF20000E5
:103DF00000E8000051F40000FFFF00007AFE000020
:103E00002DF3000024E90000E4E8000086F1000042
:103E100010F400009AFE0000FFFF000031F40000E3
:103E200066E900003CFF0000FFFF0000FFFF00000C
:103E3000FFFF0000FFFF0000FFFF0000FFFF00008A
:103E4000FFFF0000FFFF0000FFFF0000FFFF00007A
:103E5000FFFF0000FFFF0000FFFF0000FFFF00006A
:103E6000FFFF0000FFFF0000FFFF0000FFFF00005A
:103E7000FFFF0000FFFF0000FFFF0000FFFF00004A
:103E8000FFFF0000FFFF0000FFFF0000FFFF00003A
:103E9000FFFF0000FFFF000035F50000A3E8000071
:103EA00041E800006AF20000FFFF0000C7E90000DF
:103EB00031F40000FFFF0000FFFF0000FFFF0000E3
:103EC000FFFF0000FFFF0000FFFF0000FFFF0000FA
:103ED000FFFF0000FFFF0000FFFF0000FFFF0000EA
:103EE000FFFF0000FFFF0000FFFF0000FFFF0000DA
:103EF000FFFF0000FFFF0000FFFF0000FFFF0000CA
:103F0000FFFF0000FFFF0000FFFF0000FFFF0000B9
:103F1000FFFF0000FFFF0000FFFF0000FFFF0000A9
:103F2000FFFF0000FFFF0000FFFF0000FFFF000099
:103F3000FFFF0000FFFF0000FFFF0000FFFF000089
:103F4000FFFF0000FFFF0000FFFF0000FFFF000079
:103F5000FFFF0000FFFF0000FFFF0000FFFF000069
:103F600051F4000066E90000FFFF00006AF2000063
:103F700000E8000010F40000FFFF0000FFFF000059
:103F8000FFFF0000FFFF0000DBFE0000FFFF00005E
:103F9000FFFF0000FFFF0000FFFF000010F4000023
:103FA00066E900003CFF0000FFFF0000FFFF00008B
:103FB000FFFF0000FFFF0000FFFF0000FFFF000009
:103FC000FFFF0000FFFF0000FFFF0000FFFF0000F9
:103FD000FFFF0000FFFF0000FFFF0000FFFF0000E9
:103FE000FFFF0000FFFF0000FFFF0000FFFF0000D9
:103FF000FFFF0000FFFF0000FFFF0000FFFF0000C9
:10400000FFFF0000FFFF0000FFFF0000FFFF0000B8
:10401000FFFF0000FFFF000055F50000C3E80000AF
:1040200021E800006AF20000FFFF0000C7E900007D
:1040300031F40000FFFF0000FFFF0000FFFF000061
:10404000FFFF0000FFFF0000FFFF0000FFFF000078
:10405000FFFF0000FFFF0000FFFF0000FFFF000068
:10406000FFFF0000FFFF0000FFFF0000FFFF000058
:10407000FFFF0000FFFF0000FFFF0000FFFF000048
:10408000FFFF0000FFFF0000FFFF0000FFFF000038
:10409000FFFF0000FFFF0000FFFF0000FFFF000028
:1040A000FFFF0000FFFF0000FFFF0000FFFF000018
:1040B000FFFF0000FFFF0000FFFF0000FFFF000008
:1040C000FFFF0000FFFF0000FFFF0000FFFF0000F8
:1040D000FFFF0000FFFF0000FFFF0000FFFF0000E8
:1040E00051F4000066E90000FFFF00006AF20000E2
:1040F00000E80000F0F30000BFFF0000FFFF000039
:10410000FFFF0000FFFF0000FFFF0000FFFF0000B7
:10411000FFFF0000FFFF0000FFFF000051F4000060
:1041200066E900003CFF0000FFFF0000FFFF000009
:10413000FFFF0000FFFF0000FFFF0000FFFF000087
:10414000FFFF0000FFFF0000FFFF0000FFFF000077
:10415000FFFF0000FFFF0000FFFF0000FFFF000067
:10416000FFFF0000FFFF0000FFFF0000FFFF000057
:10417000FFFF0000FFFF0000FFFF0000FFFF000047
:10418000FFFF0000FFFF0000FFFF0000FFFF000037
:10419000FFFF0000FFFF000055F50000C3E800002E
:1041A00041E800006AF20000FFFF0000C7E90000DC
:1041B00031F40000FFFF0000FFFF0000FFFF0000E0
:1041C000FFFF0000FFFF0000FFFF0000FFFF0000F7
:1041D000FFFF0000FFFF0000FFFF0000FFFF0000E7
:1041E000FFFF0000FFFF0000FFFF0000FFFF0000D7
:1041F000FFFF0000FFFF0000FFFF0000FFFF0000C7
:10420000FFFF0000FFFF0000FFFF0000FFFF0000B6
:10421000FFFF0000FFFF0000FFFF0000FFFF0000A6
:10422000FFFF0000FFFF0000FFFF0000FFFF000096
:10423000FFFF0000FFFF0000FFFF0000FFFF000086
:10424000FFFF0000FFFF0000FFFF0000FFFF000076
:10425000FFFF0000FFFF0000FFFF0000FFFF000066
:1042600051F4000066E90000FFFF00006AF2000060
:1042700042E8000083E80000A7E90000B7F500006D
:10428000FFFF0000FFFF0000FFFF0000FFFF000036
:10429000FFFF00007DFF000034F5000066E900002C
:1042A000C7E900005DFF0000FFFF0000FFFF000006
:1042B000FFFF0000FFFF0000FFFF0000FFFF000006
:1042C000FFFF0000FFFF0000FFFF0000FFFF0000F6
:1042D000FFFF0000FFFF0000FFFF0000FFFF0000E6
:1042E000FFFF0000FFFF0000FFFF0000FFFF0000D6
:1042F000FFFF0000FFFF0000FFFF0000FFFF0000C6
:10430000FFFF0000FFFF0000FFFF0000FFFF0000B5
:10431000FFFF0000FFFF000055F50000C3E80000AC
:1043200041E800006AF20000FFFF0000C7E900005A
:1043300031F40000FFFF0000FFFF0000FFFF00005E
:10434000FFFF0000FFFF0000FFFF0000FFFF000075
:10435000FFFF0000FFFF0000FFFF0000FFFF000065
:10436000FFFF0000FFFF0000FFFF0000FFFF000055
:10437000FFFF0000FFFF0000FFFF0000FFFF000045
:10438000FFFF0000FFFF0000FFFF0000FFFF000035
:10439000FFFF0000FFFF0000FFFF0000FFFF000025
:1043A000FFFF0000FFFF0000FFFF0000FFFF000015
:1043B000FFFF0000FFFF0000FFFF0000FFFF000005
:1043C000FFFF0000FFFF0000FFFF0000FFFF0000F5
:1043D000FFFF0000FFFF0000FFFF0000FFFF0000E5
:1043E00051F4000066E90000FFFF00006AF20000DF
:1043F00000E800002DF3000018FE000096F5000014
:104400009AFE0000FFFF0000FFFF0000FFFF00001A
:104410003CFF000096FD000018FE0000ECF20000DA
:10442000A7E900003DFF0000FFFF0000FFFF0000C4
:10443000FFFF0000FFFF0000FFFF0000FFFF000084
:10444000FFFF0000FFFF0000FFFF0000FFFF000074
:10445000FFFF0000FFFF0000FFFF0000FFFF000064
:10446000FFFF0000FFFF0000FFFF0000FFFF000054
:10447000FFFF0000FFFF0000FFFF0000FFFF000044
:10448000FFFF0000FFFF0000FFFF0000FFFF000034
:10449000FFFF0000FFFF000055F50000C3E800002B
:1044A00041E800006AF20000FFFF0000C7E90000D9
:1044B00031F40000FFFF0000FFFF0000FFFF0000DD
:1044C000FFFF0000FFFF0000FFFF0000FFFF0000F4
:1044D000FFFF0000FFFF0000FFFF0000FFFF0000E4
:1044E000FFFF0000FFFF0000FFFF0000FFFF0000D4
:1044F000FFFF0000FFFF0000FFFF0000FFFF0000C4
:10450000FFFF0000FFFF0000FFFF0000FFFF0000B3
:10451000FFFF0000FFFF0000FFFF0000FFFF0000A3
:10452000FFFF0000FFFF0000FFFF0000FFFF000093
:10453000FFFF0000FFFF0000FFFF0000FFFF000083
:10454000FFFF0000FFFF0000FFFF0000FFFF000073
:10455000FFFF0000FFFF0000FFFF0000FFFF000063
:1045600051F4000066E90000FFFF00006AF200005D
:1045700000E8000030F40000DFFF0000BEFF000094
:10458000DFFF0000FFFF0000FFFF0000FFFF000053
:10459000FFFF0000BEFF0000DFFF000010F400007E
:1045A00066E900003CFF0000FFFF0000FFFF000085
:1045B000FFFF0000FFFF0000FFFF0000FFFF000003
:1045C000FFFF0000FFFF0000FFFF0000FFFF0000F3
:1045D000FFFF0000FFFF0000FFFF0000FFFF0000E3
:1045E000FFFF0000FFFF0000FFFF0000FFFF0000D3
:1045F000FFFF0000FFFF0000FFFF0000FFFF0000C3
:10460000FFFF0000FFFF0000FFFF0000FFFF0000B2
:10461000FFFF0000FFFF000076F50000A3E80000A8
:1046200021E800006AF20000FFFF0000C7E9000077
:1046300031F40000FFFF0000FFFF0000FFFF00005B
:10464000FFFF0000FFFF0000FFFF0000FFFF000072
:10465000FFFF0000FFFF0000FFFF0000FFFF000062
:10466000FFFF0000FFFF0000FFFF0000FFFF000052
:10467000FFFF0000FFFF0000FFFF0000FFFF000042
:10468000FFFF0000FFFF0000FFFF0000FFFF000032
:10469000FFFF0000FFFF0000FFFF0000FFFF000022
:1046A000FFFF0000FFFF0000FFFF0000FFFF000012
:1046B000FFFF0000FFFF0000FFFF0000FFFF000002
:1046C000FFFF0000FFFF0000FFFF0000FFFF0000F2
:1046D000FFFF0000FFFF0000FFFF0000FFFF0000E2
:1046E00051F4000066E90000FFFF00006AF20000DC
:1046F00000E8000010F40000FFFF0000FFFF0000D2
:10470000FFFF0000FFFF0000FFFF0000FFFF0000B1
:10471000FFFF0000FFFF0000FFFF000010F400009B
:1047200066E900003CFF0000FFFF0000FFFF000003
:10473000FFFF0000FFFF0000FFFF0000FFFF000081
:10474000FFFF0000FFFF0000FFFF0000FFFF000071
:10475000FFFF0000DFFF0000BEFF0000BEFF000003
:10476000BEFF0000BEFF0000BEFF0000BEFF000055
:10477000BEFF0000BEFF0000BEFF0000BEFF000045
:10478000BEFF0000BEFF0000BEFF0000BEFF000035
:10479000DFFF0000FFFF000014F50000C3E8000089
:1047A00041E800006AF20000FFFF0000C7E90000D6
:1047B00031F40000FFFF0000FFFF0000FFFF0000DA
:1047C000FFFF0000FFFF0000FFFF0000FFFF0000F1
:1047D000FFFF0000FFFF0000FFFF0000FFFF0000E1
:1047E000FFFF0000FFFF0000FFFF0000FFFF0000D1
:1047F000FFFF0000FFFF0000FFFF0000FFFF0000C1
:10480000FFFF0000FFFF0000FFFF0000FFFF0000B0
:10481000FFFF0000FFFF0000FFFF0000FFFF0000A0
:10482000FFFF0000FFFF0000FFFF0000FFFF000090
:10483000FFFF0000FFFF0000FFFF0000FFFF000080
:10484000FFFF0000FFFF0000FFFF0000FFFF000070
:10485000FFFF0000FFFF0000FFFF0000FFFF000060
:1048600051F4000066E90000FFFF00006AF200005A
:1048700000E8000072F40000FFFF0000FFFF0000EE
:10488000FFFF0000FFFF0000FFFF0000FFFF000030
:10489000FFFF0000FFFF0000FFFF000071F40000B9
:1048A00066E900003CFF0000FFFF0000FFFF000082
:1048B000FFFF0000FFFF0000FFFF0000FFFF000000
:1048C000FFFF0000FFFF0000FFFF0000FFFF0000F0
:1048D000FFFF00001CFF000086E90000A6E90000C1
:1048E000A6E90000A6E9000086E9000086E90000CC
:1048F00086E9000086E9000086E9000086E90000FC
:1049000086E9000086E9000086E9000086E90000EB
:10491000A6E90000A6E9000005E90000E4E80000BF
:1049200062E800006AF20000FFFF0000C7E9000033
:1049300031F40000FFFF0000FFFF0000FFFF000058
:10494000FFFF0000FFFF0000FFFF0000FFFF00006F
:10495000FFFF0000FFFF0000FFFF0000FFFF00005F
:10496000FFFF0000FFFF0000FFFF0000FFFF00004F
:10497000FFFF0000FFFF0000FFFF0000FFFF00003F
:10498000FFFF0000FFFF0000FFFF0000FFFF00002F
:10499000FFFF0000FFFF0000FFFF0000FFFF00001F
:1049A000FFFF0000FFFF0000FFFF0000FFFF00000F
:1049B000FFFF0000FFFF0000FFFF0000FFFF0000FF
:1049C000FFFF0000FFFF0000FFFF0000FFFF0000EF
:1049D000FFFF0000FFFF0000FFFF0000FFFF0000DF
:1049E00051F4000066E90000FFFF00006AF20000D9
:1049F00021E80000E8E90000ECF200000CF3000000
:104A0000ECF20000ECF20000ECF20000ECF200002E
:104A1000ECF20000ECF200000CF3000087E900006B
:104A2000C7E900003DFF0000FFFF0000FFFF00009E
:104A3000FFFF0000FFFF0000FFFF0000FFFF00007E
:104A4000FFFF0000FFFF0000FFFF0000FFFF00006E
:104A5000FFFF00001CFF000041E8000082E80000AA
:104A6000A3E80000A3E8000062E8000041E80000BD
:104A700041E8000041E8000041E8000041E8000092
:104A800041E8000041E8000041E8000041E8000082
:104A900041E8000041E8000062E80000E4E80000AE
:104AA00062E800006AF20000FFFF0000C7E90000B2
:104AB00031F40000FFFF0000FFFF0000FFFF0000D7
:104AC000FFFF0000FFFF0000FFFF0000FFFF0000EE
:104AD000FFFF0000FFFF0000FFFF0000FFFF0000DE
:104AE000FFFF0000FFFF0000FFFF0000FFFF0000CE
:104AF000FFFF0000FFFF0000FFFF0000FFFF0000BE
:104B0000FFFF0000FFFF0000FFFF0000FFFF0000AD
:104B1000FFFF0000FFFF0000FFFF0000FFFF00009D
:104B2000FFFF0000FFFF0000FFFF0000FFFF00008D
:104B3000FFFF0000FFFF0000FFFF0000FFFF00007D
:104B4000FFFF0000FFFF0000FFFF0000FFFF00006D
:104B5000FFFF0000FFFF0000FFFF0000FFFF00005D
:104B600051F4000066E90000FFFF00006AF2000057
:104B700000E80000CBF20000D7FD00004AF2000080
:104B800071F4000076F5000055F5000055F50000C1
:104B900055F5000055F50000B7FD0000ABF2000030
:104BA000A7E900003DFF0000FFFF0000FFFF00003D
:104BB000FFFF0000FFFF0000FFFF0000FFFF0000FD
:104BC000FFFF0000FFFF0000FFFF0000FFFF0000ED
:104BD000FFFF00001CFF000062E80000C3E80000C7
:104BE000C4E80000E4E8000086E9000009F20000E3
:104BF000E8F10000E8F10000E8F10000E8F1000051
:104C0000E8F10000E8F10000E8F10000E8F1000040
:104C1000E8F1000008F2000086E90000E4E8000086
:104C200062E800006AF20000FFFF0000C7E9000030
:104C300031F40000FFFF0000FFFF0000FFFF000055
:104C4000FFFF0000FFFF0000FFFF0000FFFF00006C
:104C5000FFFF0000FFFF0000FFFF0000FFFF00005C
:104C6000FFFF0000FFFF0000FFFF0000FFFF00004C
:104C7000FFFF0000FFFF0000FFFF0000FFFF00003C
:104C8000FFFF0000FFFF0000FFFF0000FFFF00002C
:104C9000FFFF0000FFFF0000FFFF0000FFFF00001C
:104CA000FFFF0000FFFF0000FFFF0000FFFF00000C
:104CB000FFFF0000FFFF0000FFFF0000FFFF0000FC
:104CC000FFFF0000FFFF0000FFFF0000FFFF0000EC
:104CD000FFFF0000FFFF0000FFFF0000FFFF0000DC
:104CE00051F4000066E90000FFFF00006AF20000D6
:104CF00000E80000F0F30000FFFF00002DF30000CB
:104D000079FE0000DFFF0000BEFF0000BEFF0000D4
:104D1000BEFF0000BEFF0000DFFF0000F0F3000058
:104D200066E900003CFF0000FFFF0000FFFF0000FD
:104D3000FFFF0000FFFF0000FFFF0000FFFF00007B
:104D4000FFFF0000FFFF0000FFFF0000FFFF00006B
:104D5000FFFF00001CFF000062E80000C3E8000045
:104D6000C3E80000C4E8000071F4000018FE000071
:104D7000F8FD0000F8FD0000F8FD0000F8FD00005F
:104D8000F8FD0000F8FD0000F8FD0000F8FD00004F
:104D9000F8FD000018FE000072F40000C3E80000F7
:104DA00041E800006AF20000FFFF0000C7E90000D0
:104DB00031F40000FFFF0000FFFF0000FFFF0000D4
:104DC000FFFF0000FFFF0000FFFF0000FFFF0000EB
:104DD000FFFF0000FFFF0000FFFF0000FFFF0000DB
:104DE000FFFF0000FFFF0000FFFF0000FFFF0000CB
:104DF000FFFF0000FFFF0000FFFF0000FFFF0000BB
:104E0000FFFF0000FFFF0000FFFF0000FFFF0000AA
:104E1000FFFF0000FFFF0000FFFF0000FFFF00009A
:104E2000FFFF0000FFFF0000FFFF0000FFFF00008A
:104E3000FFFF0000FFFF0000FFFF0000FFFF00007A
:104E4000FFFF0000FFFF0000FFFF0000FFFF00006A
:104E5000FFFF0000FFFF0000FFFF0000FFFF00005A
:104E600051F4000066E90000FFFF00006AF2000054
:104E700000E8000010F40000FFFF00004DF3000008
:104E8000BAFE0000FFFF0000FFFF0000FFFF000070
:104E9000FFFF0000FFFF0000FFFF000010F4000014
:104EA00066E900003CFF0000FFFF0000FFFF00007C
:104EB000FFFF0000FFFF0000FFFF0000FFFF0000FA
:104EC000FFFF0000FFFF0000FFFF0000FFFF0000EA
:104ED000FFFF00001CFF000062E80000C3E80000C4
:104EE000A3E80000C4E8000075F50000FFFF000023
:104EF000FFFF0000FFFF0000FFFF0000FFFF0000BA
:104F0000FFFF0000FFFF0000FFFF0000FFFF0000A9
:104F1000FFFF0000FFFF000096F50000C3E800005F
:104F200041E800006AF20000FFFF0000C7E900004E
:104F300031F40000FFFF0000FFFF0000FFFF000052
:104F4000FFFF0000FFFF0000FFFF0000FFFF000069
:104F5000FFFF0000FFFF0000FFFF0000FFFF000059
:104F6000FFFF0000FFFF0000FFFF0000FFFF000049
:104F7000FFFF0000FFFF0000FFFF0000FFFF000039
:104F8000FFFF0000FFFF0000FFFF0000FFFF000029
:104F9000FFFF0000FFFF0000FFFF0000FFFF000019
:104FA000FFFF0000FFFF0000FFFF0000FFFF000009
:104FB000FFFF0000FFFF0000FFFF0000FFFF0000F9
:104FC000FFFF0000FFFF0000FFFF0000FFFF0000E9
:104FD000FFFF0000FFFF0000FFFF0000FFFF0000D9
:104FE00051F4000066E90000FFFF00006AF20000D3
:104FF00000E8000051F40000FFFF00008EF3000005
:105000001CFF0000FFFF0000FFFF0000FFFF00008B
:10501000FFFF0000FFFF0000FFFF000051F4000051
:1050200066E900003CFF0000FFFF0000FFFF0000FA
:10503000FFFF0000FFFF0000FFFF0000FFFF000078
:10504000FFFF0000FFFF0000FFFF0000FFFF000068
:10505000FFFF00001CFF000062E80000C3E8000042
:10506000A3E80000C4E8000034F50000FFFF0000E2
:10507000FFFF0000FFFF0000FFFF0000FFFF000038
:10508000FFFF0000FFFF0000FFFF0000FFFF000028
:10509000FFFF0000FFFF000055F50000C3E800001F
:1050A00021E800006AF20000FFFF0000C7E90000ED
:1050B00031F40000FFFF0000FFFF0000FFFF0000D1
:1050C000FFFF0000FFFF0000FFFF0000FFFF0000E8
:1050D000FFFF0000FFFF0000FFFF0000FFFF0000D8
:1050E000FFFF0000FFFF0000FFFF0000FFFF0000C8
:1050F000FFFF0000FFFF0000FFFF0000FFFF0000B8
:10510000FFFF0000FFFF0000FFFF0000FFFF0000A7
:10511000FFFF0000FFFF0000FFFF0000FFFF000097
:10512000FFFF0000FFFF0000FFFF0000FFFF000087
:10513000FFFF0000FFFF0000FFFF0000FFFF000077
:10514000FFFF0000FFFF0000FFFF0000FFFF000067
:10515000FFFF0000FFFF0000FFFF0000FFFF000057
:1051600051F4000066E90000FFFF00006AF2000051
:1051700021E80000CBF2000071F4000008EA000012
:1051800010F4000051F4000051F4000051F400004C
:1051900051F4000051F4000051F400006AF20000E4
:1051A000A7E900003CFF0000FFFF0000FFFF000038
:1051B000FFFF0000FFFF0000FFFF0000FFFF0000F7
:1051C000FFFF0000FFFF0000FFFF0000FFFF0000E7
:1051D000FFFF00001CFF000062E80000C3E80000C1
:1051E000A3E80000C4E8000034F50000FFFF000061
:1051F000FFFF0000FFFF0000FFFF0000FFFF0000B7
:10520000FFFF0000FFFF0000FFFF0000FFFF0000A6
:10521000FFFF0000FFFF000055F50000C3E800009D
:1052200041E800006AF20000FFFF0000C7E900004B
:1052300031F40000FFFF0000FFFF0000FFFF00004F
:10524000FFFF0000FFFF0000FFFF0000FFFF000066
:10525000FFFF0000FFFF0000FFFF0000FFFF000056
:10526000FFFF0000FFFF0000FFFF0000FFFF000046
:10527000FFFF0000FFFF0000FFFF0000FFFF000036
:10528000FFFF0000FFFF0000FFFF0000FFFF000026
:10529000FFFF0000FFFF0000FFFF0000FFFF000016
:1052A000FFFF0000FFFF0000FFFF0000FFFF000006
:1052B000FFFF0000FFFF0000FFFF0000FFFF0000F6
:1052C000FFFF0000FFFF0000FFFF0000FFFF0000E6
:1052D000FFFF0000FFFF0000FFFF0000FFFF0000D6
:1052E00051F4000066E90000FFFF00006AF20000D0
:1052F00062E8000083E8000045E90000AAF200002F
:10530000EBF20000EBF20000EBF20000EBF2000029
:10531000EBF20000EBF200002CF3000086E9000045
:10532000A7E900003CFF0000FFFF0000FFFF0000B6
:10533000FFFF0000FFFF0000FFFF0000FFFF000075
:10534000FFFF0000FFFF0000FFFF0000FFFF000065
:10535000FFFF00001CFF000062E80000C3E800003F
:10536000A3E80000C4E8000034F50000FFFF0000DF
:10537000FFFF0000FFFF0000FFFF0000FFFF000035
:10538000FFFF0000FFFF0000FFFF0000FFFF000025
:10539000FFFF0000FFFF000055F50000C3E800001C
:1053A00041E800006AF20000FFFF0000C7E90000CA
:1053B00031F40000FFFF0000FFFF0000FFFF0000CE
:1053C000FFFF0000FFFF0000FFFF0000FFFF0000E5
:1053D000FFFF0000FFFF0000FFFF0000FFFF0000D5
:1053E000FFFF0000FFFF0000FFFF0000FFFF0000C5
:1053F000FFFF0000FFFF0000FFFF0000FFFF0000B5
:10540000FFFF0000FFFF0000FFFF0000FFFF0000A4
:10541000FFFF0000FFFF0000FFFF0000FFFF000094
:10542000FFFF0000FFFF0000FFFF0000FFFF000084
:10543000FFFF0000FFFF0000FFFF0000FFFF000074
:10544000FFFF0000FFFF0000FFFF0000FFFF000064
:10545000FFFF0000FFFF0000FFFF0000FFFF000054
:1054600051F4000066E90000FFFF00006AF200004E
:1054700041E8000025E9000051F40000DBFE0000D7
:105480003CFF00003CFF00003CFF00003CFF000030
:105490003CFF00003CFF0000BEFF0000F0F30000F6
:1054A00025E900001CFF0000FFFF0000FFFF0000D7
:1054B000FFFF0000FFFF0000FFFF0000FFFF0000F4
:1054C000FFFF0000FFFF0000FFFF0000FFFF0000E4
:1054D000FFFF00001CFF000062E80000C3E80000BE
:1054E000A3E80000C4E8000034F50000FFFF00005E
:1054F000FFFF0000FFFF0000FFFF0000FFFF0000B4
:10550000FFFF0000FFFF0000FFFF0000FFFF0000A3
:10551000FFFF0000FFFF000034F50000A3E80000DB
:1055200041E800006AF20000FFFF0000C7E9000048
:1055300031F40000FFFF0000FFFF0000FFFF00004C
:10554000FFFF0000FFFF0000FFFF0000FFFF000063
:10555000FFFF0000FFFF0000FFFF0000FFFF000053
:10556000FFFF0000FFFF0000FFFF0000FFFF000043
:10557000FFFF0000FFFF0000FFFF0000FFFF000033
:10558000FFFF0000FFFF0000FFFF0000FFFF000023
:10559000FFFF0000FFFF0000FFFF0000FFFF000013
:1055A000FFFF0000FFFF0000FFFF0000FFFF000003
:1055B000FFFF0000FFFF0000FFFF0000FFFF0000F3
:1055C000FFFF0000FFFF0000FFFF0000FFFF0000E3
:1055D000FFFF0000FFFF0000FFFF0000FFFF0000D3
:1055E00051F4000066E90000FFFF00006AF20000CD
:1055F00000E800008EF30000FFFF0000FFFF000046
:10560000FFFF0000FFFF0000FFFF0000FFFF0000A2
:10561000FFFF0000FFFF0000FFFF0000D3F40000C9
:10562000A3E80000FBFE0000FFFF0000FFFF0000FA
:10563000FFFF0000FFFF0000FFFF0000FFFF000072
:10564000FFFF0000FFFF0000FFFF0000FFFF000062
:10565000FFFF00001CFF000062E80000C3E800003C
:10566000A3E80000C4E8000034F50000FFFF0000DC
:10567000FFFF0000FFFF0000FFFF0000FFFF000032
:10568000FFFF0000FFFF0000FFFF0000FFFF000022
:10569000FFFF0000FFFF0000F3F4000082E80000BD
:1056A00042E800006AF20000FFFF0000C7E90000C6
:1056B00031F40000FFFF0000FFFF0000FFFF0000CB
:1056C000FFFF0000FFFF0000FFFF0000FFFF0000E2
:1056D000FFFF0000FFFF0000FFFF0000FFFF0000D2
:1056E000FFFF0000FFFF0000FFFF0000FFFF0000C2
:1056F000FFFF0000FFFF0000FFFF0000FFFF0000B2
:10570000FFFF0000FFFF0000FFFF0000FFFF0000A1
:10571000FFFF0000FFFF0000FFFF0000FFFF000091
:10572000FFFF0000FFFF0000FFFF0000FFFF000081
:10573000FFFF0000FFFF0000FFFF0000FFFF000071
:10574000FFFF0000FFFF0000FFFF0000FFFF000061
:10575000FFFF0000FFFF0000FFFF0000FFFF000051
:1057600051F4000066E90000FFFF000049EA000074
:1057700001E8000014F50000FFFF0000FFFF00003B
:10578000FFFF0000FFFF0000FFFF0000FFFF000021
:10579000FFFF0000FFFF0000FFFF000035FD0000DD
:1057A00062E80000BAFE0000FFFF0000FFFF0000FB
:1057B000FFFF0000FFFF0000FFFF0000FFFF0000F1
:1057C000FFFF0000FFFF0000FFFF0000FFFF0000E1
:1057D000FFFF00001CFF000062E80000C3E80000BB
:1057E000A3E80000C4E8000035F50000FFFF00005A
:1057F000FFFF0000FFFF0000FFFF0000FFFF0000B1
:10580000FFFF0000FFFF0000FFFF0000FFFF0000A0
:10581000FFFF0000FFFF000092F4000021E80000FD
:1058200062E800006AF20000FFFF0000C7E9000024
:1058300031F40000FFFF0000FFFF0000FFFF000049
:10584000FFFF0000FFFF0000FFFF0000FFFF000060
:10585000FFFF0000FFFF0000FFFF0000FFFF000050
:10586000FFFF0000FFFF0000FFFF0000FFFF000040
:10587000FFFF0000FFFF0000FFFF0000FFFF000030
:10588000FFFF0000FFFF0000FFFF0000FFFF000020
:10589000FFFF0000FFFF0000FFFF0000FFFF000010
:1058A000FFFF0000FFFF0000FFFF0000FFFF000000
:1058B000FFFF0000FFFF0000FFFF0000FFFF0000F0
:1058C000FFFF0000FFFF0000FFFF0000FFFF0000E0
:1058D000FFFF0000FFFF0000FFFF0000FFFF0000D0
:1058E00051F4000066E90000FFFF00004AEA0000F2
:1058F00001E80000B3F40000FFFF00007DFF00009E
:10590000BBFE0000DBFE0000DBFE0000DBFE000053
:10591000DBFE0000DBFE0000DBFE000035F50000D2
:1059200042E8000059FE0000FFFF0000FFFF0000FA
:10593000FFFF0000FFFF0000FFFF0000FFFF00006F
:10594000FFFF0000FFFF0000FFFF0000FFFF00005F
:10595000FFFF00003CFF000042E80000C3E8000039
:10596000A3E80000E4E80000B6F50000FFFF000037
:10597000FFFF0000FFFF0000FFFF0000FFFF00002F
:10598000FFFF0000FFFF0000FFFF0000FFFF00001F
:10599000FFFF0000FFFF000031F4000001E80000FD
:1059A00062E800006AF20000FFFF0000C7E90000A3
:1059B00031F40000FFFF0000FFFF0000FFFF0000C8
:1059C000FFFF0000FFFF0000FFFF0000FFFF0000DF
:1059D000FFFF0000FFFF0000FFFF0000FFFF0000CF
:1059E000FFFF0000FFFF0000FFFF0000FFFF0000BF
:1059F000FFFF0000FFFF0000FFFF0000FFFF0000AF
:105A0000FFFF0000FFFF0000FFFF0000FFFF00009E
:105A1000FFFF0000FFFF0000FFFF0000FFFF00008E
:105A2000FFFF0000FFFF0000FFFF0000FFFF00007E
:105A3000FFFF0000FFFF0000FFFF0000FFFF00006E
:105A4000FFFF0000FFFF0000FFFF0000FFFF00005E
:105A5000FFFF0000FFFF0000FFFF0000FFFF00004E
:105A600051F4000066E90000FFFF00006AF2000048
:105A700000E800000CF300009EFF000076F5000037
:105A800029EA000029EA000049F2000049F200007A
:105A900049F2000049F200006AF20000C7E9000084
:105AA00041E80000B7FD0000FFFF0000FFFF00001D
:105AB000FFFF0000FFFF0000FFFF0000FFFF0000EE
:105AC000FFFF0000FFFF0000FFFF0000FFFF0000DE
:105AD000FFFF00009EFF000082E80000A3E8000036
:105AE000A3E8000004E9000079FE0000FFFF0000C9
:105AF000FFFF0000FFFF0000FFFF0000FFFF0000AE
:105B0000FFFF0000FFFF0000FFFF0000FFFF00009D
:105B1000FFFF0000FFFF00008EF3000021E80000FF
