:100000000C94E1090C9400000C9400000C94000086
:100010000C9400000C9400000C9400000C94000060
:100020000C9400000C9400000C9400000C94000050
:100030000C9400000C9400000C9400000C94000040
:100040000C9400000C9400000C9400000C94000030
:040050000C9400000C
:1013C200BFE5BDBFB8E0BEBF0E947631E3DE8EDE70
:0613D20014DFFECFFFCF87
:101196002F923F924F92B1E04B2EB7E03B2E222486
:1011A6005FDEB1E04B2EB1E03B2E222459DEB1E0EA
:1011B6004B2E3324222454DEB1E04B2EB2E03B2EDC
:1011C60022244EDEB1E04B2EB6E03B2E222448DE32
:1011D6000BED12E6302E412E222461DF25E01FE0C2
:1011E60002EF0A95F1F71A95E1F72A95D1F74F9094
:0611F6003F902F900895C8
:100E66002F923F920EC0232C342CC0DE14C0232CAC
:100E7600342C54DE10C0232C342CE8DD0CC001E0E9
:100E86000AC0B0E02B1679F3B1E02B1681F3B2E07D
:0C0E96002B1689F3F4CF3F902F900895A5
:100BF2003EC030FABAB3B7F9BABB60C030FABAB382
:100C0200B6F9BABB5BC030FABAB3B5F9BABB56C0D3
:100C120030FAB7B3B7F9B7BB51C030FAB7B3B6F9C8
:100C2200B7BB4CC030FAB7B3B5F9B7BB47C030FA5F
:100C3200B1B3B4F9B1BB42C030FAB1B3B2F9B1BB8E
:100C42003DC030FAB1B3B0F9B1BB38C030FAB1B37C
:100C5200B1F9B1BB33C030FAB4B3B0F9B4BB2EC0F2
:100C620030FAB4B3B1F9B4BB29C001E028C0B0E096
:100C72002B1609F4BECFB1E02B1609F4BFCFB2E0B8
:100C82002B1609F2B3E02B1619F2B4E02B1629F257
:100C9200B5E02B1639F2B6E02B1649F2B7E02B1667
:100CA20059F2B8E02B1669F2B9E02B1679F2BAE0E4
:100CB2002B1689F2BBE02B1699F2D7CF00E00895EC
:000CC20032
:100B22003EC030FABAB3B0F9BABB60C030FABAB359
:100B3200B1F9BABB5BC030FABAB3B3F9BABB56C0AB
:100B420030FAB7B3B7F9B7BB51C030FAB7B3B6F999
:100B5200B7BB4CC030FAB7B3B5F9B7BB47C030FA30
:100B6200B1B3B5F9B1BB42C030FAB1B3B3F9B1BB5D
:100B72003DC030FAB1B3B0F9B1BB38C030FAB1B34D
:100B8200B1F9B1BB33C030FAB4B3B0F9B4BB2EC0C3
:100B920030FAB4B3B1F9B4BB29C001E028C0B0E067
:100BA2002B1609F4BECFB1E02B1609F4BFCFB2E089
:100BB2002B1609F2B3E02B1619F2B4E02B1629F228
:100BC200B5E02B1639F2B6E02B1649F2B7E02B1638
:100BD20059F2B8E02B1669F2B9E02B1679F2BAE0B5
:100BE2002B1689F2BBE02B1699F2D7CF00E00895BD
:000BF20003
:100A52003EC030FABAB3B4F9BABB60C030FAB7B329
:100A6200B0F9B7BB5BC030FAB7B3B4F9B7BB56C085
:100A720030FAB7B3B7F9B7BB51C030FAB7B3B6F96A
:100A8200B7BB4CC030FAB7B3B5F9B7BB47C030FA01
:100A9200B7B3B3F9B7BB42C030FAB7B3B2F9B7BB19
:100AA2003DC030FAB1B3B2F9B1BB38C030FAB1B31C
:100AB200B3F9B1BB33C030FAB4B3B0F9B4BB2EC092
:100AC20030FAB4B3B1F9B4BB29C001E028C0B0E038
:100AD2002B1609F4BECFB1E02B1609F4BFCFB2E05A
:100AE2002B1609F2B3E02B1619F2B4E02B1629F2F9
:100AF200B5E02B1639F2B6E02B1649F2B7E02B1609
:100B020059F2B8E02B1669F2B9E02B1679F2BAE085
:100B12002B1689F2BBE02B1699F2D7CF00E008958D
:000B2200D3
:1010A4002F923F924F920EC0232C342C30DE14C06A
:1010B400232C342C18DE10C0232C342C00DE0CC05E
:1010C40001E00AC0B0E02B1679F3B1E02B1681F3EE
:1010D400B2E02B1689F3F4CF4F903F902F900895F0
:0010E4000C
:100D12002F923F924F92F10138962491F10134962D
:100D22001491F1010491422E312E202EBDD900E002
:080D32004F903F902F900895AF
:1000AA00BFEFB093B400BFEFB093B500BCEDB0930F
:1000BA00B000B4E0B093B100B7B3B068B7BBB7B3A0
:1000CA00BF7BB7BBB7B3B062B7BBB7B3B061B7BB9F
:1000DA0032FABEB1B0F9BEB9032D03700429022960
:0600EA0000640DB9089549
:100CEA002F923F924F92F10138962491F101349656
:100CFA001491F1010491422E312E202ED1D900E017
:080D0A004F903F902F900895D7
:100CC2002F923F924F92F10138962491F10134967E
:100CD2001491F1010491422E312E202EE5D900E02B
:080CE2004F903F902F90089500
:1010EE002F923F924F925F926F927F92B7EE4B2E5E
:1010FE00B2E65B2EBBEA2B2EB2E63B2EB2DFFBDE58
:10110E00BFEF2B2E3B2E19DCB0E06B2E4424552462
:10111E00BEED2B2EBBE53B2EBDDEBAE06B2EB0E056
:10112E007B2EBFE04B2EB0E05B2EBEE62B2EB0E04A
:10113E003B2E3DDEBEE16B2EB0E07B2EB5E04B2E9E
:10114E00B0E05B2EB6E82B2EB0E03B2E30DEBDE2DB
:10115E006B2EB0E07B2EB5E04B2EB0E05B2EB5E7EC
:10116E002B2EB0E03B2E23DE29E216E900E80A958D
:10117E00F1F71A95E1F72A95D1F77F906F905F906E
:08118E004F903F902F9008954F
:101070002F923F923F922F921201CCDC2F903F9003
:10108000A1DCB1E02B2EE091A600F091A70009951C
:10109000B1E02B2EE091A800F091A90009953F90B6
:0410A0002F900895F0
:100A1400F101059115910093AA001093AB00F10127
:100A24003296059115910093A2001093A3000895A6
:000A3400C2
:1009C400F101059115910093B2001093B300F10168
:1009D4003496059115910093A6001093A700F10198
:1009E4003296059115910093AC001093AD00F1017E
:1009F4003C96059115910093A8001093A900F1016C
:100A04003E96059115910093AE001093AF000895A2
:000A1400E2
:0C09B8002FB8BEB1B7FD01C0FCCF089500
:0A0A480020FABBB3B7F9BBBB089559
:0A0A3E0020FABBB3B6F9BBBB089564
:0A0A340020FABBB3B5F9BBBB08956F
:0A0D3A0020FAB8B3B7F9B8BB08956A
:0A0D940020FAB8B3B6F9B8BB089511
:0A0D8A0020FAB8B3B5F9B8BB08951C
:0A0D800020FAB2B3B4F9B2BB089533
:0A0DB20020FAB2B3B2F9B2BB089503
:0A0DA80020FAB2B3B0F9B2BB08950F
:0A0D9E0020FAB2B3B1F9B2BB089518
:0A0D760020FAB5B3B0F9B5BB08953B
:0A0D6C0020FAB5B3B1F9B5BB089544
:0A0D620020FABBB3B0F9BBBB089543
:0A0D440020FABBB3B1F9BBBB089560
:0A0D4E0020FABBB3B3F9BBBB089554
:0A0D580020FAB8B3B7F9B8BB08954C
:0A09AE0020FAB8B3B6F9B8BB0895FB
:0A04340020FAB8B3B5F9B8BB08957B
:0A04020020FAB2B3B5F9B2BB0895B9
:0A04160020FAB2B3B3F9B2BB0895A7
:0A040C0020FAB2B3B0F9B2BB0895B4
:0A042A0020FAB2B3B1F9B2BB089595
:0A04200020FAB5B3B0F9B5BB08959A
:0A03D00020FAB5B3B1F9B5BB0895EA
:0A03DA0020FABBB3B4F9BBBB0895D1
:0A03C60020FAB8B3B0F9B8BB0895EF
:0A03F80020FAB8B3B4F9B8BB0895B9
:0A03EE0020FAB8B3B7F9B8BB0895C0
:0A03E40020FAB8B3B6F9B8BB0895CB
:0A043E0020FAB8B3B5F9B8BB089571
:0A09860020FAB8B3B3F9B8BB089526
:0A097C0020FAB8B3B2F9B8BB089531
:0A09720020FAB2B3B2F9B2BB089547
:0A09A40020FAB2B3B3F9B2BB089514
:0A099A0020FAB5B3B0F9B5BB08951B
:0A09900020FAB5B3B1F9B5BB089524
:100F04002F923F924F925F926F92B1E02B2EFEDAB6
:100F1400E3DAB1E05B2EB0E06B2EBBE63B2EB0E033
:100F24004B2EBDEF2B2E8EDAB1E05B2EB0E06B2E94
:100F3400B9E93B2EB0E04B2EBDEF2B2E83DA5524BE
:100F4400662433244424BEEA2B2E7CDAB1E05B2EE3
:100F5400B0E06B2EBAE93B2EB0E04B2EB0EA2B2E5C
:100F640071DAB1E05B2EB0E06B2EB8E93B2EB0E055
:100F74004B2EBAEC2B2E66DAB1E05B2EB0E06B2E72
:100F8400BDE93B2EB0E04B2EB1EA2B2E5BDAB1E08B
:100F94005B2EB0E06B2EBBE93B2EB0E04B2EB2EAE9
:100FA4002B2E50DAB1E05B2EB0E06B2EBCE93B2E69
:100FB400B0E04B2EBEEB2B2E45DAB1E05B2EB0E059
:100FC4006B2EB7E93B2EB0E04B2EB3EB2B2E3ADA67
:100FD400B1E05B2EB0E06B2EBCE63B2EB0E04B2EB6
:100FE400B1EB2B2E2FDAB1E05B2EB0E06B2EBDE619
:100FF4003B2EB0E04B2EB6EB2B2E24DAB1E05B2E69
:10100400B0E06B2EBAE63B2EB0E04B2EB7EC2B2EA5
:1010140019DAB3E05B2EB0E06B2EB4E63B2EB0E001
:101024004B2EB1EC2B2E0EDAB3E05B2EB0E06B2E20
:10103400B7E63B2EB0E04B2EB4EB2B2E03DA55244F
:10104400662433244424B6EA2B2EFCD95524662482
:1010540033244424BFEA2B2EF5D92224332472DC12
:0C1064006F905F904F903F902F90089588
:0C051000E091AE00F091AF000995089555
:1004DC002F92B1E02B2EE091AC00F091AD0009957C
:1004EC0001DE2224E091AC00F091AD000995FADD1B
:1004FC00B1E02B2EE091AC00F091AD000995F9DD47
:04050C002F9008958F
:0E00F0001BE003E60A95F1F71A95E1F7089573
:1000FE0025E01FE002EF0A95F1F71A95E1F72A9530
:04010E00D1F7089588
:10044800CF93DF93CDB7DEB72397CDBFDEBF21961D
:100458002F923F924F925F926F922A8238824982FE
:100468006F925F922224E091A600F091A70009956F
:100478002224E091A800F091A90009958E010E5F51
:100488001F4FB1E04B2EB0E05B2E1801E7DDB1E065
:100498002B2EE091A800F091A90009955F906F902C
:1004A800B52DB62929F0452C562C28803980D6DD63
:1004B800B1E02B2EE091A600F091A70009956F906E
:1004C8005F904F903F902F902296CDBFDEBFDF9177
:0404D800CF91089523
:10006400A10192018201015010402801B22FB32B4B
:10007400C9F0FA0100815F934F935F924F923F92D0
:100084002F92202EE091AA00F091AB0009952F90B9
:100094003F904F905F904F915F918A010F5F1F4F88
:0600A400A801DFCF089562
:100948002F923F924F925F926F927F923101B0E661
:100958005B2EB0E64B2E33242224D7DB7F906F909A
:0A0968005F904F903F902F9008958C
:10011200CF93DF93CDB7DEB72597CDBFDEBF219654
:100122002F923F924F925F926F927F92BCE5BA8379
:10013200442D50E04219B0E05B0B052D10E003198D
:10014200B0E01B0B86DF08831983B0E0BB83B0E00D
:10015200BC8300E6021520F000E6041508F001C099
:100162009CC000E6031520F000E6051508F001C06A
:1001720094C0421418F0531408F001C08EC0022D2E
:10018200005F00936000042D005F01500093610046
:1001920030926200052D0150009363003C2F4D2FD9
:1001A2003D5F4F4F172D20E0E32FF42F0081012BED
:1001B200E32FF42F00838E010D5F1F4F98012F5FF5
:1001C2003F4F162DF9010081012BF9010083B2E0A6
:1001D2005B2EB0E06B2EB0E63B2EB0E04B2EB5E1CD
:1001E2002B2E31D1B2E05B2EB0E06B2EB2E63B2E6D
:1001F200B0E04B2EB5E72B2E26D12224E091A600AB
:10020200F091A70009952224E091A800F091A9009D
:1002120009958E010E5F1F4FB1E04B2EB0E05B2EB1
:1002220018011FDFB1E02B2EE091A800F091A90088
:10023200099528813981088119810150104008836C
:100242001983B22FB32BB1F08E010D5F1F4F7F9236
:100252006F925F924F923F922F92B2E04B2EB0E09C
:100262005B2E1801FEDE2F903F904F905F906F90B3
:100272007F90DFCF7F926F925F924F923F922F9249
:10028200B1E02B2EE091A600F091A70009952F90E6
:100292003F904F905F906F907F907F906F905F90B4
:1002A2004F903F902F902496CDBFDEBFDF91CF912C
:0202B2000895AD
:100054009801249F8001259F100D349F100D089551
:000064009C
:100EA2002092A4003092A500F10132962491F10122
:100EB20033960491102F0027020FB0E01B1F0093FE
:100EC2009E0010939F00F10134962491F101359612
:100ED2000491102F0027020FB0E01B1F0093A00007
:100EE2001093A100F101369604910093BB00B0E08B
:100EF200B093BC004092BD005092BE006092B6001A
:020F0200089550
:100DBC009101B0E05B1611F4B0E64B1638F4B0E0DC
:100DCC007B1611F4B0E66B1608F401C027C04092F4
:100DDC00B9005092BA006092B7007092B800F90155
:100DEC0000810023D9F0F90100813F932F937F926A
:100DFC006F925F924F923F922F92202EB0E03B2E3B
:100E0C0067DC2F903F904F905F906F907F902F9169
:0E0E1C003F9189010F5F1F4F9801E1CF0895AC
:1006DC00CF93DF93CDB7DEB72B97CDBFDEBF21967F
:1006EC004F925F92B0E0BC83BD83B0E0BE830091BB
:1006FC009E0010919F002016310608F417C100913E
:10070C00A0001091A1000215130508F40FC1009070
:10071C009E0010909F008101001911099801220F71
:10072C00331F220F331F4090A4005090A50082016C
:10073C00085F1F4FC901800F911FFC0104910F83AB
:10074C00FC0131960491402F50E0652F752FFC0170
:10075C003296049110E0212F312F322F212F102FA0
:10076C000027400F511F621F731FFC013396049129
:10077C0010E0212F312F312F202F00271127040FAC
:10078C00151F261F371F040D151D0A831B8300918F
:10079C00B600003029F00091B600023009F069C0B3
:1007AC000091B7001091B80008871987B0E0B983A1
:1007BC0009812091BB003091BC0010E00217130797
:1007CC0008F043C00091B9001091BA000C831D834E
:1007DC00B0E0BA87B0E0B88318810F81101758F5D4
:1007EC000A85002361F4EA81FB8104910E830A815E
:1007FC001B810F5F1F4F0A831B83B1E0BA871E81D9
:10080C000A85012359F03F922F924090BD005090E1
:10081C00BE0038842C8048DD2F903F900C811D81C8
:10082C000F5F1F4F0C831D830A85000F0A870881F9
:10083C000F5F0883D1CF088519850F5F1F4F08877D
:10084C00198709810F5F0983B3CF0091B60000307F
:10085C0049F40C811D810F5F1F4F0093B900109359
:10086C00BA0006C0088519850093B7001093B8002C
:10087C005DC00091B9001091BA0008871987B0E0EB
:10088C00B98309812091BB003091BC0010E00217A4
:10089C00130708F043C00091B7001091B8000C8307
:1008AC001D83B0E0BA87B0E0B88318810F811017B0
:1008BC0058F50A85003061F4EA81FB8104910E83BE
:1008CC000A811B810F5F1F4F0A831B83B1E0BA871C
:1008DC001E810A85012359F03F922F924090BD0052
:1008EC005090BE003C802884DFDC2F903F900C8120
:1008FC001D81015010400C831D830A85000F0A874F
:10090C0008810F5F0883D1CF088519850F5F1F4FB2
:10091C000887198709810F5F0983B3CF0C811D816B
:10092C00015010400093B7001093B8005F904F90A7
:0C093C002A96CDBFDEBFDF91CF91089559
:1002B400CF93DF93CDB7DEB72397CDBFDEBF2196B3
:1002C4002F923F924F925F926F92BCE5B883B0E059
:1002D400B983B0E0BA8300E6021520F000E6031506
:1002E40008F001C063C0022D005F0093600000931A
:1002F400610030926200309263003C2F4D2F3F5FCB
:100304004F4F152D20E0E32FF42F0081012BE32F15
:10031400F42F00838E010F5F1F4F98012F5F3F4F13
:10032400142DF9010081012BF9010083B2E05B2E49
:10033400B0E06B2EB0E63B2EB0E04B2EB5E12B2E99
:1003440081D0B2E05B2EB0E06B2EB2E63B2EB0E083
:100354004B2EB5E72B2E76D02224E091A600F09107
:10036400A70009952224E091A800F091A90009951D
:100374008E01B1E04B2EB0E05B2E180171DEB1E0CE
:100384002B2EE091A800F091A90009958E010F5F32
:100394001F4FB2E04B2EB0E05B2E180161DEB1E0DE
:1003A4002B2EE091A600F091A70009956F905F9025
:1003B4004F903F902F902296CDBFDEBFDF91CF911B
:0203C40008959A
:1011FC002F923F924F925F926F927F92BFEF2B2E66
:10120C003B2E9CDB0E947F00B0E06B2EB0EF7B2E60
:10121C00B0E65B2EB0E64B2E332422241CDE25E1F7
:10122C001BE40FEB0A95F1F71A95E1F72A95D1F724
:10123C000000B0E06B2EBFEF7B2EBBE55B2EBBE559
:10124C004B2EB5E03B2EB5E02B2E05DE25E11BE445
:10125C000FEB0A95F1F71A95E1F72A95D1F70000F3
:10126C00B0EF6B2EB0E07B2EB6E55B2EB6E54B2EC9
:10127C00BAE03B2EBAE02B2EEEDD25E11BE40FEBA2
:10128C000A95F1F71A95E1F72A95D1F70000BFE01E
:10129C006B2E7B2EB1E55B2EB1E54B2EBFE03B2ECA
:1012AC00BFE02B2ED8DD25E11BE40FEB0A95F1F7FF
:1012BC001A95E1F72A95D1F70000B0E06B2EB0EF4C
:1012CC007B2EBCE45B2EBCE44B2EB4E13B2EB4E194
:1012DC002B2EC1DD25E11BE40FEB0A95F1F71A95D6
:1012EC00E1F72A95D1F70000B0E06B2EBFEF7B2E13
:1012FC00B7E45B2EB7E44B2EB9E13B2EB9E12B2EB4
:10130C00AADD0E947F0066247724BBE15B2EB7E444
:10131C004B2EB9E13B2EB9E12B2E9DDD0E947F00B7
:10132C0066247724B9E45B2EB7E44B2EB7E43B2E4E
:10133C00B9E12B2E90DD0E947F0066247724B7E460
:10134C005B2EBBE14B2EB9E13B2EB9E12B2E83DD9D
:10135C000E947F0066247724B7E45B2EB7E44B2E03
:10136C00B9E13B2EB4E42B2E76DD2AE711EC02E832
:10137C000A95F1F71A95E1F72A95D1F700000000CC
:10138C0055244424B8ED2B2EB3E13B2E48DD22E549
:10139C001BE200E00A95F1F71A95E1F72A95D1F7CF
:1013AC0000000000000000007F906F905F904F9055
:0613BC003F902F90089500
:040E620057D90895BF
:100E2A002F923F924F925F926F927F92F101349686
:100E3A000491152D100FF10132960491040D310120
:100E4A00352C512E242C402E64DB7F906F905F90BE
:080E5A004F903F902F90089586
:10051C00CF93DF93CDB7DEB72997CDBFDEBF219642
:10052C002F923F924F925F926F927F92B0E0BC837A
:10053C00BD83BCE5BE83B0E0BF83B0E0B887442D7B
:10054C0050E04219B0E05B0B052D10E00319B0E050
:10055C001B0B7ADD0883198383010A5F1F4F0A8303
:10056C001B8300E6021520F000E6041508F001C01C
:10057C00A3C000E6031520F000E6051508F001C045
:10058C009BC0421418F0531408F001C095C0022D02
:10059C00005F00936000042D005F01500093610028
:1005AC0030926200052D015000936300B2E05B2E87
:1005BC00B0E06B2EB0E63B2EB0E04B2EB5E12B2E0F
:1005CC003DDFB2E05B2EB0E06B2EB2E63B2EB0E02E
:1005DC004B2EB5E72B2E32DF2224E091A600F091B2
:1005EC00A70009952224E091A800F091A900099593
:1005FC008E010A5F1F4FB1E04B2EB0E05B2E18014D
:10060C002BDDB1E02B2EE091A800F091A90009950B
:10061C002881398108811981015010400883198380
:10062C00B22FB32BB1F14C815D818A010F5F1F4F4B
:10063C002A813B81F801E20FF31F04910F83FA0129
:10064C00E20FF31F049108878E01095F1F4F7F9201
:10065C006F925F924F923F922F92B1E04B2EB0E08F
:10066C005B2E1801F9DC8E01085F1F4FB1E04B2E99
:10067C00B0E05B2E1801F0DC2F903F904F905F9014
:10068C006F907F900C811D810E5F1F4F0C831D831B
:10069C00BFCF7F926F925F924F923F922F92B1E0B9
:1006AC002B2EE091A600F091A70009952F903F907A
:1006BC004F905F906F907F907F906F905F904F9076
:1006CC003F902F902896CDBFDEBFDF91CF9108953C
:0006DC001E
:0A10E40005900D920197E1F70895C1
:1062EC00A0E6B0E0EDE6F2E68EE390E00E947208E4
:0262FC00089503
:1062AB0024051F051A059D06CA06C506C006D90694
:1062BB00D406CF06BB06B606FFFFFFFFFFFFFFFFAF
:1062CB00FFFFFFFFFFFFFFFFFFFFFFFFFFFFFFFFD3
:0462E700DC04FFFFD5
:105BDE00000020007F000D100388010002950100D7
:105BEE0003A2010007AF010005BC01000AC90100B4
:105BFE0007E3010001F0010003FD0100030A0200AA
:105C0E00051702000724020002310200033E0200C3
:105C1E00024B0200035802000565020004720200E6
:105C2E00057F0200058C02000599020005A6020000
:105C3E0005B3020005C0020005CD020005DA020020
:105C4E0002E7020002F4020007010300070E030040
:105C5E00071B03000428030009350300064F030049
:105C6E00055C030006690300067603000583030046
:105C7E0005900300069D030006AA030003B7030068
:105C8E0004C4030005D1030004DE030007EB030088
:105C9E0006F803000705040005120400071F0400A0
:105CAE00062C0400053904000546040006530400C2
:105CBE0005600400096D04000587040005940400C6
:105CCE0005A1040003AE040003BB040003C80400D6
:105CDE0007D5040006E2040003EF040005FC0400EF
:105CEE00050905000416050005230500053005000D
:105CFE00033D0500054A0500055705000164050032
:105D0E0002710500057E0500018B05000798050050
:105D1E0005A5050005B2050005BF050005CC05006B
:105D2E0003D9050004E6050003F30500050006008F
:105D3E00050D0600071A06000527060005340600A5
:105D4E0004410600044E0600025B060004680600CD
:105D5E000775060003820600000000000000000028
:105D6E000000000000000000020202020202000217
:105D7E000000000005050500000000000000000006
:105D8E00000028287E14143F0A0A000000000404B4
:105D9E001E05050E14140F0404000000000000463A
:105DAE000049002900260090015002480288010097
:105DBE00000000000000060909262911314E0000DE
:105DCE0000000101010000000000000000000004BE
:105DDE00020201010101010202040000010202049B
:105DEE0004040404020201000004150E1504000050
:105DFE0000000000000000000808087F08080800E6
:105E0E00000000000000000000000202020100007D
:105E1E00000000000007000000000000000000006D
:105E2E00000000000202000000000404040202024E
:105E3E0002020101010000000E1111111111110ECB
:105E4E000000000000040604040404040E00000018
:105E5E0000000E1110080402011F00000000000EC9
:105E6E0011100C1010110E0000000000080C0A0991
:105E7E001F08080800000000001F01010F1010117C
:105E8E000E00000000000C02010F1111110E000097
:105E9E000000001F100808040402020000000000A9
:105EAE000E11110E1111110E00000000000E111135
:105EBE00111E100806000000000000000202000083
:105ECE0002020000000000000002020000020202B6
:105EDE00010000000040300C020C304000000000B9
:105EEE00000000007F007F000000000000000002A4
:105EFE000C3040300C0200000000000708080402BD
:105F0E0002000200000000000000007C0082003948
:105F1E0001250125012501F90002003C00000000C9
:105F2E0000000C0C1212123F212100000000000F85
:105F3E0011110F1111110F00000000003C020101A0
:105F4E000101023C00000000000F1121212121114E
:105F5E000F00000000001F01010F0101011F0000D2
:105F6E000000001F01011F010101010000000000DF
:105F7E003C0201013921223C0000000000212121B8
:105F8E003F2121212100000000000702020202022F
:105F9E00020700000000000E0808080808080700A5
:105FAE00000000001109050303050911000000009F
:105FBE0000010101010101010F00000000006363F7
:105FCE00555549494141000000000023232525294C
:105FDE0029313100000000001C2241414141221CA8
:105FEE0000000000000F1111110F0101010000004F
:105FFE0000001C2241414141221C10600000000F94
:10600E001111110F09112100000000001E01010ED7
:10601E001010100F00000000001F040404040404FC
:10602E00040000000000212121212121211E000059
:10603E000000001111110A0A0A04040000000000F9
:10604E00000000110111011101AA00AA00AA0044CA
:10605E000044000000000000000011110A04040AB0
:10606E001111000000000011110A0A0404040400BA
:10607E00000000001F1008040402011F00000000B1
:10608E0007010101010101010101070000010101E8
:10609E0002020202020404040000070404040404C1
:1060AE00040404040700000008142241000000004C
:1060BE0000000000000000000000000000003F0093
:1060CE0000020400000000000000000000000000BC
:1060DE00000E101E11111E000000000101010F1113
:1060EE001111110F000000000000000E010101014E
:1060FE000E000000001010101E111111111E0000D4
:10610E0000000000000E111F01110E00000000061D
:10611E000101070101010101000000000000001E45
:10612E00111111111E100E00000101010F1111119C
:10613E001111000000000001000101010101010028
:10614E00000000000200030202020202020100002F
:10615E0001010109050305091100000000010101FB
:10616E000101010101010000000000000037494952
:10617E00494949000000000000000F1111111111D2
:10618E00000000000000000E111111110E000000A1
:10619E00000000000F111111110F0101000000008D
:1061AE00001E111111111E10100000000000050339
:1061BE0001010101000000000000000E01030C08A7
:1061CE0007000000000001010701010101060000A7
:1061DE00000000000011111111111E00000000003E
:1061EE00000011110A0A040400000000000000491A
:1061FE00495555222200000000000000110A040437
:10620E000A110000000000000011110A0A04040225
:10621E000200000000000F080402010F0000000041
:10622E000804040404030404040408000002020227
:10623E000202020202020202000001020202020C2B
:10624E000202020201000000000000464931000077
:0F625E0000000000000705050505050507000005
:1013D800001060006000FFFFFFFFFFFFFFFFFFFF3F
:1013E800FFFFFFFFFFFFFFFFFFFFFFFFFFFFFFFF05
:1013F800FFFFFFFFFFFFFFFFFFFFFFFFFFFFFFFFF5
:10140800FFFFFFFFFFFFFFFFFFFFFFFFFFFFFFFFE4
:10141800FFFFFFFFFFFFFFFFFFFFFFFFFFFFFFFFD4
:10200800FFFFFFFFFFFFFFFF5DFF3CFF3CFF3CFFC3
:102018003CFF3CFF3CFF3CFF3CFF3CFF3CFF3CFFE0
:102028003CFF3CFF3CFF3CFF3CFF3CFF3CFF3CFFD0
:102038003CFF3CFF3CFF3CFF3CFF3CFF3CFF3CFFC0
:102048003CFF3CFF3CFF3CFF3CFF3CFF3CFF3CFFB0
:102058003CFF3CFF3CFF3CFF3CFF3CFF3CFF3CFFA0
:102068005DFFFFFFFFFFFFFFFFFFFFFFFFFFFFFF1A
:10207800FFFFFFFFFFFFFFFFFFFFFFFFFFFFFFFF68
:10208800FFFFFFFFFFFFFFFFFFFFFFFFFFFFFFFF58
:10209800FFFFFFFFFFFFFFFFFFFFFFFFFFFFFFFF48
:1020A800FFFFFFFFFFFFFFFFFFFFFFFFFFFFFFFF38
:1020B800FFFFFFFFFFFFFFFFFFFFFFFFFFFFFFFF28
:1020C800FFFFFFFF79FED3F4EFF3CFF3CFF3CFF3A6
:1020D800CFF3CFF3CFF3CFF3CFF3CFF3CFF3CFF3E8
:1020E800CFF3CFF3CFF3CFF3CFF3CFF3CFF3CFF3D8
:1020F800CFF3CFF3CFF3CFF3CFF3CFF3CFF3CFF3C8
:10210800CFF3CFF3CFF3CFF3CFF3CFF3CFF3CFF3B7
:10211800CFF3CFF3CFF3CFF3CFF3CFF3CFF3CFF3A7
:10212800EFF3D3F4BAFEFFFFFFFFFFFFFFFFFFFF50
:10213800FFFFFFFFFFFFFFFFFFFFFFFFFFFFFFFFA7
:10214800FFFFFFFFFFFFFFFFFFFFFFFFFFFFFFFF97
:10215800FFFFFFFFFFFFFFFFFFFFFFFFFFFFFFFF87
:10216800FFFFFFFFFFFFFFFFFFFFFFFFFFFFFFFF77
:10217800FFFFFFFFFFFFFFFFFFFFFFFFFFFFFFFF67
:10218800FFFF9AFECBF2E7E9CBEACBEACBEACBEA50
:10219800CBEACBEACBEACBEACBEACBEACBEACBEA8F
:1021A800CBEACBEACBEACBEACBEACBEACBEACBEA7F
:1021B800CBEACBEACBEACBEACBEACBEACBEACBEA6F
:1021C800CBEACBEACBEACBEACBEACBEACBEACBEA5F
:1021D800CBEACBEACBEACBEACBEACBEACBEACBEA4F
:1021E800CBEAE7E90CF359FEFFFFFFFFFFFFFFFF14
:1021F800FFFFFFFFFFFFFFFFFFFFFFFFFFFFFFFFE7
:10220800FFFFFFFFFFFFFFFFFFFFFFFFFFFFFFFFD6
:10221800FFFFFFFFFFFFFFFFFFFFFFFFFFFFFFFFC6
:10222800FFFFFFFFFFFFFFFFFFFFFFFFFFFFFFFFB6
:10223800FFFFFFFFFFFFFFFFFFFFFFFFFFFFFFFFA6
:10224800DFFFCBF2A6E9F7FD5DFFFCFE1CFF1CFFDC
:102258001CFF1CFF1CFF1CFF1CFF1CFF1CFF1CFF9E
:102268001CFF1CFF1CFF1CFF1CFF1CFF1CFF1CFF8E
:102278001CFF1CFF1CFF1CFF1CFF1CFF1CFF1CFF7E
:102288001CFF1CFF1CFF1CFF1CFF1CFF1CFF1CFF6E
:102298001CFF1CFF1CFF1CFF1CFF1CFF1CFFFBFE80
:1022A8005DFF18FE86E96AF2FFFFFFFFFFFFFFFFF1
:1022B800FFFFFFFFFFFFFFFFFFFFFFFFFFFFFFFF26
:1022C800FFFFFFFFFFFFFFFFFFFFFFFFFFFFFFFF16
:1022D800FFFFFFFFFFFFFFFFFFFFFFFFFFFFFFFF06
:1022E800FFFFFFFFFFFFFFFFFFFFFFFFFFFFFFFFF6
:1022F800FFFFFFFFFFFFFFFFFFFFFFFFFFFFFFFFE6
:10230800FBFE21E818FEFBFEB2F4AFF3EFF3F0F3A7
:10231800EFF3EFF3EFF3EFF3EFF3EFF3EFF3F0F3A4
:10232800F0F3F0F3F0F3F0F3F0F3F0F3F0F3F0F38D
:10233800F0F3F0F3F0F3EFF3EFF3EFF3F0F3F0F380
:10234800EFF3EFF3EFF3EFF3F0F3F0F3F0F3F0F371
:10235800F0F3F0F3F0F3F0F3F0F3F0F3EFF3AFF39F
:10236800B2F4FCFED7FD41E83CFFFFFFFFFFFFFF93
:10237800FFFFFFFFFFFFFFFFFFFFFFFFFFFFFFFF65
:10238800FFFFFFFFFFFFFFFFFFFFFFFFFFFFFFFF55
:10239800FFFFFFFFFFFFFFFFFFFFFFFFFFFFFFFF45
:1023A800FFFFFFFFFFFFFFFFFFFFFFFFFFFFFFFF35
:1023B800FFFFFFFFFFFFFFFFFFFFFFFFFFFFFFFF25
:1023C800F4F482E8FFFF6EF320E821E821E800E852
:1023D80020E841E841E821E821E820E820E800E891
:1023E80021E821E821E821E821E821E821E821E89D
:1023F80021E821E800E820E841E861E862E882E8AD
:1024080062E861E841E820E800E821E821E821E8FD
:1024180021E821E821E821E821E821E821E821E86C
:1024280020E88EF3FFFF25E992F4FFFFFFFFFFFF8F
:10243800FFFFFFFFFFFFFFFFFFFFFFFFFFFFFFFFA4
:10244800FFFFFFFFFFFFFFFFFFFFFFFFFFFFFFFF94
:10245800FFFFFFFFFFFFFFFFFFFFFFFFFFFFFFFF84
:10246800FFFFFFFFFFFFFFFFFFFFFFFFFFFFFFFF74
:10247800FFFFFFFFFFFFFFFFFFFFFFFFFFFFFFFF64
:1024880031F486E9FFFF29F262E8E4E8A3E8C3E84B
:1024980086E9C8E9C7E9A7E9A7E986E945E9E3E8DC
:1024A80083E8C4E8E4E8E4E8E4E8E4E8E4E8C3E866
:1024B800A3E883E8C3E845E929EAABF2ECF20CF3B8
:1024C800ECF28AF208EA45E9C3E883E8A3E8C3E83E
:1024D800E4E8E4E8E4E8E4E8E4E8E4E8E4E8E4E894
:1024E80062E809F2FFFFC8E910F4FFFFFFFFFFFFF2
:1024F800FFFFFFFFFFFFFFFFFFFFFFFFFFFFFFFFE4
:10250800FFFFFFFFFFFFFFFFFFFFFFFFFFFFFFFFD3
:10251800FFFFFFFFFFFFFFFFFFFFFFFFFFFFFFFFC3
:10252800FFFFFFFFFFFFFFFFFFFFFFFFFFFFFFFFB3
:10253800FFFFFFFFFFFFFFFFFFFFFFFFFFFFFFFFA3
:1025480051F466E9FFFF6AF262E882E804E9D7F528
:10255800BEFFBEFF9EFF9EFF7EFF7DFF5DFFBAFEB2
:102568006AEA62E8C4E8E4E8E4E8E4E8A3E861E8E1
:10257800A3E8ECF218FE5DFFFFFFFFFFFFFFFFFF80
:10258800FFFFFFFFDFFF5DFFD7F5ECF2A3E862E88E
:10259800A3E8E4E8E4E8E4E8E4E8E4E8E4E8E4E814
:1025A80062E84AEAFFFFC7E930F4FFFFFFFFFFFFD9
:1025B800FFFFFFFFFFFFFFFFFFFFFFFFFFFFFFFF23
:1025C800FFFFFFFFFFFFFFFFFFFFFFFFFFFFFFFF13
:1025D800FFFFFFFFFFFFFFFFFFFFFFFFFFFFFFFF03
:1025E800FFFFFFFFFFFFFFFFFFFFFFFFFFFFFFFFF3
:1025F800FFFFFFFFFFFFFFFFFFFFFFFFFFFFFFFFE3
:1026080051F466E9FFFF6AF221E8A3E8DBFEFFFF69
:10261800FFFFFFFFFFFFFFFFFFFFFFFFFFFFFFFFC2
:10262800FFFF29F262E8E4E8E4E842E821E8B3F4CD
:10263800DFFFFFFFFFFFFFFFFFFFFFFFFFFFFFFFC2
:10264800FFFFFFFFFFFFFFFFFFFFFFFFDFFF92F42A
:1026580021E841E8E4E8E4E8E4E8E4E8E4E8E4E878
:1026680062E86AF2FFFFC7E931F4FFFFFFFFFFFFEF
:10267800FFFFFFFFFFFFFFFFFFFFFFFFFFFFFFFF62
:10268800FFFFFFFFFFFFFFFFFFFFFFFFFFFFFFFF52
:10269800FFFFFFFFFFFFFFFFFFFFFFFFFFFFFFFF42
:1026A800FFFFFFFFFFFFFFFFFFFFFFFFFFFFFFFF32
:1026B800FFFFFFFFFFFFFFFFFFFFFFFFFFFFFFFF22
:1026C80051F466E9FFFF6AF200E88EF3FFFFFFFFAF
:1026D800FFFFFFFFFFFFFFFFFFFFFFFFFFFFFFFF02
:1026E800FFFF75F5C4E8C4E800E8C7E9DFFFFFFFAE
:1026F800FFFFFFFFFFFFFFFFFFFFFFFFFFFFFFFFE2
:10270800FFFFFFFFFFFFFFFFFFFFFFFFFFFFFFFFD1
:10271800DFFF08EA00E8E4E8E4E8E4E8E4E8E4E8FD
:1027280062E86AF2FFFFC7E931F4FFFFFFFFFFFF2E
:10273800FFFFFFFFFFFFFFFFFFFFFFFFFFFFFFFFA1
:10274800FFFFFFFFFFFFFFFFFFFFFFFFFFFFFFFF91
:10275800FFFFFFFFFFFFFFFFFFFFFFFFFFFFFFFF81
:10276800FFFFFFFFFFFFFFFFFFFFFFFFFFFFFFFF71
:10277800FFFFFFFFFFFFFFFFFFFFFFFFFFFFFFFF61
:1027880051F466E9FFFF49EA01E8B3F4FFFFFFFFF0
:10279800FFFFFFFFFFFFFFFFFFFFFFFFFFFFFFFF41
:1027A800FFFFDBFE46E900E8A7E9BEFFFFFFFFFFEA
:1027B800FFFFFFFFFFFFFFFFFFFFFFFFFFFFFFFF21
:1027C800FFFFFFFFFFFFFFFFFFFFFFFFFFFFFFFF11
:1027D800FFFFBEFF09EA00E8E4E8E4E8E4E8E4E82B
:1027E80062E86AF2FFFFC7E931F4FFFFFFFFFFFF6E
:1027F800FFFFFFFFFFFFFFFFFFFFFFFFFFFFFFFFE1
:10280800FFFFFFFFFFFFFFFFFFFFFFFFFFFFFFFFD0
:10281800FFFFFFFFFFFFFFFFFFFFFFFFFFFFFFFFC0
:10282800FFFFFFFFFFFFFFFFFFFFFFFFFFFFFFFFB0
:10283800FFFFFFFFFFFFFFFFFFFFFFFFFFFFFFFFA0
:1028480051F466E9FFFF49F221E814F5FFFF8EF322
:10285800E3E8E3E8E3E8E3E8E3E8E3E8E3E009EAF8
:10286800FFFF7DFFA3E8C3E85DFFFFFFFFFFFFFF5A
:10287800FFFFFFFFFFFFFFFFFFFFFFFFFFFFFFFF60
:10288800FFFFFFFFFFFFFFFFFFFFFFFFFFFFFFFF50
:10289800FFFFFFFF5DFF6AF220E8E4E8E4E8E4E810
:1028A80062E86AF2FFFFC7E931F4FFFFFFFFFFFFAD
:1028B800FFFFFFFFFFFFFFFFFFFFFFFFFFFFFFFF20
:1028C800FFFFFFFFFFFFFFFFFFFFFFFFFFFFFFFF10
:1028D800FFFFFFFFFFFFFFFFFFFFFFFFFFFFFFFF00
:1028E800FFFFFFFFFFFFFFFFFFFFFFFFFFFFFFFFF0
:1028F800FFFFFFFFFFFFFFFFFFFFFFFFFFFFFFFFE0
:1029080051F466E9FFFF49EA21E8F4F4FFFF3CFFD0
:10291800BAFEBAFEBAFEBAFEBAFEBAFEBAFEFBFEAE
:10292800FFFFF0F321E859FEFFFFFFFFFFFFFFFF66
:10293800FFFFFFFFFFFFFFFFFFFFFFFFFFFFFFFF9F
:10294800FFFFFFFFFFFFFFFFFFFFFFFFFFFFFFFF8F
:10295800FFFFFFFFFFFF1CFF04E982E8E4E8E4E86B
:1029680062E86AF2FFFFC7E931F4FFFFFFFFFFFFEC
:10297800FFFFFFFFFFFFFFFFFFFFFFFFFFFFFFFF5F
:10298800FFFFFFFFFFFFFFFFFFFFFFFFFFFFFFFF4F
:10299800FFFFFFFFFFFFFFFFFFFFFFFFFFFFFFFF3F
:1029A800FFFFFFFFFFFFFFFFFFFFFFFFFFFFFFFF2F
:1029B800FFFFFFFFFFFFFFFFFFFFFFFFFFFFFFFF1F
:1029C80051F466E9FFFF6AF200E851F4FFFFFFFFE8
:1029D800FFFFFFFFFFFFFFFFFFFFFFFFFFFFFFFFFF
:1029E8007DFFE4E80CF3DFFFFFFFFFFFFFFFFFFFC2
:1029F800FFFFFFFFFFFFFFFFFFFFFFFFFFFFFFFFDF
:102A0800FFFFFFFFFFFFFFFFFFFFFFFFFFFFFFFFCE
:102A1800FFFFFFFFFFFFFFFF34F520E8E4E8E4E8ED
:102A280062E86AF2FFFFC7E931F4FFFFFFFFFFFF2B
:102A3800FFFFFFFFFFFFFFFFFFFFFFFFFFFFFFFF9E
:102A4800FFFFFFFFFFFFFFFFFFFFFFFFFFFFFFFF8E
:102A5800FFFFFFFFFFFFFFFFFFFFFFFFFFFFFFFF7E
:102A6800FFFFFFFFFFFFFFFFFFFFFFFFFFFFFFFF6E
:102A7800FFFFFFFFFFFFFFFFFFFFFFFFFFFFFFFF5E
:102A880051F466E9FFFF6AF200E8C8E95DFFFFFF5D
:102A9800FFFFFFFFFFFFFFFFFFFFFFFFFFFFFFFF3E
:102AA80034F521E859FEFFFFFFFFFFFFFFFFFFFF9F
:102AB800FFFFFFFFFFFFFFFFFFFFFFFFFFFF59FEC5
:102AC8003CFFFFFFFFFFFFFFFFFFFFFFFFFFFFFFD1
:102AD800FFFFFFFFFFFFFFFF7EFFC7E962E8E4E8B3
:102AE80062E86AF2FFFFC7E931F4FFFFFFFFFFFF6B
:102AF800FFFFFFFFFFFFFFFFFFFFFFFFFFFFFFFFDE
:102B0800FFFFFFFFFFFFFFFFFFFFFFFFFFFFFFFFCD
:102B1800FFFFFFFFFFFFFFFFFFFFFFFFFFFFFFFFBD
:102B2800FFFFFFFFFFFFFFFFFFFFFFFFFFFFFFFFAD
:102B3800FFFFFFFFFFFFFFFFFFFFFFFFFFFFFFFF9D
:102B480051F466E9FFFF6AF242E882E80CF3FBFE03
:102B5800FFFFFFFFFFFFFFFFFFFFFFFFFFFFBEFFBE
:102B68000CF366E99EFFFFFFFFFFFFFFFFFFFFFF7C
:102B7800FFFFFFFFFFFFFFFFFFFFFFFF51F4E7E944
:102B88004AF2BAFEFFFFFFFFFFFFFFFFFFFFFFFF55
:102B9800FFFFFFFFFFFFFFFFFFFF10F442E8C4E85D
:102BA80062E86AF2FFFFC7E931F4FFFFFFFFFFFFAA
:102BB800FFFFFFFFFFFFFFFFFFFFFFFFFFFFFFFF1D
:102BC800FFFFFFFFFFFFFFFFFFFFFFFFFFFFFFFF0D
:102BD800FFFFFFFFFFFFFFFFFFFFFFFFFFFFFFFFFD
:102BE800FFFFFFFFFFFFFFFFFFFFFFFFFFFFFFFFED
:102BF800FFFFFFFFFFFFFFFFFFFFFFFFFFFFFFFFDD
:102C080051F466E9FFFF6AF262E8A3E8A3E88AEAFA
:102C18004DF3AFF3CFF3AFF3AFF38EF32DF3EBF246
:102C2800E3E86EF3DFFFFFFFFFFFFFFFFFFFFFFF9C
:102C3800FFFFFFFFFFFFFFFFFFFFDFFF66E941E840
:102C480041E851F4FFFFFFFFFFFFFFFFFFFFFFFF1A
:102C5800FFFFFFFFFFFFFFFFFFFFB6FD82E8C3E8AE
:102C680062E86AF2FFFFC7E931F4FFFFFFFFFFFFE9
:102C7800FFFFFFFFFFFFFFFFFFFFFFFFFFFFFFFF5C
:102C8800FFFFFFFFFFFFFFFFFFFFFFFFFFFFFFFF4C
:102C9800FFFFFFFFFFFFFFFFFFFFFFFFFFFFFFFF3C
:102CA800FFFFFFFFFFFFFFFFFFFFFFFFFFFFFFFF2C
:102CB800FFFFFFFFFFFFFFFFFFFFFFFFFFFFFFFF1C
:102CC80051F466E9FFFF4AF221E88EF392F492F498
:102CD800B3F40CF382E8C4E8C3E8A3E883E862E845
:102CE80021E814F5FFFFFFFFFFFFFFFFFFFFFFFFD6
:102CF800FFFFFFFFFFFFFFFFFFFFBEFF83E883E843
:102D080062E8CBF2FFFFFFFFFFFFFFFFFFFFFFFFC0
:102D1800FFFFFFFFFFFFFFFFFFFFDBFE45E983E843
:102D280062E86AF2FFFFC7E931F4FFFFFFFFFFFF28
:102D3800FFFFFFFFFFFFFFFFFFFFFFFFFFFFFFFF9B
:102D4800FFFFFFFFFFFFFFFFFFFFFFFFFFFFFFFF8B
:102D5800FFFFFFFFFFFFFFFFFFFFFFFFFFFFFFFF7B
:102D6800FFFFFFFFFFFFFFFFFFFFFFFFFFFFFFFF6B
:102D7800FFFFFFFFFFFFFFFFFFFFFFFFFFFFFFFF5B
:102D880051F466E9FFFF6AF200E80CF3FCFEFFFF6E
:102D9800FFFFF7FD00E862E862E862E862E883E8BE
:102DA80041E838FEFFFFFFFFFFFFFFFFFFFFFFFFC8
:102DB800FFFFFFFFFFFFFFFFFFFF7DFF62E8A3E8C4
:102DC80062E829EAFFFFFFFFFFFFFFFFFFFFFFFFAA
:102DD800FFFFFFFFFFFFFFFFFFFF7DFF4AF262E8F3
:102DE80062E86AF2FFFFC7E931F4FFFFFFFFFFFF68
:102DF800FFFFFFFFFFFFFFFFFFFFFFFFFFFFFFFFDB
:102E0800FFFFFFFFFFFFFFFFFFFFFFFFFFFFFFFFCA
:102E1800FFFFFFFFFFFFFFFFFFFFFFFFFFFFFFFFBA
:102E2800FFFFFFFFFFFFFFFFFFFFFFFFFFFFFFFFAA
:102E3800FFFFFFFFFFFFFFFFFFFFFFFFFFFFFFFF9A
:102E480051F466E9FFFF6AF201E8C7E938FEFFFFBF
:102E5800FFFF9EFF8EF34DF34DF34DF3AFF329F2D1
:102E680082E8BBFEFFFFFFFFFFFFFFFFFFFFFFFF43
:102E7800FFFFFFFFFFFFFFFFFFFF3CFF62E8A3E844
:102E880082E8E8E9FFFFFFFFFFFFFFFFFFFFFFFF0B
:102E9800FFFFFFFFFFFFFFFFFFFFDFFF2DF321E82D
:102EA80062E86AF2FFFFC7E931F4FFFFFFFFFFFFA7
:102EB800FFFFFFFFFFFFFFFFFFFFFFFFFFFFFFFF1A
:102EC800FFFFFFFFFFFFFFFFFFFFFFFFFFFFFFFF0A
:102ED800FFFFFFFFFFFFFFFFFFFFFFFFFFFFFFFFFA
:102EE800FFFFFFFFFFFFFFFFFFFFFFFFFFFFFFFFEA
:102EF800FFFFFFFFFFFFFFFFFFFFFFFFFFFFFFFFDA
:102F080051F466E9FFFF6AF200E86EF3FBFEFFFF8B
:102F1800FFFFFFFFBEFF3CFF3CFF3CFFBEFF71F41D
:102F2800C3E8FBFEFFFFFFFFFFFFFFFFFFFFFFFF01
:102F3800FFFFFFFFFFFFFFFFFFFF1CFF62E8C3E883
:102F480082E8C7E9FFFFFFFFFFFFFFFFFFFFFFFF6B
:102F5800FFFFFFFFFFFFFFFFFFFFFFFFCFF321E8AA
:102F680062E86AF2FFFFC7E931F4FFFFFFFFFFFFE6
:102F7800FFFFFFFFFFFFFFFFFFFFFFFFFFFFFFFF59
:102F8800FFFFFFFFFFFFFFFFFFFFFFFFFFFFFFFF49
:102F9800FFFFFFFFFFFFFFFFFFFFFFFFFFFFFFFF39
:102FA800FFFFFFFFFFFFFFFFFFFFFFFFFFFFFFFF29
:102FB800FFFFFFFFFFFFFFFFFFFFFFFFFFFFFFFF19
:102FC80051F466E9FFFF6AF200E831F4FFFFFFFF02
:102FD800FFFFFFFFFFFFFFFFFFFFFFFFFFFF72F491
:102FE80005E91CFFFFFFFFFFFFFFFFFFFFFFFFFFDC
:102FF800FFFFFFFFFFFFFFFFFFFF1CFF62E8C3E8C3
:1030080082E8C7E9FFFFFFFFFFFFFFFFFFFFFFFFAA
:10301800FFFFFFFFFFFFFFFFFFFFFFFF92F421E825
:1030280062E86AF2FFFFC7E931F4FFFFFFFFFFFF25
:10303800FFFFFFFFFFFFFFFFFFFFFFFFFFFFFFFF98
:10304800FFFFFFFFFFFFFFFFFFFFFFFFFFFFFFFF88
:10305800FFFFFFFFFFFFFFFFFFFFFFFFFFFFFFFF78
:10306800FFFFFFFFFFFFFFFFFFFFFFFFFFFFFFFF68
:10307800FFFFFFFFFFFFFFFFFFFFFFFFFFFFFFFF58
:1030880051F466E9FFFF6AF200E831F4FFFFFFFF41
:10309800FFFFFFFFFFFFFFFFFFFFFFFFFFFF31F411
:1030A80066E93CFFFFFFFFFFFFFFFFFFFFFFFFFF9A
:1030B800FFFFFFFFFFFFFFFFFFFF1CFF41E882E864
:1030C80062E886E9FFFFFFFFFFFFFFFFFFFFFFFF4B
:1030D800FFFFFFFFFFFFFFFFFFFFFFFFF4F482E8A2
:1030E80042E86AF2FFFFC7E931F4FFFFFFFFFFFF85
:1030F800FFFFFFFFFFFFFFFFFFFFFFFFFFFFFFFFD8
:10310800FFFFFFFFFFFFFFFFFFFFFFFFFFFFFFFFC7
:10311800FFFFFFFFFFFFFFFFFFFFFFFFFFFFFFFFB7
:10312800FFFFFFFFFFFFFFFFFFFFFFFFFFFFFFFFA7
:10313800FFFFFFFFFFFFFFFFFFFFFFFFFFFFFFFF97
:1031480051F466E9FFFF6AF200E8AFF359FE18FE92
:1031580018FE18FE38FE18FE18FE18FE59FEAFF3CA
:1031680086E93DFFFFFFFFFFFFFFFFFFFFFFFFFFB8
:10317800FFFFFFFFFFFFFFFFFFFF1CFF24E925E91B
:1031880025E908F2FFFFFFFFFFFFFFFFFFFFFFFF3B
:10319800FFFFFFFFFFFFFFFFFFFFFFFF14F5A3E89F
:1031A80042E86AF2FFFFC7E931F4FFFFFFFFFFFFC4
:1031B800FFFFFFFFFFFFFFFFFFFFFFFFFFFFFFFF17
:1031C800FFFFFFFFFFFFFFFFFFFFFFFFFFFFFFFF07
:1031D800FFFFFFFFFFFFFFFFFFFFFFFFFFFFFFFFF7
:1031E800FFFFFFFFFFFFFFFFFFFFFFFFFFFFFFFFE7
:1031F800FFFFFFFFFFFFFFFFFFFFFFFFFFFFFFFFD7
:1032080051F466E9FFFF6AF221E809EA6AF245E942
:1032180082E862E882E862E8C3E845E98AF2A7E959
:10322800C7E95DFFFFFFFFFFFFFFFFFFFFFFFFFF96
:10323800FFFFFFFFFFFFFFFFFFFFBEFF55FD76FD0E
:1032480075FDD7FDFFFFFFFFFFFFFFFFFFFFFFFF3C
:10325800FFFFFFFFFFFFFFFFFFFFFFFF34F5A3E8BE
:1032680041E86AF2FFFFC7E931F4FFFFFFFFFFFF04
:10327800FFFFFFFFFFFFFFFFFFFFFFFFFFFFFFFF56
:10328800FFFFFFFFFFFFFFFFFFFFFFFFFFFFFFFF46
:10329800FFFFFFFFFFFFFFFFFFFFFFFFFFFFFFFF36
:1032A800FFFFFFFFFFFFFFFFFFFFFFFFFFFFFFFF26
:1032B800FFFFFFFFFFFFFFFFFFFFFFFFFFFFFFFF16
:1032C80051F466E9FFFF6AF200E851F4FFFF7AFE65
:1032D8002DF324E9E4E886F110F49AFEFFFF31F4B7
:1032E80066E93CFFFFFFFFFFFFFFFFFFFFFFFFFF58
:1032F800FFFFFFFFFFFFFFFFFFFFFFFFFFFFFFFFD6
:10330800FFFFFFFFFFFFFFFFFFFFFFFFFFFFFFFFC5
:10331800FFFFFFFFFFFFFFFFFFFFFFFF35F5A3E8FC
:1033280041E86AF2FFFFC7E931F4FFFFFFFFFFFF43
:10333800FFFFFFFFFFFFFFFFFFFFFFFFFFFFFFFF95
:10334800FFFFFFFFFFFFFFFFFFFFFFFFFFFFFFFF85
:10335800FFFFFFFFFFFFFFFFFFFFFFFFFFFFFFFF75
:10336800FFFFFFFFFFFFFFFFFFFFFFFFFFFFFFFF65
:10337800FFFFFFFFFFFFFFFFFFFFFFFFFFFFFFFF55
:1033880051F466E9FFFF6AF200E810F4FFFFFFFF5F
:10339800FFFFFFFFDBFEFFFFFFFFFFFFFFFF10F454
:1033A80066E93CFFFFFFFFFFFFFFFFFFFFFFFFFF97
:1033B800FFFFFFFFFFFFFFFFFFFFFFFFFFFFFFFF15
:1033C800FFFFFFFFFFFFFFFFFFFFFFFFFFFFFFFF05
:1033D800FFFFFFFFFFFFFFFFFFFFFFFF55F5C3E8FC
:1033E80021E86AF2FFFFC7E931F4FFFFFFFFFFFFA3
:1033F800FFFFFFFFFFFFFFFFFFFFFFFFFFFFFFFFD5
:10340800FFFFFFFFFFFFFFFFFFFFFFFFFFFFFFFFC4
:10341800FFFFFFFFFFFFFFFFFFFFFFFFFFFFFFFFB4
:10342800FFFFFFFFFFFFFFFFFFFFFFFFFFFFFFFFA4
:10343800FFFFFFFFFFFFFFFFFFFFFFFFFFFFFFFF94
:1034480051F466E9FFFF6AF200E8F0F3BFFFFFFFFF
:10345800FFFFFFFFFFFFFFFFFFFFFFFFFFFF51F42D
:1034680066E93CFFFFFFFFFFFFFFFFFFFFFFFFFFD6
:10347800FFFFFFFFFFFFFFFFFFFFFFFFFFFFFFFF54
:10348800FFFFFFFFFFFFFFFFFFFFFFFFFFFFFFFF44
:10349800FFFFFFFFFFFFFFFFFFFFFFFF55F5C3E83B
:1034A80041E86AF2FFFFC7E931F4FFFFFFFFFFFFC2
:1034B800FFFFFFFFFFFFFFFFFFFFFFFFFFFFFFFF14
:1034C800FFFFFFFFFFFFFFFFFFFFFFFFFFFFFFFF04
:1034D800FFFFFFFFFFFFFFFFFFFFFFFFFFFFFFFFF4
:1034E800FFFFFFFFFFFFFFFFFFFFFFFFFFFFFFFFE4
:1034F800FFFFFFFFFFFFFFFFFFFFFFFFFFFFFFFFD4
:1035080051F466E9FFFF6AF242E883E8A7E9B7F5F4
:10351800FFFFFFFFFFFFFFFFFFFF7DFF34F566E9B9
:10352800C7E95DFFFFFFFFFFFFFFFFFFFFFFFFFF93
:10353800FFFFFFFFFFFFFFFFFFFFFFFFFFFFFFFF93
:10354800FFFFFFFFFFFFFFFFFFFFFFFFFFFFFFFF83
:10355800FFFFFFFFFFFFFFFFFFFFFFFF55F5C3E87A
:1035680041E86AF2FFFFC7E931F4FFFFFFFFFFFF01
:10357800FFFFFFFFFFFFFFFFFFFFFFFFFFFFFFFF53
:10358800FFFFFFFFFFFFFFFFFFFFFFFFFFFFFFFF43
:10359800FFFFFFFFFFFFFFFFFFFFFFFFFFFFFFFF33
:1035A800FFFFFFFFFFFFFFFFFFFFFFFFFFFFFFFF23
:1035B800FFFFFFFFFFFFFFFFFFFFFFFFFFFFFFFF13
:1035C80051F466E9FFFF6AF200E82DF318FE96F55C
:1035D8009AFEFFFFFFFFFFFF3CFF96FD18FEECF28F
:1035E800A7E93DFFFFFFFFFFFFFFFFFFFFFFFFFF13
:1035F800FFFFFFFFFFFFFFFFFFFFFFFFFFFFFFFFD3
:10360800FFFFFFFFFFFFFFFFFFFFFFFFFFFFFFFFC2
:10361800FFFFFFFFFFFFFFFFFFFFFFFF55F5C3E8B9
:1036280041E86AF2FFFFC7E931F4FFFFFFFFFFFF40
:10363800FFFFFFFFFFFFFFFFFFFFFFFFFFFFFFFF92
:10364800FFFFFFFFFFFFFFFFFFFFFFFFFFFFFFFF82
:10365800FFFFFFFFFFFFFFFFFFFFFFFFFFFFFFFF72
:10366800FFFFFFFFFFFFFFFFFFFFFFFFFFFFFFFF62
:10367800FFFFFFFFFFFFFFFFFFFFFFFFFFFFFFFF52
:1036880051F466E9FFFF6AF200E830F4DFFFBEFF9D
:10369800DFFFFFFFFFFFFFFFFFFFBEFFDFFF10F4AD
:1036A80066E93CFFFFFFFFFFFFFFFFFFFFFFFFFF94
:1036B800FFFFFFFFFFFFFFFFFFFFFFFFFFFFFFFF12
:1036C800FFFFFFFFFFFFFFFFFFFFFFFFFFFFFFFF02
:1036D800FFFFFFFFFFFFFFFFFFFFFFFF76F5A3E8F8
:1036E80021E86AF2FFFFC7E931F4FFFFFFFFFFFFA0
:1036F800FFFFFFFFFFFFFFFFFFFFFFFFFFFFFFFFD2
:10370800FFFFFFFFFFFFFFFFFFFFFFFFFFFFFFFFC1
:10371800FFFFFFFFFFFFFFFFFFFFFFFFFFFFFFFFB1
:10372800FFFFFFFFFFFFFFFFFFFFFFFFFFFFFFFFA1
:10373800FFFFFFFFFFFFFFFFFFFFFFFFFFFFFFFF91
:1037480051F466E9FFFF6AF200E810F4FFFFFFFF9B
:10375800FFFFFFFFFFFFFFFFFFFFFFFFFFFF10F46B
:1037680066E93CFFFFFFFFFFFFFFFFFFFFFFFFFFD3
:10377800FFFFFFFFFFFFFFFFFFFFDFFFBEFFBEFFF3
:10378800BEFFBEFFBEFFBEFFBEFFBEFFBEFFBEFF49
:10379800BEFFBEFFBEFFBEFFDFFFFFFF14F5C3E89D
:1037A80041E86AF2FFFFC7E931F4FFFFFFFFFFFFBF
:1037B800FFFFFFFFFFFFFFFFFFFFFFFFFFFFFFFF11
:1037C800FFFFFFFFFFFFFFFFFFFFFFFFFFFFFFFF01
:1037D800FFFFFFFFFFFFFFFFFFFFFFFFFFFFFFFFF1
:1037E800FFFFFFFFFFFFFFFFFFFFFFFFFFFFFFFFE1
:1037F800FFFFFFFFFFFFFFFFFFFFFFFFFFFFFFFFD1
:1038080051F466E9FFFF6AF200E872F4FFFFFFFF78
:10381800FFFFFFFFFFFFFFFFFFFFFFFFFFFF71F449
:1038280066E93CFFFFFFFFFFFFFFFFFFFFFFFFFF12
:10383800FFFFFFFFFFFFFFFFFFFF1CFF86E9A6E971
:10384800A6E9A6E986E986E986E986E986E986E9B8
:1038580086E986E986E986E9A6E9A6E905E9E4E8CC
:1038680062E86AF2FFFFC7E931F4FFFFFFFFFFFFDD
:10387800FFFFFFFFFFFFFFFFFFFFFFFFFFFFFFFF50
:10388800FFFFFFFFFFFFFFFFFFFFFFFFFFFFFFFF40
:10389800FFFFFFFFFFFFFFFFFFFFFFFFFFFFFFFF30
:1038A800FFFFFFFFFFFFFFFFFFFFFFFFFFFFFFFF20
:1038B800FFFFFFFFFFFFFFFFFFFFFFFFFFFFFFFF10
:1038C80051F466E9FFFF6AF221E8E8E9ECF20CF34B
:1038D800ECF2ECF2ECF2ECF2ECF2ECF20CF387E93D
:1038E800C7E93DFFFFFFFFFFFFFFFFFFFFFFFFFFF0
:1038F800FFFFFFFFFFFFFFFFFFFF1CFF41E882E81C
:10390800A3E8A3E862E841E841E841E841E841E882
:1039180041E841E841E841E841E841E862E8E4E893
:1039280062E86AF2FFFFC7E931F4FFFFFFFFFFFF1C
:10393800FFFFFFFFFFFFFFFFFFFFFFFFFFFFFFFF8F
:10394800FFFFFFFFFFFFFFFFFFFFFFFFFFFFFFFF7F
:10395800FFFFFFFFFFFFFFFFFFFFFFFFFFFFFFFF6F
:10396800FFFFFFFFFFFFFFFFFFFFFFFFFFFFFFFF5F
:10397800FFFFFFFFFFFFFFFFFFFFFFFFFFFFFFFF4F
:1039880051F466E9FFFF6AF200E8CBF2D7FD4AF28C
:1039980071F476F555F555F555F555F5B7FDABF2D6
:1039A800A7E93DFFFFFFFFFFFFFFFFFFFFFFFFFF4F
:1039B800FFFFFFFFFFFFFFFFFFFF1CFF62E8C3E8F9
:1039C800C4E8E4E886E909F2E8F1E8F1E8F1E8F1A9
:1039D800E8F1E8F1E8F1E8F1E8F108F286E9E4E86D
:1039E80062E86AF2FFFFC7E931F4FFFFFFFFFFFF5C
:1039F800FFFFFFFFFFFFFFFFFFFFFFFFFFFFFFFFCF
:103A0800FFFFFFFFFFFFFFFFFFFFFFFFFFFFFFFFBE
:103A1800FFFFFFFFFFFFFFFFFFFFFFFFFFFFFFFFAE
:103A2800FFFFFFFFFFFFFFFFFFFFFFFFFFFFFFFF9E
:103A3800FFFFFFFFFFFFFFFFFFFFFFFFFFFFFFFF8E
:103A480051F466E9FFFF6AF200E8F0F3FFFF2DF397
:103A580079FEDFFFBEFFBEFFBEFFBEFFDFFFF0F354
:103A680066E93CFFFFFFFFFFFFFFFFFFFFFFFFFFD0
:103A7800FFFFFFFFFFFFFFFFFFFF1CFF62E8C3E838
:103A8800C3E8C4E871F418FEF8FDF8FDF8FDF8FD88
:103A9800F8FDF8FDF8FDF8FDF8FD18FE72F4C3E82E
:103AA80041E86AF2FFFFC7E931F4FFFFFFFFFFFFBC
:103AB800FFFFFFFFFFFFFFFFFFFFFFFFFFFFFFFF0E
:103AC800FFFFFFFFFFFFFFFFFFFFFFFFFFFFFFFFFE
:103AD800FFFFFFFFFFFFFFFFFFFFFFFFFFFFFFFFEE
:103AE800FFFFFFFFFFFFFFFFFFFFFFFFFFFFFFFFDE
:103AF800FFFFFFFFFFFFFFFFFFFFFFFFFFFFFFFFCE
:103B080051F466E9FFFF6AF200E810F4FFFF4DF395
:103B1800BAFEFFFFFFFFFFFFFFFFFFFFFFFF10F4ED
:103B280066E93CFFFFFFFFFFFFFFFFFFFFFFFFFF0F
:103B3800FFFFFFFFFFFFFFFFFFFF1CFF62E8C3E877
:103B4800A3E8C4E875F5FFFFFFFFFFFFFFFFFFFFD6
:103B5800FFFFFFFFFFFFFFFFFFFFFFFF96F5C3E833
:103B680041E86AF2FFFFC7E931F4FFFFFFFFFFFFFB
:103B7800FFFFFFFFFFFFFFFFFFFFFFFFFFFFFFFF4D
:103B8800FFFFFFFFFFFFFFFFFFFFFFFFFFFFFFFF3D
:103B9800FFFFFFFFFFFFFFFFFFFFFFFFFFFFFFFF2D
:103BA800FFFFFFFFFFFFFFFFFFFFFFFFFFFFFFFF1D
:103BB800FFFFFFFFFFFFFFFFFFFFFFFFFFFFFFFF0D
:103BC80051F466E9FFFF6AF200E851F4FFFF8EF353
:103BD8001CFFFFFFFFFFFFFFFFFFFFFFFFFF51F489
:103BE80066E93CFFFFFFFFFFFFFFFFFFFFFFFFFF4F
:103BF800FFFFFFFFFFFFFFFFFFFF1CFF62E8C3E8B7
:103C0800A3E8C4E834F5FFFFFFFFFFFFFFFFFFFF56
:103C1800FFFFFFFFFFFFFFFFFFFFFFFF55F5C3E8B3
:103C280021E86AF2FFFFC7E931F4FFFFFFFFFFFF5A
:103C3800FFFFFFFFFFFFFFFFFFFFFFFFFFFFFFFF8C
:103C4800FFFFFFFFFFFFFFFFFFFFFFFFFFFFFFFF7C
:103C5800FFFFFFFFFFFFFFFFFFFFFFFFFFFFFFFF6C
:103C6800FFFFFFFFFFFFFFFFFFFFFFFFFFFFFFFF5C
:103C7800FFFFFFFFFFFFFFFFFFFFFFFFFFFFFFFF4C
:103C880051F466E9FFFF6AF221E8CBF271F408EA21
:103C980010F451F451F451F451F451F451F46AF21E
:103CA800A7E93CFFFFFFFFFFFFFFFFFFFFFFFFFF4D
:103CB800FFFFFFFFFFFFFFFFFFFF1CFF62E8C3E8F6
:103CC800A3E8C4E834F5FFFFFFFFFFFFFFFFFFFF96
:103CD800FFFFFFFFFFFFFFFFFFFFFFFF55F5C3E8F3
:103CE80041E86AF2FFFFC7E931F4FFFFFFFFFFFF7A
:103CF800FFFFFFFFFFFFFFFFFFFFFFFFFFFFFFFFCC
:103D0800FFFFFFFFFFFFFFFFFFFFFFFFFFFFFFFFBB
:103D1800FFFFFFFFFFFFFFFFFFFFFFFFFFFFFFFFAB
:103D2800FFFFFFFFFFFFFFFFFFFFFFFFFFFFFFFF9B
:103D3800FFFFFFFFFFFFFFFFFFFFFFFFFFFFFFFF8B
:103D480051F466E9FFFF6AF262E883E845E9AAF2FE
:103D5800EBF2EBF2EBF2EBF2EBF2EBF22CF386E99F
:103D6800A7E93CFFFFFFFFFFFFFFFFFFFFFFFFFF8C
:103D7800FFFFFFFFFFFFFFFFFFFF1CFF62E8C3E835
:103D8800A3E8C4E834F5FFFFFFFFFFFFFFFFFFFFD5
:103D9800FFFFFFFFFFFFFFFFFFFFFFFF55F5C3E832
:103DA80041E86AF2FFFFC7E931F4FFFFFFFFFFFFB9
:103DB800FFFFFFFFFFFFFFFFFFFFFFFFFFFFFFFF0B
:103DC800FFFFFFFFFFFFFFFFFFFFFFFFFFFFFFFFFB
:103DD800FFFFFFFFFFFFFFFFFFFFFFFFFFFFFFFFEB
:103DE800FFFFFFFFFFFFFFFFFFFFFFFFFFFFFFFFDB
:103DF800FFFFFFFFFFFFFFFFFFFFFFFFFFFFFFFFCB
:103E080051F466E9FFFF6AF241E825E951F4DBFE67
:103E18003CFF3CFF3CFF3CFF3CFF3CFFBEFFF0F398
:103E280025E91CFFFFFFFFFFFFFFFFFFFFFFFFFF6D
:103E3800FFFFFFFFFFFFFFFFFFFF1CFF62E8C3E874
:103E4800A3E8C4E834F5FFFFFFFFFFFFFFFFFFFF14
:103E5800FFFFFFFFFFFFFFFFFFFFFFFF34F5A3E8B2
:103E680041E86AF2FFFFC7E931F4FFFFFFFFFFFFF8
:103E7800FFFFFFFFFFFFFFFFFFFFFFFFFFFFFFFF4A
:103E8800FFFFFFFFFFFFFFFFFFFFFFFFFFFFFFFF3A
:103E9800FFFFFFFFFFFFFFFFFFFFFFFFFFFFFFFF2A
:103EA800FFFFFFFFFFFFFFFFFFFFFFFFFFFFFFFF1A
:103EB800FFFFFFFFFFFFFFFFFFFFFFFFFFFFFFFF0A
:103EC80051F466E9FFFF6AF200E88EF3FFFFFFFF97
:103ED800FFFFFFFFFFFFFFFFFFFFFFFFFFFFD3F421
:103EE800A3E8FBFEFFFFFFFFFFFFFFFFFFFFFFFF52
:103EF800FFFFFFFFFFFFFFFFFFFF1CFF62E8C3E8B4
:103F0800A3E8C4E834F5FFFFFFFFFFFFFFFFFFFF53
:103F1800FFFFFFFFFFFFFFFFFFFFFFFFF3F482E854
:103F280042E86AF2FFFFC7E931F4FFFFFFFFFFFF36
:103F3800FFFFFFFFFFFFFFFFFFFFFFFFFFFFFFFF89
:103F4800FFFFFFFFFFFFFFFFFFFFFFFFFFFFFFFF79
:103F5800FFFFFFFFFFFFFFFFFFFFFFFFFFFFFFFF69
:103F6800FFFFFFFFFFFFFFFFFFFFFFFFFFFFFFFF59
:103F7800FFFFFFFFFFFFFFFFFFFFFFFFFFFFFFFF49
:103F880051F466E9FFFF49EA01E814F5FFFFFFFF76
:103F9800FFFFFFFFFFFFFFFFFFFFFFFFFFFF35FDF5
:103FA80062E8BAFEFFFFFFFFFFFFFFFFFFFFFFFF13
:103FB800FFFFFFFFFFFFFFFFFFFF1CFF62E8C3E8F3
:103FC800A3E8C4E835F5FFFFFFFFFFFFFFFFFFFF92
:103FD800FFFFFFFFFFFFFFFFFFFFFFFF92F421E856
:103FE80062E86AF2FFFFC7E931F4FFFFFFFFFFFF56
:103FF800FFFFFFFFFFFFFFFFFFFFFFFFFFFFFFFFC9
:10400800FFFFFFFFFFFFFFFFFFFFFFFFFFFFFFFFB8
:10401800FFFFFFFFFFFFFFFFFFFFFFFFFFFFFFFFA8
:10402800FFFFFFFFFFFFFFFFFFFFFFFFFFFFFFFF98
:10403800FFFFFFFFFFFFFFFFFFFFFFFFFFFFFFFF88
:1040480051F466E9FFFF4AEA01E8B3F4FFFF7DFF98
:10405800BBFEDBFEDBFEDBFEDBFEDBFEDBFE35F55F
:1040680042E859FEFFFFFFFFFFFFFFFFFFFFFFFFD3
:10407800FFFFFFFFFFFFFFFFFFFF3CFF42E8C3E832
:10408800A3E8E4E8B6F5FFFFFFFFFFFFFFFFFFFF30
:10409800FFFFFFFFFFFFFFFFFFFFFFFF31F401E816
:1040A80062E86AF2FFFFC7E931F4FFFFFFFFFFFF95
:1040B800FFFFFFFFFFFFFFFFFFFFFFFFFFFFFFFF08
:1040C800FFFFFFFFFFFFFFFFFFFFFFFFFFFFFFFFF8
:1040D800FFFFFFFFFFFFFFFFFFFFFFFFFFFFFFFFE8
:1040E800FFFFFFFFFFFFFFFFFFFFFFFFFFFFFFFFD8
:1040F800FFFFFFFFFFFFFFFFFFFFFFFFFFFFFFFFC8
:1041080051F466E9FFFF6AF200E80CF39EFF76F5CA
:1041180029EA29EA49F249F249F249F26AF2C7E979
:1041280041E8B7FDFFFFFFFFFFFFFFFFFFFFFFFFB6
:10413800FFFFFFFFFFFFFFFFFFFF9EFF82E8A3E8EF
:10414800A3E804E979FEFFFFFFFFFFFFFFFFFFFF82
:10415800FFFFFFFFFFFFFFFFFFFFFFFF8EF321E8D9
:1041680062E86AF2FFFFC7E931F4FFFFFFFFFFFFD4
:10417800FFFFFFFFFFFFFFFFFFFFFFFFFFFFFFFF47
:10418800FFFFFFFFFFFFFFFFFFFFFFFFFFFFFFFF37
:10419800FFFFFFFFFFFFFFFFFFFFFFFFFFFFFFFF27
:1041A800FFFFFFFFFFFFFFFFFFFFFFFFFFFFFFFF17
:1041B800FFFFFFFFFFFFFFFFFFFFFFFFFFFFFFFF07
:1041C80051F466E9FFFF6AF242E820E876F559FE05
:1041D8004DF3ECF20CF30CF30CF30CF30CF3ECF2E0
:1041E800C3E8F0F3FFFFFFFFFFFFFFFFFFFFFFFF45
:1041F800FFFFFFFFFFFFFFFFFFFFFFFF25E982E84B
:1042080062E804E9BEFFFFFFFFFFFFFFFFFFFFFFBC
:10421800FFFFFFFFFFFFFFFFFFFF7DFF29F262E8BF
:1042280062E86AF2FFFFC7E931F4FFFFFFFFFFFF13
:10423800FFFFFFFFFFFFFFFFFFFFFFFFFFFFFFFF86
:10424800FFFFFFFFFFFFFFFFFFFFFFFFFFFFFFFF76
:10425800FFFFFFFFFFFFFFFFFFFFFFFFFFFFFFFF66
:10426800FFFFFFFFFFFFFFFFFFFFFFFFFFFFFFFF56
:10427800FFFFFFFFFFFFFFFFFFFFFFFFFFFFFFFF46
:1042880051F466E9FFFF6AF200E8A7E9BAFEFFFF0A
:10429800FFFFFFFFFFFFFFFFFFFFFFFFFFFFFFFF26
:1042A800ABF208EADFFFFFFFFFFFFFFFFFFFFFFFA3
:1042B800FFFFFFFFFFFFFFFFFFFFFFFFECF241E8FB
:1042C80041E80CF3FFFFFFFFFFFFFFFFFFFFFFFFCA
:1042D800FFFFFFFFFFFFFFFFFFFF9AFEE4E8A3E8F1
:1042E80062E86AF2FFFFC7E931F4FFFFFFFFFFFF53
:1042F800FFFFFFFFFFFFFFFFFFFFFFFFFFFFFFFFC6
:10430800FFFFFFFFFFFFFFFFFFFFFFFFFFFFFFFFB5
:10431800FFFFFFFFFFFFFFFFFFFFFFFFFFFFFFFFA5
:10432800FFFFFFFFFFFFFFFFFFFFFFFFFFFFFFFF95
:10433800FFFFFFFFFFFFFFFFFFFFFFFFFFFFFFFF85
:1043480051F466E9FFFF4AEA00E8B3F4FFFFFFFF14
:10435800FFFFFFFFFFFFFFFFFFFFFFFFFFFFFFFF65
:1043680072F400E81CFFFFFFFFFFFFFFFFFFFFFFE6
:10437800FFFFFFFFFFFFFFFFFFFFFFFFFFFF76F5D8
:1043880059FEFFFFFFFFFFFFFFFFFFFFFFFFFFFFDC
:10439800FFFFFFFFFFFFFFFFFFFF31F401E8E4E845
:1043A80062E86AF2FFFFC7E931F4FFFFFFFFFFFF92
:1043B800FFFFFFFFFFFFFFFFFFFFFFFFFFFFFFFF05
:1043C800FFFFFFFFFFFFFFFFFFFFFFFFFFFFFFFFF5
:1043D800FFFFFFFFFFFFFFFFFFFFFFFFFFFFFFFFE5
:1043E800FFFFFFFFFFFFFFFFFFFFFFFFFFFFFFFFD5
:1043F800FFFFFFFFFFFFFFFFFFFFFFFFFFFFFFFFC5
:1044080051F466E9FFFF49EA21E834FDFFFFFFFFA9
:10441800FFFFFFFFFFFFFFFFFFFFFFFFFFFFFFFFA4
:10442800DFFF04E98AF2FFFFFFFFFFFFFFFFFFFF47
:10443800FFFFFFFFFFFFFFFFFFFFFFFFFFFFFFFF84
:10444800FFFFFFFFFFFFFFFFFFFFFFFFFFFFFFFF74
:10445800FFFFFFFFFFFFFFFF9EFF62E8A3E8E4E81E
:1044680062E86AF2FFFFC7E931F4FFFFFFFFFFFFD1
:10447800FFFFFFFFFFFFFFFFFFFFFFFFFFFFFFFF44
:10448800FFFFFFFFFFFFFFFFFFFFFFFFFFFFFFFF34
:10449800FFFFFFFFFFFFFFFFFFFFFFFFFFFFFFFF24
:1044A800FFFFFFFFFFFFFFFFFFFFFFFFFFFFFFFF14
:1044B800FFFFFFFFFFFFFFFFFFFFFFFFFFFFFFFF04
:1044C80051F466E9FFFF6AF200E851F4FFFF9EFF2E
:1044D80059FE38FE38FE38FE38FE38FE38FE59FEE2
:1044E800DBFE8AF221E8FBFEFFFFFFFFFFFFFFFF75
:1044F800FFFFFFFFFFFFFFFFFFFFFFFFFFFFFFFFC4
:10450800FFFFFFFFFFFFFFFFFFFFFFFFFFFFFFFFB3
:10451800FFFFFFFFFFFFFFFFF0F300E8E4E8E4E838
:1045280062E86AF2FFFFC7E931F4FFFFFFFFFFFF10
:10453800FFFFFFFFFFFFFFFFFFFFFFFFFFFFFFFF83
:10454800FFFFFFFFFFFFFFFFFFFFFFFFFFFFFFFF73
:10455800FFFFFFFFFFFFFFFFFFFFFFFFFFFFFFFF63
:10456800FFFFFFFFFFFFFFFFFFFFFFFFFFFFFFFF53
:10457800FFFFFFFFFFFFFFFFFFFFFFFFFFFFFFFF43
:1045880051F466E9FFFF6AF201E825E91CFF92F49D
:10459800E4E8E3E8E3E8E3E8E3E8E3E8E3E8E3E8BA
:1045A80004E982E800E804E9FFFFFFFFFFFFFFFFDF
:1045B800FFFFFFFFFFFFFFFFFFFFFFFFFFFFFFFF03
:1045C800FFFFFFFFFFFFFFFFFFFFFFFFFFFFFFFFF3
:1045D800FFFFFFFFFFFFD7FD82E8C3E8E4E8E4E858
:1045E80062E86AF2FFFFC7E931F4FFFFFFFFFFFF50
:1045F800FFFFFFFFFFFFFFFFFFFFFFFFFFFFFFFFC3
:10460800FFFFFFFFFFFFFFFFFFFFFFFFFFFFFFFFB2
:10461800FFFFFFFFFFFFFFFFFFFFFFFFFFFFFFFFA2
:10462800FFFFFFFFFFFFFFFFFFFFFFFFFFFFFFFF92
:10463800FFFFFFFFFFFFFFFFFFFFFFFFFFFFFFFF82
:1046480051F466E9FFFF6AF200E86EF3DFFF3CFF12
:1046580079FE79FE79FE79FE79FE79FE79FE79FE9A
:1046680079FE79FEB6F500E849F2FFFFFFFFFFFF8C
:10467800FFFFFFFFFFFFFFFFFFFFFFFFFFFFFFFF42
:10468800FFFFFFFFFFFFFFFFFFFFFFFFFFFFFFFF32
:10469800FFFFFFFF9AFE04E9A3E8E4E8E4E8E4E8A2
:1046A80062E86AF2FFFFC7E931F4FFFFFFFFFFFF8F
:1046B800FFFFFFFFFFFFFFFFFFFFFFFFFFFFFFFF02
:1046C800FFFFFFFFFFFFFFFFFFFFFFFFFFFFFFFFF2
:1046D800FFFFFFFFFFFFFFFFFFFFFFFFFFFFFFFFE2
:1046E800FFFFFFFFFFFFFFFFFFFFFFFFFFFFFFFFD2
:1046F800FFFFFFFFFFFFFFFFFFFFFFFFFFFFFFFFC2
:1047080051F466E9FFFF6AF200E810F4FFFFFFFFCB
:10471800FFFFFFFFFFFFFFFFFFFFFFFFFFFFFFFFA1
:10472800FFFFFFFFBEFFD3F441E86AF23CFFFFFF43
:10473800FFFFFFFFFFFFFFFFFFFFFFFFFFFFFFFF81
:10474800FFFFFFFFFFFFFFFFFFFFFFFFFFFFFFFF71
:10475800FFFF79FE86E982E8E4E8E4E8E4E8E4E8D3
:1047680062E86AF2FFFFC7E931F4FFFFFFFFFFFFCE
:10477800FFFFFFFFFFFFFFFFFFFFFFFFFFFFFFFF41
:10478800FFFFFFFFFFFFFFFFFFFFFFFFFFFFFFFF31
:10479800FFFFFFFFFFFFFFFFFFFFFFFFFFFFFFFF21
:1047A800FFFFFFFFFFFFFFFFFFFFFFFFFFFFFFFF11
:1047B800FFFFFFFFFFFFFFFFFFFFFFFFFFFFFFFF01
:1047C80051F466E9FFFF6AF200E810F4FFFFFFFF0B
:1047D800FFFFFFFFFFFFFFFFFFFFFFFFFFFFFFFFE1
:1047E800FFFFFFFFFFFF7DFF96F542E828EAB3F4DD
:1047F800BEFFFFFFFFFFFFFFFFFFFFFFFFFFFFFF02
:10480800FFFFFFFFFFFFFFFFFFFFFFFFFFFF9EFF11
:1048180051F4C7E9A3E8C4E8E4E8E4E8E4E8E4E834
:1048280062E86AF2FFFFC7E931F4FFFFFFFFFFFF0D
:10483800FFFFFFFFFFFFFFFFFFFFFFFFFFFFFFFF80
:10484800FFFFFFFFFFFFFFFFFFFFFFFFFFFFFFFF70
:10485800FFFFFFFFFFFFFFFFFFFFFFFFFFFFFFFF60
:10486800FFFFFFFFFFFFFFFFFFFFFFFFFFFFFFFF50
:10487800FFFFFFFFFFFFFFFFFFFFFFFFFFFFFFFF40
:1048880051F466E9FFFF6AF200E810F4FFFFFFFF4A
:10489800FFFFFFFFFFFFFFFFFFFFFFFFFFFFFFFF20
:1048A800FFFFFFFFFFFFFFFFFFFF14F508EA25E901
:1048B800ABF210F459FE7DFFDFFFFFFFFFFFFFFFA4
:1048C800FFFFFFFFFFFFFFFF9EFFBAFE71F4ABF291
:1048D80025E9A3E8E4E8E4E8E4E8E4E8E4E8E4E86F
:1048E80062E84AEAFFFFC7E930F4FFFFFFFFFFFF76
:1048F800FFFFFFFFFFFFFFFFFFFFFFFFFFFFFFFFC0
:10490800FFFFFFFFFFFFFFFFFFFFFFFFFFFFFFFFAF
:10491800FFFFFFFFFFFFFFFFFFFFFFFFFFFFFFFF9F
:10492800FFFFFFFFFFFFFFFFFFFFFFFFFFFFFFFF8F
:10493800FFFFFFFFFFFFFFFFFFFFFFFFFFFFFFFF7F
:1049480031F466E9FFFF49F221E829EACFF3CFF312
:10495800CFF3CFF3CFF3CFF3CFF3CFF3CFF3CFF33F
:10496800CFF3CFF3CFF3CFF3CFF3F0F36AF2A2E8AC
:1049780062E805E949F2EBF28EF331F492F4B2F40D
:10498800B2F492F451F4CFF30CF369F225E983E819
:1049980083E8E4E8E4E8E4E8E4E8E4E8E4E8E4E810
:1049A80062E829F2FFFFC7E910F4FFFFFFFFFFFFEE
:1049B800FFFFFFFFFFFFFFFFFFFFFFFFFFFFFFFFFF
:1049C800FFFFFFFFFFFFFFFFFFFFFFFFFFFFFFFFEF
:1049D800FFFFFFFFFFFFFFFFFFFFFFFFFFFFFFFFDF
:1049E800FFFFFFFFFFFFFFFFFFFFFFFFFFFFFFFFCF
:1049F800FFFFFFFFFFFFFFFFFFFFFFFFFFFFFFFFBF
:104A0800B2F4E4E8FFFFECF221E862E882E882E829
:104A180082E882E882E882E882E882E882E882E83E
:104A280082E882E882E882E882E8A3E8E4E882E8AB
:104A380062E841E800E800E841E8C3E804E924E95D
:104A480024E924E9E4E862E800E800E821E862E80B
:104A580062E862E862E862E862E862E862E862E8FE
:104A680021E8ECF2FFFF66E951F4FFFFFFFFFFFFCB
:104A7800FFFFFFFFFFFFFFFFFFFFFFFFFFFFFFFF3E
:104A8800FFFFFFFFFFFFFFFFFFFFFFFFFFFFFFFF2E
:104A9800FFFFFFFFFFFFFFFFFFFFFFFFFFFFFFFF1E
:104AA800FFFFFFFFFFFFFFFFFFFFFFFFFFFFFFFF0E
:104AB800FFFFFFFFFFFFFFFFFFFFFFFFFFFFFFFFFE
:104AC80038FE21E8FBFEB7FDABEA28F229F229F20D
:104AD80029F229F229F229F229F229F229F229F2F6
:104AE80029F229F229F229F229F229F229F229F2E6
:104AF80049F229F229F229F229F229F229F229F2B6
:104B080029F229F229F229F229F229F229F229F2C5
:104B180029F229F229F229F229F229F229F228F2B6
:104B2800AAF2D7FDDBFE82E839FEFFFFFFFFFFFF99
:104B3800FFFFFFFFFFFFFFFFFFFFFFFFFFFFFFFF7D
:104B4800FFFFFFFFFFFFFFFFFFFFFFFFFFFFFFFF6D
:104B5800FFFFFFFFFFFFFFFFFFFFFFFFFFFFFFFF5D
:104B6800FFFFFFFFFFFFFFFFFFFFFFFFFFFFFFFF4D
:104B7800FFFFFFFFFFFFFFFFFFFFFFFFFFFFFFFF3D
:104B88009EFFA7E96DF3DBFE9AFED7FDF7FDF8FD62
:104B9800F8FDF8FDF8FDF8FDF8FDF8FDF8FDF8FD65
:104BA800F8FDF8FDF8FDF8FDF8FDF8FDF8FDF8FD55
:104BB800F8FDF8FDF8FDF8FDF8FDF8FDF8FDF8FD45
:104BC800F8FDF8FDF8FDF8FDF8FDF8FDF8FDF8FD35
:104BD800F8FDF8FDF8FDF8FDF8FDF8FDF7FDD7FD47
:104BE8007AFEFBFE4DF365E9FFFFFFFFFFFFFFFFC6
:104BF800FFFFFFFFFFFFFFFFFFFFFFFFFFFFFFFFBD
:104C0800FFFFFFFFFFFFFFFFFFFFFFFFFFFFFFFFAC
:104C1800FFFFFFFFFFFFFFFFFFFFFFFFFFFFFFFF9C
:104C2800FFFFFFFFFFFFFFFFFFFFFFFFFFFFFFFF8C
:104C3800FFFFFFFFFFFFFFFFFFFFFFFFFFFFFFFF7C
:104C4800FFFF55F586E96DF3F3F4F3F4F3F4F3F4A9
:104C5800F3F4F3F4F3F4F3F4F3F4F3F4F3F4F3F414
:104C6800F3F4F3F4F3F4F3F4F3F4F3F4F3F4F3F404
:104C7800F3F4F3F4F3F4F3F4F3F4F3F4F3F4F3F4F4
:104C8800F3F4F3F4F3F4F3F4F3F4F3F4F3F4F3F4E4
:104C9800F3F4F3F4F3F4F3F4F3F4F3F4F3F4F3F4D4
:104CA800F3F48EF3A6E9F4F4FFFFFFFFFFFFFFFF25
:104CB800FFFFFFFFFFFFFFFFFFFFFFFFFFFFFFFFFC
:104CC800FFFFFFFFFFFFFFFFFFFFFFFFFFFFFFFFEC
:104CD800FFFFFFFFFFFFFFFFFFFFFFFFFFFFFFFFDC
:104CE800FFFFFFFFFFFFFFFFFFFFFFFFFFFFFFFFCC
:104CF800FFFFFFFFFFFFFFFFFFFFFFFFFFFFFFFFBC
:104D0800FFFFFFFF34F58AEA28EA08EA08EA08EA1A
:104D180008EA08EA08EA08EA08EA08EA08EA08EAFB
:104D280008EA08EA08EA08EA08EA08EA08EA08EAEB
:104D380008EA08EA08EA08EA08EA08EA08EA08EADB
:104D480008EA08EA08EA08EA08EA08EA08EA08EACB
:104D580008EA08EA08EA08EA08EA08EA08EA08EABB
:104D680028EA8AEA75FDFFFFFFFFFFFFFFFFFFFF4D
:104D7800FFFFFFFFFFFFFFFFFFFFFFFFFFFFFFFF3B
:104D8800FFFFFFFFFFFFFFFFFFFFFFFFFFFFFFFF2B
:104D9800FFFFFFFFFFFFFFFFFFFFFFFFFFFFFFFF1B
:104DA800FFFFFFFFFFFFFFFFFFFFFFFFFFFFFFFF0B
:104DB800FFFFFFFFFFFFFFFFFFFFFFFFFFFFFFFFFB
:104DC800FFFFFFFFFFFFDFFFDBFE9AFE9AFE9AFE62
:104DD8009AFE9AFE9AFE9AFE9AFE9AFE9AFE9AFE0B
:104DE8009AFE9AFE9AFE9AFE9AFE9AFE9AFE9AFEFB
:104DF8009AFE9AFE9AFE9AFE9AFE9AFE9AFE9AFEEB
:104E08009AFE9AFE9AFE9AFE9AFE9AFE9AFE9AFEDA
:104E18009AFE9AFE9AFE9AFE9AFE9AFE9AFE9AFECA
:104E2800BAFEDFFFFFFFFFFFFFFFFFFFFFFFFFFFF0
:104E3800FFFFFFFFFFFFFFFFFFFFFFFFFFFFFFFF7A
:104E4800FFFFFFFFFFFFFFFFFFFFFFFFFFFFFFFF6A
:104E5800FFFFFFFFFFFFFFFFFFFFFFFFFFFFFFFF5A
:104E6800FFFFFFFFFFFFFFFFFFFFFFFFFFFFFFFF4A
:065BD800FFFFFFFFFFFFCD
:0C62DB00100000000000000000000000A7
:02626D00106FB0
:02626F00005FCE
:036271008A518AC5
:03627400A0B5557D
:01627700CF57
:016278001213
:0162790032F2
:01627A000122
:07627B0048656C6C6F2C00FC
:10628200666F72204F4C4544204320636C69636BF8
:01629200000B
:1062930074686973206973207468652064656D6F21
:0162A30000FA
:0162A400F108
:0162A5005F99
:0162A600B146
:0162A70032C4
:0162A80020D5
:0162A90005EF
:0162AA008073
:00000001FF
