:02000004000BEF
:10000000FCFF0020F5170B009D170B009D170B0040
:100010009D170B009D170B009D170B009D170B00E4
:100020009D170B009D170B009D170B009D170B00D4
:100030009D170B009D170B009D170B009D170B00C4
:100040009D170B009D170B009D170B009D170B00B4
:1017F400FFF7ECFF00F010F8FFF7D2FF05F088F8D0
:1018040000F05AF805F044F8FFF730FFFFF760FFE7
:08181400FFF764FEFCE7FEE7AC
:1017880081B01CF8019B0BF8019BBBEB0A0FF8D149
:0417980001B07047E5
:10174C0081B04FF000094FF0000CBDEB0A0F04DC28
:10175C00BDEB0B0F01DBD446EA464BF8049BBBEB0D
:10176C000A0FFAD1BCEB0A0F05DDE246D9F800B03E
:0A177C000BF1040BF1E701B0704718
:1016700081B0CDF800E0002207210020FFF762FED4
:10168000002201210020FFF75DFE00220021002042
:10169000FFF758FE002202210020FFF753FE002230
:1016A00006210020FFF74EFE094801460020FFF703
:1016B000FFFE46F6FE17C0F2180700BF00BF7F1EF0
:1016C000FDD100BF00BF00BFDDF800E001B07047F2
:0416D00080680B0023
:1013440081B0CDF800E05FFA81F95FFA82FA0FE02C
:101354005FFA8AF15FFA89F0FFF730FE0DE05FFA79
:101364008AF15FFA89F0FFF747FD06E0012004E007
:101374000028EDD00128F2D0F8E7DDF800E001B054
:021384007047B0
:100FC00081B0CDF800E0A9E0012905D140F201018E
:100FD0006548FFF75DFC04E040F201016248FFF75D
:100FE00065FCBBE0012905D140F220015F48FFF715
:100FF0004FFC04E040F220015C48FFF757FCADE0F5
:10100000012905D140F208015948FFF741FC04E0ED
:1010100040F208015648FFF749FC9FE0012905D13D
:1010200040F210015348FFF733FC04E040F2100196
:101030005048FFF73BFC91E0012905D140F2400107
:101040004C48FFF725FC04E040F240014948FFF717
:101050002DFC83E0012905D140F210014448FFF73F
:1010600017FC04E040F210014148FFF71FFC75E057
:10107000012905D140F210013F48FFF709FC04E0C7
:1010800040F210013C48FFF711FC67E0012905D14F
:1010900040F201013748FFF7FBFB04E040F2010199
:1010A0003448FFF703FC59E0012905D140F2200143
:1010B0003248FFF7EDFB04E040F220012F48FFF734
:1010C000F5FB4BE0012905D140F210012B48FFF759
:1010D000DFFB04E040F210012848FFF7E7FB3DE0AA
:1010E000012905D140F201012548FFF7D1FB04E0B9
:1010F00040F201012248FFF7D9FB2FE0012905D179
:1011000040F280011A48FFF7C3FB04E040F280017F
:101110001748FFF7CBFB21E0012020E000283FF437
:1011200053AF01283FF45EAF02283FF469AF0328B4
:101130003FF474AF04283FF47FAF05283FF48AAF33
:1011400006283FF495AF0728A0D00828ACD009287E
:10115000B8D00A28C4D00B28D0D0DDE70020DDF8B5
:1011600000E001B0704700BF001208408010084046
:10117000001008406010084060110840001108404D
:0411800020100840F3
:1008900081B0CDF800E0044AC9B2FFF7EBFDDDF806
:0C08A00000E001B0704700BF0004100031
:1004740081B01446314B984203D8314B984200D393
:1004840000E058E02E4BC31A03F01F0303B152E0FF
:10049400064600F5A0624FF6FF7304EA030318460C
:1004A400284B04EA03031B0C40F20008CFB20146B8
:1004B4001846B8F1080F3ED201231BB203FA08F321
:1004C4001BB21CB207EA0403A34231D101F4405326
:1004D4008BB14FEA8803F5182C686FF4405304EA93
:1004E40003032B604FEA8803F51801F440542B688A
:1004F40023432B601CE04FEA8803F5182C68114B4A
:1005040004EA03032B604FEA8803F41823680B43BF
:1005140023604FEA8803D5182C686FF0FF0304EAC0
:1005240003032B604FEA8803D41823680343236032
:1005340008F10108BDE701B0704700BFC0120840D0
:08054400001008400000FFFF59
:1008AC0081B0CDF800E0044AC9B2FFF7DDFDDDF8F8
:0C08BC0000E001B0704700BF0006200003
:100DFC0081B0CDF800E0A9E0012905D140F2020153
:100E0C006548FFF73FFD04E040F202016248FFF73E
:100E1C0047FDBBE0012905D140F220015F48FFF7F7
:100E2C0031FD04E040F220015C48FFF739FDADE0F4
:100E3C00012905D140F208015948FFF723FD04E0D0
:100E4C0040F208015648FFF72BFD9FE0012905D120
:100E5C0040F210015348FFF715FD04E040F2100179
:100E6C005048FFF71DFD91E0012905D140F24001EA
:100E7C004C48FFF707FD04E040F240014948FFF7FA
:100E8C000FFD83E0012905D140F210014448FFF722
:100E9C00F9FC04E040F210014148FFF701FD75E058
:100EAC00012905D140F204013D48FFF7EBFC04E0B9
:100EBC0040F204013A48FFF7F3FC67E0012905D141
:100ECC0040F204013848FFF7DDFC04E040F2040175
:100EDC003548FFF7E5FC59E0012905D140F2200126
:100EEC003248FFF7CFFC04E040F220012F48FFF717
:100EFC00D7FC4BE0012905D140F210012B48FFF73C
:100F0C00C1FC04E040F210012848FFF7C9FC3DE0A9
:100F1C00012905D140F201012548FFF7B3FC04E09B
:100F2C0040F201012248FFF7BBFC2FE0012905D15B
:100F3C0040F280011A48FFF7A5FC04E040F2800162
:100F4C001748FFF7ADFC21E0012020E000283FF41A
:100F5C0053AF01283FF45EAF02283FF469AF03287A
:100F6C003FF474AF04283FF47FAF05283FF48AAFF9
:100F7C0006283FF495AF0728A0D00828ACD0092844
:100F8C00B8D00A28C4D00B28D0D0DDE70020DDF87B
:100F9C0000E001B0704700BF00120840801008400C
:100FAC000010084060100840201108400011084053
:040FBC0020100840B9
:1014B00081B0CDF800E009E00846FFF777FE0AE0CA
:1014C0000846FFF75FFE06E0012004E00028F3D0A5
:0E14D0000128F5D0F8E7DDF800E001B0704724
:1011AC0081B0CDF800E000F208010B68011D0A685F
:1011BC000168084691B2DAB2FFF742FA0020DDF876
:0611CC0000E001B07047D5
:10064C0081B0CDF800E0064C064B1C60064C074B05
:10065C001C60FFF77FFFDDF800E001B0704700BFC2
:10066C0015040B00400000204D050B004400002039
:1005600082B0CDF800E08346D0B21FFA81FC8DF84E
:1005700004002348FFF758FF9DF80400214B1B6837
:1005800043EA00041F4B1C601E4B1868BCF1000FAF
:1005900008D01D4B1B6843F001041B4B1C601A4B19
:1005A000186805E0184B1B6803F0FE04164B1C602E
:1005B0001648B0FBFBF080280BD2002809D9114B5C
:1005C0001B6803F0EF040F4B1C604408104B1C60C9
:1005D0000CE0104BB3FBFBF00A4B1B6843F010041C
:1005E000084B1C6043081846094B18600A4B1B68EF
:1005F00043F00104084B1C60DDF800E002B07047D6
:1006000078670B001494004004940040006CDC02F6
:0C0610001894004080841E0000940040FC
:1004280081B0CDF800E040F2000A81464FEA8A0127
:1004380009EB01010968B1F1FF3F12D009F134015C
:100448004FEA8A03C91809680A4609EB03010968D3
:1004580008461146FFF7A2FF0AF1010A1FFA8AFAB5
:0A046800E4E7DDF800E001B07047A2
:1003A40082B0CDF800E000F0FF02130902F00F0262
:1003B4001446D8B2FFF778FF012212B2A240ADF87A
:1003C400042000460A469DF8041000F051F8DDF8B8
:0603D40000E002B07047DA
:1002AC0081B027E028484DE028484BE0284849E039
:1002BC00284847E0284845E0284843E0284841E0E2
:1002CC0028483FE028483DE028483BE0284839E0F2
:1002DC00284837E0284835E0284833E0284831E002
:1002EC0028482FE028482DE028482BE0284829E012
:1002FC00284827E00028D5D00128D5D00228D5D011
:10030C000328D5D00428D5D00528D5D00628D5D09B
:10031C000728D5D00828D5D00928D5D00A28D5D07B
:10032C000B28D5D00C28D5D00D28D5D00E28D5D05B
:10033C000F28D5D01028D5D01128D5D01228D5D03B
:10034C001328D5D001B07047001008402010084089
:10035C00401008406010084080100840A010084071
:10036C00C0100840E010084000110840201108405F
:10037C00401108406011084080110840A01108404D
:10038C00C0110840E011084000120840201208403B
:08039C00401208406012084005
:1011840081B0CDF800E000F208010B68011D0A6887
:101194000168084691B2DAB2FFF756FA0020DDF88A
:0611A40000E001B07047FD
:1016D40081B0CDF800E016491648FFF753FEFFF736
:1016E4006BFE4FF6FF70FFF7F1FA0022002112485B
:1016F400FFF7B6FD11480A220F21FFF7FFFD10483E
:101704001E220521FFF7FAFD0E482D220521FFF7C1
:10171400F5FD42F2FE37C0F2F40700BF00BF7F1EA2
:10172400FDD100BF00BF00BFDDF800E001B070478D
:101734008C680B00E0670B00E6600B0000000020E3
:0817440007000020180000203E
:1013880081B0CDF800E003460846FFF7C9FC1846CF
:10139800FFF7E6FC0120054C2468A0470120044C17
:1013A8002468A047DDF800E001B070475000002035
:0413B80054000020BD
:100DEC00024A117860F300011170704790130840AB
:100DBC00024A117860F34511117070478413084092
:100DAC00024A117860F3C301117070478013084038
:100DDC00024A117860F304111170704783130840B4
:100DCC00024A117860F38611117070478313084042
:10122400024A117860F3041111707047801308406A
:10123400024A117860F30411117070478B1308404F
:10125400024A117860F3000111707047831308404B
:10121400024A117860F34511117070478813084031
:1011E400024A117860F304111170704788130840A3
:10120400024A117860F3000111707047811308409D
:1011F400024A117860F3C7111170704780130840D8
:1011D400024A117860F3410111707047901308407E
:10124400024A117860F3C711117070478413084083
:10093800024A117860F34511117070478E13084010
:10092800024A117860F3041111707047831308406C
:10091800024A117860F386111170704783130840FA
:10094800024A117860F3041111707047801308404F
:10090800024A117860F38201117070478013084021
:1008C800024A117860F38201117070478913084059
:1008D800024A117860F34511117070478813084077
:1008F800024A117860F30411117070478813084098
:1008E800024A117860F300011170704781130840C3
:100D4000024A117860F3C711117070478013084090
:100D2800026803490A60011D0A6802490A6070479F
:080D3800740000207800002087
:100D680002680B490A6000F208010A6809490A602A
:100D7800011D0A6808490A6000F218010A68074953
:100D88000A6000F21C010A6805490A60704700BF42
:100D98006C0000205000002070000020540000204B
:040DA80068000020BF
:1013BC0081B0CDF800E00120FFF7C4FCFFF792FCF0
:1013CC0001222B49FD20FFF757FB01222949FD2063
:1013DC00FFF752FB00220021AE20FFF74DFB01224C
:1013EC002549A020FFF748FB01222449CA20FFF71A
:1013FC0043FB01222249A120FFF73EFB0122214998
:10140C00A220FFF739FB01221F49BE20FFF734FB56
:10141C0001221E49B320FFF72FFB01221C49B120EA
:10142C00FFF72AFB01221B49B620FFF725FB0122FF
:10143C001949C720FFF720FB03221849C120FFF7E9
:10144C001BFB03221649B420FFF716FB00220021D8
:10145C00A620FFF711FB00220021AF20FFF70CFBA9
:10146C000020FFF72FFCDDF800E001B0704700BF53
:10147C002D0000202E0000202F0000203000002026
:10148C003100002032000020330000203400002006
:10149C0035000020360000203700002038000020E6
:0414AC003B000020E1
:100D500081B0CDF800E0034C2468A047DDF800E046
:080D600001B07047680000209B
:100CF00081B0CDF800E001200A4C2468A047FFF73E
:100D000099FC0020074C2468A047FFF793FC0120C2
:100D1000044C2468A047FFF781FCDDF800E001B037
:080D2000704700BF70000020C5
:1006340043F67E67C0F2000700BF00BF7F1EFDD1F6
:0806440000BF00BF00BF7047BA
:10061C0046F6FE17C0F2180700BF00BF7F1EFDD1C3
:08062C0000BF00BF00BF7047D2
:100A840084B0CDF800E08DF808000846ADF80C20DD
:100A9400019000200F4C2468A04700200E4C2468CD
:100AA400A04702AB01211846FFF7E6FD01200A4CDE
:100AB4002468A047BDF80C3023B1BDF80C10019890
:100AC400FFF7DAFD0120034C2468A047DDF800E0BD
:0C0AD40004B070475000002054000020C7
:10067C0083B0CDF800E08AB2014690B283B2421E3C
:10068C0090B26BB10A78D4B2ADF804000291A0B26A
:10069C00054C2468A0470299BDF80400491CEDE7FD
:0C06AC00DDF800E003B07047740000208F
:10054C0081B0CDF800E0FFF75FFFDDF800E001B00F
:02055C007047E6
:1004140081B0CDF800E0FFF7DFFFDDF800E001B0C8
:0204240070471F
:1003DC0081B00A49096801F004010849096801F073
:1003EC000201074908600549096801F0020101B9D9
:1003FC00F9E70449086801B0704700BF0894004051
:08040C000C9400401094004024
:100CD00081B0CDF800E001B4602360220021002043
:0E0CE000FFF7EAFC01B0DDF800E001B070475C
:1006B80083B0CDF800E0DEB2D3B2CAB2C1B2BDF8A1
:1006C8000C005C248DF806405D1A2DB2B41A24B2D1
:1006D8006C43ADF8044000248DF8074000248DF8E1
:1006E8000840602902D8602B00D800E059E0602A51
:1006F80002D8602E00D800E053E08B4202D3964225
:1007080000D300E04DE001F21005284C257003F2FB
:10071800100424B2651E264C2570D5B2254C2570D0
:10072800F4B2651E244C25700DF10706050AADB21A
:1007380034782C433470761C00F0FF05ADB2347861
:100748002C43347002221949152000F097F902222F
:100758001849752000F092F90020184C2468A04729
:100768000020174C2468A0470DF1060401212046FB
:10077800FFF780FF0120124C2468A047BDF8045001
:10078800BDF80440641EADF8044035B10DF107040E
:1007980002212046FFF76EFFF0E70120074C24688E
:1007A800A047DDF800E003B0704700BF2900002033
:1007B8002A0000202B0000202C00002050000020E0
:0407C80054000020B9
:101264000E4B1860831C1C78C31C1B781B029BB29A
:10127400E4180B4B1C80031D1C78431D1B781B02B8
:101284009BB2E418074B1C80831D1C78064B1C8002
:10129400064B1980064B1A70704700BF5C00002093
:1012A4003E0000205800002062000020660000205C
:0412B4005A000020BC
:1013000082B0CDF800E003461846602902D2602A78
:1013100000D200E00DE0094B1980094B1A800378D8
:101320003BB10378019098B2FFF7DAFB0198401CBB
:10133000F5E7DDF800E002B0704700BF6400002070
:041340006000002029
:100AE00085B0CDF800E040F20001ADF81010002113
:100AF0008DF812106E490988884200D2D3E06D4902
:100B00000988884200D9CEE069490988411A89B22A
:100B10008A0092B2684C216808318B1819788DF8D8
:100B20001310591C0978CAB2991C09780902521885
:100B3000D91C0978090452182146096889180391BB
:100B40005E49097821B15D490978022900D058E051
:100B50005B490B8800225B4909888A4245D25A4981
:100B60000988ADF81010002700218DF80810D0B2C8
:100B70009DF813209DF80810914231D24FB9039986
:100B800009788DF812100399491C03910127FAB2D4
:100B900000E0FAB29DF812101140C9B299B14B4968
:100BA00009888DF804208DF80500ADF806308AB26A
:100BB000D9B2BDF81000FFF709FEBDF806309DF868
:100BC00005009DF80420BDF81010491CADF8101068
:100BD0005100CFB29DF80810491C8DF80810C7E7E6
:100BE0005B1C9BB2411CCAB2B5E73449097829B9EC
:100BF000BDF810104A1C34490A8001E030490B80CE
:100C000051E031490B8800222E4909888A4245D299
:100C10002B490988ADF81010002700218DF8081025
:100C2000D0B29DF813209DF80810914231D24FB9EF
:100C3000039909788DF812100399491C0391012733
:100C4000FAB200E0FAB29DF812101140C9B299B19F
:100C50001E4909888DF804208DF80500ADF806308E
:100C60008AB2BDF81010D8B2FFF7B0FDBDF806305B
:100C70009DF805009DF80420BDF81010491EADF840
:100C800010105100CFB29DF80810491C8DF80810C3
:100C9000C7E75B1C9BB2421CD2B2B5E7BDF810108F
:100CA0004A1E07490A80DDF800E005B0704700BF22
:100CB0003E000020580000205C0000205A00002068
:100CC0006000002062000020640000206600002018
:1007CC0082B0CDF800E05C238DF8043000238DF866
:1007DC00053000238DF80630602802D8602900D837
:1007EC0000E03EE000F21004204B1C70204B1C700B
:1007FC00CCB2204B1C70CCB21F4B1C700DF10505FC
:10080C00140AA4B22B7823432B706D1C02F0FF0446
:10081C00A4B22B7823432B7002221449152000F02C
:10082C002BF902221349752000F026F90020134CF5
:10083C002468A0470020124C2468A04701AB01217A
:10084C001846FFF715FF01200D4C2468A0470DF149
:10085C00050302211846FFF70BFF0120074C246803
:10086C00A047DDF800E002B0704700BF290000206F
:10087C002A0000202B0000202C000020500000201B
:04088C0054000020F4
:1014E00081B0CDF800E04FF6FF70FFF7F1FBFFF79A
:1014F00095F84FF2000001B4602360220021002023
:10150000FFF7F0FE01B041F2FE17C0F27A0700BF0C
:1015100000BF7F1EFDD100BF00BF00BF4FF60070AF
:1015200001B45B235B2205210520FFF7DBFE01B040
:1015300041F2FE17C0F27A0700BF00BF7F1EFDD147
:1015400000BF00BF00BFF02001B4562356220A217D
:101550000A20FFF7C7FE01B041F2FE17C0F27A077A
:1015600000BF00BF7F1EFDD100BF00BF00BF40F61F
:101570000F7001B4512351220F210F20FFF7B2FE4B
:1015800001B041F2FE17C0F27A0700BF00BF7F1E14
:10159000FDD100BF00BF00BF4FF2000001B44C23DB
:1015A0004C2214211420FFF79DFE01B041F2FE17DA
:1015B000C0F27A0700BF00BF7F1EFDD100BF00BF91
:1015C00000BF4FF6007001B44723472219211920AC
:1015D000FFF788FE01B0FFF721F8002001B41B23BC
:1015E000472219211920FFF77DFE01B0FFF716F8F9
:1015F000002001B44923472247211920FFF772FE3A
:1016000001B0FFF70BF8002001B447231B2219217A
:101610001920FFF767FE01B0FFF700F8002001B4C2
:101620004723472219214420FFF75CFE01B046F60C
:10163000FE37C0F2DC2700BF00BF7F1EFDD100BF18
:1016400000BF00BF002200210848FFF735FE44F22A
:10165000FE77C0F2E81700BF00BF7F1EFDD100BFBC
:1016600000BF00BFDDF800E001B07047E0180B00DC
:1012E40081B0CDF800E0BDF80450ACB210B4FFF703
:0C12F400E1F901B0DDF800E001B0704746
:1012B80081B0CDF800E00546031D1B78D418831CC7
:1012C8001B78CB18C8B2D1B2DAB2E3B220B4FFF7B8
:0C12D8003FFB01B0DDF800E001B0704702
:1009580085B0CDF800E0059E40F20004ADF80C40EB
:100968005C248DF80E4000248DF80F4000248DF88B
:100978001040151A2DB25C1A24B26C43ADF804402D
:10098800B41D0294602802D8602A00D800E065E00F
:10099800602902D8602B00D800E05FE0824202D3D1
:1009A8008B4200D300E059E000F210052D4C257071
:1009B80002F2100424B2651E2B4C2570CDB22B4CCC
:1009C8002570DCB2651E2A4C2570022225491520A7
:1009D80000F054F802222549752000F04FF8002055
:1009E800244C2468A0470020234C2468A0470DF11C
:1009F8000E0401212046FFF73DFE01201E4C24680D
:100A0800A047BDF80450BDF80440641EADF804408A
:100A180005B3BDF80C40651CADB2029C641924787E
:100A28008DF80F40BDF80C50029C641924788DF89D
:100A380010400DF10F0401212046FFF71BFE04AC06
:100A480001212046FFF716FEBDF80C40A41CADF8A6
:100A58000C40D6E70120074C2468A047DDF800E0E9
:100A680005B07047290000202A0000202B00002034
:0C0A78002C000020500000205400002042
:10181C0081B0CDF800E01F4B1F4A204C20480068D7
:10182C0040F002011E480160012A08D0032A06D0AC
:10183C00042A04D0102A02D0302A00D002E0194821
:10184C00026002E0012117480160C4F3C00216498E
:10185C00086862F3C3000860C4F380021249086888
:10186C0062F382000860C4F340020F49086862F317
:10187C0041000860C4F300020B49086862F30000E1
:10188C000860FEF7C5FE09480360DDF800E001B012
:10189C00704700BFE00100000100000000000000E4
:1018AC0008E000E00401084008A4004008010840DA
:1018BC0081B004490448016004490548016001B045
:1018CC00704700BF80BB00004800002000000000F3
:0418DC004C0000209C
:08179C0081B0FEE701B07047C7
:1017A40081B04EF68850CEF20000016841F4700119
:1017B400016000BF00BF00BF00BFF1EE100A40F49B
:0A17C4004000E1EE100A01B070478A
:1017D00081B0DFF81000DFF810100860D0F800D0FA
:1017E00000F004B800000B0008ED00E000BF01B0FD
:0217F000704740
:1068940000B5DFF814B0DFF814A0DFF814C0FAF77D
:1068A40071FF00BD704700BF000000203E000020C3
:0468B40040680B002D
:1069140000B5DFF810B0DFF810A0FAF715FF00BDDE
:0C692400704700BF000000207C00002035
:1018E000001060006000FFFFFFFFFFFFFFFFFFFF32
:1018F000FFFFFFFFFFFFFFFFFFFFFFFFFFFFFFFFF8
:10190000FFFFFFFFFFFFFFFFFFFFFFFFFFFFFFFFE7
:10191000FFFFFFFFFFFFFFFFFFFFFFFFFFFFFFFFD7
:10192000FFFFFFFFFFFFFFFFFFFFFFFFFFFFFFFFC7
:10251000FFFFFFFFFFFFFFFF5DFF3CFF3CFF3CFFB6
:102520003CFF3CFF3CFF3CFF3CFF3CFF3CFF3CFFD3
:102530003CFF3CFF3CFF3CFF3CFF3CFF3CFF3CFFC3
:102540003CFF3CFF3CFF3CFF3CFF3CFF3CFF3CFFB3
:102550003CFF3CFF3CFF3CFF3CFF3CFF3CFF3CFFA3
:102560003CFF3CFF3CFF3CFF3CFF3CFF3CFF3CFF93
:102570005DFFFFFFFFFFFFFFFFFFFFFFFFFFFFFF0D
:10258000FFFFFFFFFFFFFFFFFFFFFFFFFFFFFFFF5B
:10259000FFFFFFFFFFFFFFFFFFFFFFFFFFFFFFFF4B
:1025A000FFFFFFFFFFFFFFFFFFFFFFFFFFFFFFFF3B
:1025B000FFFFFFFFFFFFFFFFFFFFFFFFFFFFFFFF2B
:1025C000FFFFFFFFFFFFFFFFFFFFFFFFFFFFFFFF1B
:1025D000FFFFFFFF79FED3F4EFF3CFF3CFF3CFF399
:1025E000CFF3CFF3CFF3CFF3CFF3CFF3CFF3CFF3DB
:1025F000CFF3CFF3CFF3CFF3CFF3CFF3CFF3CFF3CB
:10260000CFF3CFF3CFF3CFF3CFF3CFF3CFF3CFF3BA
:10261000CFF3CFF3CFF3CFF3CFF3CFF3CFF3CFF3AA
:10262000CFF3CFF3CFF3CFF3CFF3CFF3CFF3CFF39A
:10263000EFF3D3F4BAFEFFFFFFFFFFFFFFFFFFFF43
:10264000FFFFFFFFFFFFFFFFFFFFFFFFFFFFFFFF9A
:10265000FFFFFFFFFFFFFFFFFFFFFFFFFFFFFFFF8A
:10266000FFFFFFFFFFFFFFFFFFFFFFFFFFFFFFFF7A
:10267000FFFFFFFFFFFFFFFFFFFFFFFFFFFFFFFF6A
:10268000FFFFFFFFFFFFFFFFFFFFFFFFFFFFFFFF5A
:10269000FFFF9AFECBF2E7E9CBEACBEACBEACBEA43
:1026A000CBEACBEACBEACBEACBEACBEACBEACBEA82
:1026B000CBEACBEACBEACBEACBEACBEACBEACBEA72
:1026C000CBEACBEACBEACBEACBEACBEACBEACBEA62
:1026D000CBEACBEACBEACBEACBEACBEACBEACBEA52
:1026E000CBEACBEACBEACBEACBEACBEACBEACBEA42
:1026F000CBEAE7E90CF359FEFFFFFFFFFFFFFFFF07
:10270000FFFFFFFFFFFFFFFFFFFFFFFFFFFFFFFFD9
:10271000FFFFFFFFFFFFFFFFFFFFFFFFFFFFFFFFC9
:10272000FFFFFFFFFFFFFFFFFFFFFFFFFFFFFFFFB9
:10273000FFFFFFFFFFFFFFFFFFFFFFFFFFFFFFFFA9
:10274000FFFFFFFFFFFFFFFFFFFFFFFFFFFFFFFF99
:10275000DFFFCBF2A6E9F7FD5DFFFCFE1CFF1CFFCF
:102760001CFF1CFF1CFF1CFF1CFF1CFF1CFF1CFF91
:102770001CFF1CFF1CFF1CFF1CFF1CFF1CFF1CFF81
:102780001CFF1CFF1CFF1CFF1CFF1CFF1CFF1CFF71
:102790001CFF1CFF1CFF1CFF1CFF1CFF1CFF1CFF61
:1027A0001CFF1CFF1CFF1CFF1CFF1CFF1CFFFBFE73
:1027B0005DFF18FE86E96AF2FFFFFFFFFFFFFFFFE4
:1027C000FFFFFFFFFFFFFFFFFFFFFFFFFFFFFFFF19
:1027D000FFFFFFFFFFFFFFFFFFFFFFFFFFFFFFFF09
:1027E000FFFFFFFFFFFFFFFFFFFFFFFFFFFFFFFFF9
:1027F000FFFFFFFFFFFFFFFFFFFFFFFFFFFFFFFFE9
:10280000FFFFFFFFFFFFFFFFFFFFFFFFFFFFFFFFD8
:10281000FBFE21E818FEFBFEB2F4AFF3EFF3F0F39A
:10282000EFF3EFF3EFF3EFF3EFF3EFF3EFF3F0F397
:10283000F0F3F0F3F0F3F0F3F0F3F0F3F0F3F0F380
:10284000F0F3F0F3F0F3EFF3EFF3EFF3F0F3F0F373
:10285000EFF3EFF3EFF3EFF3F0F3F0F3F0F3F0F364
:10286000F0F3F0F3F0F3F0F3F0F3F0F3EFF3AFF392
:10287000B2F4FCFED7FD41E83CFFFFFFFFFFFFFF86
:10288000FFFFFFFFFFFFFFFFFFFFFFFFFFFFFFFF58
:10289000FFFFFFFFFFFFFFFFFFFFFFFFFFFFFFFF48
:1028A000FFFFFFFFFFFFFFFFFFFFFFFFFFFFFFFF38
:1028B000FFFFFFFFFFFFFFFFFFFFFFFFFFFFFFFF28
:1028C000FFFFFFFFFFFFFFFFFFFFFFFFFFFFFFFF18
:1028D000F4F482E8FFFF6EF320E821E821E800E845
:1028E00020E841E841E821E821E820E820E800E884
:1028F00021E821E821E821E821E821E821E821E890
:1029000021E821E800E820E841E861E862E882E89F
:1029100062E861E841E820E800E821E821E821E8F0
:1029200021E821E821E821E821E821E821E821E85F
:1029300020E88EF3FFFF25E992F4FFFFFFFFFFFF82
:10294000FFFFFFFFFFFFFFFFFFFFFFFFFFFFFFFF97
:10295000FFFFFFFFFFFFFFFFFFFFFFFFFFFFFFFF87
:10296000FFFFFFFFFFFFFFFFFFFFFFFFFFFFFFFF77
:10297000FFFFFFFFFFFFFFFFFFFFFFFFFFFFFFFF67
:10298000FFFFFFFFFFFFFFFFFFFFFFFFFFFFFFFF57
:1029900031F486E9FFFF29F262E8E4E8A3E8C3E83E
:1029A00086E9C8E9C7E9A7E9A7E986E945E9E3E8CF
:1029B00083E8C4E8E4E8E4E8E4E8E4E8E4E8C3E859
:1029C000A3E883E8C3E845E929EAABF2ECF20CF3AB
:1029D000ECF28AF208EA45E9C3E883E8A3E8C3E831
:1029E000E4E8E4E8E4E8E4E8E4E8E4E8E4E8E4E887
:1029F00062E809F2FFFFC8E910F4FFFFFFFFFFFFE5
:102A0000FFFFFFFFFFFFFFFFFFFFFFFFFFFFFFFFD6
:102A1000FFFFFFFFFFFFFFFFFFFFFFFFFFFFFFFFC6
:102A2000FFFFFFFFFFFFFFFFFFFFFFFFFFFFFFFFB6
:102A3000FFFFFFFFFFFFFFFFFFFFFFFFFFFFFFFFA6
:102A4000FFFFFFFFFFFFFFFFFFFFFFFFFFFFFFFF96
:102A500051F466E9FFFF6AF262E882E804E9D7F51B
:102A6000BEFFBEFF9EFF9EFF7EFF7DFF5DFFBAFEA5
:102A70006AEA62E8C4E8E4E8E4E8E4E8A3E861E8D4
:102A8000A3E8ECF218FE5DFFFFFFFFFFFFFFFFFF73
:102A9000FFFFFFFFDFFF5DFFD7F5ECF2A3E862E881
:102AA000A3E8E4E8E4E8E4E8E4E8E4E8E4E8E4E807
:102AB00062E84AEAFFFFC7E930F4FFFFFFFFFFFFCC
:102AC000FFFFFFFFFFFFFFFFFFFFFFFFFFFFFFFF16
:102AD000FFFFFFFFFFFFFFFFFFFFFFFFFFFFFFFF06
:102AE000FFFFFFFFFFFFFFFFFFFFFFFFFFFFFFFFF6
:102AF000FFFFFFFFFFFFFFFFFFFFFFFFFFFFFFFFE6
:102B0000FFFFFFFFFFFFFFFFFFFFFFFFFFFFFFFFD5
:102B100051F466E9FFFF6AF221E8A3E8DBFEFFFF5C
:102B2000FFFFFFFFFFFFFFFFFFFFFFFFFFFFFFFFB5
:102B3000FFFF29F262E8E4E8E4E842E821E8B3F4C0
:102B4000DFFFFFFFFFFFFFFFFFFFFFFFFFFFFFFFB5
:102B5000FFFFFFFFFFFFFFFFFFFFFFFFDFFF92F41D
:102B600021E841E8E4E8E4E8E4E8E4E8E4E8E4E86B
:102B700062E86AF2FFFFC7E931F4FFFFFFFFFFFFE2
:102B8000FFFFFFFFFFFFFFFFFFFFFFFFFFFFFFFF55
:102B9000FFFFFFFFFFFFFFFFFFFFFFFFFFFFFFFF45
:102BA000FFFFFFFFFFFFFFFFFFFFFFFFFFFFFFFF35
:102BB000FFFFFFFFFFFFFFFFFFFFFFFFFFFFFFFF25
:102BC000FFFFFFFFFFFFFFFFFFFFFFFFFFFFFFFF15
:102BD00051F466E9FFFF6AF200E88EF3FFFFFFFFA2
:102BE000FFFFFFFFFFFFFFFFFFFFFFFFFFFFFFFFF5
:102BF000FFFF75F5C4E8C4E800E8C7E9DFFFFFFFA1
:102C0000FFFFFFFFFFFFFFFFFFFFFFFFFFFFFFFFD4
:102C1000FFFFFFFFFFFFFFFFFFFFFFFFFFFFFFFFC4
:102C2000DFFF08EA00E8E4E8E4E8E4E8E4E8E4E8F0
:102C300062E86AF2FFFFC7E931F4FFFFFFFFFFFF21
:102C4000FFFFFFFFFFFFFFFFFFFFFFFFFFFFFFFF94
:102C5000FFFFFFFFFFFFFFFFFFFFFFFFFFFFFFFF84
:102C6000FFFFFFFFFFFFFFFFFFFFFFFFFFFFFFFF74
:102C7000FFFFFFFFFFFFFFFFFFFFFFFFFFFFFFFF64
:102C8000FFFFFFFFFFFFFFFFFFFFFFFFFFFFFFFF54
:102C900051F466E9FFFF49EA01E8B3F4FFFFFFFFE3
:102CA000FFFFFFFFFFFFFFFFFFFFFFFFFFFFFFFF34
:102CB000FFFFDBFE46E900E8A7E9BEFFFFFFFFFFDD
:102CC000FFFFFFFFFFFFFFFFFFFFFFFFFFFFFFFF14
:102CD000FFFFFFFFFFFFFFFFFFFFFFFFFFFFFFFF04
:102CE000FFFFBEFF09EA00E8E4E8E4E8E4E8E4E81E
:102CF00062E86AF2FFFFC7E931F4FFFFFFFFFFFF61
:102D0000FFFFFFFFFFFFFFFFFFFFFFFFFFFFFFFFD3
:102D1000FFFFFFFFFFFFFFFFFFFFFFFFFFFFFFFFC3
:102D2000FFFFFFFFFFFFFFFFFFFFFFFFFFFFFFFFB3
:102D3000FFFFFFFFFFFFFFFFFFFFFFFFFFFFFFFFA3
:102D4000FFFFFFFFFFFFFFFFFFFFFFFFFFFFFFFF93
:102D500051F466E9FFFF49F221E814F5FFFF8EF315
:102D6000E3E8E3E8E3E8E3E8E3E8E3E8E3E009EAEB
:102D7000FFFF7DFFA3E8C3E85DFFFFFFFFFFFFFF4D
:102D8000FFFFFFFFFFFFFFFFFFFFFFFFFFFFFFFF53
:102D9000FFFFFFFFFFFFFFFFFFFFFFFFFFFFFFFF43
:102DA000FFFFFFFF5DFF6AF220E8E4E8E4E8E4E803
:102DB00062E86AF2FFFFC7E931F4FFFFFFFFFFFFA0
:102DC000FFFFFFFFFFFFFFFFFFFFFFFFFFFFFFFF13
:102DD000FFFFFFFFFFFFFFFFFFFFFFFFFFFFFFFF03
:102DE000FFFFFFFFFFFFFFFFFFFFFFFFFFFFFFFFF3
:102DF000FFFFFFFFFFFFFFFFFFFFFFFFFFFFFFFFE3
:102E0000FFFFFFFFFFFFFFFFFFFFFFFFFFFFFFFFD2
:102E100051F466E9FFFF49EA21E8F4F4FFFF3CFFC3
:102E2000BAFEBAFEBAFEBAFEBAFEBAFEBAFEFBFEA1
:102E3000FFFFF0F321E859FEFFFFFFFFFFFFFFFF59
:102E4000FFFFFFFFFFFFFFFFFFFFFFFFFFFFFFFF92
:102E5000FFFFFFFFFFFFFFFFFFFFFFFFFFFFFFFF82
:102E6000FFFFFFFFFFFF1CFF04E982E8E4E8E4E85E
:102E700062E86AF2FFFFC7E931F4FFFFFFFFFFFFDF
:102E8000FFFFFFFFFFFFFFFFFFFFFFFFFFFFFFFF52
:102E9000FFFFFFFFFFFFFFFFFFFFFFFFFFFFFFFF42
:102EA000FFFFFFFFFFFFFFFFFFFFFFFFFFFFFFFF32
:102EB000FFFFFFFFFFFFFFFFFFFFFFFFFFFFFFFF22
:102EC000FFFFFFFFFFFFFFFFFFFFFFFFFFFFFFFF12
:102ED00051F466E9FFFF6AF200E851F4FFFFFFFFDB
:102EE000FFFFFFFFFFFFFFFFFFFFFFFFFFFFFFFFF2
:102EF0007DFFE4E80CF3DFFFFFFFFFFFFFFFFFFFB5
:102F0000FFFFFFFFFFFFFFFFFFFFFFFFFFFFFFFFD1
:102F1000FFFFFFFFFFFFFFFFFFFFFFFFFFFFFFFFC1
:102F2000FFFFFFFFFFFFFFFF34F520E8E4E8E4E8E0
:102F300062E86AF2FFFFC7E931F4FFFFFFFFFFFF1E
:102F4000FFFFFFFFFFFFFFFFFFFFFFFFFFFFFFFF91
:102F5000FFFFFFFFFFFFFFFFFFFFFFFFFFFFFFFF81
:102F6000FFFFFFFFFFFFFFFFFFFFFFFFFFFFFFFF71
:102F7000FFFFFFFFFFFFFFFFFFFFFFFFFFFFFFFF61
:102F8000FFFFFFFFFFFFFFFFFFFFFFFFFFFFFFFF51
:102F900051F466E9FFFF6AF200E8C8E95DFFFFFF50
:102FA000FFFFFFFFFFFFFFFFFFFFFFFFFFFFFFFF31
:102FB00034F521E859FEFFFFFFFFFFFFFFFFFFFF92
:102FC000FFFFFFFFFFFFFFFFFFFFFFFFFFFF59FEB8
:102FD0003CFFFFFFFFFFFFFFFFFFFFFFFFFFFFFFC4
:102FE000FFFFFFFFFFFFFFFF7EFFC7E962E8E4E8A6
:102FF00062E86AF2FFFFC7E931F4FFFFFFFFFFFF5E
:10300000FFFFFFFFFFFFFFFFFFFFFFFFFFFFFFFFD0
:10301000FFFFFFFFFFFFFFFFFFFFFFFFFFFFFFFFC0
:10302000FFFFFFFFFFFFFFFFFFFFFFFFFFFFFFFFB0
:10303000FFFFFFFFFFFFFFFFFFFFFFFFFFFFFFFFA0
:10304000FFFFFFFFFFFFFFFFFFFFFFFFFFFFFFFF90
:1030500051F466E9FFFF6AF242E882E80CF3FBFEF6
:10306000FFFFFFFFFFFFFFFFFFFFFFFFFFFFBEFFB1
:103070000CF366E99EFFFFFFFFFFFFFFFFFFFFFF6F
:10308000FFFFFFFFFFFFFFFFFFFFFFFF51F4E7E937
:103090004AF2BAFEFFFFFFFFFFFFFFFFFFFFFFFF48
:1030A000FFFFFFFFFFFFFFFFFFFF10F442E8C4E850
:1030B00062E86AF2FFFFC7E931F4FFFFFFFFFFFF9D
:1030C000FFFFFFFFFFFFFFFFFFFFFFFFFFFFFFFF10
:1030D000FFFFFFFFFFFFFFFFFFFFFFFFFFFFFFFF00
:1030E000FFFFFFFFFFFFFFFFFFFFFFFFFFFFFFFFF0
:1030F000FFFFFFFFFFFFFFFFFFFFFFFFFFFFFFFFE0
:10310000FFFFFFFFFFFFFFFFFFFFFFFFFFFFFFFFCF
:1031100051F466E9FFFF6AF262E8A3E8A3E88AEAED
:103120004DF3AFF3CFF3AFF3AFF38EF32DF3EBF239
:10313000E3E86EF3DFFFFFFFFFFFFFFFFFFFFFFF8F
:10314000FFFFFFFFFFFFFFFFFFFFDFFF66E941E833
:1031500041E851F4FFFFFFFFFFFFFFFFFFFFFFFF0D
:10316000FFFFFFFFFFFFFFFFFFFFB6FD82E8C3E8A1
:1031700062E86AF2FFFFC7E931F4FFFFFFFFFFFFDC
:10318000FFFFFFFFFFFFFFFFFFFFFFFFFFFFFFFF4F
:10319000FFFFFFFFFFFFFFFFFFFFFFFFFFFFFFFF3F
:1031A000FFFFFFFFFFFFFFFFFFFFFFFFFFFFFFFF2F
:1031B000FFFFFFFFFFFFFFFFFFFFFFFFFFFFFFFF1F
:1031C000FFFFFFFFFFFFFFFFFFFFFFFFFFFFFFFF0F
:1031D00051F466E9FFFF4AF221E88EF392F492F48B
:1031E000B3F40CF382E8C4E8C3E8A3E883E862E838
:1031F00021E814F5FFFFFFFFFFFFFFFFFFFFFFFFC9
:10320000FFFFFFFFFFFFFFFFFFFFBEFF83E883E835
:1032100062E8CBF2FFFFFFFFFFFFFFFFFFFFFFFFB3
:10322000FFFFFFFFFFFFFFFFFFFFDBFE45E983E836
:1032300062E86AF2FFFFC7E931F4FFFFFFFFFFFF1B
:10324000FFFFFFFFFFFFFFFFFFFFFFFFFFFFFFFF8E
:10325000FFFFFFFFFFFFFFFFFFFFFFFFFFFFFFFF7E
:10326000FFFFFFFFFFFFFFFFFFFFFFFFFFFFFFFF6E
:10327000FFFFFFFFFFFFFFFFFFFFFFFFFFFFFFFF5E
:10328000FFFFFFFFFFFFFFFFFFFFFFFFFFFFFFFF4E
:1032900051F466E9FFFF6AF200E80CF3FCFEFFFF61
:1032A000FFFFF7FD00E862E862E862E862E883E8B1
:1032B00041E838FEFFFFFFFFFFFFFFFFFFFFFFFFBB
:1032C000FFFFFFFFFFFFFFFFFFFF7DFF62E8A3E8B7
:1032D00062E829EAFFFFFFFFFFFFFFFFFFFFFFFF9D
:1032E000FFFFFFFFFFFFFFFFFFFF7DFF4AF262E8E6
:1032F00062E86AF2FFFFC7E931F4FFFFFFFFFFFF5B
:10330000FFFFFFFFFFFFFFFFFFFFFFFFFFFFFFFFCD
:10331000FFFFFFFFFFFFFFFFFFFFFFFFFFFFFFFFBD
:10332000FFFFFFFFFFFFFFFFFFFFFFFFFFFFFFFFAD
:10333000FFFFFFFFFFFFFFFFFFFFFFFFFFFFFFFF9D
:10334000FFFFFFFFFFFFFFFFFFFFFFFFFFFFFFFF8D
:1033500051F466E9FFFF6AF201E8C7E938FEFFFFB2
:10336000FFFF9EFF8EF34DF34DF34DF3AFF329F2C4
:1033700082E8BBFEFFFFFFFFFFFFFFFFFFFFFFFF36
:10338000FFFFFFFFFFFFFFFFFFFF3CFF62E8A3E837
:1033900082E8E8E9FFFFFFFFFFFFFFFFFFFFFFFFFE
:1033A000FFFFFFFFFFFFFFFFFFFFDFFF2DF321E820
:1033B00062E86AF2FFFFC7E931F4FFFFFFFFFFFF9A
:1033C000FFFFFFFFFFFFFFFFFFFFFFFFFFFFFFFF0D
:1033D000FFFFFFFFFFFFFFFFFFFFFFFFFFFFFFFFFD
:1033E000FFFFFFFFFFFFFFFFFFFFFFFFFFFFFFFFED
:1033F000FFFFFFFFFFFFFFFFFFFFFFFFFFFFFFFFDD
:10340000FFFFFFFFFFFFFFFFFFFFFFFFFFFFFFFFCC
:1034100051F466E9FFFF6AF200E86EF3FBFEFFFF7E
:10342000FFFFFFFFBEFF3CFF3CFF3CFFBEFF71F410
:10343000C3E8FBFEFFFFFFFFFFFFFFFFFFFFFFFFF4
:10344000FFFFFFFFFFFFFFFFFFFF1CFF62E8C3E876
:1034500082E8C7E9FFFFFFFFFFFFFFFFFFFFFFFF5E
:10346000FFFFFFFFFFFFFFFFFFFFFFFFCFF321E89D
:1034700062E86AF2FFFFC7E931F4FFFFFFFFFFFFD9
:10348000FFFFFFFFFFFFFFFFFFFFFFFFFFFFFFFF4C
:10349000FFFFFFFFFFFFFFFFFFFFFFFFFFFFFFFF3C
:1034A000FFFFFFFFFFFFFFFFFFFFFFFFFFFFFFFF2C
:1034B000FFFFFFFFFFFFFFFFFFFFFFFFFFFFFFFF1C
:1034C000FFFFFFFFFFFFFFFFFFFFFFFFFFFFFFFF0C
:1034D00051F466E9FFFF6AF200E831F4FFFFFFFFF5
:1034E000FFFFFFFFFFFFFFFFFFFFFFFFFFFF72F484
:1034F00005E91CFFFFFFFFFFFFFFFFFFFFFFFFFFCF
:10350000FFFFFFFFFFFFFFFFFFFF1CFF62E8C3E8B5
:1035100082E8C7E9FFFFFFFFFFFFFFFFFFFFFFFF9D
:10352000FFFFFFFFFFFFFFFFFFFFFFFF92F421E818
:1035300062E86AF2FFFFC7E931F4FFFFFFFFFFFF18
:10354000FFFFFFFFFFFFFFFFFFFFFFFFFFFFFFFF8B
:10355000FFFFFFFFFFFFFFFFFFFFFFFFFFFFFFFF7B
:10356000FFFFFFFFFFFFFFFFFFFFFFFFFFFFFFFF6B
:10357000FFFFFFFFFFFFFFFFFFFFFFFFFFFFFFFF5B
:10358000FFFFFFFFFFFFFFFFFFFFFFFFFFFFFFFF4B
:1035900051F466E9FFFF6AF200E831F4FFFFFFFF34
:1035A000FFFFFFFFFFFFFFFFFFFFFFFFFFFF31F404
:1035B00066E93CFFFFFFFFFFFFFFFFFFFFFFFFFF8D
:1035C000FFFFFFFFFFFFFFFFFFFF1CFF41E882E857
:1035D00062E886E9FFFFFFFFFFFFFFFFFFFFFFFF3E
:1035E000FFFFFFFFFFFFFFFFFFFFFFFFF4F482E895
:1035F00042E86AF2FFFFC7E931F4FFFFFFFFFFFF78
:10360000FFFFFFFFFFFFFFFFFFFFFFFFFFFFFFFFCA
:10361000FFFFFFFFFFFFFFFFFFFFFFFFFFFFFFFFBA
:10362000FFFFFFFFFFFFFFFFFFFFFFFFFFFFFFFFAA
:10363000FFFFFFFFFFFFFFFFFFFFFFFFFFFFFFFF9A
:10364000FFFFFFFFFFFFFFFFFFFFFFFFFFFFFFFF8A
:1036500051F466E9FFFF6AF200E8AFF359FE18FE85
:1036600018FE18FE38FE18FE18FE18FE59FEAFF3BD
:1036700086E93DFFFFFFFFFFFFFFFFFFFFFFFFFFAB
:10368000FFFFFFFFFFFFFFFFFFFF1CFF24E925E90E
:1036900025E908F2FFFFFFFFFFFFFFFFFFFFFFFF2E
:1036A000FFFFFFFFFFFFFFFFFFFFFFFF14F5A3E892
:1036B00042E86AF2FFFFC7E931F4FFFFFFFFFFFFB7
:1036C000FFFFFFFFFFFFFFFFFFFFFFFFFFFFFFFF0A
:1036D000FFFFFFFFFFFFFFFFFFFFFFFFFFFFFFFFFA
:1036E000FFFFFFFFFFFFFFFFFFFFFFFFFFFFFFFFEA
:1036F000FFFFFFFFFFFFFFFFFFFFFFFFFFFFFFFFDA
:10370000FFFFFFFFFFFFFFFFFFFFFFFFFFFFFFFFC9
:1037100051F466E9FFFF6AF221E809EA6AF245E935
:1037200082E862E882E862E8C3E845E98AF2A7E94C
:10373000C7E95DFFFFFFFFFFFFFFFFFFFFFFFFFF89
:10374000FFFFFFFFFFFFFFFFFFFFBEFF55FD76FD01
:1037500075FDD7FDFFFFFFFFFFFFFFFFFFFFFFFF2F
:10376000FFFFFFFFFFFFFFFFFFFFFFFF34F5A3E8B1
:1037700041E86AF2FFFFC7E931F4FFFFFFFFFFFFF7
:10378000FFFFFFFFFFFFFFFFFFFFFFFFFFFFFFFF49
:10379000FFFFFFFFFFFFFFFFFFFFFFFFFFFFFFFF39
:1037A000FFFFFFFFFFFFFFFFFFFFFFFFFFFFFFFF29
:1037B000FFFFFFFFFFFFFFFFFFFFFFFFFFFFFFFF19
:1037C000FFFFFFFFFFFFFFFFFFFFFFFFFFFFFFFF09
:1037D00051F466E9FFFF6AF200E851F4FFFF7AFE58
:1037E0002DF324E9E4E886F110F49AFEFFFF31F4AA
:1037F00066E93CFFFFFFFFFFFFFFFFFFFFFFFFFF4B
:10380000FFFFFFFFFFFFFFFFFFFFFFFFFFFFFFFFC8
:10381000FFFFFFFFFFFFFFFFFFFFFFFFFFFFFFFFB8
:10382000FFFFFFFFFFFFFFFFFFFFFFFF35F5A3E8EF
:1038300041E86AF2FFFFC7E931F4FFFFFFFFFFFF36
:10384000FFFFFFFFFFFFFFFFFFFFFFFFFFFFFFFF88
:10385000FFFFFFFFFFFFFFFFFFFFFFFFFFFFFFFF78
:10386000FFFFFFFFFFFFFFFFFFFFFFFFFFFFFFFF68
:10387000FFFFFFFFFFFFFFFFFFFFFFFFFFFFFFFF58
:10388000FFFFFFFFFFFFFFFFFFFFFFFFFFFFFFFF48
:1038900051F466E9FFFF6AF200E810F4FFFFFFFF52
:1038A000FFFFFFFFDBFEFFFFFFFFFFFFFFFF10F447
:1038B00066E93CFFFFFFFFFFFFFFFFFFFFFFFFFF8A
:1038C000FFFFFFFFFFFFFFFFFFFFFFFFFFFFFFFF08
:1038D000FFFFFFFFFFFFFFFFFFFFFFFFFFFFFFFFF8
:1038E000FFFFFFFFFFFFFFFFFFFFFFFF55F5C3E8EF
:1038F00021E86AF2FFFFC7E931F4FFFFFFFFFFFF96
:10390000FFFFFFFFFFFFFFFFFFFFFFFFFFFFFFFFC7
:10391000FFFFFFFFFFFFFFFFFFFFFFFFFFFFFFFFB7
:10392000FFFFFFFFFFFFFFFFFFFFFFFFFFFFFFFFA7
:10393000FFFFFFFFFFFFFFFFFFFFFFFFFFFFFFFF97
:10394000FFFFFFFFFFFFFFFFFFFFFFFFFFFFFFFF87
:1039500051F466E9FFFF6AF200E8F0F3BFFFFFFFF2
:10396000FFFFFFFFFFFFFFFFFFFFFFFFFFFF51F420
:1039700066E93CFFFFFFFFFFFFFFFFFFFFFFFFFFC9
:10398000FFFFFFFFFFFFFFFFFFFFFFFFFFFFFFFF47
:10399000FFFFFFFFFFFFFFFFFFFFFFFFFFFFFFFF37
:1039A000FFFFFFFFFFFFFFFFFFFFFFFF55F5C3E82E
:1039B00041E86AF2FFFFC7E931F4FFFFFFFFFFFFB5
:1039C000FFFFFFFFFFFFFFFFFFFFFFFFFFFFFFFF07
:1039D000FFFFFFFFFFFFFFFFFFFFFFFFFFFFFFFFF7
:1039E000FFFFFFFFFFFFFFFFFFFFFFFFFFFFFFFFE7
:1039F000FFFFFFFFFFFFFFFFFFFFFFFFFFFFFFFFD7
:103A0000FFFFFFFFFFFFFFFFFFFFFFFFFFFFFFFFC6
:103A100051F466E9FFFF6AF242E883E8A7E9B7F5E7
:103A2000FFFFFFFFFFFFFFFFFFFF7DFF34F566E9AC
:103A3000C7E95DFFFFFFFFFFFFFFFFFFFFFFFFFF86
:103A4000FFFFFFFFFFFFFFFFFFFFFFFFFFFFFFFF86
:103A5000FFFFFFFFFFFFFFFFFFFFFFFFFFFFFFFF76
:103A6000FFFFFFFFFFFFFFFFFFFFFFFF55F5C3E86D
:103A700041E86AF2FFFFC7E931F4FFFFFFFFFFFFF4
:103A8000FFFFFFFFFFFFFFFFFFFFFFFFFFFFFFFF46
:103A9000FFFFFFFFFFFFFFFFFFFFFFFFFFFFFFFF36
:103AA000FFFFFFFFFFFFFFFFFFFFFFFFFFFFFFFF26
:103AB000FFFFFFFFFFFFFFFFFFFFFFFFFFFFFFFF16
:103AC000FFFFFFFFFFFFFFFFFFFFFFFFFFFFFFFF06
:103AD00051F466E9FFFF6AF200E82DF318FE96F54F
:103AE0009AFEFFFFFFFFFFFF3CFF96FD18FEECF282
:103AF000A7E93DFFFFFFFFFFFFFFFFFFFFFFFFFF06
:103B0000FFFFFFFFFFFFFFFFFFFFFFFFFFFFFFFFC5
:103B1000FFFFFFFFFFFFFFFFFFFFFFFFFFFFFFFFB5
:103B2000FFFFFFFFFFFFFFFFFFFFFFFF55F5C3E8AC
:103B300041E86AF2FFFFC7E931F4FFFFFFFFFFFF33
:103B4000FFFFFFFFFFFFFFFFFFFFFFFFFFFFFFFF85
:103B5000FFFFFFFFFFFFFFFFFFFFFFFFFFFFFFFF75
:103B6000FFFFFFFFFFFFFFFFFFFFFFFFFFFFFFFF65
:103B7000FFFFFFFFFFFFFFFFFFFFFFFFFFFFFFFF55
:103B8000FFFFFFFFFFFFFFFFFFFFFFFFFFFFFFFF45
:103B900051F466E9FFFF6AF200E830F4DFFFBEFF90
:103BA000DFFFFFFFFFFFFFFFFFFFBEFFDFFF10F4A0
:103BB00066E93CFFFFFFFFFFFFFFFFFFFFFFFFFF87
:103BC000FFFFFFFFFFFFFFFFFFFFFFFFFFFFFFFF05
:103BD000FFFFFFFFFFFFFFFFFFFFFFFFFFFFFFFFF5
:103BE000FFFFFFFFFFFFFFFFFFFFFFFF76F5A3E8EB
:103BF00021E86AF2FFFFC7E931F4FFFFFFFFFFFF93
:103C0000FFFFFFFFFFFFFFFFFFFFFFFFFFFFFFFFC4
:103C1000FFFFFFFFFFFFFFFFFFFFFFFFFFFFFFFFB4
:103C2000FFFFFFFFFFFFFFFFFFFFFFFFFFFFFFFFA4
:103C3000FFFFFFFFFFFFFFFFFFFFFFFFFFFFFFFF94
:103C4000FFFFFFFFFFFFFFFFFFFFFFFFFFFFFFFF84
:103C500051F466E9FFFF6AF200E810F4FFFFFFFF8E
:103C6000FFFFFFFFFFFFFFFFFFFFFFFFFFFF10F45E
:103C700066E93CFFFFFFFFFFFFFFFFFFFFFFFFFFC6
:103C8000FFFFFFFFFFFFFFFFFFFFDFFFBEFFBEFFE6
:103C9000BEFFBEFFBEFFBEFFBEFFBEFFBEFFBEFF3C
:103CA000BEFFBEFFBEFFBEFFDFFFFFFF14F5C3E890
:103CB00041E86AF2FFFFC7E931F4FFFFFFFFFFFFB2
:103CC000FFFFFFFFFFFFFFFFFFFFFFFFFFFFFFFF04
:103CD000FFFFFFFFFFFFFFFFFFFFFFFFFFFFFFFFF4
:103CE000FFFFFFFFFFFFFFFFFFFFFFFFFFFFFFFFE4
:103CF000FFFFFFFFFFFFFFFFFFFFFFFFFFFFFFFFD4
:103D0000FFFFFFFFFFFFFFFFFFFFFFFFFFFFFFFFC3
:103D100051F466E9FFFF6AF200E872F4FFFFFFFF6B
:103D2000FFFFFFFFFFFFFFFFFFFFFFFFFFFF71F43C
:103D300066E93CFFFFFFFFFFFFFFFFFFFFFFFFFF05
:103D4000FFFFFFFFFFFFFFFFFFFF1CFF86E9A6E964
:103D5000A6E9A6E986E986E986E986E986E986E9AB
:103D600086E986E986E986E9A6E9A6E905E9E4E8BF
:103D700062E86AF2FFFFC7E931F4FFFFFFFFFFFFD0
:103D8000FFFFFFFFFFFFFFFFFFFFFFFFFFFFFFFF43
:103D9000FFFFFFFFFFFFFFFFFFFFFFFFFFFFFFFF33
:103DA000FFFFFFFFFFFFFFFFFFFFFFFFFFFFFFFF23
:103DB000FFFFFFFFFFFFFFFFFFFFFFFFFFFFFFFF13
:103DC000FFFFFFFFFFFFFFFFFFFFFFFFFFFFFFFF03
:103DD00051F466E9FFFF6AF221E8E8E9ECF20CF33E
:103DE000ECF2ECF2ECF2ECF2ECF2ECF20CF387E930
:103DF000C7E93DFFFFFFFFFFFFFFFFFFFFFFFFFFE3
:103E0000FFFFFFFFFFFFFFFFFFFF1CFF41E882E80E
:103E1000A3E8A3E862E841E841E841E841E841E875
:103E200041E841E841E841E841E841E862E8E4E886
:103E300062E86AF2FFFFC7E931F4FFFFFFFFFFFF0F
:103E4000FFFFFFFFFFFFFFFFFFFFFFFFFFFFFFFF82
:103E5000FFFFFFFFFFFFFFFFFFFFFFFFFFFFFFFF72
:103E6000FFFFFFFFFFFFFFFFFFFFFFFFFFFFFFFF62
:103E7000FFFFFFFFFFFFFFFFFFFFFFFFFFFFFFFF52
:103E8000FFFFFFFFFFFFFFFFFFFFFFFFFFFFFFFF42
:103E900051F466E9FFFF6AF200E8CBF2D7FD4AF27F
:103EA00071F476F555F555F555F555F5B7FDABF2C9
:103EB000A7E93DFFFFFFFFFFFFFFFFFFFFFFFFFF42
:103EC000FFFFFFFFFFFFFFFFFFFF1CFF62E8C3E8EC
:103ED000C4E8E4E886E909F2E8F1E8F1E8F1E8F19C
:103EE000E8F1E8F1E8F1E8F1E8F108F286E9E4E860
:103EF00062E86AF2FFFFC7E931F4FFFFFFFFFFFF4F
:103F0000FFFFFFFFFFFFFFFFFFFFFFFFFFFFFFFFC1
:103F1000FFFFFFFFFFFFFFFFFFFFFFFFFFFFFFFFB1
:103F2000FFFFFFFFFFFFFFFFFFFFFFFFFFFFFFFFA1
:103F3000FFFFFFFFFFFFFFFFFFFFFFFFFFFFFFFF91
:103F4000FFFFFFFFFFFFFFFFFFFFFFFFFFFFFFFF81
:103F500051F466E9FFFF6AF200E8F0F3FFFF2DF38A
:103F600079FEDFFFBEFFBEFFBEFFBEFFDFFFF0F347
:103F700066E93CFFFFFFFFFFFFFFFFFFFFFFFFFFC3
:103F8000FFFFFFFFFFFFFFFFFFFF1CFF62E8C3E82B
:103F9000C3E8C4E871F418FEF8FDF8FDF8FDF8FD7B
:103FA000F8FDF8FDF8FDF8FDF8FD18FE72F4C3E821
:103FB00041E86AF2FFFFC7E931F4FFFFFFFFFFFFAF
:103FC000FFFFFFFFFFFFFFFFFFFFFFFFFFFFFFFF01
:103FD000FFFFFFFFFFFFFFFFFFFFFFFFFFFFFFFFF1
:103FE000FFFFFFFFFFFFFFFFFFFFFFFFFFFFFFFFE1
:103FF000FFFFFFFFFFFFFFFFFFFFFFFFFFFFFFFFD1
:10400000FFFFFFFFFFFFFFFFFFFFFFFFFFFFFFFFC0
:1040100051F466E9FFFF6AF200E810F4FFFF4DF388
:10402000BAFEFFFFFFFFFFFFFFFFFFFFFFFF10F4E0
:1040300066E93CFFFFFFFFFFFFFFFFFFFFFFFFFF02
:10404000FFFFFFFFFFFFFFFFFFFF1CFF62E8C3E86A
:10405000A3E8C4E875F5FFFFFFFFFFFFFFFFFFFFC9
:10406000FFFFFFFFFFFFFFFFFFFFFFFF96F5C3E826
:1040700041E86AF2FFFFC7E931F4FFFFFFFFFFFFEE
:10408000FFFFFFFFFFFFFFFFFFFFFFFFFFFFFFFF40
:10409000FFFFFFFFFFFFFFFFFFFFFFFFFFFFFFFF30
:1040A000FFFFFFFFFFFFFFFFFFFFFFFFFFFFFFFF20
:1040B000FFFFFFFFFFFFFFFFFFFFFFFFFFFFFFFF10
:1040C000FFFFFFFFFFFFFFFFFFFFFFFFFFFFFFFF00
:1040D00051F466E9FFFF6AF200E851F4FFFF8EF346
:1040E0001CFFFFFFFFFFFFFFFFFFFFFFFFFF51F47C
:1040F00066E93CFFFFFFFFFFFFFFFFFFFFFFFFFF42
:10410000FFFFFFFFFFFFFFFFFFFF1CFF62E8C3E8A9
:10411000A3E8C4E834F5FFFFFFFFFFFFFFFFFFFF49
:10412000FFFFFFFFFFFFFFFFFFFFFFFF55F5C3E8A6
:1041300021E86AF2FFFFC7E931F4FFFFFFFFFFFF4D
:10414000FFFFFFFFFFFFFFFFFFFFFFFFFFFFFFFF7F
:10415000FFFFFFFFFFFFFFFFFFFFFFFFFFFFFFFF6F
:10416000FFFFFFFFFFFFFFFFFFFFFFFFFFFFFFFF5F
:10417000FFFFFFFFFFFFFFFFFFFFFFFFFFFFFFFF4F
:10418000FFFFFFFFFFFFFFFFFFFFFFFFFFFFFFFF3F
:1041900051F466E9FFFF6AF221E8CBF271F408EA14
:1041A00010F451F451F451F451F451F451F46AF211
:1041B000A7E93CFFFFFFFFFFFFFFFFFFFFFFFFFF40
:1041C000FFFFFFFFFFFFFFFFFFFF1CFF62E8C3E8E9
:1041D000A3E8C4E834F5FFFFFFFFFFFFFFFFFFFF89
:1041E000FFFFFFFFFFFFFFFFFFFFFFFF55F5C3E8E6
:1041F00041E86AF2FFFFC7E931F4FFFFFFFFFFFF6D
:10420000FFFFFFFFFFFFFFFFFFFFFFFFFFFFFFFFBE
:10421000FFFFFFFFFFFFFFFFFFFFFFFFFFFFFFFFAE
:10422000FFFFFFFFFFFFFFFFFFFFFFFFFFFFFFFF9E
:10423000FFFFFFFFFFFFFFFFFFFFFFFFFFFFFFFF8E
:10424000FFFFFFFFFFFFFFFFFFFFFFFFFFFFFFFF7E
:1042500051F466E9FFFF6AF262E883E845E9AAF2F1
:10426000EBF2EBF2EBF2EBF2EBF2EBF22CF386E992
:10427000A7E93CFFFFFFFFFFFFFFFFFFFFFFFFFF7F
:10428000FFFFFFFFFFFFFFFFFFFF1CFF62E8C3E828
:10429000A3E8C4E834F5FFFFFFFFFFFFFFFFFFFFC8
:1042A000FFFFFFFFFFFFFFFFFFFFFFFF55F5C3E825
:1042B00041E86AF2FFFFC7E931F4FFFFFFFFFFFFAC
:1042C000FFFFFFFFFFFFFFFFFFFFFFFFFFFFFFFFFE
:1042D000FFFFFFFFFFFFFFFFFFFFFFFFFFFFFFFFEE
:1042E000FFFFFFFFFFFFFFFFFFFFFFFFFFFFFFFFDE
:1042F000FFFFFFFFFFFFFFFFFFFFFFFFFFFFFFFFCE
:10430000FFFFFFFFFFFFFFFFFFFFFFFFFFFFFFFFBD
:1043100051F466E9FFFF6AF241E825E951F4DBFE5A
:104320003CFF3CFF3CFF3CFF3CFF3CFFBEFFF0F38B
:1043300025E91CFFFFFFFFFFFFFFFFFFFFFFFFFF60
:10434000FFFFFFFFFFFFFFFFFFFF1CFF62E8C3E867
:10435000A3E8C4E834F5FFFFFFFFFFFFFFFFFFFF07
:10436000FFFFFFFFFFFFFFFFFFFFFFFF34F5A3E8A5
:1043700041E86AF2FFFFC7E931F4FFFFFFFFFFFFEB
:10438000FFFFFFFFFFFFFFFFFFFFFFFFFFFFFFFF3D
:10439000FFFFFFFFFFFFFFFFFFFFFFFFFFFFFFFF2D
:1043A000FFFFFFFFFFFFFFFFFFFFFFFFFFFFFFFF1D
:1043B000FFFFFFFFFFFFFFFFFFFFFFFFFFFFFFFF0D
:1043C000FFFFFFFFFFFFFFFFFFFFFFFFFFFFFFFFFD
:1043D00051F466E9FFFF6AF200E88EF3FFFFFFFF8A
:1043E000FFFFFFFFFFFFFFFFFFFFFFFFFFFFD3F414
:1043F000A3E8FBFEFFFFFFFFFFFFFFFFFFFFFFFF45
:10440000FFFFFFFFFFFFFFFFFFFF1CFF62E8C3E8A6
:10441000A3E8C4E834F5FFFFFFFFFFFFFFFFFFFF46
:10442000FFFFFFFFFFFFFFFFFFFFFFFFF3F482E847
:1044300042E86AF2FFFFC7E931F4FFFFFFFFFFFF29
:10444000FFFFFFFFFFFFFFFFFFFFFFFFFFFFFFFF7C
:10445000FFFFFFFFFFFFFFFFFFFFFFFFFFFFFFFF6C
:10446000FFFFFFFFFFFFFFFFFFFFFFFFFFFFFFFF5C
:10447000FFFFFFFFFFFFFFFFFFFFFFFFFFFFFFFF4C
:10448000FFFFFFFFFFFFFFFFFFFFFFFFFFFFFFFF3C
:1044900051F466E9FFFF49EA01E814F5FFFFFFFF69
:1044A000FFFFFFFFFFFFFFFFFFFFFFFFFFFF35FDE8
:1044B00062E8BAFEFFFFFFFFFFFFFFFFFFFFFFFF06
:1044C000FFFFFFFFFFFFFFFFFFFF1CFF62E8C3E8E6
:1044D000A3E8C4E835F5FFFFFFFFFFFFFFFFFFFF85
:1044E000FFFFFFFFFFFFFFFFFFFFFFFF92F421E849
:1044F00062E86AF2FFFFC7E931F4FFFFFFFFFFFF49
:10450000FFFFFFFFFFFFFFFFFFFFFFFFFFFFFFFFBB
:10451000FFFFFFFFFFFFFFFFFFFFFFFFFFFFFFFFAB
:10452000FFFFFFFFFFFFFFFFFFFFFFFFFFFFFFFF9B
:10453000FFFFFFFFFFFFFFFFFFFFFFFFFFFFFFFF8B
:10454000FFFFFFFFFFFFFFFFFFFFFFFFFFFFFFFF7B
:1045500051F466E9FFFF4AEA01E8B3F4FFFF7DFF8B
:10456000BBFEDBFEDBFEDBFEDBFEDBFEDBFE35F552
:1045700042E859FEFFFFFFFFFFFFFFFFFFFFFFFFC6
:10458000FFFFFFFFFFFFFFFFFFFF3CFF42E8C3E825
:10459000A3E8E4E8B6F5FFFFFFFFFFFFFFFFFFFF23
:1045A000FFFFFFFFFFFFFFFFFFFFFFFF31F401E809
:1045B00062E86AF2FFFFC7E931F4FFFFFFFFFFFF88
:1045C000FFFFFFFFFFFFFFFFFFFFFFFFFFFFFFFFFB
:1045D000FFFFFFFFFFFFFFFFFFFFFFFFFFFFFFFFEB
:1045E000FFFFFFFFFFFFFFFFFFFFFFFFFFFFFFFFDB
:1045F000FFFFFFFFFFFFFFFFFFFFFFFFFFFFFFFFCB
:10460000FFFFFFFFFFFFFFFFFFFFFFFFFFFFFFFFBA
:1046100051F466E9FFFF6AF200E80CF39EFF76F5BD
:1046200029EA29EA49F249F249F249F26AF2C7E96C
:1046300041E8B7FDFFFFFFFFFFFFFFFFFFFFFFFFA9
:10464000FFFFFFFFFFFFFFFFFFFF9EFF82E8A3E8E2
:10465000A3E804E979FEFFFFFFFFFFFFFFFFFFFF75
:10466000FFFFFFFFFFFFFFFFFFFFFFFF8EF321E8CC
:1046700062E86AF2FFFFC7E931F4FFFFFFFFFFFFC7
:10468000FFFFFFFFFFFFFFFFFFFFFFFFFFFFFFFF3A
:10469000FFFFFFFFFFFFFFFFFFFFFFFFFFFFFFFF2A
:1046A000FFFFFFFFFFFFFFFFFFFFFFFFFFFFFFFF1A
:1046B000FFFFFFFFFFFFFFFFFFFFFFFFFFFFFFFF0A
:1046C000FFFFFFFFFFFFFFFFFFFFFFFFFFFFFFFFFA
:1046D00051F466E9FFFF6AF242E820E876F559FEF8
:1046E0004DF3ECF20CF30CF30CF30CF30CF3ECF2D3
:1046F000C3E8F0F3FFFFFFFFFFFFFFFFFFFFFFFF38
:10470000FFFFFFFFFFFFFFFFFFFFFFFF25E982E83D
:1047100062E804E9BEFFFFFFFFFFFFFFFFFFFFFFAF
:10472000FFFFFFFFFFFFFFFFFFFF7DFF29F262E8B2
:1047300062E86AF2FFFFC7E931F4FFFFFFFFFFFF06
:10474000FFFFFFFFFFFFFFFFFFFFFFFFFFFFFFFF79
:10475000FFFFFFFFFFFFFFFFFFFFFFFFFFFFFFFF69
:10476000FFFFFFFFFFFFFFFFFFFFFFFFFFFFFFFF59
:10477000FFFFFFFFFFFFFFFFFFFFFFFFFFFFFFFF49
:10478000FFFFFFFFFFFFFFFFFFFFFFFFFFFFFFFF39
:1047900051F466E9FFFF6AF200E8A7E9BAFEFFFFFD
:1047A000FFFFFFFFFFFFFFFFFFFFFFFFFFFFFFFF19
:1047B000ABF208EADFFFFFFFFFFFFFFFFFFFFFFF96
:1047C000FFFFFFFFFFFFFFFFFFFFFFFFECF241E8EE
:1047D00041E80CF3FFFFFFFFFFFFFFFFFFFFFFFFBD
:1047E000FFFFFFFFFFFFFFFFFFFF9AFEE4E8A3E8E4
:1047F00062E86AF2FFFFC7E931F4FFFFFFFFFFFF46
:10480000FFFFFFFFFFFFFFFFFFFFFFFFFFFFFFFFB8
:10481000FFFFFFFFFFFFFFFFFFFFFFFFFFFFFFFFA8
:10482000FFFFFFFFFFFFFFFFFFFFFFFFFFFFFFFF98
:10483000FFFFFFFFFFFFFFFFFFFFFFFFFFFFFFFF88
:10484000FFFFFFFFFFFFFFFFFFFFFFFFFFFFFFFF78
:1048500051F466E9FFFF4AEA00E8B3F4FFFFFFFF07
:10486000FFFFFFFFFFFFFFFFFFFFFFFFFFFFFFFF58
:1048700072F400E81CFFFFFFFFFFFFFFFFFFFFFFD9
:10488000FFFFFFFFFFFFFFFFFFFFFFFFFFFF76F5CB
:1048900059FEFFFFFFFFFFFFFFFFFFFFFFFFFFFFCF
:1048A000FFFFFFFFFFFFFFFFFFFF31F401E8E4E838
:1048B00062E86AF2FFFFC7E931F4FFFFFFFFFFFF85
:1048C000FFFFFFFFFFFFFFFFFFFFFFFFFFFFFFFFF8
:1048D000FFFFFFFFFFFFFFFFFFFFFFFFFFFFFFFFE8
:1048E000FFFFFFFFFFFFFFFFFFFFFFFFFFFFFFFFD8
:1048F000FFFFFFFFFFFFFFFFFFFFFFFFFFFFFFFFC8
:10490000FFFFFFFFFFFFFFFFFFFFFFFFFFFFFFFFB7
:1049100051F466E9FFFF49EA21E834FDFFFFFFFF9C
:10492000FFFFFFFFFFFFFFFFFFFFFFFFFFFFFFFF97
:10493000DFFF04E98AF2FFFFFFFFFFFFFFFFFFFF3A
:10494000FFFFFFFFFFFFFFFFFFFFFFFFFFFFFFFF77
:10495000FFFFFFFFFFFFFFFFFFFFFFFFFFFFFFFF67
:10496000FFFFFFFFFFFFFFFF9EFF62E8A3E8E4E811
:1049700062E86AF2FFFFC7E931F4FFFFFFFFFFFFC4
:10498000FFFFFFFFFFFFFFFFFFFFFFFFFFFFFFFF37
:10499000FFFFFFFFFFFFFFFFFFFFFFFFFFFFFFFF27
:1049A000FFFFFFFFFFFFFFFFFFFFFFFFFFFFFFFF17
:1049B000FFFFFFFFFFFFFFFFFFFFFFFFFFFFFFFF07
:1049C000FFFFFFFFFFFFFFFFFFFFFFFFFFFFFFFFF7
:1049D00051F466E9FFFF6AF200E851F4FFFF9EFF21
:1049E00059FE38FE38FE38FE38FE38FE38FE59FED5
:1049F000DBFE8AF221E8FBFEFFFFFFFFFFFFFFFF68
:104A0000FFFFFFFFFFFFFFFFFFFFFFFFFFFFFFFFB6
:104A1000FFFFFFFFFFFFFFFFFFFFFFFFFFFFFFFFA6
:104A2000FFFFFFFFFFFFFFFFF0F300E8E4E8E4E82B
:104A300062E86AF2FFFFC7E931F4FFFFFFFFFFFF03
:104A4000FFFFFFFFFFFFFFFFFFFFFFFFFFFFFFFF76
:104A5000FFFFFFFFFFFFFFFFFFFFFFFFFFFFFFFF66
:104A6000FFFFFFFFFFFFFFFFFFFFFFFFFFFFFFFF56
:104A7000FFFFFFFFFFFFFFFFFFFFFFFFFFFFFFFF46
:104A8000FFFFFFFFFFFFFFFFFFFFFFFFFFFFFFFF36
:104A900051F466E9FFFF6AF201E825E91CFF92F490
:104AA000E4E8E3E8E3E8E3E8E3E8E3E8E3E8E3E8AD
:104AB00004E982E800E804E9FFFFFFFFFFFFFFFFD2
:104AC000FFFFFFFFFFFFFFFFFFFFFFFFFFFFFFFFF6
:104AD000FFFFFFFFFFFFFFFFFFFFFFFFFFFFFFFFE6
:104AE000FFFFFFFFFFFFD7FD82E8C3E8E4E8E4E84B
:104AF00062E86AF2FFFFC7E931F4FFFFFFFFFFFF43
:104B0000FFFFFFFFFFFFFFFFFFFFFFFFFFFFFFFFB5
:104B1000FFFFFFFFFFFFFFFFFFFFFFFFFFFFFFFFA5
:104B2000FFFFFFFFFFFFFFFFFFFFFFFFFFFFFFFF95
:104B3000FFFFFFFFFFFFFFFFFFFFFFFFFFFFFFFF85
:104B4000FFFFFFFFFFFFFFFFFFFFFFFFFFFFFFFF75
:104B500051F466E9FFFF6AF200E86EF3DFFF3CFF05
:104B600079FE79FE79FE79FE79FE79FE79FE79FE8D
:104B700079FE79FEB6F500E849F2FFFFFFFFFFFF7F
:104B8000FFFFFFFFFFFFFFFFFFFFFFFFFFFFFFFF35
:104B9000FFFFFFFFFFFFFFFFFFFFFFFFFFFFFFFF25
:104BA000FFFFFFFF9AFE04E9A3E8E4E8E4E8E4E895
:104BB00062E86AF2FFFFC7E931F4FFFFFFFFFFFF82
:104BC000FFFFFFFFFFFFFFFFFFFFFFFFFFFFFFFFF5
:104BD000FFFFFFFFFFFFFFFFFFFFFFFFFFFFFFFFE5
:104BE000FFFFFFFFFFFFFFFFFFFFFFFFFFFFFFFFD5
:104BF000FFFFFFFFFFFFFFFFFFFFFFFFFFFFFFFFC5
:104C0000FFFFFFFFFFFFFFFFFFFFFFFFFFFFFFFFB4
:104C100051F466E9FFFF6AF200E810F4FFFFFFFFBE
:104C2000FFFFFFFFFFFFFFFFFFFFFFFFFFFFFFFF94
:104C3000FFFFFFFFBEFFD3F441E86AF23CFFFFFF36
:104C4000FFFFFFFFFFFFFFFFFFFFFFFFFFFFFFFF74
:104C5000FFFFFFFFFFFFFFFFFFFFFFFFFFFFFFFF64
:104C6000FFFF79FE86E982E8E4E8E4E8E4E8E4E8C6
:104C700062E86AF2FFFFC7E931F4FFFFFFFFFFFFC1
:104C8000FFFFFFFFFFFFFFFFFFFFFFFFFFFFFFFF34
:104C9000FFFFFFFFFFFFFFFFFFFFFFFFFFFFFFFF24
:104CA000FFFFFFFFFFFFFFFFFFFFFFFFFFFFFFFF14
:104CB000FFFFFFFFFFFFFFFFFFFFFFFFFFFFFFFF04
:104CC000FFFFFFFFFFFFFFFFFFFFFFFFFFFFFFFFF4
:104CD00051F466E9FFFF6AF200E810F4FFFFFFFFFE
:104CE000FFFFFFFFFFFFFFFFFFFFFFFFFFFFFFFFD4
:104CF000FFFFFFFFFFFF7DFF96F542E828EAB3F4D0
:104D0000BEFFFFFFFFFFFFFFFFFFFFFFFFFFFFFFF4
:104D1000FFFFFFFFFFFFFFFFFFFFFFFFFFFF9EFF04
:104D200051F4C7E9A3E8C4E8E4E8E4E8E4E8E4E827
:104D300062E86AF2FFFFC7E931F4FFFFFFFFFFFF00
:104D4000FFFFFFFFFFFFFFFFFFFFFFFFFFFFFFFF73
:104D5000FFFFFFFFFFFFFFFFFFFFFFFFFFFFFFFF63
:104D6000FFFFFFFFFFFFFFFFFFFFFFFFFFFFFFFF53
:104D7000FFFFFFFFFFFFFFFFFFFFFFFFFFFFFFFF43
:104D8000FFFFFFFFFFFFFFFFFFFFFFFFFFFFFFFF33
:104D900051F466E9FFFF6AF200E810F4FFFFFFFF3D
:104DA000FFFFFFFFFFFFFFFFFFFFFFFFFFFFFFFF13
:104DB000FFFFFFFFFFFFFFFFFFFF14F508EA25E9F4
:104DC000ABF210F459FE7DFFDFFFFFFFFFFFFFFF97
:104DD000FFFFFFFFFFFFFFFF9EFFBAFE71F4ABF284
:104DE00025E9A3E8E4E8E4E8E4E8E4E8E4E8E4E862
:104DF00062E84AEAFFFFC7E930F4FFFFFFFFFFFF69
:104E0000FFFFFFFFFFFFFFFFFFFFFFFFFFFFFFFFB2
:104E1000FFFFFFFFFFFFFFFFFFFFFFFFFFFFFFFFA2
:104E2000FFFFFFFFFFFFFFFFFFFFFFFFFFFFFFFF92
:104E3000FFFFFFFFFFFFFFFFFFFFFFFFFFFFFFFF82
:104E4000FFFFFFFFFFFFFFFFFFFFFFFFFFFFFFFF72
:104E500031F466E9FFFF49F221E829EACFF3CFF305
:104E6000CFF3CFF3CFF3CFF3CFF3CFF3CFF3CFF332
:104E7000CFF3CFF3CFF3CFF3CFF3F0F36AF2A2E89F
:104E800062E805E949F2EBF28EF331F492F4B2F400
:104E9000B2F492F451F4CFF30CF369F225E983E80C
:104EA00083E8E4E8E4E8E4E8E4E8E4E8E4E8E4E803
:104EB00062E829F2FFFFC7E910F4FFFFFFFFFFFFE1
:104EC000FFFFFFFFFFFFFFFFFFFFFFFFFFFFFFFFF2
:104ED000FFFFFFFFFFFFFFFFFFFFFFFFFFFFFFFFE2
:104EE000FFFFFFFFFFFFFFFFFFFFFFFFFFFFFFFFD2
:104EF000FFFFFFFFFFFFFFFFFFFFFFFFFFFFFFFFC2
:104F0000FFFFFFFFFFFFFFFFFFFFFFFFFFFFFFFFB1
:104F1000B2F4E4E8FFFFECF221E862E882E882E81C
:104F200082E882E882E882E882E882E882E882E831
:104F300082E882E882E882E882E8A3E8E4E882E89E
:104F400062E841E800E800E841E8C3E804E924E950
:104F500024E924E9E4E862E800E800E821E862E8FE
:104F600062E862E862E862E862E862E862E862E8F1
:104F700021E8ECF2FFFF66E951F4FFFFFFFFFFFFBE
:104F8000FFFFFFFFFFFFFFFFFFFFFFFFFFFFFFFF31
:104F9000FFFFFFFFFFFFFFFFFFFFFFFFFFFFFFFF21
:104FA000FFFFFFFFFFFFFFFFFFFFFFFFFFFFFFFF11
:104FB000FFFFFFFFFFFFFFFFFFFFFFFFFFFFFFFF01
:104FC000FFFFFFFFFFFFFFFFFFFFFFFFFFFFFFFFF1
:104FD00038FE21E8FBFEB7FDABEA28F229F229F200
:104FE00029F229F229F229F229F229F229F229F2E9
:104FF00029F229F229F229F229F229F229F229F2D9
:1050000049F229F229F229F229F229F229F229F2A8
:1050100029F229F229F229F229F229F229F229F2B8
:1050200029F229F229F229F229F229F229F228F2A9
:10503000AAF2D7FDDBFE82E839FEFFFFFFFFFFFF8C
:10504000FFFFFFFFFFFFFFFFFFFFFFFFFFFFFFFF70
:10505000FFFFFFFFFFFFFFFFFFFFFFFFFFFFFFFF60
:10506000FFFFFFFFFFFFFFFFFFFFFFFFFFFFFFFF50
:10507000FFFFFFFFFFFFFFFFFFFFFFFFFFFFFFFF40
:10508000FFFFFFFFFFFFFFFFFFFFFFFFFFFFFFFF30
:105090009EFFA7E96DF3DBFE9AFED7FDF7FDF8FD55
:1050A000F8FDF8FDF8FDF8FDF8FDF8FDF8FDF8FD58
:1050B000F8FDF8FDF8FDF8FDF8FDF8FDF8FDF8FD48
:1050C000F8FDF8FDF8FDF8FDF8FDF8FDF8FDF8FD38
:1050D000F8FDF8FDF8FDF8FDF8FDF8FDF8FDF8FD28
:1050E000F8FDF8FDF8FDF8FDF8FDF8FDF7FDD7FD3A
:1050F0007AFEFBFE4DF365E9FFFFFFFFFFFFFFFFB9
:10510000FFFFFFFFFFFFFFFFFFFFFFFFFFFFFFFFAF
:10511000FFFFFFFFFFFFFFFFFFFFFFFFFFFFFFFF9F
:10512000FFFFFFFFFFFFFFFFFFFFFFFFFFFFFFFF8F
:10513000FFFFFFFFFFFFFFFFFFFFFFFFFFFFFFFF7F
:10514000FFFFFFFFFFFFFFFFFFFFFFFFFFFFFFFF6F
:10515000FFFF55F586E96DF3F3F4F3F4F3F4F3F49C
:10516000F3F4F3F4F3F4F3F4F3F4F3F4F3F4F3F407
:10517000F3F4F3F4F3F4F3F4F3F4F3F4F3F4F3F4F7
:10518000F3F4F3F4F3F4F3F4F3F4F3F4F3F4F3F4E7
:10519000F3F4F3F4F3F4F3F4F3F4F3F4F3F4F3F4D7
:1051A000F3F4F3F4F3F4F3F4F3F4F3F4F3F4F3F4C7
:1051B000F3F48EF3A6E9F4F4FFFFFFFFFFFFFFFF18
:1051C000FFFFFFFFFFFFFFFFFFFFFFFFFFFFFFFFEF
:1051D000FFFFFFFFFFFFFFFFFFFFFFFFFFFFFFFFDF
:1051E000FFFFFFFFFFFFFFFFFFFFFFFFFFFFFFFFCF
:1051F000FFFFFFFFFFFFFFFFFFFFFFFFFFFFFFFFBF
:10520000FFFFFFFFFFFFFFFFFFFFFFFFFFFFFFFFAE
:10521000FFFFFFFF34F58AEA28EA08EA08EA08EA0D
:1052200008EA08EA08EA08EA08EA08EA08EA08EAEE
:1052300008EA08EA08EA08EA08EA08EA08EA08EADE
:1052400008EA08EA08EA08EA08EA08EA08EA08EACE
:1052500008EA08EA08EA08EA08EA08EA08EA08EABE
:1052600008EA08EA08EA08EA08EA08EA08EA08EAAE
:1052700028EA8AEA75FDFFFFFFFFFFFFFFFFFFFF40
:10528000FFFFFFFFFFFFFFFFFFFFFFFFFFFFFFFF2E
:10529000FFFFFFFFFFFFFFFFFFFFFFFFFFFFFFFF1E
:1052A000FFFFFFFFFFFFFFFFFFFFFFFFFFFFFFFF0E
:1052B000FFFFFFFFFFFFFFFFFFFFFFFFFFFFFFFFFE
:1052C000FFFFFFFFFFFFFFFFFFFFFFFFFFFFFFFFEE
:1052D000FFFFFFFFFFFFDFFFDBFE9AFE9AFE9AFE55
:1052E0009AFE9AFE9AFE9AFE9AFE9AFE9AFE9AFEFE
:1052F0009AFE9AFE9AFE9AFE9AFE9AFE9AFE9AFEEE
:105300009AFE9AFE9AFE9AFE9AFE9AFE9AFE9AFEDD
:105310009AFE9AFE9AFE9AFE9AFE9AFE9AFE9AFECD
:105320009AFE9AFE9AFE9AFE9AFE9AFE9AFE9AFEBD
:10533000BAFEDFFFFFFFFFFFFFFFFFFFFFFFFFFFE3
:10534000FFFFFFFFFFFFFFFFFFFFFFFFFFFFFFFF6D
:10535000FFFFFFFFFFFFFFFFFFFFFFFFFFFFFFFF5D
:10536000FFFFFFFFFFFFFFFFFFFFFFFFFFFFFFFF4D
:10537000FFFFFFFFFFFFFFFFFFFFFFFFFFFFFFFF3D
:0660E000FFFFFFFFFFFFC0
:1060E600000020007F000D100388010002950100CA
:1060F60003A2010007AF010005BC01000AC90100A7
:1061060007E3010001F0010003FD0100030A02009C
:10611600051702000724020002310200033E0200B6
:10612600024B0200035802000565020004720200D9
:10613600057F0200058C02000599020005A60200F3
:1061460005B3020005C0020005CD020005DA020013
:1061560002E7020002F4020007010300070E030033
:10616600071B03000428030009350300064F03003C
:10617600055C030006690300067603000583030039
:1061860005900300069D030006AA030003B703005B
:1061960004C4030005D1030004DE030007EB03007B
:1061A60006F803000705040005120400071F040093
:1061B600062C0400053904000546040006530400B5
:1061C60005600400096D04000587040005940400B9
:1061D60005A1040003AE040003BB040003C80400C9
:1061E60007D5040006E2040003EF040005FC0400E2
:1061F6000509050004160500052305000530050000
:10620600033D0500054A0500055705000164050024
:1062160002710500057E0500018B05000798050043
:1062260005A5050005B2050005BF050005CC05005E
:1062360003D9050004E6050003F305000500060082
:10624600050D0600071A0600052706000534060098
:1062560004410600044E0600025B060004680600C0
:10626600077506000382060000000000000000001B
:10627600000000000000000002020202020200020A
:1062860000000000050505000000000000000000F9
:10629600000028287E14143F0A0A000000000404A7
:1062A6001E05050E14140F0404000000000000462D
:1062B600004900290026009001500248028801008A
:1062C600000000000000060909262911314E0000D1
:1062D60000000101010000000000000000000004B1
:1062E600020201010101010202040000010202048E
:1062F60004040404020201000004150E1504000043
:1063060000000000000000000808087F08080800D8
:106316000000000000000000000002020201000070
:106326000000000000070000000000000000000060
:106336000000000002020000000004040402020241
:1063460002020101010000000E1111111111110EBE
:106356000000000000040604040404040E0000000B
:1063660000000E1110080402011F00000000000EBC
:1063760011100C1010110E0000000000080C0A0984
:106386001F08080800000000001F01010F1010116F
:106396000E00000000000C02010F1111110E00008A
:1063A6000000001F1008080404020200000000009C
:1063B6000E11110E1111110E00000000000E111128
:1063C600111E100806000000000000000202000076
:1063D60002020000000000000002020000020202A9
:1063E600010000000040300C020C304000000000AC
:1063F600000000007F007F00000000000000000297
:106406000C3040300C0200000000000708080402AF
:1064160002000200000000000000007C008200393B
:1064260001250125012501F90002003C00000000BC
:1064360000000C0C1212123F212100000000000F78
:1064460011110F1111110F00000000003C02010193
:106456000101023C00000000000F11212121211141
:106466000F00000000001F01010F0101011F0000C5
:106476000000001F01011F010101010000000000D2
:106486003C0201013921223C0000000000212121AB
:106496003F21212121000000000007020202020222
:1064A600020700000000000E080808080808070098
:1064B6000000000011090503030509110000000092
:1064C60000010101010101010F00000000006363EA
:1064D600555549494141000000000023232525293F
:1064E60029313100000000001C2241414141221C9B
:1064F60000000000000F1111110F01010100000042
:1065060000001C2241414141221C10600000000F86
:106516001111110F09112100000000001E01010ECA
:106526001010100F00000000001F040404040404EF
:10653600040000000000212121212121211E00004C
:106546000000001111110A0A0A04040000000000EC
:10655600000000110111011101AA00AA00AA0044BD
:106566000044000000000000000011110A04040AA3
:106576001111000000000011110A0A0404040400AD
:10658600000000001F1008040402011F00000000A4
:1065960007010101010101010101070000010101DB
:1065A60002020202020404040000070404040404B4
:1065B600040404040700000008142241000000003F
:1065C60000000000000000000000000000003F0086
:1065D60000020400000000000000000000000000AF
:1065E600000E101E11111E000000000101010F1106
:1065F6001111110F000000000000000E0101010141
:106606000E000000001010101E111111111E0000C6
:1066160000000000000E111F01110E000000000610
:106626000101070101010101000000000000001E38
:10663600111111111E100E00000101010F1111118F
:10664600111100000000000100010101010101001B
:106656000000000002000302020202020201000022
:1066660001010109050305091100000000010101EE
:106676000101010101010000000000000037494945
:10668600494949000000000000000F1111111111C5
:10669600000000000000000E111111110E00000094
:1066A600000000000F111111110F01010000000080
:1066B600001E111111111E1010000000000005032C
:1066C60001010101000000000000000E01030C089A
:1066D600070000000000010107010101010600009A
:1066E600000000000011111111111E000000000031
:1066F600000011110A0A040400000000000000490D
:10670600495555222200000000000000110A040429
:106716000A110000000000000011110A0A04040218
:106726000200000000000F080402010F0000000034
:10673600080404040403040404040800000202021A
:106746000202020202020202000001020202020C1E
:10675600020202020100000000000046493100006A
:0F676600000000000007050505050505070000F8
:10677800340000003600000004000000FFFFFFFFA7
:106788000000000000000000000000000000000001
:1067980000000000000000000000000000000000F1
:1067A8000000000000200000002000000020000081
:1067B80000000000000000000000000000000000D1
:1067C80000000000000000000000000000000000C1
:0867D8000000000000000000B9
:1067E000ED0D0B00BD0D0B00AD0D0B00DD0D0B0015
:1067F000CD0D0B0025120B0035120B0055120B00AE
:1068000015120B00E5110B0005120B00F5110B0022
:10681000FFFFFFFFFFFFFFFFFFFFFFFFFFFFFFFF88
:10682000FFFFFFFFFFFFFFFFFFFFFFFFFFFFFFFF78
:10683000FFFFFFFFFFFFFFFFFFFFFFFFFFFFFFFF68
:1068400048656C6C6F2C00746869732069732074E0
:0868500068652064656D6F00AE
:10685800666F72204F4C4544204320636C69636B1C
:0668680000106F005F123A
:02686E00B13245
:026870005F8047
:026872002005FF
:02687400F132FF
:0268760001CF50
:066878008A518AA0B5550B
:0C68800040420F0000000000000000007B
:08688C004D050B0015040B0083
:00000001FF
