:10000000FCFF002021190000D9180000D9180000B9
:10001000D9180000D9180000D9180000D91800001C
:10002000D9180000D9180000D9180000D91800000C
:10003000D9180000D9180000D9180000D9180000FC
:10004000D9180000D9180000D9180000D9180000EC
:10005000D9180000D9180000D9180000D9180000DC
:10006000D9180000D9180000D9180000D9180000CC
:10007000D9180000D9180000D9180000D9180000BC
:10008000D9180000D9180000D9180000D9180000AC
:10009000D9180000D9180000D9180000D91800009C
:1000A000D9180000D9180000D9180000D91800008C
:1000B000D9180000D9180000D9180000D91800007C
:1000C000D9180000D9180000D9180000D91800006C
:1000D000D9180000D9180000D9180000D91800005C
:1000E000D9180000D9180000D9180000D91800004C
:1000F000D9180000D9180000D9180000D91800003C
:1019200000F010F8FFF7DCFF05F006F9FFF7EEFF17
:1019300005F0C2F8FFF75CFEFFF76AFFFFF7A0FEB5
:04194000FCE7FEE7DB
:1018C40081B01CF8019B0BF8019BBBEB0A0FF8D10C
:0418D40001B07047A8
:1018880081B04FF000094FF0000CBDEB0A0F04DCEB
:10189800BDEB0B0F01DBD446EA464BF8049BBBEBD0
:1018A8000A0FFAD1BCEB0A0F05DDE246D9F800B001
:0A18B8000BF1040BF1E701B07047DB
:1015F00081B0CDF800E0002207210020FFF726FF90
:10160000002201210020FFF721FF002200210020FD
:10161000FFF71CFF002202210020FFF717FF002226
:1016200006210020FFF712FF094801460020FFF7BE
:10163000C3FF44F67D77C0F2120700BF7F1EFDD1C5
:1016400000BF00BF00BF00BFDDF800E001B0704781
:041650009C6A000090
:10144C0081B0CDF800E05FFA81F95FFA82FA0FE023
:10145C005FFA8AF15FFA89F0FFF716FE0DE05FFA8A
:10146C008AF15FFA89F0FFF727FD06E0012004E01E
:10147C000028EDD00128F2D0F8E7DDF800E001B04B
:02148C007047A7
:1010940081B0CDF800E0A9E0012905D140F20101B9
:1010A4006548FFF701FC04E040F201016348FFF7E3
:1010B40019FCBBE0012905D140F240016048FFF76B
:1010C400F3FB04E040F240015E48FFF70BFCADE0A7
:1010D400012905D140F201015948FFF7E5FB04E07D
:1010E40040F201015748FFF7FDFB9FE0012905D1BC
:1010F40040F220015448FFF7D7FB04E040F22001FE
:101104005248FFF7EFFB91E0012905D140F280013D
:101114004D48FFF7C9FB04E040F280014B48FFF75C
:10112400E1FB83E0012905D140F240014648FFF785
:10113400BBFB04E040F240014448FFF7D3FB75E0F9
:10114400012905D140F280014148FFF7ADFB04E0DD
:1011540040F280013F48FFF7C5FB67E0012905D154
:1011640040F210013A48FFF79FFB04E040F21001FF
:101174003848FFF7B7FB59E0012905D140F20401D3
:101184003548FFF791FB04E040F204013348FFF7D0
:10119400A9FB4BE0012905D140F208012E48FFF7D5
:1011A40083FB04E040F208012C48FFF79BFB3DE081
:1011B400012905D140F220011F48FFF775FB04E027
:1011C40040F220011D48FFF78DFB2FE0012905D1D6
:1011D40040F210011848FFF767FB04E040F21001E9
:1011E4001648FFF77FFB21E0012020E000283FF4B0
:1011F40053AF01283FF45EAF02283FF469AF0328E0
:101204003FF474AF04283FF47FAF05283FF48AAF5E
:1012140006283FF495AF0728A0D00828ACD00928A9
:10122400B8D00A28C4D00B28D0D0DDE70020DDF8E0
:1012340000E001B0704700BF414C0040434C004007
:10124400404C0040424C0040004C0040024C0040E6
:10125400014C0040034C0040204C0040224C004014
:1008AC0081B0CDF800E0002424B240F240031BB22A
:1008BC0040F2040212B242EA03031BB240F20102FC
:1008CC0012B243EA020293B2002210B4FFF732FDD7
:0A08DC0001B0DDF800E001B0704744
:1003400083B0CDF800E08DB20146D0B2BDF90C20EB
:1003500001F0010414B12F02BFB200E0AFB28F4C24
:100360000C1B640965018D4C6419A0468C4CA0429D
:1003700007D108F10406FD43ADB234882C40348027
:1003800007E0884CA04204D108F104052C883C43C6
:100390002C8040F2010403EA0404A4B23CB108F149
:1003A0000606FD43ADB234882C4034800AE040F2AA
:1003B000020403EA0404A4B224B108F106052C885F
:1003C0003C432C8040F2040403EA0404A4B23CB190
:1003D00008F10806FD43ADB234882C4034800AE0B1
:1003E00040F2080403EA0404A4B224B108F10805A9
:1003F0002C883C432C8040F2100403EA0404A4B28D
:100400003CB108F11806FD43ADB234882C4034806D
:100410000AE040F2200403EA0404A4B224B108F183
:1004200018052C883C432C8040F2400403EA040465
:10043000A4B23CB108F11A06FD43ADB234882C4099
:1004400034800AE040F2800403EA0404A4B224B138
:1004500008F11A052C883C432C8003F48074A4B264
:100460007CB908F10A06FD43ADB234882C403480D3
:1004700008F10C06FD43ADB234882C4034800020D6
:1004800087E01F2A01DD012083E0FFF781FE0020C5
:10049000B9B2C7B24046102F80F07A8021FA07F433
:1004A000A4B204F00104A4B2002C00F06E8000F2AB
:1004B0000A06CD43ADB234882C40348000F20C06DD
:1004C000CD43ADB234882C40348003F48064A4B2B0
:1004D0002CB1ADF806100024ADF808400DE003F48F
:1004E0000064A4B22CB10024ADF80640ADF80810A9
:1004F00003E0ADF80610ADF8081000F20A063588E2
:10050000BDF8064045EA0404348000F20C06358844
:10051000BDF8084045EA04043480234C041B6409F8
:10052000ADF80440214CA24218D0BDF80440E400CC
:10053000A4B265001E4C65197C08E4B264002E1953
:1005400007F00104E4B2E5002DB240F2FF04AC4034
:10055000A4B2E543ADB234882C403480BDF80440E9
:10056000E400A4B26500124C65197C08E4B2640092
:100570002E1907F00104E4B2E5002DB294B204FA9A
:1005800005F5ADB234882C4334807F1CFFB282E77E
:100590000020DDF800E003B0704700BF004C0040D1
:1005A0000000000001000000004C004000000000BE
:0405B00008500040AF
:1001900081B042F652510348018002210248018099
:0C01A00001B070470050004002500040C9
:1008E80081B0CDF800E0002424B240F240031BB2EE
:1008F80040F2040212B242EA03031BB240F20102C0
:1009080012B243EA020293B2012210B4FFF714FDB7
:0A09180001B0DDF800E001B0704707
:100EC40081B0CDF800E0A9E0012905D140F2080184
:100ED4006548FFF7E9FC04E040F208016348FFF7C6
:100EE40001FDBBE0012905D140F280016048FFF714
:100EF400DBFC04E040F280015E48FFF7F3FCADE068
:100F0400012905D140F204015B48FFF7CDFC04E060
:100F140040F204015948FFF7E5FC9FE0012905D19F
:100F240040F220015648FFF7BFFC04E040F22001E4
:100F34005448FFF7D7FC91E0012905D140F2800124
:100F44004F48FFF7B1FC04E040F280014D48FFF741
:100F5400C9FC83E0012905D140F240014848FFF76C
:100F6400A3FC04E040F240014648FFF7BBFC75E0F7
:100F7400012905D140F240014348FFF795FC04E004
:100F840040F240014148FFF7ADFC67E0012905D17B
:100F940040F240013648FFF787FC04E040F240018C
:100FA4003448FFF79FFC59E0012905D140F20401C0
:100FB4003548FFF779FC04E040F204013348FFF7B9
:100FC40091FC4BE0012905D140F208012E48FFF7BE
:100FD4006BFC04E040F208012C48FFF783FC3DE081
:100FE400012905D140F220012148FFF75DFC04E00E
:100FF40040F220011F48FFF775FC2FE0012905D1BD
:1010040040F210011A48FFF74FFC04E040F21001CF
:101014001848FFF767FC21E0012020E000283FF496
:1010240053AF01283FF45EAF02283FF469AF0328B1
:101034003FF474AF04283FF47FAF05283FF48AAF30
:1010440006283FF495AF0728A0D00828ACD009287B
:10105400B8D00A28C4D00B28D0D0DDE70020DDF8B2
:1010640000E001B0704700BF214C0040234C004019
:10107400414C0040434C0040404C0040424C004036
:10108400004C0040024C0040014C0040034C004026
:1015B80081B0CDF800E009E00846FFF74FFC0AE0EB
:1015C8000846FFF757FE06E0012004E00028F3D0A4
:0E15D8000128F5D0F8E7DDF800E001B070471B
:100E640081B0CDF800E0DFF8549000F218010B686F
:100E740000F214010A6800F21001D1F8008000F2B7
:100E84000C010F6800F208010E68011D0D6804686A
:100E94001BB212B20FFA88F14DF8049D08B404B4E1
:100EA40002B43BB232B229B220B2FFF739FD04B02A
:100EB4000020DDF800E001B0704700BF20690000A9
:1009240084B0CDF800E00FFA80FCADF80410ADF807
:100934000820ADF80C30BDF91040ADF81040BDF9F9
:100944001440ADF81440BDF91840ADF81840079CA8
:100954002046FFF737FE0F4D0F4C25600F4D104C0E
:100964002560BDF91860BDF91450BDF91040BDF9FA
:100974000C30BDF90820BDF904100FFA8CF040B416
:1009840020B410B4FFF794FC03B0DDF800E004B029
:10099400704700BFFFFFFFFF40000020510200002E
:0409A40044000020EB
:1005C80081B0CDF800E040F2000A814609F1D80177
:1005D80009788A453AD20C210AFB01F109EB01019D
:1005E8008B460BF1080109781F2915D10BF1080179
:1005F8000978CCB20BF1060109888BB20BF1040122
:1006080009888AB2DBF80010084691B2002210B4BB
:10061800FFF792FE01B014E00BF108010978CCB2A3
:100628000BF1060109888BB20BF1040109888AB223
:10063800DBF80010084691B2FF2210B4FFF77CFEE9
:1006480001B00AF1010A5FFA8AFABFE7DDF800E0B3
:0406580001B0704736
:1002B40081B0BDF90460BDF90870BDF90C80184C1B
:1002C400258841F23F042540154C2580144C248890
:1002D40044F00105124C258040EA030424B234435F
:1002E40024B23C4324B244EA080424B244F48075A2
:1002F4002DB20B4C248844EA0505094C2580084C92
:10030400248844EA0205064C2580064C2180044CCE
:1003140025884FF6FE742540014C258001B07047B6
:0803240000200040062000400B
:10127C0081B0CDF800E0DFF8549000F218010B6853
:10128C0000F214010A6800F21001D1F8008000F29B
:10129C000C010F6800F208010E68011D0D6804684E
:1012AC001BB212B20FFA88F14DF8049D08B404B4C5
:1012BC0002B43BB232B229B220B2FFF72DFB04B01C
:1012CC000020DDF800E001B0704700BF206900008D
:1018100081B0CDF800E016491648FFF739FEFFF712
:1018200051FE4FF6FF70FFF703FA00220021124825
:10183000FFF7B2FD11480A220F21FFF7D7FD10482C
:101840001E220521FFF7D2FD0E482D220521FFF7AC
:10185000CDFD41F6FD27C0F2B70700BF7F1EFDD1C9
:1018600000BF00BF00BF00BFDDF800E001B070475F
:1018700078070000FC6900008E6200000000002074
:08188000070000201800002001
:1014900081B0CDF800E003460846FFF7B9FA1846D8
:1014A000FFF788FA0120054C2468A0470120044C6E
:1014B0002468A047DDF800E001B070474C00002030
:0414C00050000020B8
:0C12700001490870704700BF6088094207
:0C12640001490870704700BF588809421B
:0C0E340001490870704700BF4088094267
:0C0E280001490870704700BF5480094267
:0C0E1C0001490870704700BF5C8009426B
:0C0E580001490870704700BF5880094233
:0C0E4C0001490870704700BF7C8009421B
:0C0E400001490870704700BF7080094233
:0C12DC0001490870704700BF48840942B7
:0C13480001490870704700BF4C84094246
:0C13540001490870704700BF748809420E
:0C13300001490870704700BF7088094236
:0C133C0001490870704700BF6C84094232
:0C13600001490870704700BF7C880942FA
:0C13240001490870704700BF488809426A
:0C12F40001490870704700BF5480094297
:0C12E80001490870704700BF5C8009429B
:0C13000001490870704700BF5880094286
:0C13180001490870704700BF788009424E
:0C130C0001490870704700BF7888094252
:0C0E100001490870704700BF688009426B
:0C09F80001490870704700BF6C80094284
:0C09A80001490870704700BF74880942C4
:0C0A040001490870704700BF708809426B
:100A1000026803490A60011D0A6802490A607047BA
:080A20006C00002074000020AE
:1009B40002680B490A6000F208010A6809490A60E2
:1009C400011D0A6808490A6000F218010A6807490B
:1009D4000A6000F21C010A6805490A60704700BFFA
:1009E400700000204C00002068000020500000200F
:0409F400640000207B
:1014C40081B0CDF800E00120FFF7ACFAFFF754FC3F
:1014D40001222B49FD20FFF76BFC01222949FD2045
:1014E400FFF766FC00220021AE20FFF761FC012219
:1014F4002549A020FFF75CFC01222449CA20FFF7FC
:1015040057FC01222249A120FFF752FC0122214964
:10151400A220FFF74DFC01221F49BE20FFF748FC23
:1015240001221E49B320FFF743FC01221C49B120CC
:10153400FFF73EFC01221B49B620FFF739FC0122CC
:101544001949C720FFF734FC03221849C120FFF7CB
:101554002FFC03221649B420FFF72AFC00220021A5
:10156400A620FFF725FC00220021AF20FFF720FC76
:101574000020FFF75BFBDDF800E001B0704700BF1F
:101584002D0000202E0000202F000020300000201D
:1015940031000020320000203300002034000020FD
:1015A40035000020360000203700002038000020DD
:0415B4003B000020D8
:100A280081B0CDF800E0034C2468A047DDF800E071
:080A380001B0704764000020CA
:100D7C0081B0CDF800E001200A4C2468A047FFF7B1
:100D8C00F9FC0020074C2468A047FFF7F3FC012076
:100D9C00044C2468A047FFF7DDFCDDF800E001B04F
:080DAC00704700BF6800002041
:1007800042F6DD67C0F2000700BF00BF7F1EFDD14B
:0807900000BF00BF00BF70476D
:1007600044F67D77C0F2120700BF00BF7F1EFDD1A7
:0807700000BF00BF00BF70478D
:100DB40084B0CDF800E08DF808000846ADF80C20AA
:100DC400019000200F4C2468A04700200E4C24689A
:100DD400A04702AB01211846FFF73EFC01200A4C54
:100DE4002468A047BDF80C3023B1BDF80C1001985D
:100DF400FFF732FC0120034C2468A047DDF800E033
:0C0E040004B070474C000020500000209B
:10065C0083B0CDF800E08AB2014690B283B2421E5C
:10066C0090B26BB10A78D4B2ADF804000291A0B28A
:10067C00054C2468A0470299BDF80400491CEDE71D
:0C068C00DDF800E003B070476C000020B7
:1002780081B0CDF800E0FFF7A7FFDDF800E001B09E
:020288007047BD
:1001D00081B00649098801B1FBE705490880034958
:1001E000098801B1FBE701B0704700BF400102423E
:0401F0000E100040AD
:1002640081B0CDF800E0FFF7D5FFDDF800E001B084
:020274007047D1
:1002180081B00649098801B1FBE70549088003490F
:10022800098801B1FBE701B0704700BF4081024275
:040238000E14004060
:1002A00081B0CDF800E0FFF72BFFDDF800E001B0F2
:0202B000704795
:1001000081B00649098801B1FBE705490880034928
:10011000098801B1FBE701B0704700BF400103420D
:040120000E18004075
:10028C0081B0CDF800E0FFF76BFFDDF800E001B0C6
:02029C007047A9
:10016C0081B00649098801B1FBE7054908800349BC
:10017C00098801B1FBE701B0704700BF4081034221
:04018C000E1C004005
:1002500081B0CDF800E0FFF7CDFFDDF800E001B0A0
:020260007047E5
:1001F40081B00649098801B1FBE705490880034934
:10020400098801B1FBE701B0704700BF0001044257
:040214000E20004078
:10023C0081B0CDF800E0FFF7B3FFDDF800E001B0CE
:02024C007047F9
:1001AC0081B00649098801B1FBE70549088003497C
:1001BC00098801B1FBE701B0704700BF0081044220
:0401CC000E240040BD
:1005B40081B0CDF800E0FFF7C5FDDDF800E001B043
:0205C40070477E
:1001480081B00649098801B1FBE7054908800349E0
:10015800098801B1FBE701B0704700BF0001054203
:040168000E2800401D
:10032C0081B0CDF800E0FFF7F7FEDDF800E001B09A
:02033C00704708
:1001240081B00649098801B1FBE705490880034904
:10013400098801B1FBE701B0704700BF00810542A7
:040144000E2C00403D
:100C300081B0CDF800E001B46023602200210020E3
:0E0C4000FFF7AAFD01B0DDF800E001B070473B
:1007980083B0CDF800E0DEB2D3B2CAB2C1B2BDF8C0
:1007A8000C005C248DF806405D1A2DB2B41A24B2F0
:1007B8006C43ADF8044000248DF8074000248DF800
:1007C8000840602902D8602B00D800E059E0602A70
:1007D80002D8602E00D800E053E08B4202D3964244
:1007E80000D300E04DE001F21005284C257003F21B
:1007F800100424B2651E264C2570D5B2254C2570F0
:10080800F4B2651E244C25700DF10706050AADB239
:1008180034782C433470761C00F0FF05ADB2347880
:100828002C43347002221949152000F0BFFA022225
:100838001849752000F0BAFA0020184C2468A0471F
:100848000020174C2468A0470DF10604012120461A
:10085800FFF700FF0120124C2468A047BDF80450A0
:10086800BDF80440641EADF8044035B10DF107042D
:1008780002212046FFF7EEFEF0E70120074C24682E
:10088800A047DDF800E003B0704700BF2900002052
:100898002A0000202B0000202C0000204C00002003
:0408A80050000020DC
:101398000E4B1860831C1C78C31C1B781B029BB265
:1013A800E4180B4B1C80031D1C78431D1B781B0283
:1013B8009BB2E418074B1C80831D1C78064B1C80CD
:1013C800064B1980064B1A70704700BF5800002062
:1013D8003E000020540000205E0000206200002033
:0413E800560000208B
:1013EC0082B0CDF800E003461846602902D2602A8C
:1013FC0000D200E00DE0094B1980094B1A800378EC
:10140C003BB10378019098B2FFF714FB0198401C94
:10141C00F5E7DDF800E002B0704700BF6000002087
:04142C005C00002040
:100A400085B0CDF800E040F20001ADF810100021B3
:100A50008DF812106E490988884200D2D3E06D49A2
:100A60000988884200D9CEE069490988411A89B2CB
:100A70008A0092B2684C216808318B1819788DF879
:100A80001310591C0978CAB2991C09780902521826
:100A9000D91C09780904521821460968891803915C
:100AA0005E49097821B15D490978022900D058E0F2
:100AB0005B490B8800225B4909888A4245D25A4922
:100AC0000988ADF81010002700218DF80810D0B269
:100AD0009DF813209DF80810914231D24FB9039927
:100AE00009788DF812100399491C03910127FAB275
:100AF00000E0FAB29DF812101140C9B299B14B4909
:100B000009888DF804208DF80500ADF806308AB20A
:100B1000D9B2BDF81000FFF7BFFDBDF806309DF853
:100B200005009DF80420BDF81010491CADF8101008
:100B30005100CFB29DF80810491C8DF80810C7E786
:100B40005B1C9BB2411CCAB2B5E73449097829B98C
:100B5000BDF810104A1C34490A8001E030490B806E
:100B600051E031490B8800222E4909888A4245D23A
:100B70002B490988ADF81010002700218DF80810C6
:100B8000D0B29DF813209DF80810914231D24FB990
:100B9000039909788DF812100399491C03910127D4
:100BA000FAB200E0FAB29DF812101140C9B299B140
:100BB0001E4909888DF804208DF80500ADF806302F
:100BC0008AB2BDF81010D8B2FFF766FDBDF8063046
:100BD0009DF805009DF80420BDF81010491EADF8E1
:100BE00010105100CFB29DF80810491C8DF8081064
:100BF000C7E75B1C9BB2421CD2B2B5E7BDF8101030
:100C00004A1E07490A80DDF800E005B0704700BFC2
:100C10003E00002054000020580000205600002014
:100C20005C0000205E0000206000002062000020C8
:1006980082B0CDF800E05C238DF8043000238DF89B
:1006A800053000238DF80630602802D8602900D86C
:1006B80000E03EE000F21004204B1C70204B1C7040
:1006C800CCB2204B1C70CCB21F4B1C700DF1050531
:1006D800140AA4B22B7823432B706D1C02F0FF047C
:1006E800A4B22B7823432B7002221449152000F062
:1006F8005DFB02221349752000F058FB0020134CC3
:100708002468A0470020124C2468A04701AB0121AF
:100718001846FFF79FFF01200D4C2468A0470DF1F4
:10072800050302211846FFF795FF0120074C2468AE
:10073800A047DDF800E002B0704700BF29000020A4
:100748002A0000202B0000202C0000204C00002054
:04075800500000202D
:1016800081B0CDF800E04FF6FF70FFF7D1FAFFF719
:1016900067F84FF2000001B46023602200210020AF
:1016A000FFF7C6FE01B048F67D57C0F25B0700BFEA
:1016B0007F1EFDD100BF00BF00BF00BF4FF600700E
:1016C00001B45B235B2205210520FFF7B1FE01B0C9
:1016D00048F67D57C0F25B0700BF00BF7F1EFDD1FB
:1016E00000BF00BF00BFF02001B4562356220A21DC
:1016F0000A20FFF79DFE01B048F67D57C0F25B0758
:1017000000BF00BF7F1EFDD100BF00BF00BF40F67D
:101710000F7001B4512351220F210F20FFF788FED3
:1017200001B048F67D57C0F25B0700BF7F1EFDD1B8
:1017300000BF00BF00BF00BF4FF2000001B44C2348
:101740004C2214211420FFF773FE01B048F67D5798
:10175000C0F25B0700BF00BF7F1EFDD100BF00BF0E
:1017600000BF4FF6007001B447234722192119200A
:10177000FFF75EFE01B0FEF7F3FF002001B41B236C
:10178000472219211920FFF753FE01B0FEF7E8FFA9
:10179000002001B44923472247211920FFF748FEC2
:1017A00001B0FEF7DDFF002001B447231B22192101
:1017B0001920FFF73DFE01B0FEF7D2FF002001B473
:1017C0004723472219214420FFF732FE01B045F29A
:1017D000FD07C0F2252700BF7F1EFDD100BF00BF5F
:1017E00000BF00BF002200210848FFF7BFFD43F201
:1017F000FD57C0F26E1700BF7F1EFDD100BF00BFB6
:1018000000BF00BFDDF800E001B07047881A00009B
:1014300081B0CDF800E0BDF80450ACB210B4FFF7B5
:0C144000ABF901B0DDF800E001B070472E
:10136C0081B0CDF800E00546031D1B78D418831C12
:10137C001B78CB18C8B2D1B2DAB2E3B220B4FFF703
:0C138C0061FC01B0DDF800E001B070472A
:100C500085B0CDF800E0059E40F20004ADF80C40F0
:100C60005C248DF80E4000248DF80F4000248DF890
:100C70001040151A2DB25C1A24B26C43ADF8044032
:100C8000B41D0294602802D8602A00D800E065E014
:100C9000602902D8602B00D800E05FE0824202D3D6
:100CA0008B4200D300E059E000F210052D4C257076
:100CB00002F2100424B2651E2B4C2570CDB22B4CD1
:100CC0002570DCB2651E2A4C2570022225491520AC
:100CD00000F070F802222549752000F06BF8002022
:100CE000244C2468A0470020234C2468A0470DF121
:100CF0000E0401212046FFF7B1FC01201E4C2468A0
:100D0000A047BDF80450BDF80440641EADF804408F
:100D100005B3BDF80C40651CADB2029C6419247883
:100D20008DF80F40BDF80C50029C641924788DF8A2
:100D300010400DF10F0401212046FFF78FFC04AC99
:100D400001212046FFF78AFCBDF80C40A41CADF839
:100D50000C40D6E70120074C2468A047DDF800E0EE
:100D600005B07047290000202A0000202B00002039
:0C0D70002C0000204C000020500000204F
:1019440083B0CDF800E0374B374C384D384E394F23
:10195400394845F680213948018004F007000528FC
:1019640004D004F07000502800D00BE0012252B2E1
:1019740033480280002149B2324801803248028053
:1019840032480180802132480160019502961E464A
:1019940025463A46029B019C2E48006800F480705C
:1019A40000B1F9E72C492D480160019511463246F2
:1019B4001D46019B2748006800F4807000B1F9E7D8
:1019C40027480160274801602749284801602848C2
:1019D400026028480360200D00F0070028B944F095
:1019E4000301254801602A4610E044F4803040F0A9
:1019F4000301214801602A462048006830B1FFF7FE
:101A04002DFE012149B21E480160F5E70021174867
:101A1400016042F4B44109480180DDF800E003B0FC
:101A2400704700BF00000500330000000300010000
:101A3400840000000010000080BB00000C4800403F
:101A44004CA509428CA5094248A5094288A509422A
:101A5400143004E00400014001005A690000014010
:101A640010100140141001405A69000000040140A4
:101A740004040140080401400C040140048920428C
:041A8400048A20426E
:1016600040F20907C0F2000700BF00BF7F1EFDD196
:0816700000BF00BF00BF70477E
:10190C0081B002490248016001B0704780BB000001
:04191C00480000205F
:0818D80081B0FEE701B070478A
:1018E00081B04EF68850CEF20000016841F47001DC
:1018F000016000BF00BF00BF00BFF1EE100A40F45E
:0A1900004000E1EE100A01B070474C
:106AB80000B5DFF814B0DFF814A0DFF814C0FAF757
:106AC800FDFE00BD704700BF000000203E00002012
:046AD8005C6A0000F4
:106B380000B5DFF810B0DFF810A0FAF7A1FE00BD2D
:0C6B4800704700BF000000207800002013
:0807780051020000FFFFFFFF2A
:101A8800001060006000FFFFFFFFFFFFFFFFFFFF88
:101A9800FFFFFFFFFFFFFFFFFFFFFFFFFFFFFFFF4E
:101AA800FFFFFFFFFFFFFFFFFFFFFFFFFFFFFFFF3E
:101AB800FFFFFFFFFFFFFFFFFFFFFFFFFFFFFFFF2E
:101AC800FFFFFFFFFFFFFFFFFFFFFFFFFFFFFFFF1E
:1026B800FFFFFFFFFFFFFFFF5DFF3CFF3CFF3CFF0D
:1026C8003CFF3CFF3CFF3CFF3CFF3CFF3CFF3CFF2A
:1026D8003CFF3CFF3CFF3CFF3CFF3CFF3CFF3CFF1A
:1026E8003CFF3CFF3CFF3CFF3CFF3CFF3CFF3CFF0A
:1026F8003CFF3CFF3CFF3CFF3CFF3CFF3CFF3CFFFA
:102708003CFF3CFF3CFF3CFF3CFF3CFF3CFF3CFFE9
:102718005DFFFFFFFFFFFFFFFFFFFFFFFFFFFFFF63
:10272800FFFFFFFFFFFFFFFFFFFFFFFFFFFFFFFFB1
:10273800FFFFFFFFFFFFFFFFFFFFFFFFFFFFFFFFA1
:10274800FFFFFFFFFFFFFFFFFFFFFFFFFFFFFFFF91
:10275800FFFFFFFFFFFFFFFFFFFFFFFFFFFFFFFF81
:10276800FFFFFFFFFFFFFFFFFFFFFFFFFFFFFFFF71
:10277800FFFFFFFF79FED3F4EFF3CFF3CFF3CFF3EF
:10278800CFF3CFF3CFF3CFF3CFF3CFF3CFF3CFF331
:10279800CFF3CFF3CFF3CFF3CFF3CFF3CFF3CFF321
:1027A800CFF3CFF3CFF3CFF3CFF3CFF3CFF3CFF311
:1027B800CFF3CFF3CFF3CFF3CFF3CFF3CFF3CFF301
:1027C800CFF3CFF3CFF3CFF3CFF3CFF3CFF3CFF3F1
:1027D800EFF3D3F4BAFEFFFFFFFFFFFFFFFFFFFF9A
:1027E800FFFFFFFFFFFFFFFFFFFFFFFFFFFFFFFFF1
:1027F800FFFFFFFFFFFFFFFFFFFFFFFFFFFFFFFFE1
:10280800FFFFFFFFFFFFFFFFFFFFFFFFFFFFFFFFD0
:10281800FFFFFFFFFFFFFFFFFFFFFFFFFFFFFFFFC0
:10282800FFFFFFFFFFFFFFFFFFFFFFFFFFFFFFFFB0
:10283800FFFF9AFECBF2E7E9CBEACBEACBEACBEA99
:10284800CBEACBEACBEACBEACBEACBEACBEACBEAD8
:10285800CBEACBEACBEACBEACBEACBEACBEACBEAC8
:10286800CBEACBEACBEACBEACBEACBEACBEACBEAB8
:10287800CBEACBEACBEACBEACBEACBEACBEACBEAA8
:10288800CBEACBEACBEACBEACBEACBEACBEACBEA98
:10289800CBEAE7E90CF359FEFFFFFFFFFFFFFFFF5D
:1028A800FFFFFFFFFFFFFFFFFFFFFFFFFFFFFFFF30
:1028B800FFFFFFFFFFFFFFFFFFFFFFFFFFFFFFFF20
:1028C800FFFFFFFFFFFFFFFFFFFFFFFFFFFFFFFF10
:1028D800FFFFFFFFFFFFFFFFFFFFFFFFFFFFFFFF00
:1028E800FFFFFFFFFFFFFFFFFFFFFFFFFFFFFFFFF0
:1028F800DFFFCBF2A6E9F7FD5DFFFCFE1CFF1CFF26
:102908001CFF1CFF1CFF1CFF1CFF1CFF1CFF1CFFE7
:102918001CFF1CFF1CFF1CFF1CFF1CFF1CFF1CFFD7
:102928001CFF1CFF1CFF1CFF1CFF1CFF1CFF1CFFC7
:102938001CFF1CFF1CFF1CFF1CFF1CFF1CFF1CFFB7
:102948001CFF1CFF1CFF1CFF1CFF1CFF1CFFFBFEC9
:102958005DFF18FE86E96AF2FFFFFFFFFFFFFFFF3A
:10296800FFFFFFFFFFFFFFFFFFFFFFFFFFFFFFFF6F
:10297800FFFFFFFFFFFFFFFFFFFFFFFFFFFFFFFF5F
:10298800FFFFFFFFFFFFFFFFFFFFFFFFFFFFFFFF4F
:10299800FFFFFFFFFFFFFFFFFFFFFFFFFFFFFFFF3F
:1029A800FFFFFFFFFFFFFFFFFFFFFFFFFFFFFFFF2F
:1029B800FBFE21E818FEFBFEB2F4AFF3EFF3F0F3F1
:1029C800EFF3EFF3EFF3EFF3EFF3EFF3EFF3F0F3EE
:1029D800F0F3F0F3F0F3F0F3F0F3F0F3F0F3F0F3D7
:1029E800F0F3F0F3F0F3EFF3EFF3EFF3F0F3F0F3CA
:1029F800EFF3EFF3EFF3EFF3F0F3F0F3F0F3F0F3BB
:102A0800F0F3F0F3F0F3F0F3F0F3F0F3EFF3AFF3E8
:102A1800B2F4FCFED7FD41E83CFFFFFFFFFFFFFFDC
:102A2800FFFFFFFFFFFFFFFFFFFFFFFFFFFFFFFFAE
:102A3800FFFFFFFFFFFFFFFFFFFFFFFFFFFFFFFF9E
:102A4800FFFFFFFFFFFFFFFFFFFFFFFFFFFFFFFF8E
:102A5800FFFFFFFFFFFFFFFFFFFFFFFFFFFFFFFF7E
:102A6800FFFFFFFFFFFFFFFFFFFFFFFFFFFFFFFF6E
:102A7800F4F482E8FFFF6EF320E821E821E800E89B
:102A880020E841E841E821E821E820E820E800E8DA
:102A980021E821E821E821E821E821E821E821E8E6
:102AA80021E821E800E820E841E861E862E882E8F6
:102AB80062E861E841E820E800E821E821E821E847
:102AC80021E821E821E821E821E821E821E821E8B6
:102AD80020E88EF3FFFF25E992F4FFFFFFFFFFFFD9
:102AE800FFFFFFFFFFFFFFFFFFFFFFFFFFFFFFFFEE
:102AF800FFFFFFFFFFFFFFFFFFFFFFFFFFFFFFFFDE
:102B0800FFFFFFFFFFFFFFFFFFFFFFFFFFFFFFFFCD
:102B1800FFFFFFFFFFFFFFFFFFFFFFFFFFFFFFFFBD
:102B2800FFFFFFFFFFFFFFFFFFFFFFFFFFFFFFFFAD
:102B380031F486E9FFFF29F262E8E4E8A3E8C3E894
:102B480086E9C8E9C7E9A7E9A7E986E945E9E3E825
:102B580083E8C4E8E4E8E4E8E4E8E4E8E4E8C3E8AF
:102B6800A3E883E8C3E845E929EAABF2ECF20CF301
:102B7800ECF28AF208EA45E9C3E883E8A3E8C3E887
:102B8800E4E8E4E8E4E8E4E8E4E8E4E8E4E8E4E8DD
:102B980062E809F2FFFFC8E910F4FFFFFFFFFFFF3B
:102BA800FFFFFFFFFFFFFFFFFFFFFFFFFFFFFFFF2D
:102BB800FFFFFFFFFFFFFFFFFFFFFFFFFFFFFFFF1D
:102BC800FFFFFFFFFFFFFFFFFFFFFFFFFFFFFFFF0D
:102BD800FFFFFFFFFFFFFFFFFFFFFFFFFFFFFFFFFD
:102BE800FFFFFFFFFFFFFFFFFFFFFFFFFFFFFFFFED
:102BF80051F466E9FFFF6AF262E882E804E9D7F572
:102C0800BEFFBEFF9EFF9EFF7EFF7DFF5DFFBAFEFB
:102C18006AEA62E8C4E8E4E8E4E8E4E8A3E861E82A
:102C2800A3E8ECF218FE5DFFFFFFFFFFFFFFFFFFC9
:102C3800FFFFFFFFDFFF5DFFD7F5ECF2A3E862E8D7
:102C4800A3E8E4E8E4E8E4E8E4E8E4E8E4E8E4E85D
:102C580062E84AEAFFFFC7E930F4FFFFFFFFFFFF22
:102C6800FFFFFFFFFFFFFFFFFFFFFFFFFFFFFFFF6C
:102C7800FFFFFFFFFFFFFFFFFFFFFFFFFFFFFFFF5C
:102C8800FFFFFFFFFFFFFFFFFFFFFFFFFFFFFFFF4C
:102C9800FFFFFFFFFFFFFFFFFFFFFFFFFFFFFFFF3C
:102CA800FFFFFFFFFFFFFFFFFFFFFFFFFFFFFFFF2C
:102CB80051F466E9FFFF6AF221E8A3E8DBFEFFFFB3
:102CC800FFFFFFFFFFFFFFFFFFFFFFFFFFFFFFFF0C
:102CD800FFFF29F262E8E4E8E4E842E821E8B3F417
:102CE800DFFFFFFFFFFFFFFFFFFFFFFFFFFFFFFF0C
:102CF800FFFFFFFFFFFFFFFFFFFFFFFFDFFF92F474
:102D080021E841E8E4E8E4E8E4E8E4E8E4E8E4E8C1
:102D180062E86AF2FFFFC7E931F4FFFFFFFFFFFF38
:102D2800FFFFFFFFFFFFFFFFFFFFFFFFFFFFFFFFAB
:102D3800FFFFFFFFFFFFFFFFFFFFFFFFFFFFFFFF9B
:102D4800FFFFFFFFFFFFFFFFFFFFFFFFFFFFFFFF8B
:102D5800FFFFFFFFFFFFFFFFFFFFFFFFFFFFFFFF7B
:102D6800FFFFFFFFFFFFFFFFFFFFFFFFFFFFFFFF6B
:102D780051F466E9FFFF6AF200E88EF3FFFFFFFFF8
:102D8800FFFFFFFFFFFFFFFFFFFFFFFFFFFFFFFF4B
:102D9800FFFF75F5C4E8C4E800E8C7E9DFFFFFFFF7
:102DA800FFFFFFFFFFFFFFFFFFFFFFFFFFFFFFFF2B
:102DB800FFFFFFFFFFFFFFFFFFFFFFFFFFFFFFFF1B
:102DC800DFFF08EA00E8E4E8E4E8E4E8E4E8E4E847
:102DD80062E86AF2FFFFC7E931F4FFFFFFFFFFFF78
:102DE800FFFFFFFFFFFFFFFFFFFFFFFFFFFFFFFFEB
:102DF800FFFFFFFFFFFFFFFFFFFFFFFFFFFFFFFFDB
:102E0800FFFFFFFFFFFFFFFFFFFFFFFFFFFFFFFFCA
:102E1800FFFFFFFFFFFFFFFFFFFFFFFFFFFFFFFFBA
:102E2800FFFFFFFFFFFFFFFFFFFFFFFFFFFFFFFFAA
:102E380051F466E9FFFF49EA01E8B3F4FFFFFFFF39
:102E4800FFFFFFFFFFFFFFFFFFFFFFFFFFFFFFFF8A
:102E5800FFFFDBFE46E900E8A7E9BEFFFFFFFFFF33
:102E6800FFFFFFFFFFFFFFFFFFFFFFFFFFFFFFFF6A
:102E7800FFFFFFFFFFFFFFFFFFFFFFFFFFFFFFFF5A
:102E8800FFFFBEFF09EA00E8E4E8E4E8E4E8E4E874
:102E980062E86AF2FFFFC7E931F4FFFFFFFFFFFFB7
:102EA800FFFFFFFFFFFFFFFFFFFFFFFFFFFFFFFF2A
:102EB800FFFFFFFFFFFFFFFFFFFFFFFFFFFFFFFF1A
:102EC800FFFFFFFFFFFFFFFFFFFFFFFFFFFFFFFF0A
:102ED800FFFFFFFFFFFFFFFFFFFFFFFFFFFFFFFFFA
:102EE800FFFFFFFFFFFFFFFFFFFFFFFFFFFFFFFFEA
:102EF80051F466E9FFFF49F221E814F5FFFF8EF36C
:102F0800E3E8E3E8E3E8E3E8E3E8E3E8E3E009EA41
:102F1800FFFF7DFFA3E8C3E85DFFFFFFFFFFFFFFA3
:102F2800FFFFFFFFFFFFFFFFFFFFFFFFFFFFFFFFA9
:102F3800FFFFFFFFFFFFFFFFFFFFFFFFFFFFFFFF99
:102F4800FFFFFFFF5DFF6AF220E8E4E8E4E8E4E859
:102F580062E86AF2FFFFC7E931F4FFFFFFFFFFFFF6
:102F6800FFFFFFFFFFFFFFFFFFFFFFFFFFFFFFFF69
:102F7800FFFFFFFFFFFFFFFFFFFFFFFFFFFFFFFF59
:102F8800FFFFFFFFFFFFFFFFFFFFFFFFFFFFFFFF49
:102F9800FFFFFFFFFFFFFFFFFFFFFFFFFFFFFFFF39
:102FA800FFFFFFFFFFFFFFFFFFFFFFFFFFFFFFFF29
:102FB80051F466E9FFFF49EA21E8F4F4FFFF3CFF1A
:102FC800BAFEBAFEBAFEBAFEBAFEBAFEBAFEFBFEF8
:102FD800FFFFF0F321E859FEFFFFFFFFFFFFFFFFB0
:102FE800FFFFFFFFFFFFFFFFFFFFFFFFFFFFFFFFE9
:102FF800FFFFFFFFFFFFFFFFFFFFFFFFFFFFFFFFD9
:10300800FFFFFFFFFFFF1CFF04E982E8E4E8E4E8B4
:1030180062E86AF2FFFFC7E931F4FFFFFFFFFFFF35
:10302800FFFFFFFFFFFFFFFFFFFFFFFFFFFFFFFFA8
:10303800FFFFFFFFFFFFFFFFFFFFFFFFFFFFFFFF98
:10304800FFFFFFFFFFFFFFFFFFFFFFFFFFFFFFFF88
:10305800FFFFFFFFFFFFFFFFFFFFFFFFFFFFFFFF78
:10306800FFFFFFFFFFFFFFFFFFFFFFFFFFFFFFFF68
:1030780051F466E9FFFF6AF200E851F4FFFFFFFF31
:10308800FFFFFFFFFFFFFFFFFFFFFFFFFFFFFFFF48
:103098007DFFE4E80CF3DFFFFFFFFFFFFFFFFFFF0B
:1030A800FFFFFFFFFFFFFFFFFFFFFFFFFFFFFFFF28
:1030B800FFFFFFFFFFFFFFFFFFFFFFFFFFFFFFFF18
:1030C800FFFFFFFFFFFFFFFF34F520E8E4E8E4E837
:1030D80062E86AF2FFFFC7E931F4FFFFFFFFFFFF75
:1030E800FFFFFFFFFFFFFFFFFFFFFFFFFFFFFFFFE8
:1030F800FFFFFFFFFFFFFFFFFFFFFFFFFFFFFFFFD8
:10310800FFFFFFFFFFFFFFFFFFFFFFFFFFFFFFFFC7
:10311800FFFFFFFFFFFFFFFFFFFFFFFFFFFFFFFFB7
:10312800FFFFFFFFFFFFFFFFFFFFFFFFFFFFFFFFA7
:1031380051F466E9FFFF6AF200E8C8E95DFFFFFFA6
:10314800FFFFFFFFFFFFFFFFFFFFFFFFFFFFFFFF87
:1031580034F521E859FEFFFFFFFFFFFFFFFFFFFFE8
:10316800FFFFFFFFFFFFFFFFFFFFFFFFFFFF59FE0E
:103178003CFFFFFFFFFFFFFFFFFFFFFFFFFFFFFF1A
:10318800FFFFFFFFFFFFFFFF7EFFC7E962E8E4E8FC
:1031980062E86AF2FFFFC7E931F4FFFFFFFFFFFFB4
:1031A800FFFFFFFFFFFFFFFFFFFFFFFFFFFFFFFF27
:1031B800FFFFFFFFFFFFFFFFFFFFFFFFFFFFFFFF17
:1031C800FFFFFFFFFFFFFFFFFFFFFFFFFFFFFFFF07
:1031D800FFFFFFFFFFFFFFFFFFFFFFFFFFFFFFFFF7
:1031E800FFFFFFFFFFFFFFFFFFFFFFFFFFFFFFFFE7
:1031F80051F466E9FFFF6AF242E882E80CF3FBFE4D
:10320800FFFFFFFFFFFFFFFFFFFFFFFFFFFFBEFF07
:103218000CF366E99EFFFFFFFFFFFFFFFFFFFFFFC5
:10322800FFFFFFFFFFFFFFFFFFFFFFFF51F4E7E98D
:103238004AF2BAFEFFFFFFFFFFFFFFFFFFFFFFFF9E
:10324800FFFFFFFFFFFFFFFFFFFF10F442E8C4E8A6
:1032580062E86AF2FFFFC7E931F4FFFFFFFFFFFFF3
:10326800FFFFFFFFFFFFFFFFFFFFFFFFFFFFFFFF66
:10327800FFFFFFFFFFFFFFFFFFFFFFFFFFFFFFFF56
:10328800FFFFFFFFFFFFFFFFFFFFFFFFFFFFFFFF46
:10329800FFFFFFFFFFFFFFFFFFFFFFFFFFFFFFFF36
:1032A800FFFFFFFFFFFFFFFFFFFFFFFFFFFFFFFF26
:1032B80051F466E9FFFF6AF262E8A3E8A3E88AEA44
:1032C8004DF3AFF3CFF3AFF3AFF38EF32DF3EBF290
:1032D800E3E86EF3DFFFFFFFFFFFFFFFFFFFFFFFE6
:1032E800FFFFFFFFFFFFFFFFFFFFDFFF66E941E88A
:1032F80041E851F4FFFFFFFFFFFFFFFFFFFFFFFF64
:10330800FFFFFFFFFFFFFFFFFFFFB6FD82E8C3E8F7
:1033180062E86AF2FFFFC7E931F4FFFFFFFFFFFF32
:10332800FFFFFFFFFFFFFFFFFFFFFFFFFFFFFFFFA5
:10333800FFFFFFFFFFFFFFFFFFFFFFFFFFFFFFFF95
:10334800FFFFFFFFFFFFFFFFFFFFFFFFFFFFFFFF85
:10335800FFFFFFFFFFFFFFFFFFFFFFFFFFFFFFFF75
:10336800FFFFFFFFFFFFFFFFFFFFFFFFFFFFFFFF65
:1033780051F466E9FFFF4AF221E88EF392F492F4E1
:10338800B3F40CF382E8C4E8C3E8A3E883E862E88E
:1033980021E814F5FFFFFFFFFFFFFFFFFFFFFFFF1F
:1033A800FFFFFFFFFFFFFFFFFFFFBEFF83E883E88C
:1033B80062E8CBF2FFFFFFFFFFFFFFFFFFFFFFFF0A
:1033C800FFFFFFFFFFFFFFFFFFFFDBFE45E983E88D
:1033D80062E86AF2FFFFC7E931F4FFFFFFFFFFFF72
:1033E800FFFFFFFFFFFFFFFFFFFFFFFFFFFFFFFFE5
:1033F800FFFFFFFFFFFFFFFFFFFFFFFFFFFFFFFFD5
:10340800FFFFFFFFFFFFFFFFFFFFFFFFFFFFFFFFC4
:10341800FFFFFFFFFFFFFFFFFFFFFFFFFFFFFFFFB4
:10342800FFFFFFFFFFFFFFFFFFFFFFFFFFFFFFFFA4
:1034380051F466E9FFFF6AF200E80CF3FCFEFFFFB7
:10344800FFFFF7FD00E862E862E862E862E883E807
:1034580041E838FEFFFFFFFFFFFFFFFFFFFFFFFF11
:10346800FFFFFFFFFFFFFFFFFFFF7DFF62E8A3E80D
:1034780062E829EAFFFFFFFFFFFFFFFFFFFFFFFFF3
:10348800FFFFFFFFFFFFFFFFFFFF7DFF4AF262E83C
:1034980062E86AF2FFFFC7E931F4FFFFFFFFFFFFB1
:1034A800FFFFFFFFFFFFFFFFFFFFFFFFFFFFFFFF24
:1034B800FFFFFFFFFFFFFFFFFFFFFFFFFFFFFFFF14
:1034C800FFFFFFFFFFFFFFFFFFFFFFFFFFFFFFFF04
:1034D800FFFFFFFFFFFFFFFFFFFFFFFFFFFFFFFFF4
:1034E800FFFFFFFFFFFFFFFFFFFFFFFFFFFFFFFFE4
:1034F80051F466E9FFFF6AF201E8C7E938FEFFFF09
:10350800FFFF9EFF8EF34DF34DF34DF3AFF329F21A
:1035180082E8BBFEFFFFFFFFFFFFFFFFFFFFFFFF8C
:10352800FFFFFFFFFFFFFFFFFFFF3CFF62E8A3E88D
:1035380082E8E8E9FFFFFFFFFFFFFFFFFFFFFFFF54
:10354800FFFFFFFFFFFFFFFFFFFFDFFF2DF321E876
:1035580062E86AF2FFFFC7E931F4FFFFFFFFFFFFF0
:10356800FFFFFFFFFFFFFFFFFFFFFFFFFFFFFFFF63
:10357800FFFFFFFFFFFFFFFFFFFFFFFFFFFFFFFF53
:10358800FFFFFFFFFFFFFFFFFFFFFFFFFFFFFFFF43
:10359800FFFFFFFFFFFFFFFFFFFFFFFFFFFFFFFF33
:1035A800FFFFFFFFFFFFFFFFFFFFFFFFFFFFFFFF23
:1035B80051F466E9FFFF6AF200E86EF3FBFEFFFFD5
:1035C800FFFFFFFFBEFF3CFF3CFF3CFFBEFF71F467
:1035D800C3E8FBFEFFFFFFFFFFFFFFFFFFFFFFFF4B
:1035E800FFFFFFFFFFFFFFFFFFFF1CFF62E8C3E8CD
:1035F80082E8C7E9FFFFFFFFFFFFFFFFFFFFFFFFB5
:10360800FFFFFFFFFFFFFFFFFFFFFFFFCFF321E8F3
:1036180062E86AF2FFFFC7E931F4FFFFFFFFFFFF2F
:10362800FFFFFFFFFFFFFFFFFFFFFFFFFFFFFFFFA2
:10363800FFFFFFFFFFFFFFFFFFFFFFFFFFFFFFFF92
:10364800FFFFFFFFFFFFFFFFFFFFFFFFFFFFFFFF82
:10365800FFFFFFFFFFFFFFFFFFFFFFFFFFFFFFFF72
:10366800FFFFFFFFFFFFFFFFFFFFFFFFFFFFFFFF62
:1036780051F466E9FFFF6AF200E831F4FFFFFFFF4B
:10368800FFFFFFFFFFFFFFFFFFFFFFFFFFFF72F4DA
:1036980005E91CFFFFFFFFFFFFFFFFFFFFFFFFFF25
:1036A800FFFFFFFFFFFFFFFFFFFF1CFF62E8C3E80C
:1036B80082E8C7E9FFFFFFFFFFFFFFFFFFFFFFFFF4
:1036C800FFFFFFFFFFFFFFFFFFFFFFFF92F421E86F
:1036D80062E86AF2FFFFC7E931F4FFFFFFFFFFFF6F
:1036E800FFFFFFFFFFFFFFFFFFFFFFFFFFFFFFFFE2
:1036F800FFFFFFFFFFFFFFFFFFFFFFFFFFFFFFFFD2
:10370800FFFFFFFFFFFFFFFFFFFFFFFFFFFFFFFFC1
:10371800FFFFFFFFFFFFFFFFFFFFFFFFFFFFFFFFB1
:10372800FFFFFFFFFFFFFFFFFFFFFFFFFFFFFFFFA1
:1037380051F466E9FFFF6AF200E831F4FFFFFFFF8A
:10374800FFFFFFFFFFFFFFFFFFFFFFFFFFFF31F45A
:1037580066E93CFFFFFFFFFFFFFFFFFFFFFFFFFFE3
:10376800FFFFFFFFFFFFFFFFFFFF1CFF41E882E8AD
:1037780062E886E9FFFFFFFFFFFFFFFFFFFFFFFF94
:10378800FFFFFFFFFFFFFFFFFFFFFFFFF4F482E8EB
:1037980042E86AF2FFFFC7E931F4FFFFFFFFFFFFCE
:1037A800FFFFFFFFFFFFFFFFFFFFFFFFFFFFFFFF21
:1037B800FFFFFFFFFFFFFFFFFFFFFFFFFFFFFFFF11
:1037C800FFFFFFFFFFFFFFFFFFFFFFFFFFFFFFFF01
:1037D800FFFFFFFFFFFFFFFFFFFFFFFFFFFFFFFFF1
:1037E800FFFFFFFFFFFFFFFFFFFFFFFFFFFFFFFFE1
:1037F80051F466E9FFFF6AF200E8AFF359FE18FEDC
:1038080018FE18FE38FE18FE18FE18FE59FEAFF313
:1038180086E93DFFFFFFFFFFFFFFFFFFFFFFFFFF01
:10382800FFFFFFFFFFFFFFFFFFFF1CFF24E925E964
:1038380025E908F2FFFFFFFFFFFFFFFFFFFFFFFF84
:10384800FFFFFFFFFFFFFFFFFFFFFFFF14F5A3E8E8
:1038580042E86AF2FFFFC7E931F4FFFFFFFFFFFF0D
:10386800FFFFFFFFFFFFFFFFFFFFFFFFFFFFFFFF60
:10387800FFFFFFFFFFFFFFFFFFFFFFFFFFFFFFFF50
:10388800FFFFFFFFFFFFFFFFFFFFFFFFFFFFFFFF40
:10389800FFFFFFFFFFFFFFFFFFFFFFFFFFFFFFFF30
:1038A800FFFFFFFFFFFFFFFFFFFFFFFFFFFFFFFF20
:1038B80051F466E9FFFF6AF221E809EA6AF245E98C
:1038C80082E862E882E862E8C3E845E98AF2A7E9A3
:1038D800C7E95DFFFFFFFFFFFFFFFFFFFFFFFFFFE0
:1038E800FFFFFFFFFFFFFFFFFFFFBEFF55FD76FD58
:1038F80075FDD7FDFFFFFFFFFFFFFFFFFFFFFFFF86
:10390800FFFFFFFFFFFFFFFFFFFFFFFF34F5A3E807
:1039180041E86AF2FFFFC7E931F4FFFFFFFFFFFF4D
:10392800FFFFFFFFFFFFFFFFFFFFFFFFFFFFFFFF9F
:10393800FFFFFFFFFFFFFFFFFFFFFFFFFFFFFFFF8F
:10394800FFFFFFFFFFFFFFFFFFFFFFFFFFFFFFFF7F
:10395800FFFFFFFFFFFFFFFFFFFFFFFFFFFFFFFF6F
:10396800FFFFFFFFFFFFFFFFFFFFFFFFFFFFFFFF5F
:1039780051F466E9FFFF6AF200E851F4FFFF7AFEAE
:103988002DF324E9E4E886F110F49AFEFFFF31F400
:1039980066E93CFFFFFFFFFFFFFFFFFFFFFFFFFFA1
:1039A800FFFFFFFFFFFFFFFFFFFFFFFFFFFFFFFF1F
:1039B800FFFFFFFFFFFFFFFFFFFFFFFFFFFFFFFF0F
:1039C800FFFFFFFFFFFFFFFFFFFFFFFF35F5A3E846
:1039D80041E86AF2FFFFC7E931F4FFFFFFFFFFFF8D
:1039E800FFFFFFFFFFFFFFFFFFFFFFFFFFFFFFFFDF
:1039F800FFFFFFFFFFFFFFFFFFFFFFFFFFFFFFFFCF
:103A0800FFFFFFFFFFFFFFFFFFFFFFFFFFFFFFFFBE
:103A1800FFFFFFFFFFFFFFFFFFFFFFFFFFFFFFFFAE
:103A2800FFFFFFFFFFFFFFFFFFFFFFFFFFFFFFFF9E
:103A380051F466E9FFFF6AF200E810F4FFFFFFFFA8
:103A4800FFFFFFFFDBFEFFFFFFFFFFFFFFFF10F49D
:103A580066E93CFFFFFFFFFFFFFFFFFFFFFFFFFFE0
:103A6800FFFFFFFFFFFFFFFFFFFFFFFFFFFFFFFF5E
:103A7800FFFFFFFFFFFFFFFFFFFFFFFFFFFFFFFF4E
:103A8800FFFFFFFFFFFFFFFFFFFFFFFF55F5C3E845
:103A980021E86AF2FFFFC7E931F4FFFFFFFFFFFFEC
:103AA800FFFFFFFFFFFFFFFFFFFFFFFFFFFFFFFF1E
:103AB800FFFFFFFFFFFFFFFFFFFFFFFFFFFFFFFF0E
:103AC800FFFFFFFFFFFFFFFFFFFFFFFFFFFFFFFFFE
:103AD800FFFFFFFFFFFFFFFFFFFFFFFFFFFFFFFFEE
:103AE800FFFFFFFFFFFFFFFFFFFFFFFFFFFFFFFFDE
:103AF80051F466E9FFFF6AF200E8F0F3BFFFFFFF49
:103B0800FFFFFFFFFFFFFFFFFFFFFFFFFFFF51F476
:103B180066E93CFFFFFFFFFFFFFFFFFFFFFFFFFF1F
:103B2800FFFFFFFFFFFFFFFFFFFFFFFFFFFFFFFF9D
:103B3800FFFFFFFFFFFFFFFFFFFFFFFFFFFFFFFF8D
:103B4800FFFFFFFFFFFFFFFFFFFFFFFF55F5C3E884
:103B580041E86AF2FFFFC7E931F4FFFFFFFFFFFF0B
:103B6800FFFFFFFFFFFFFFFFFFFFFFFFFFFFFFFF5D
:103B7800FFFFFFFFFFFFFFFFFFFFFFFFFFFFFFFF4D
:103B8800FFFFFFFFFFFFFFFFFFFFFFFFFFFFFFFF3D
:103B9800FFFFFFFFFFFFFFFFFFFFFFFFFFFFFFFF2D
:103BA800FFFFFFFFFFFFFFFFFFFFFFFFFFFFFFFF1D
:103BB80051F466E9FFFF6AF242E883E8A7E9B7F53E
:103BC800FFFFFFFFFFFFFFFFFFFF7DFF34F566E903
:103BD800C7E95DFFFFFFFFFFFFFFFFFFFFFFFFFFDD
:103BE800FFFFFFFFFFFFFFFFFFFFFFFFFFFFFFFFDD
:103BF800FFFFFFFFFFFFFFFFFFFFFFFFFFFFFFFFCD
:103C0800FFFFFFFFFFFFFFFFFFFFFFFF55F5C3E8C3
:103C180041E86AF2FFFFC7E931F4FFFFFFFFFFFF4A
:103C2800FFFFFFFFFFFFFFFFFFFFFFFFFFFFFFFF9C
:103C3800FFFFFFFFFFFFFFFFFFFFFFFFFFFFFFFF8C
:103C4800FFFFFFFFFFFFFFFFFFFFFFFFFFFFFFFF7C
:103C5800FFFFFFFFFFFFFFFFFFFFFFFFFFFFFFFF6C
:103C6800FFFFFFFFFFFFFFFFFFFFFFFFFFFFFFFF5C
:103C780051F466E9FFFF6AF200E82DF318FE96F5A5
:103C88009AFEFFFFFFFFFFFF3CFF96FD18FEECF2D8
:103C9800A7E93DFFFFFFFFFFFFFFFFFFFFFFFFFF5C
:103CA800FFFFFFFFFFFFFFFFFFFFFFFFFFFFFFFF1C
:103CB800FFFFFFFFFFFFFFFFFFFFFFFFFFFFFFFF0C
:103CC800FFFFFFFFFFFFFFFFFFFFFFFF55F5C3E803
:103CD80041E86AF2FFFFC7E931F4FFFFFFFFFFFF8A
:103CE800FFFFFFFFFFFFFFFFFFFFFFFFFFFFFFFFDC
:103CF800FFFFFFFFFFFFFFFFFFFFFFFFFFFFFFFFCC
:103D0800FFFFFFFFFFFFFFFFFFFFFFFFFFFFFFFFBB
:103D1800FFFFFFFFFFFFFFFFFFFFFFFFFFFFFFFFAB
:103D2800FFFFFFFFFFFFFFFFFFFFFFFFFFFFFFFF9B
:103D380051F466E9FFFF6AF200E830F4DFFFBEFFE6
:103D4800DFFFFFFFFFFFFFFFFFFFBEFFDFFF10F4F6
:103D580066E93CFFFFFFFFFFFFFFFFFFFFFFFFFFDD
:103D6800FFFFFFFFFFFFFFFFFFFFFFFFFFFFFFFF5B
:103D7800FFFFFFFFFFFFFFFFFFFFFFFFFFFFFFFF4B
:103D8800FFFFFFFFFFFFFFFFFFFFFFFF76F5A3E841
:103D980021E86AF2FFFFC7E931F4FFFFFFFFFFFFE9
:103DA800FFFFFFFFFFFFFFFFFFFFFFFFFFFFFFFF1B
:103DB800FFFFFFFFFFFFFFFFFFFFFFFFFFFFFFFF0B
:103DC800FFFFFFFFFFFFFFFFFFFFFFFFFFFFFFFFFB
:103DD800FFFFFFFFFFFFFFFFFFFFFFFFFFFFFFFFEB
:103DE800FFFFFFFFFFFFFFFFFFFFFFFFFFFFFFFFDB
:103DF80051F466E9FFFF6AF200E810F4FFFFFFFFE5
:103E0800FFFFFFFFFFFFFFFFFFFFFFFFFFFF10F4B4
:103E180066E93CFFFFFFFFFFFFFFFFFFFFFFFFFF1C
:103E2800FFFFFFFFFFFFFFFFFFFFDFFFBEFFBEFF3C
:103E3800BEFFBEFFBEFFBEFFBEFFBEFFBEFFBEFF92
:103E4800BEFFBEFFBEFFBEFFDFFFFFFF14F5C3E8E6
:103E580041E86AF2FFFFC7E931F4FFFFFFFFFFFF08
:103E6800FFFFFFFFFFFFFFFFFFFFFFFFFFFFFFFF5A
:103E7800FFFFFFFFFFFFFFFFFFFFFFFFFFFFFFFF4A
:103E8800FFFFFFFFFFFFFFFFFFFFFFFFFFFFFFFF3A
:103E9800FFFFFFFFFFFFFFFFFFFFFFFFFFFFFFFF2A
:103EA800FFFFFFFFFFFFFFFFFFFFFFFFFFFFFFFF1A
:103EB80051F466E9FFFF6AF200E872F4FFFFFFFFC2
:103EC800FFFFFFFFFFFFFFFFFFFFFFFFFFFF71F493
:103ED80066E93CFFFFFFFFFFFFFFFFFFFFFFFFFF5C
:103EE800FFFFFFFFFFFFFFFFFFFF1CFF86E9A6E9BB
:103EF800A6E9A6E986E986E986E986E986E986E902
:103F080086E986E986E986E9A6E9A6E905E9E4E815
:103F180062E86AF2FFFFC7E931F4FFFFFFFFFFFF26
:103F2800FFFFFFFFFFFFFFFFFFFFFFFFFFFFFFFF99
:103F3800FFFFFFFFFFFFFFFFFFFFFFFFFFFFFFFF89
:103F4800FFFFFFFFFFFFFFFFFFFFFFFFFFFFFFFF79
:103F5800FFFFFFFFFFFFFFFFFFFFFFFFFFFFFFFF69
:103F6800FFFFFFFFFFFFFFFFFFFFFFFFFFFFFFFF59
:103F780051F466E9FFFF6AF221E8E8E9ECF20CF394
:103F8800ECF2ECF2ECF2ECF2ECF2ECF20CF387E986
:103F9800C7E93DFFFFFFFFFFFFFFFFFFFFFFFFFF39
:103FA800FFFFFFFFFFFFFFFFFFFF1CFF41E882E865
:103FB800A3E8A3E862E841E841E841E841E841E8CC
:103FC80041E841E841E841E841E841E862E8E4E8DD
:103FD80062E86AF2FFFFC7E931F4FFFFFFFFFFFF66
:103FE800FFFFFFFFFFFFFFFFFFFFFFFFFFFFFFFFD9
:103FF800FFFFFFFFFFFFFFFFFFFFFFFFFFFFFFFFC9
:10400800FFFFFFFFFFFFFFFFFFFFFFFFFFFFFFFFB8
:10401800FFFFFFFFFFFFFFFFFFFFFFFFFFFFFFFFA8
:10402800FFFFFFFFFFFFFFFFFFFFFFFFFFFFFFFF98
:1040380051F466E9FFFF6AF200E8CBF2D7FD4AF2D5
:1040480071F476F555F555F555F555F5B7FDABF21F
:10405800A7E93DFFFFFFFFFFFFFFFFFFFFFFFFFF98
:10406800FFFFFFFFFFFFFFFFFFFF1CFF62E8C3E842
:10407800C4E8E4E886E909F2E8F1E8F1E8F1E8F1F2
:10408800E8F1E8F1E8F1E8F1E8F108F286E9E4E8B6
:1040980062E86AF2FFFFC7E931F4FFFFFFFFFFFFA5
:1040A800FFFFFFFFFFFFFFFFFFFFFFFFFFFFFFFF18
:1040B800FFFFFFFFFFFFFFFFFFFFFFFFFFFFFFFF08
:1040C800FFFFFFFFFFFFFFFFFFFFFFFFFFFFFFFFF8
:1040D800FFFFFFFFFFFFFFFFFFFFFFFFFFFFFFFFE8
:1040E800FFFFFFFFFFFFFFFFFFFFFFFFFFFFFFFFD8
:1040F80051F466E9FFFF6AF200E8F0F3FFFF2DF3E1
:1041080079FEDFFFBEFFBEFFBEFFBEFFDFFFF0F39D
:1041180066E93CFFFFFFFFFFFFFFFFFFFFFFFFFF19
:10412800FFFFFFFFFFFFFFFFFFFF1CFF62E8C3E881
:10413800C3E8C4E871F418FEF8FDF8FDF8FDF8FDD1
:10414800F8FDF8FDF8FDF8FDF8FD18FE72F4C3E877
:1041580041E86AF2FFFFC7E931F4FFFFFFFFFFFF05
:10416800FFFFFFFFFFFFFFFFFFFFFFFFFFFFFFFF57
:10417800FFFFFFFFFFFFFFFFFFFFFFFFFFFFFFFF47
:10418800FFFFFFFFFFFFFFFFFFFFFFFFFFFFFFFF37
:10419800FFFFFFFFFFFFFFFFFFFFFFFFFFFFFFFF27
:1041A800FFFFFFFFFFFFFFFFFFFFFFFFFFFFFFFF17
:1041B80051F466E9FFFF6AF200E810F4FFFF4DF3DF
:1041C800BAFEFFFFFFFFFFFFFFFFFFFFFFFF10F437
:1041D80066E93CFFFFFFFFFFFFFFFFFFFFFFFFFF59
:1041E800FFFFFFFFFFFFFFFFFFFF1CFF62E8C3E8C1
:1041F800A3E8C4E875F5FFFFFFFFFFFFFFFFFFFF20
:10420800FFFFFFFFFFFFFFFFFFFFFFFF96F5C3E87C
:1042180041E86AF2FFFFC7E931F4FFFFFFFFFFFF44
:10422800FFFFFFFFFFFFFFFFFFFFFFFFFFFFFFFF96
:10423800FFFFFFFFFFFFFFFFFFFFFFFFFFFFFFFF86
:10424800FFFFFFFFFFFFFFFFFFFFFFFFFFFFFFFF76
:10425800FFFFFFFFFFFFFFFFFFFFFFFFFFFFFFFF66
:10426800FFFFFFFFFFFFFFFFFFFFFFFFFFFFFFFF56
:1042780051F466E9FFFF6AF200E851F4FFFF8EF39C
:104288001CFFFFFFFFFFFFFFFFFFFFFFFFFF51F4D2
:1042980066E93CFFFFFFFFFFFFFFFFFFFFFFFFFF98
:1042A800FFFFFFFFFFFFFFFFFFFF1CFF62E8C3E800
:1042B800A3E8C4E834F5FFFFFFFFFFFFFFFFFFFFA0
:1042C800FFFFFFFFFFFFFFFFFFFFFFFF55F5C3E8FD
:1042D80021E86AF2FFFFC7E931F4FFFFFFFFFFFFA4
:1042E800FFFFFFFFFFFFFFFFFFFFFFFFFFFFFFFFD6
:1042F800FFFFFFFFFFFFFFFFFFFFFFFFFFFFFFFFC6
:10430800FFFFFFFFFFFFFFFFFFFFFFFFFFFFFFFFB5
:10431800FFFFFFFFFFFFFFFFFFFFFFFFFFFFFFFFA5
:10432800FFFFFFFFFFFFFFFFFFFFFFFFFFFFFFFF95
:1043380051F466E9FFFF6AF221E8CBF271F408EA6A
:1043480010F451F451F451F451F451F451F46AF267
:10435800A7E93CFFFFFFFFFFFFFFFFFFFFFFFFFF96
:10436800FFFFFFFFFFFFFFFFFFFF1CFF62E8C3E83F
:10437800A3E8C4E834F5FFFFFFFFFFFFFFFFFFFFDF
:10438800FFFFFFFFFFFFFFFFFFFFFFFF55F5C3E83C
:1043980041E86AF2FFFFC7E931F4FFFFFFFFFFFFC3
:1043A800FFFFFFFFFFFFFFFFFFFFFFFFFFFFFFFF15
:1043B800FFFFFFFFFFFFFFFFFFFFFFFFFFFFFFFF05
:1043C800FFFFFFFFFFFFFFFFFFFFFFFFFFFFFFFFF5
:1043D800FFFFFFFFFFFFFFFFFFFFFFFFFFFFFFFFE5
:1043E800FFFFFFFFFFFFFFFFFFFFFFFFFFFFFFFFD5
:1043F80051F466E9FFFF6AF262E883E845E9AAF248
:10440800EBF2EBF2EBF2EBF2EBF2EBF22CF386E9E8
:10441800A7E93CFFFFFFFFFFFFFFFFFFFFFFFFFFD5
:10442800FFFFFFFFFFFFFFFFFFFF1CFF62E8C3E87E
:10443800A3E8C4E834F5FFFFFFFFFFFFFFFFFFFF1E
:10444800FFFFFFFFFFFFFFFFFFFFFFFF55F5C3E87B
:1044580041E86AF2FFFFC7E931F4FFFFFFFFFFFF02
:10446800FFFFFFFFFFFFFFFFFFFFFFFFFFFFFFFF54
:10447800FFFFFFFFFFFFFFFFFFFFFFFFFFFFFFFF44
:10448800FFFFFFFFFFFFFFFFFFFFFFFFFFFFFFFF34
:10449800FFFFFFFFFFFFFFFFFFFFFFFFFFFFFFFF24
:1044A800FFFFFFFFFFFFFFFFFFFFFFFFFFFFFFFF14
:1044B80051F466E9FFFF6AF241E825E951F4DBFEB1
:1044C8003CFF3CFF3CFF3CFF3CFF3CFFBEFFF0F3E2
:1044D80025E91CFFFFFFFFFFFFFFFFFFFFFFFFFFB7
:1044E800FFFFFFFFFFFFFFFFFFFF1CFF62E8C3E8BE
:1044F800A3E8C4E834F5FFFFFFFFFFFFFFFFFFFF5E
:10450800FFFFFFFFFFFFFFFFFFFFFFFF34F5A3E8FB
:1045180041E86AF2FFFFC7E931F4FFFFFFFFFFFF41
:10452800FFFFFFFFFFFFFFFFFFFFFFFFFFFFFFFF93
:10453800FFFFFFFFFFFFFFFFFFFFFFFFFFFFFFFF83
:10454800FFFFFFFFFFFFFFFFFFFFFFFFFFFFFFFF73
:10455800FFFFFFFFFFFFFFFFFFFFFFFFFFFFFFFF63
:10456800FFFFFFFFFFFFFFFFFFFFFFFFFFFFFFFF53
:1045780051F466E9FFFF6AF200E88EF3FFFFFFFFE0
:10458800FFFFFFFFFFFFFFFFFFFFFFFFFFFFD3F46A
:10459800A3E8FBFEFFFFFFFFFFFFFFFFFFFFFFFF9B
:1045A800FFFFFFFFFFFFFFFFFFFF1CFF62E8C3E8FD
:1045B800A3E8C4E834F5FFFFFFFFFFFFFFFFFFFF9D
:1045C800FFFFFFFFFFFFFFFFFFFFFFFFF3F482E89E
:1045D80042E86AF2FFFFC7E931F4FFFFFFFFFFFF80
:1045E800FFFFFFFFFFFFFFFFFFFFFFFFFFFFFFFFD3
:1045F800FFFFFFFFFFFFFFFFFFFFFFFFFFFFFFFFC3
:10460800FFFFFFFFFFFFFFFFFFFFFFFFFFFFFFFFB2
:10461800FFFFFFFFFFFFFFFFFFFFFFFFFFFFFFFFA2
:10462800FFFFFFFFFFFFFFFFFFFFFFFFFFFFFFFF92
:1046380051F466E9FFFF49EA01E814F5FFFFFFFFBF
:10464800FFFFFFFFFFFFFFFFFFFFFFFFFFFF35FD3E
:1046580062E8BAFEFFFFFFFFFFFFFFFFFFFFFFFF5C
:10466800FFFFFFFFFFFFFFFFFFFF1CFF62E8C3E83C
:10467800A3E8C4E835F5FFFFFFFFFFFFFFFFFFFFDB
:10468800FFFFFFFFFFFFFFFFFFFFFFFF92F421E89F
:1046980062E86AF2FFFFC7E931F4FFFFFFFFFFFF9F
:1046A800FFFFFFFFFFFFFFFFFFFFFFFFFFFFFFFF12
:1046B800FFFFFFFFFFFFFFFFFFFFFFFFFFFFFFFF02
:1046C800FFFFFFFFFFFFFFFFFFFFFFFFFFFFFFFFF2
:1046D800FFFFFFFFFFFFFFFFFFFFFFFFFFFFFFFFE2
:1046E800FFFFFFFFFFFFFFFFFFFFFFFFFFFFFFFFD2
:1046F80051F466E9FFFF4AEA01E8B3F4FFFF7DFFE2
:10470800BBFEDBFEDBFEDBFEDBFEDBFEDBFE35F5A8
:1047180042E859FEFFFFFFFFFFFFFFFFFFFFFFFF1C
:10472800FFFFFFFFFFFFFFFFFFFF3CFF42E8C3E87B
:10473800A3E8E4E8B6F5FFFFFFFFFFFFFFFFFFFF79
:10474800FFFFFFFFFFFFFFFFFFFFFFFF31F401E85F
:1047580062E86AF2FFFFC7E931F4FFFFFFFFFFFFDE
:10476800FFFFFFFFFFFFFFFFFFFFFFFFFFFFFFFF51
:10477800FFFFFFFFFFFFFFFFFFFFFFFFFFFFFFFF41
:10478800FFFFFFFFFFFFFFFFFFFFFFFFFFFFFFFF31
:10479800FFFFFFFFFFFFFFFFFFFFFFFFFFFFFFFF21
:1047A800FFFFFFFFFFFFFFFFFFFFFFFFFFFFFFFF11
:1047B80051F466E9FFFF6AF200E80CF39EFF76F514
:1047C80029EA29EA49F249F249F249F26AF2C7E9C3
:1047D80041E8B7FDFFFFFFFFFFFFFFFFFFFFFFFF00
:1047E800FFFFFFFFFFFFFFFFFFFF9EFF82E8A3E839
:1047F800A3E804E979FEFFFFFFFFFFFFFFFFFFFFCC
:10480800FFFFFFFFFFFFFFFFFFFFFFFF8EF321E822
:1048180062E86AF2FFFFC7E931F4FFFFFFFFFFFF1D
:10482800FFFFFFFFFFFFFFFFFFFFFFFFFFFFFFFF90
:10483800FFFFFFFFFFFFFFFFFFFFFFFFFFFFFFFF80
:10484800FFFFFFFFFFFFFFFFFFFFFFFFFFFFFFFF70
:10485800FFFFFFFFFFFFFFFFFFFFFFFFFFFFFFFF60
:10486800FFFFFFFFFFFFFFFFFFFFFFFFFFFFFFFF50
:1048780051F466E9FFFF6AF242E820E876F559FE4E
:104888004DF3ECF20CF30CF30CF30CF30CF3ECF229
:10489800C3E8F0F3FFFFFFFFFFFFFFFFFFFFFFFF8E
:1048A800FFFFFFFFFFFFFFFFFFFFFFFF25E982E894
:1048B80062E804E9BEFFFFFFFFFFFFFFFFFFFFFF06
:1048C800FFFFFFFFFFFFFFFFFFFF7DFF29F262E809
:1048D80062E86AF2FFFFC7E931F4FFFFFFFFFFFF5D
:1048E800FFFFFFFFFFFFFFFFFFFFFFFFFFFFFFFFD0
:1048F800FFFFFFFFFFFFFFFFFFFFFFFFFFFFFFFFC0
:10490800FFFFFFFFFFFFFFFFFFFFFFFFFFFFFFFFAF
:10491800FFFFFFFFFFFFFFFFFFFFFFFFFFFFFFFF9F
:10492800FFFFFFFFFFFFFFFFFFFFFFFFFFFFFFFF8F
:1049380051F466E9FFFF6AF200E8A7E9BAFEFFFF53
:10494800FFFFFFFFFFFFFFFFFFFFFFFFFFFFFFFF6F
:10495800ABF208EADFFFFFFFFFFFFFFFFFFFFFFFEC
:10496800FFFFFFFFFFFFFFFFFFFFFFFFECF241E844
:1049780041E80CF3FFFFFFFFFFFFFFFFFFFFFFFF13
:10498800FFFFFFFFFFFFFFFFFFFF9AFEE4E8A3E83A
:1049980062E86AF2FFFFC7E931F4FFFFFFFFFFFF9C
:1049A800FFFFFFFFFFFFFFFFFFFFFFFFFFFFFFFF0F
:1049B800FFFFFFFFFFFFFFFFFFFFFFFFFFFFFFFFFF
:1049C800FFFFFFFFFFFFFFFFFFFFFFFFFFFFFFFFEF
:1049D800FFFFFFFFFFFFFFFFFFFFFFFFFFFFFFFFDF
:1049E800FFFFFFFFFFFFFFFFFFFFFFFFFFFFFFFFCF
:1049F80051F466E9FFFF4AEA00E8B3F4FFFFFFFF5E
:104A0800FFFFFFFFFFFFFFFFFFFFFFFFFFFFFFFFAE
:104A180072F400E81CFFFFFFFFFFFFFFFFFFFFFF2F
:104A2800FFFFFFFFFFFFFFFFFFFFFFFFFFFF76F521
:104A380059FEFFFFFFFFFFFFFFFFFFFFFFFFFFFF25
:104A4800FFFFFFFFFFFFFFFFFFFF31F401E8E4E88E
:104A580062E86AF2FFFFC7E931F4FFFFFFFFFFFFDB
:104A6800FFFFFFFFFFFFFFFFFFFFFFFFFFFFFFFF4E
:104A7800FFFFFFFFFFFFFFFFFFFFFFFFFFFFFFFF3E
:104A8800FFFFFFFFFFFFFFFFFFFFFFFFFFFFFFFF2E
:104A9800FFFFFFFFFFFFFFFFFFFFFFFFFFFFFFFF1E
:104AA800FFFFFFFFFFFFFFFFFFFFFFFFFFFFFFFF0E
:104AB80051F466E9FFFF49EA21E834FDFFFFFFFFF3
:104AC800FFFFFFFFFFFFFFFFFFFFFFFFFFFFFFFFEE
:104AD800DFFF04E98AF2FFFFFFFFFFFFFFFFFFFF91
:104AE800FFFFFFFFFFFFFFFFFFFFFFFFFFFFFFFFCE
:104AF800FFFFFFFFFFFFFFFFFFFFFFFFFFFFFFFFBE
:104B0800FFFFFFFFFFFFFFFF9EFF62E8A3E8E4E867
:104B180062E86AF2FFFFC7E931F4FFFFFFFFFFFF1A
:104B2800FFFFFFFFFFFFFFFFFFFFFFFFFFFFFFFF8D
:104B3800FFFFFFFFFFFFFFFFFFFFFFFFFFFFFFFF7D
:104B4800FFFFFFFFFFFFFFFFFFFFFFFFFFFFFFFF6D
:104B5800FFFFFFFFFFFFFFFFFFFFFFFFFFFFFFFF5D
:104B6800FFFFFFFFFFFFFFFFFFFFFFFFFFFFFFFF4D
:104B780051F466E9FFFF6AF200E851F4FFFF9EFF77
:104B880059FE38FE38FE38FE38FE38FE38FE59FE2B
:104B9800DBFE8AF221E8FBFEFFFFFFFFFFFFFFFFBE
:104BA800FFFFFFFFFFFFFFFFFFFFFFFFFFFFFFFF0D
:104BB800FFFFFFFFFFFFFFFFFFFFFFFFFFFFFFFFFD
:104BC800FFFFFFFFFFFFFFFFF0F300E8E4E8E4E882
:104BD80062E86AF2FFFFC7E931F4FFFFFFFFFFFF5A
:104BE800FFFFFFFFFFFFFFFFFFFFFFFFFFFFFFFFCD
:104BF800FFFFFFFFFFFFFFFFFFFFFFFFFFFFFFFFBD
:104C0800FFFFFFFFFFFFFFFFFFFFFFFFFFFFFFFFAC
:104C1800FFFFFFFFFFFFFFFFFFFFFFFFFFFFFFFF9C
:104C2800FFFFFFFFFFFFFFFFFFFFFFFFFFFFFFFF8C
:104C380051F466E9FFFF6AF201E825E91CFF92F4E6
:104C4800E4E8E3E8E3E8E3E8E3E8E3E8E3E8E3E803
:104C580004E982E800E804E9FFFFFFFFFFFFFFFF28
:104C6800FFFFFFFFFFFFFFFFFFFFFFFFFFFFFFFF4C
:104C7800FFFFFFFFFFFFFFFFFFFFFFFFFFFFFFFF3C
:104C8800FFFFFFFFFFFFD7FD82E8C3E8E4E8E4E8A1
:104C980062E86AF2FFFFC7E931F4FFFFFFFFFFFF99
:104CA800FFFFFFFFFFFFFFFFFFFFFFFFFFFFFFFF0C
:104CB800FFFFFFFFFFFFFFFFFFFFFFFFFFFFFFFFFC
:104CC800FFFFFFFFFFFFFFFFFFFFFFFFFFFFFFFFEC
:104CD800FFFFFFFFFFFFFFFFFFFFFFFFFFFFFFFFDC
:104CE800FFFFFFFFFFFFFFFFFFFFFFFFFFFFFFFFCC
:104CF80051F466E9FFFF6AF200E86EF3DFFF3CFF5C
:104D080079FE79FE79FE79FE79FE79FE79FE79FEE3
:104D180079FE79FEB6F500E849F2FFFFFFFFFFFFD5
:104D2800FFFFFFFFFFFFFFFFFFFFFFFFFFFFFFFF8B
:104D3800FFFFFFFFFFFFFFFFFFFFFFFFFFFFFFFF7B
:104D4800FFFFFFFF9AFE04E9A3E8E4E8E4E8E4E8EB
:104D580062E86AF2FFFFC7E931F4FFFFFFFFFFFFD8
:104D6800FFFFFFFFFFFFFFFFFFFFFFFFFFFFFFFF4B
:104D7800FFFFFFFFFFFFFFFFFFFFFFFFFFFFFFFF3B
:104D8800FFFFFFFFFFFFFFFFFFFFFFFFFFFFFFFF2B
:104D9800FFFFFFFFFFFFFFFFFFFFFFFFFFFFFFFF1B
:104DA800FFFFFFFFFFFFFFFFFFFFFFFFFFFFFFFF0B
:104DB80051F466E9FFFF6AF200E810F4FFFFFFFF15
:104DC800FFFFFFFFFFFFFFFFFFFFFFFFFFFFFFFFEB
:104DD800FFFFFFFFBEFFD3F441E86AF23CFFFFFF8D
:104DE800FFFFFFFFFFFFFFFFFFFFFFFFFFFFFFFFCB
:104DF800FFFFFFFFFFFFFFFFFFFFFFFFFFFFFFFFBB
:104E0800FFFF79FE86E982E8E4E8E4E8E4E8E4E81C
:104E180062E86AF2FFFFC7E931F4FFFFFFFFFFFF17
:104E2800FFFFFFFFFFFFFFFFFFFFFFFFFFFFFFFF8A
:104E3800FFFFFFFFFFFFFFFFFFFFFFFFFFFFFFFF7A
:104E4800FFFFFFFFFFFFFFFFFFFFFFFFFFFFFFFF6A
:104E5800FFFFFFFFFFFFFFFFFFFFFFFFFFFFFFFF5A
:104E6800FFFFFFFFFFFFFFFFFFFFFFFFFFFFFFFF4A
:104E780051F466E9FFFF6AF200E810F4FFFFFFFF54
:104E8800FFFFFFFFFFFFFFFFFFFFFFFFFFFFFFFF2A
:104E9800FFFFFFFFFFFF7DFF96F542E828EAB3F426
:104EA800BEFFFFFFFFFFFFFFFFFFFFFFFFFFFFFF4B
:104EB800FFFFFFFFFFFFFFFFFFFFFFFFFFFF9EFF5B
:104EC80051F4C7E9A3E8C4E8E4E8E4E8E4E8E4E87E
:104ED80062E86AF2FFFFC7E931F4FFFFFFFFFFFF57
:104EE800FFFFFFFFFFFFFFFFFFFFFFFFFFFFFFFFCA
:104EF800FFFFFFFFFFFFFFFFFFFFFFFFFFFFFFFFBA
:104F0800FFFFFFFFFFFFFFFFFFFFFFFFFFFFFFFFA9
:104F1800FFFFFFFFFFFFFFFFFFFFFFFFFFFFFFFF99
:104F2800FFFFFFFFFFFFFFFFFFFFFFFFFFFFFFFF89
:104F380051F466E9FFFF6AF200E810F4FFFFFFFF93
:104F4800FFFFFFFFFFFFFFFFFFFFFFFFFFFFFFFF69
:104F5800FFFFFFFFFFFFFFFFFFFF14F508EA25E94A
:104F6800ABF210F459FE7DFFDFFFFFFFFFFFFFFFED
:104F7800FFFFFFFFFFFFFFFF9EFFBAFE71F4ABF2DA
:104F880025E9A3E8E4E8E4E8E4E8E4E8E4E8E4E8B8
:104F980062E84AEAFFFFC7E930F4FFFFFFFFFFFFBF
:104FA800FFFFFFFFFFFFFFFFFFFFFFFFFFFFFFFF09
:104FB800FFFFFFFFFFFFFFFFFFFFFFFFFFFFFFFFF9
:104FC800FFFFFFFFFFFFFFFFFFFFFFFFFFFFFFFFE9
:104FD800FFFFFFFFFFFFFFFFFFFFFFFFFFFFFFFFD9
:104FE800FFFFFFFFFFFFFFFFFFFFFFFFFFFFFFFFC9
:104FF80031F466E9FFFF49F221E829EACFF3CFF35C
:10500800CFF3CFF3CFF3CFF3CFF3CFF3CFF3CFF388
:10501800CFF3CFF3CFF3CFF3CFF3F0F36AF2A2E8F5
:1050280062E805E949F2EBF28EF331F492F4B2F456
:10503800B2F492F451F4CFF30CF369F225E983E862
:1050480083E8E4E8E4E8E4E8E4E8E4E8E4E8E4E859
:1050580062E829F2FFFFC7E910F4FFFFFFFFFFFF37
:10506800FFFFFFFFFFFFFFFFFFFFFFFFFFFFFFFF48
:10507800FFFFFFFFFFFFFFFFFFFFFFFFFFFFFFFF38
:10508800FFFFFFFFFFFFFFFFFFFFFFFFFFFFFFFF28
:10509800FFFFFFFFFFFFFFFFFFFFFFFFFFFFFFFF18
:1050A800FFFFFFFFFFFFFFFFFFFFFFFFFFFFFFFF08
:1050B800B2F4E4E8FFFFECF221E862E882E882E873
:1050C80082E882E882E882E882E882E882E882E888
:1050D80082E882E882E882E882E8A3E8E4E882E8F5
:1050E80062E841E800E800E841E8C3E804E924E9A7
:1050F80024E924E9E4E862E800E800E821E862E855
:1051080062E862E862E862E862E862E862E862E847
:1051180021E8ECF2FFFF66E951F4FFFFFFFFFFFF14
:10512800FFFFFFFFFFFFFFFFFFFFFFFFFFFFFFFF87
:10513800FFFFFFFFFFFFFFFFFFFFFFFFFFFFFFFF77
:10514800FFFFFFFFFFFFFFFFFFFFFFFFFFFFFFFF67
:10515800FFFFFFFFFFFFFFFFFFFFFFFFFFFFFFFF57
:10516800FFFFFFFFFFFFFFFFFFFFFFFFFFFFFFFF47
:1051780038FE21E8FBFEB7FDABEA28F229F229F256
:1051880029F229F229F229F229F229F229F229F23F
:1051980029F229F229F229F229F229F229F229F22F
:1051A80049F229F229F229F229F229F229F229F2FF
:1051B80029F229F229F229F229F229F229F229F20F
:1051C80029F229F229F229F229F229F229F228F200
:1051D800AAF2D7FDDBFE82E839FEFFFFFFFFFFFFE3
:1051E800FFFFFFFFFFFFFFFFFFFFFFFFFFFFFFFFC7
:1051F800FFFFFFFFFFFFFFFFFFFFFFFFFFFFFFFFB7
:10520800FFFFFFFFFFFFFFFFFFFFFFFFFFFFFFFFA6
:10521800FFFFFFFFFFFFFFFFFFFFFFFFFFFFFFFF96
:10522800FFFFFFFFFFFFFFFFFFFFFFFFFFFFFFFF86
:105238009EFFA7E96DF3DBFE9AFED7FDF7FDF8FDAB
:10524800F8FDF8FDF8FDF8FDF8FDF8FDF8FDF8FDAE
:10525800F8FDF8FDF8FDF8FDF8FDF8FDF8FDF8FD9E
:10526800F8FDF8FDF8FDF8FDF8FDF8FDF8FDF8FD8E
:10527800F8FDF8FDF8FDF8FDF8FDF8FDF8FDF8FD7E
:10528800F8FDF8FDF8FDF8FDF8FDF8FDF7FDD7FD90
:105298007AFEFBFE4DF365E9FFFFFFFFFFFFFFFF0F
:1052A800FFFFFFFFFFFFFFFFFFFFFFFFFFFFFFFF06
:1052B800FFFFFFFFFFFFFFFFFFFFFFFFFFFFFFFFF6
:1052C800FFFFFFFFFFFFFFFFFFFFFFFFFFFFFFFFE6
:1052D800FFFFFFFFFFFFFFFFFFFFFFFFFFFFFFFFD6
:1052E800FFFFFFFFFFFFFFFFFFFFFFFFFFFFFFFFC6
:1052F800FFFF55F586E96DF3F3F4F3F4F3F4F3F4F3
:10530800F3F4F3F4F3F4F3F4F3F4F3F4F3F4F3F45D
:10531800F3F4F3F4F3F4F3F4F3F4F3F4F3F4F3F44D
:10532800F3F4F3F4F3F4F3F4F3F4F3F4F3F4F3F43D
:10533800F3F4F3F4F3F4F3F4F3F4F3F4F3F4F3F42D
:10534800F3F4F3F4F3F4F3F4F3F4F3F4F3F4F3F41D
:10535800F3F48EF3A6E9F4F4FFFFFFFFFFFFFFFF6E
:10536800FFFFFFFFFFFFFFFFFFFFFFFFFFFFFFFF45
:10537800FFFFFFFFFFFFFFFFFFFFFFFFFFFFFFFF35
:10538800FFFFFFFFFFFFFFFFFFFFFFFFFFFFFFFF25
:10539800FFFFFFFFFFFFFFFFFFFFFFFFFFFFFFFF15
:1053A800FFFFFFFFFFFFFFFFFFFFFFFFFFFFFFFF05
:1053B800FFFFFFFF34F58AEA28EA08EA08EA08EA64
:1053C80008EA08EA08EA08EA08EA08EA08EA08EA45
:1053D80008EA08EA08EA08EA08EA08EA08EA08EA35
:1053E80008EA08EA08EA08EA08EA08EA08EA08EA25
:1053F80008EA08EA08EA08EA08EA08EA08EA08EA15
:1054080008EA08EA08EA08EA08EA08EA08EA08EA04
:1054180028EA8AEA75FDFFFFFFFFFFFFFFFFFFFF96
:10542800FFFFFFFFFFFFFFFFFFFFFFFFFFFFFFFF84
:10543800FFFFFFFFFFFFFFFFFFFFFFFFFFFFFFFF74
:10544800FFFFFFFFFFFFFFFFFFFFFFFFFFFFFFFF64
:10545800FFFFFFFFFFFFFFFFFFFFFFFFFFFFFFFF54
:10546800FFFFFFFFFFFFFFFFFFFFFFFFFFFFFFFF44
:10547800FFFFFFFFFFFFDFFFDBFE9AFE9AFE9AFEAB
:105488009AFE9AFE9AFE9AFE9AFE9AFE9AFE9AFE54
:105498009AFE9AFE9AFE9AFE9AFE9AFE9AFE9AFE44
:1054A8009AFE9AFE9AFE9AFE9AFE9AFE9AFE9AFE34
:1054B8009AFE9AFE9AFE9AFE9AFE9AFE9AFE9AFE24
:1054C8009AFE9AFE9AFE9AFE9AFE9AFE9AFE9AFE14
:1054D800BAFEDFFFFFFFFFFFFFFFFFFFFFFFFFFF3A
:1054E800FFFFFFFFFFFFFFFFFFFFFFFFFFFFFFFFC4
:1054F800FFFFFFFFFFFFFFFFFFFFFFFFFFFFFFFFB4
:10550800FFFFFFFFFFFFFFFFFFFFFFFFFFFFFFFFA3
:10551800FFFFFFFFFFFFFFFFFFFFFFFFFFFFFFFF93
:06628800FFFFFFFFFFFF16
:10628E00000020007F000D10038801000295010020
:10629E0003A2010007AF010005BC01000AC90100FD
:1062AE0007E3010001F0010003FD0100030A0200F3
:1062BE00051702000724020002310200033E02000D
:1062CE00024B020003580200056502000472020030
:1062DE00057F0200058C02000599020005A602004A
:1062EE0005B3020005C0020005CD020005DA02006A
:1062FE0002E7020002F4020007010300070E03008A
:10630E00071B03000428030009350300064F030092
:10631E00055C03000669030006760300058303008F
:10632E0005900300069D030006AA030003B70300B1
:10633E0004C4030005D1030004DE030007EB0300D1
:10634E0006F803000705040005120400071F0400E9
:10635E00062C04000539040005460400065304000B
:10636E0005600400096D040005870400059404000F
:10637E0005A1040003AE040003BB040003C804001F
:10638E0007D5040006E2040003EF040005FC040038
:10639E000509050004160500052305000530050056
:1063AE00033D0500054A050005570500016405007B
:1063BE0002710500057E0500018B0500079805009A
:1063CE0005A5050005B2050005BF050005CC0500B5
:1063DE0003D9050004E6050003F3050005000600D9
:1063EE00050D0600071A06000527060005340600EF
:1063FE0004410600044E0600025B06000468060017
:10640E000775060003820600000000000000000071
:10641E000000000000000000020202020202000260
:10642E00000000000505050000000000000000004F
:10643E00000028287E14143F0A0A000000000404FD
:10644E001E05050E14140F04040000000000004683
:10645E0000490029002600900150024802880100E0
:10646E00000000000000060909262911314E000027
:10647E000000010101000000000000000000000407
:10648E0002020101010101020204000001020204E4
:10649E0004040404020201000004150E1504000099
:1064AE0000000000000000000808087F080808002F
:1064BE0000000000000000000000020202010000C7
:1064CE0000000000000700000000000000000000B7
:1064DE000000000002020000000004040402020298
:1064EE0002020101010000000E1111111111110E15
:1064FE000000000000040604040404040E00000062
:10650E0000000E1110080402011F00000000000E12
:10651E0011100C1010110E0000000000080C0A09DA
:10652E001F08080800000000001F01010F101011C5
:10653E000E00000000000C02010F1111110E0000E0
:10654E000000001F100808040402020000000000F2
:10655E000E11110E1111110E00000000000E11117E
:10656E00111E1008060000000000000002020000CC
:10657E0002020000000000000002020000020202FF
:10658E00010000000040300C020C30400000000002
:10659E00000000007F007F000000000000000002ED
:1065AE000C3040300C020000000000070808040206
:1065BE0002000200000000000000007C0082003992
:1065CE0001250125012501F90002003C0000000013
:1065DE0000000C0C1212123F212100000000000FCF
:1065EE0011110F1111110F00000000003C020101EA
:1065FE000101023C00000000000F11212121211198
:10660E000F00000000001F01010F0101011F00001B
:10661E000000001F01011F01010101000000000028
:10662E003C0201013921223C000000000021212101
:10663E003F21212121000000000007020202020278
:10664E00020700000000000E0808080808080700EE
:10665E0000000000110905030305091100000000E8
:10666E0000010101010101010F0000000000636340
:10667E005555494941410000000000232325252995
:10668E0029313100000000001C2241414141221CF1
:10669E0000000000000F1111110F01010100000098
:1066AE0000001C2241414141221C10600000000FDD
:1066BE001111110F09112100000000001E01010E21
:1066CE001010100F00000000001F04040404040446
:1066DE00040000000000212121212121211E0000A3
:1066EE000000001111110A0A0A0404000000000043
:1066FE00000000110111011101AA00AA00AA004414
:10670E000044000000000000000011110A04040AF9
:10671E001111000000000011110A0A040404040003
:10672E00000000001F1008040402011F00000000FA
:10673E000701010101010101010107000001010131
:10674E00020202020204040400000704040404040A
:10675E000404040407000000081422410000000095
:10676E0000000000000000000000000000003F00DC
:10677E000002040000000000000000000000000005
:10678E00000E101E11111E000000000101010F115C
:10679E001111110F000000000000000E0101010197
:1067AE000E000000001010101E111111111E00001D
:1067BE0000000000000E111F01110E000000000667
:1067CE000101070101010101000000000000001E8F
:1067DE00111111111E100E00000101010F111111E6
:1067EE001111000000000001000101010101010072
:1067FE000000000002000302020202020201000079
:10680E000101010905030509110000000001010144
:10681E00010101010101000000000000003749499B
:10682E00494949000000000000000F11111111111B
:10683E00000000000000000E111111110E000000EA
:10684E00000000000F111111110F010100000000D6
:10685E00001E111111111E10100000000000050382
:10686E0001010101000000000000000E01030C08F0
:10687E0007000000000001010701010101060000F0
:10688E00000000000011111111111E000000000087
:10689E00000011110A0A0404000000000000004963
:1068AE00495555222200000000000000110A040480
:1068BE000A110000000000000011110A0A0404026F
:1068CE000200000000000F080402010F000000008B
:1068DE000804040404030404040408000002020271
:1068EE000202020202020202000001020202020C75
:1068FE0002020202010000000000004649310000C1
:0F690E000000000000070505050505050700004E
:10692000004C00402000050500000000004C004025
:106930008000050500000000004C004040000505F7
:106940000000000000000000000000000000000047
:106950000000000000000000000000000000000037
:106960000000000000000000000000000000000027
:106970000000000000000000000000000000000017
:106980000000000000000000000000000000000007
:1069900000000000000000000000000000000000F7
:1069A00000000000000000000000000000000000E7
:1069B00000000000000000000000000000000000D7
:1069C00000000000000000000000000000000000C7
:1069D00000000000000000000000000000000000B7
:1069E00000000000000000000000000000000000A7
:0C69F00000000000000000000300000098
:1069FC007112000065120000350E0000290E000017
:106A0C001D0E0000590E00004D0E0000410E00003E
:106A1C00DD12000049130000551300003113000073
:106A2C00FFFFFFFFFFFFFFFFFFFFFFFFFFFFFFFF6A
:106A3C00FFFFFFFFFFFFFFFFFFFFFFFFFFFFFFFF5A
:106A4C00FFFFFFFFFFFFFFFFFFFFFFFFFFFFFFFF4A
:106A5C0048656C6C6F2C00746869732069732074C2
:086A6C0068652064656D6F0090
:106A7400666F72204F4C4544204320636C69636BFE
:066A840000106F005F121C
:026A8A00B13227
:026A8C005F8029
:026A8E002005E1
:026A9000F132E1
:026A920001CF32
:066A94008A518AA0B555ED
:106A9C00000800000400000080000000002000003E
:0C6AAC000000000000400000000000009E
:00000001FF
