:10000000FCFF0220051E0000BD1D0000BD1D0000FC
:10001000BD1D0000BD1D0000BD1D0000BD1D000078
:10002000BD1D0000BD1D0000BD1D0000BD1D000068
:10003000BD1D0000BD1D0000BD1D0000BD1D000058
:10004000BD1D0000BD1D0000BD1D0000BD1D000048
:10005000BD1D0000BD1D0000BD1D0000BD1D000038
:10006000BD1D0000BD1D0000BD1D0000BD1D000028
:10007000BD1D0000BD1D0000BD1D0000BD1D000018
:10008000BD1D0000BD1D0000BD1D0000BD1D000008
:10009000BD1D0000BD1D0000BD1D0000BD1D0000F8
:1000A000BD1D0000BD1D0000BD1D0000BD1D0000E8
:1000B000BD1D0000BD1D0000BD1D0000BD1D0000D8
:1000C000BD1D0000BD1D0000BD1D0000BD1D0000C8
:1000D000BD1D0000BD1D0000BD1D0000BD1D0000B8
:1000E000BD1D0000BD1D0000BD1D0000BD1D0000A8
:1000F000BD1D0000BD1D0000BD1D0000BD1D000098
:10010000BD1D0000BD1D0000BD1D0000BD1D000087
:10011000BD1D0000BD1D0000BD1D0000BD1D000077
:10012000BD1D0000BD1D0000BD1D0000BD1D000067
:10013000BD1D0000BD1D0000BD1D0000BD1D000057
:10014000BD1D0000BD1D0000BD1D0000BD1D000047
:10015000BD1D0000BD1D0000BD1D0000BD1D000037
:10016000BD1D0000BD1D0000BD1D0000BD1D000027
:10017000BD1D0000BD1D0000BD1D0000BD1D000017
:10018000BD1D0000BD1D0000BD1D0000BD1D000007
:08019000BD1D0000BD1D0000B3
:101E040000F010F8FFF7DCFF05F0E4FAFFF7EEFF4F
:101E140005F0A0FAFFF780FFFFF742FFFFF76EFE21
:041E2400FCE7FEE7F2
:101C900081B01CF8019B0BF8019BBBEB0A0FF8D13C
:041CA00001B07047D8
:101D800081B04FF000094FF0000CBDEB0A0F04DCEE
:101D9000BDEB0B0F01DBD446EA464BF8049BBBEBD3
:101DA0000A0FFAD1BCEB0A0F05DDE246D9F800B004
:0A1DB0000BF1040BF1E701B07047DE
:101D1C0081B0CDF800E0002207210020FFF7ACFDD8
:101D2C00002201210020FFF7A7FD00220021002046
:101D3C00FFF7A2FD002202210020FFF79DFD0022EB
:101D4C0006210020FFF798FD094801460020FFF707
:101D5C0083FE40F6FE07C0F23D0700BF00BF7F1EAA
:101D6C00FDD100BF00BF00BFDDF800E001B070473F
:041D7C0050730000A0
:1018840081B0CDF800E05FFA81F85FFA82F916E0E2
:101894005FFA89F15FFA88F0FFF77CFE16E05FFAE1
:1018A40089F15FFA88F0FFF791FD0FE05FFA89F1A3
:1018B4005FFA88F0FFF7A6FC08E0012006E00028A4
:1018C400E6D00128EBD00228F0D0F6E7DDF800E0FE
:0418D40001B07047A8
:1015980081B0CDF800E0A9E0012905D14FF00401A0
:1015A8006548FFF731FA04E04FF004016348FFF79C
:1015B800B1FABBE0012905D14FF400615E48FFF79D
:1015C80023FA04E04FF400615C48FFF7A3FAADE0AA
:1015D800012905D14FF010015948FFF715FA04E029
:1015E8004FF010015748FFF795FA9FE0012905D100
:1015F8004FF020015248FFF707FA04E04FF02001AE
:101608005048FFF787FA91E0012905D14FF0800192
:101618004B48FFF7F9F904E04FF080014948FFF71C
:1016280079FA83E0012905D14FF040014448FFF7DA
:10163800EBF904E04FF040014248FFF76BFA75E020
:10164800012905D14FF480613F48FFF7DDF904E037
:101658004FF480613D48FFF75DFA67E0012905D145
:101668004FF400513448FFF7CFF904E04FF400512C
:101678003248FFF74FFA59E0012905D14FF004012C
:101688003348FFF7C1F904E04FF004013148FFF790
:1016980041FA4BE0012905D14FF008012C48FFF72A
:1016A800B3F904E04FF008012A48FFF733FA3DE0A8
:1016B800012905D14FF480712548FFF7A5F904E009
:1016C8004FF480712348FFF725FA2FE0012905D14F
:1016D8004FF400711E48FFF797F904E04FF40071CA
:1016E8001C48FFF717FA21E0012020E000283FF40A
:1016F80053AF01283FF45EAF02283FF469AF0328D7
:101708003FF474AF04283FF47FAF05283FF48AAF55
:1017180006283FF495AF0728A0D00828ACD00928A0
:10172800B8D00A28C4D00B28D0D0DDE70020DDF8D7
:1017380000E001B0704700BF50F00F4040F00F408C
:1017480090F00F4080F00F4010F00F4000F00F4075
:08175800D0F00F40C0F00F407B
:100A100081B0CDF800E0034AFFF7D0FFDDF800E039
:080A200001B07047040102005F
:1009BC0081B0CDF800E0FFF7D5FDDDF800E001B027
:0209CC00704772
:1005700083B0CDF800E006460C4615463046FFF73E
:100580004DFF40F2FF1306EA0300800900262246D1
:100590002946202E39D24FF0010303FA06F402EA6D
:1005A00004031F46A3422ED104031A4B1C19B300A7
:1005B000E51801952C68184B04EA03032B60174BD0
:1005C00001EA0304019B1B6843EA0404019B1C60CD
:1005D00001F48033B3F5803F15D08401104B1B1913
:1005E0001433029301F400333BB1FC43029B1B68BC
:1005F00003EA0404029B1C6005E0029B1B6843EABB
:100600000704029B1C60761CC3E7DDF800E003B022
:10061000704700BF009004400000FFFFFFFF000094
:0406200000F00F4097
:10041C0081B040F2FF1100EA01018909084600F29F
:10042C0009024FF0010101FA02F20449096841EA9C
:10043C00020202490A6001B0704700BF38800440D4
:100B1C0081B0CDF800E0034AFFF74AFFDDF800E0B2
:080B2C0001B070470401040050
:1013D00081B0CDF800E0A9E0012905D14FF0080166
:1013E0006548FFF715FB04E04FF008016348FFF77D
:1013F00095FBBBE0012905D14FF400215E48FFF7C2
:1014000007FB04E04FF400215C48FFF787FBADE0E9
:10141000012905D14FF008015948FFF7F9FA04E016
:101420004FF008015748FFF779FB9FE0012905D1EC
:101430004FF020015248FFF7EBFA04E04FF0200193
:101440005048FFF76BFB91E0012905D14FF0800177
:101450004B48FFF7DDFA04E04FF080014948FFF701
:101460005DFB83E0012905D14FF040014448FFF7BF
:10147000CFFA04E04FF040014248FFF74FFB75E020
:10148000012905D14FF400613F48FFF7C1FA04E09C
:101490004FF400613D48FFF741FB67E0012905D1AA
:1014A0004FF480713448FFF7B3FA04E04FF48071D1
:1014B0003248FFF733FB59E0012905D14FF4803161
:1014C0002F48FFF7A5FA04E04FF480312D48FFF7CD
:1014D00025FB4BE0012905D14FF400312848FFF7E7
:1014E00097FA04E04FF400312648FFF717FB3DE080
:1014F000012905D14FF480712548FFF789FA04E0EE
:101500004FF480712348FFF709FB2FE0012905D133
:101510004FF400711E48FFF77BFA04E04FF40071AE
:101520001C48FFF7FBFA21E0012020E000283FF4EF
:1015300053AF01283FF45EAF02283FF469AF0328A0
:101540003FF474AF04283FF47FAF05283FF48AAF1F
:1015500006283FF495AF0728A0D00828ACD009286A
:10156000B8D00A28C4D00B28D0D0DDE70020DDF8A1
:1015700000E001B0704700BF50F00F4040F00F4056
:1015800090F00F4080F00F4010F00F4000F00F403F
:08159000D0F00F40C0F00F4045
:1012080081B0CDF800E0A9E0012905D14FF04001F7
:101218006548FFF7F9FB04E04FF040016348FFF72A
:1012280079FCBBE0012905D14FF480615E48FFF7E6
:10123800EBFB04E04FF480615C48FFF76BFCADE02A
:10124800012905D14FF004015948FFF7DDFB04E0FF
:101258004FF004015748FFF75DFC9FE0012905D1D5
:101268004FF020015248FFF7CFFB04E04FF0200178
:101278005048FFF74FFC91E0012905D14FF080015C
:101288004B48FFF7C1FB04E04FF080014948FFF7E6
:1012980041FC83E0012905D14FF040014448FFF7A4
:1012A800B3FB04E04FF040014248FFF733FC75E020
:1012B800012905D14FF010013F48FFF7A5FB04E0D5
:1012C8004FF010013D48FFF725FC67E0012905D1E3
:1012D8004FF080013448FFF797FB04E04FF080019E
:1012E8003248FFF717FC59E0012905D14FF4803146
:1012F8002F48FFF789FB04E04FF480312D48FFF7B2
:1013080009FC4BE0012905D14FF400312848FFF7CB
:101318007BFB04E04FF400312648FFF7FBFB3DE080
:10132800012905D14FF480712548FFF76DFB04E0D2
:101338004FF480712348FFF7EDFB2FE0012905D119
:101348004FF400711E48FFF75FFB04E04FF4007193
:101358001C48FFF7DFFB21E0012020E000283FF4D4
:1013680053AF01283FF45EAF02283FF469AF03286A
:101378003FF474AF04283FF47FAF05283FF48AAFE9
:1013880006283FF495AF0728A0D00828ACD0092834
:10139800B8D00A28C4D00B28D0D0DDE70020DDF86B
:1013A80000E001B0704700BF50F00F4040F00F4020
:1013B80090F00F4080F00F4010F00F4000F00F4009
:0813C800D0F00F40C0F00F400F
:101A640081B0CDF800E00DE00846FFF79BFE10E0E2
:101A74000846FFF785FE0CE00846FFF76FFE08E016
:101A8400012006E00028EFD00128F1D00228F3D08D
:0A1A9400F6E7DDF800E001B070474E
:1017A80081B0CDF800E0011D0A68016808461146BD
:1017B800034AFFF745FA0020DDF800E001B0704762
:0417C800EC710000C0
:100C480081B0CDF800E003460C4615460648FFF78C
:100C58007BFE224619462B460348FFF7FBFDDDF8CD
:0C0C680000E001B0704700BF00C0024077
:1009500081B00F49884206D10E4A0F490A600F4AFA
:100960000F490A6012E00F49884206D10E4A0A492F
:100970000A600E4A0A490A6008E00D49884205D11A
:100980000C4A05490A600C4A05490A6001B07047E3
:1009900000C002403D0800004400FF1FFFFFFFFFB2
:1009A0004800FF1F00D00240F1090000FFFFFFFFD9
:0C09B00000C00A40D1090000FFFFFFFF5B
:10085C0084B0CDF800E0039101461046019002915E
:10086C001846FFF759FE0299019800F0100424096C
:10087C002346019002910846FFF7B6FF02990291B8
:10088C000846FFF77DFF0299019800F000450C68BF
:10089C002C430C6000F080450C682C430C600C68F9
:1008AC0044F440540C600D686FF4804405EA040471
:1008BC000C6001F20C059C002E1900F00F05346839
:1008CC002C43346001F20C059C002E1900F080655D
:1008DC0034682C43346001F20C059C002E1900F096
:1008EC00007534682C43346001F20C059C002E1901
:1008FC0000F0807534682C43346001F20C059C00C8
:10090C002E1935686FF0F04405EA0404346001F2E6
:10091C000C059C002E1900F00F04E50634682C43DE
:10092C0034600191039A0846D9B2FFF78BFE019906
:10093C000D686FF0010405EA04040C60DDF800E0BA
:04094C0004B070473C
:1005240081B0CDF800E040F2000C83464FEA8C0124
:100534000BEB01010968B1F1FF3F12D00BF134015B
:100544004FEA8C03C91809680A460BEB03010968D2
:1005540008461146FFF778FF0CF1010C1FFA8CFCDA
:0A056400E4E7DDF800E001B07047A5
:10044C0082B0CDF800E080464FEA581202F0070265
:10045C00914608F01F04A24693010D4AD3184FF0A1
:10046C000102A240019218460A46019900F0A0FA36
:10047C004FEA0933074AD3184FEA8A029C1808F44A
:10048C00E06322681A432260DDF800E002B0704796
:08049C0000F00F400090044045
:1007F40081B00B49884203D1012252B209490A60EF
:100804000949884203D1012252B208490A600849C1
:10081400884203D1012252B206490A6001B07047EE
:1008240000C00240B007904200D00240B40790429A
:0808340000C00A4030069042AA
:10078C0081B002686FF4804102EA010101600168E6
:10079C0041F00101016000F22C021149116000F2DC
:1007AC0008020021116000F20C024FF0F0411160C0
:1007BC0000F210024FF0F041116000F23002002103
:1007CC00116000F2340200211160016841F44061B3
:1007DC0001600268034942EA0101016001B07047FF
:0807EC0000000A9A0140000020
:1006500091B0CDF800E00F9010468DF840100E904C
:1006600001AB1846FFF71EFF4FF0FF330D93002339
:1006700006930023089301230A9300230B9300237E
:100680000593059B042B41D20D9B002B3ED00023EC
:100690000793079B102B35D20D9B002B32D00123E3
:1006A0000993099B032B29D20D9B3BB3099C029B09
:1006B00003FB04F6059B9C00314B1B191D68079B2F
:1006C0009C00304B1B191B686B43B6FBF3F42046B0
:1006D0000E9BA3420ED30E9B1C1A0C940D9BA3429F
:1006E00008D90C9B0D93059B0693079B08930B90D1
:1006F000099B0A93099B5B1C0993D2E7079B5B1C30
:100700000793C6E7059B5B1C0593BAE70F9B03F2B3
:100710000C049DF840309B00E5182C681A4B04EA45
:1007200003032B600F9B03F20C049DF840309B00E9
:10073000E5180A9B5B1EDC072B6823432B600F9B8D
:1007400003F20C049DF840309B00E518069B1B0447
:1007500003F440342B6823432B600F9B03F20C04FB
:100760009DF840309B00E518089B03F00F042B68B0
:1007700023432B600B98DDF800E011B0704700BFF9
:0C07800038730000B8720000F0FFFC7F2E
:1004A40081B0CDF800E00446FFF7B0FF40F2E83138
:1004B40000FB01F3194909680A0F1849096801F09A
:1004C4007061090EC8B21549096801F47001090D7B
:1004D400CDB21249096801F47021090CCEB2D1B22F
:1004E400491C09B259430F462360221D411C09B21D
:1004F400B7FBF1F1116004F20802691C09B2B7FB01
:10050400F1F1116004F20C02711C09B2B7FBF1F1B4
:100514001160DDF800E001B0704700BF4480044082
:0C04100001480068704700BF4000FF1F5B
:1017840081B0CDF800E0011D0A68016808461146E1
:10179400034AFFF757FA0020DDF800E001B0704774
:0417A400EC710000E4
:1017600081B0CDF800E0011D0A6801680846114605
:10177000034AFFF769FA0020DDF800E001B0704786
:04178000EC71000008
:101CA40081B0CDF800E016491648FFF7F7FEFFF7BC
:101CB4005DFE4FF6FF70FFF797F8002200211248EF
:101CC400FFF72AFE11480A220F21FFF703FE1048EE
:101CD4001E220521FFF7FEFD0E482D220521FFF7E8
:101CE400F9FD45F6FE17C0F2622700BF00BF7F1E54
:101CF400FDD100BF00BF00BFDDF800E001B07047B8
:101D040048730000587200005A6B00000000FF1F67
:081D14000700FF1F1800FF1F6C
:101AA00081B0CDF800E003460846FFF771FB184609
:101AB000FFF74CFB0120054C2468A0470120044C93
:101AC0002468A047DDF800E001B070475C00FF1F0C
:041AD0006000FF1F94
:0C11D80001490860704700BF0808FE4392
:0C11CC0001490860704700BF2C08FE437A
:0C11C00001490860704700BF1010FE439A
:0C11FC0001490860704700BF1410FE435A
:0C11F00001490860704700BF1C10FE435E
:0C11E40001490860704700BF1810FE436E
:0C17CC0001490860704700BF2800FE4380
:0C18440001490860704700BF3408FE43F3
:0C18500001490860704700BF0818FE4303
:0C182C0001490860704700BF0C18FE4323
:0C18380001490860704700BF2018FE4303
:0C185C0001490860704700BF2418FE43DB
:0C18200001490860704700BF0C08FE433F
:0C17F00001490860704700BF4C08FE4330
:0C17E40001490860704700BF0C10FE4374
:0C17D80001490860704700BF1410FE4378
:0C18140001490860704700BF1C10FE4333
:0C18080001490860704700BF1810FE4343
:0C17FC0001490860704700BF2C00FE434C
:0C11B40001490860704700BF2008FE439E
:0C0D100001490860704700BF4010FE431E
:0C0D040001490860704700BF4410FE4326
:0C0CF80001490860704700BF2018FE434F
:0C0D340001490860704700BF2418FE430E
:0C0D280001490860704700BF1808FE4336
:0C0D1C0001490860704700BF2808FE4332
:0C0CB00001490860704700BF0810FE43B7
:0C0CBC0001490860704700BF1410FE439F
:0C0CE00001490860704700BF1C10FE4373
:0C0CEC0001490860704700BF1810FE436B
:0C0CD40001490860704700BF1000FE439B
:0C0CC80001490860704700BF1C08FE4393
:0C11400001490860704700BF4010FE43EA
:0C11340001490860704700BF4410FE43F2
:0C11280001490860704700BF2018FE431A
:0C11A80001490860704700BF2418FE4396
:10119000026803490A60011D0A6802490A60704733
:0811A0007000FF1F7400FF1F27
:10114C0002680B490A6000F208010A6809490A6042
:10115C00011D0A6808490A6000F218010A6807496B
:10116C000A6000F21C010A6805490A60704700BF5A
:10117C006800FF1F5C00FF1F6C00FF1F6000FF1F5B
:04118C006400FF1FDD
:1019700081B0CDF800E00120FFF72CFAFFF70EFA56
:1019800001222B49FD20FFF7DBF901222949FD2027
:10199000FFF7D6F900220021AE20FFF7D1F901228E
:1019A0002549A020FFF7CCF901222449CA20FFF7DE
:1019B000C7F901222249A120FFF7C2F901222149DA
:1019C000A220FFF7BDF901221F49BE20FFF7B8F999
:1019D00001221E49B320FFF7B3F901221C49B120AF
:1019E000FFF7AEF901221B49B620FFF7A9F9012242
:1019F0001949C720FFF7A4F903221849C120FFF7AE
:101A00009FF903221649B420FFF79AF9002200211A
:101A1000A620FFF795F900220021AF20FFF790F9EB
:101A20000020FFF7E3F9DDF800E001B0704700BFE8
:101A30002D00FF1F2E00FF1F2F00FF1F3000FF1F74
:101A40003100FF1F3200FF1F3300FF1F3400FF1F54
:101A50003500FF1F3600FF1F3700FF1F3800FF1F34
:041A60003B00FF1F29
:100DD40081B0CDF800E0034C2468A047DDF800E0C2
:080DE40001B070476400FF1F1D
:100D9C0081B0CDF800E001200A4C2468A047FFF791
:100DAC00ABFE0020074C2468A047FFF7A5FE0120EE
:100DBC00044C2468A047FFF793FEDDF800E001B077
:080DCC00704700BF6C00FF1F1F
:100B040049F63E47C0F2000700BF00BF7F1EFDD17B
:080B140000BF00BF00BF7047E5
:100AEC0040F6FE07C0F23D0700BF00BF7F1EFDD1E0
:080AFC0000BF00BF00BF7047FE
:100D400084B0CDF800E08DF808000846ADF80C201E
:100D5000019000200F4C2468A04700200E4C24680E
:100D6000A04702AB01211846FFF784FF01200A4C7F
:100D70002468A047BDF80C3023B1BDF80C100198D1
:100D8000FFF778FF0120034C2468A047DDF800E05E
:0C0D900004B070475C00FF1F6000FF1FF4
:100C740083B0CDF800E08AB2014690B283B2421E3E
:100C840090B26BB10A78D4B2ADF804000291A0B26C
:100C9400054C2468A0470299BDF80400491CEDE7FF
:0C0CA400DDF800E003B070477000FF1F97
:10083C0081B0CDF800E082B24FF080610348FFF741
:10084C00EBFEDDF800E001B0704700BF00C00240D5
:1006240081B000F22C044FF00043236000F2340444
:1006340093B241EA0303236000F22C031C68C4F361
:0A064400C07303B9F8E701B0704776
:1009F00081B0CDF800E082B24FF080610348FFF78C
:100A000011FEDDF800E001B0704700BF00D00240E9
:1009D00081B0CDF800E082B24FF080610348FFF7AC
:1009E00021FEDDF800E001B0704700BF00C00A4002
:100DEC0081B0CDF800E001B4602360220021002026
:0E0DFC00FFF79AFE01B0DDF800E001B070478D
:100B340083B0CDF800E0DEB2D3B2CAB2C1B2BDF820
:100B44000C005C248DF806405D1A2DB2B41A24B250
:100B54006C43ADF8044000248DF8074000248DF860
:100B64000840602902D8602B00D800E059E0602AD0
:100B740002D8602E00D800E053E08B4202D39642A4
:100B840000D300E04DE001F21005284C257003F27B
:100B9400100424B2651E264C2570D5B2254C257050
:100BA400F4B2651E244C25700DF10706050AADB29A
:100BB40034782C433470761C00F0FF05ADB23478E1
:100BC4002C43347002221949152000F0B7F8022290
:100BD4001849752000F0B2F80020184C2468A0478A
:100BE4000020174C2468A0470DF10604012120467B
:100BF40000F03EF80120124C2468A047BDF80450D0
:100C0400BDF80440641EADF8044035B10DF107048D
:100C14000221204600F02CF8F0E70120074C24685C
:100C2400A047DDF800E003B0704700BF2900FF1FB4
:100C34002A00FF1F2B00FF1F2C00FF1F5C00FF1F5B
:040C44006000FF1F2E
:10191C000E4B1860831C1C78C31C1B781B029BB2DB
:10192C00E4180B4B1C80031D1C78431D1B781B02F9
:10193C009BB2E418074B1C80831D1C78064B1C8043
:10194C00064B1980064B1A70704700BF5000FF1FE2
:10195C003E00FF1F4C00FF1F5600FF1F5A00FF1FC9
:04196C004E00FF1F0B
:1018D80082B0CDF800E003461846602902D2602A9B
:1018E80000D200E00DE0094B1980094B1A800378FB
:1018F8003BB10378019098B2FFF784FA0198401C35
:10190800F5E7DDF800E002B0704700BF5800FF1FA0
:041918005400FF1F59
:100E0C0085B0CDF800E040F20001ADF810100021E3
:100E1C008DF812106E490988884200D2D3E06D49D2
:100E2C000988884200D9CEE069490988411A89B2FB
:100E3C008A0092B2684C216808318B1819788DF8A9
:100E4C001310591C0978CAB2991C09780902521856
:100E5C00D91C09780904521821460968891803918C
:100E6C005E49097821B15D490978022900D058E022
:100E7C005B490B8800225B4909888A4245D25A4952
:100E8C000988ADF81010002700218DF80810D0B299
:100E9C009DF813209DF80810914231D24FB9039957
:100EAC0009788DF812100399491C03910127FAB2A5
:100EBC0000E0FAB29DF812101140C9B299B14B4939
:100ECC0009888DF804208DF80500ADF806308AB23B
:100EDC00D9B2BDF81000FFF7A1FDBDF806309DF8A2
:100EEC0005009DF80420BDF81010491CADF8101039
:100EFC005100CFB29DF80810491C8DF80810C7E7B7
:100F0C005B1C9BB2411CCAB2B5E73449097829B9BC
:100F1C00BDF810104A1C34490A8001E030490B809E
:100F2C0051E031490B8800222E4909888A4245D26A
:100F3C002B490988ADF81010002700218DF80810F6
:100F4C00D0B29DF813209DF80810914231D24FB9C0
:100F5C00039909788DF812100399491C0391012704
:100F6C00FAB200E0FAB29DF812101140C9B299B170
:100F7C001E4909888DF804208DF80500ADF806305F
:100F8C008AB2BDF81010D8B2FFF748FDBDF8063094
:100F9C009DF805009DF80420BDF81010491EADF811
:100FAC0010105100CFB29DF80810491C8DF8081094
:100FBC00C7E75B1C9BB2421CD2B2B5E7BDF8101060
:100FCC004A1E07490A80DDF800E005B0704700BFF3
:100FDC003E00FF1F4C00FF1F5000FF1F4E00FF1F65
:100FEC005400FF1F5600FF1F5800FF1F5A00FF1F21
:100A280082B0CDF800E05C238DF8043000238DF807
:100A3800053000238DF80630602802D8602900D8D8
:100A480000E03EE000F21004204B1C70204B1C70AC
:100A5800CCB2204B1C70CCB21F4B1C700DF105059D
:100A6800140AA4B22B7823432B706D1C02F0FF04E8
:100A7800A4B22B7823432B7002221449152000F0CE
:100A88005BF902221349752000F056F90020134C37
:100A98002468A0470020124C2468A04701AB01211C
:100AA800184600F0E3F801200D4C2468A0470DF12A
:100AB80005030221184600F0D9F80120074C2468E4
:100AC800A047DDF800E002B0704700BF2900FF1F13
:100AD8002A00FF1F2B00FF1F2C00FF1F5C00FF1FB9
:040AE8006000FF1F8C
:101B000081B0CDF800E04FF6FF70FFF76FF9FEF7F8
:101B1000EDFF4FF2000001B460236022002100209D
:101B2000FFF7A2FE01B042F6FE47C0F2311700BF38
:101B300000BF7F1EFDD100BF00BF00BF4FF6007089
:101B400001B45B235B2205210520FFF78DFE01B068
:101B500042F6FE47C0F2311700BF00BF7F1EFDD125
:101B600000BF00BF00BFF02001B4562356220A2157
:101B70000A20FFF779FE01B042F6FE47C0F23117A6
:101B800000BF00BF7F1EFDD100BF00BF00BF40F6F9
:101B90000F7001B4512351220F210F20FFF764FE73
:101BA00001B042F6FE47C0F2311700BF00BF7F1EF2
:101BB000FDD100BF00BF00BF4FF2000001B44C23B5
:101BC0004C2214211420FFF74FFE01B042F6FE47CD
:101BD000C0F2311700BF00BF7F1EFDD100BF00BFA4
:101BE00000BF4FF6007001B4472347221921192086
:101BF000FFF73AFE01B0FEF779FF002001B41B2386
:101C0000472219211920FFF72FFE01B0FEF76EFFC2
:101C1000002001B44923472247211920FFF724FE61
:101C200001B0FEF763FF002001B447231B221921F6
:101C30001920FFF719FE01B0FEF758FF002001B48C
:101C40004723472219214420FFF70EFE01B040F63A
:101C5000FE57C0F2277700BF00BF7F1EFDD100BF37
:101C600000BF00BF002200210848FFF733FF4BF2FE
:101C7000FE37C0F2C44700BF00BF7F1EFDD100BFCA
:101C800000BF00BFDDF800E001B070475423000042
:1018680081B0CDF800E0BDF80450ACB210B4FFF779
:0C1878005DF901B0DDF800E001B0704740
:101AD40081B0CDF800E00546031D1B78D418831CA3
:101AE4001B78CB18C8B2D1B2DAB2E3B220B4FFF794
:0C1AF40083FA01B0DDF800E001B070479B
:100FFC0085B0CDF800E0059E40F20004ADF80C4041
:10100C005C248DF80E4000248DF80F4000248DF8E0
:10101C001040151A2DB25C1A24B26C43ADF8044082
:10102C00B41D0294602802D8602A00D800E065E064
:10103C00602902D8602B00D800E05FE0824202D326
:10104C008B4200D300E059E000F210052D4C2570C6
:10105C0002F2100424B2651E2B4C2570CDB22B4C21
:10106C002570DCB2651E2A4C2570022225491520FC
:10107C00FFF760FE022225497520FFF75BFE00207A
:10108C00244C2468A0470020234C2468A0470DF171
:10109C000E0401212046FFF7E7FD01201E4C2468B9
:1010AC00A047BDF80450BDF80440641EADF80440E0
:1010BC0005B3BDF80C40651CADB2029C64192478D4
:1010CC008DF80F40BDF80C50029C641924788DF8F3
:1010DC0010400DF10F0401212046FFF7C5FD04ACB3
:1010EC0001212046FFF7C0FDBDF80C40A41CADF853
:1010FC000C40D6E70120074C2468A047DDF800E03F
:10110C0005B070472900FF1F2A00FF1F2B00FF1F8F
:0C111C002C00FF1F5C00FF1F6000FF1F85
:101E280090B072B6974801909748029097480390EF
:101E380097480490974805909748069097480790C8
:101E4800974808909748099097480A9097480B90A8
:101E580097480C90974998480D9098480E900D987F
:101E680000F007000F9001F0010050B94CF220502B
:101E7800934908804DF62810088040F2D211914805
:101E880001809148007800F0010050B18F48007837
:101E980000F0080020B18D49087840F0080008706B
:101EA80021E08B48006840F000518948016089486A
:101EB800006800F48070B0B9864801686FF470500B
:101EC80001EA000040F440718248016081480068DE
:101ED80040F480717F4801607E4801686FF40070AB
:101EE80001407C480160AA217B4801700D9800F0F0
:101EF800100060B9794801786FF0600001407748B8
:101F0800017077480078012800D0FAE71CE00D98A6
:101F180000F01000C0B10E997248814208D96021C2
:101F28006E4801706E480078802800D0FAE70BE010
:101F38006A4801786FF0600001406848017068489D
:101F48000078012800D0FAE70499674801606748DB
:101F580001686FF440200140029800F440200143DA
:101F680062480160624801686FF44030014003989C
:101F780000F4403001435E4801600F9830B10F987B
:101F8800012803D00F98022800D061E0019800F0E2
:101F9800800050B9089800F0400028B10B9800F074
:101FA8000300002800D100E015E05248006840F422
:101FB80000715048016050480168504801404E483F
:101FC8000160069800F0040028B14D4801684B48AC
:101FD80001404B4801600A994A48017005994A48EE
:101FE8000170059800F0040038B14848007800F006
:101FF8001000002800D1F8E705E04448007800F018
:10200800100000B1F9E74248007800F0BF01C9B2FA
:10201800069800F0FD0001433D480170079800F064
:10202800E0013C48007800F01F0001433948017086
:102038000199394801700B99384801700F980228A6
:1020480005D13348007840F0020131480170B8E00A
:10205800019800F0800020B90B9800F0030000B14F
:1020680065E02448006840F4007122480160224875
:1020780001682248014020480160069800F00400E9
:1020880000F04EB80000000000000C000000010045
:1020980000001401220000002400000000000000DD
:1020A80002000000460000000000000000000000E0
:1020B800000000000000000007000000C0D401007C
:1020C8000E2005400020054000F0074002D00740E0
:1020D8003C80044010D0034000E0074001E0074086
:1020E80003E0074080380100448004400070044049
:1020F800048004403880044048900440FFF8FFFE04
:102108004C90044008400640004006400640064007
:102118000140064003400640005006400C4006407F
:1021280028B17A4801687A480140784801600A99DC
:10213800784801707848007800F0BF01C9B2069865
:1021480000F0FD0001437448017001997348017063
:102158000B99734801700F98072805D1059840F02E
:1021680080017048017002E005996E480170069878
:1021780000F0040048B10B9800F0030028B96A4841
:10218800007800F0020000B9F9E7059800F00400B3
:1021980038B16548007800F01000002800D1F8E751
:1021A80005E06148007800F0100000B1F9E70798F1
:1021B80000F0E0015D48007800F01F0001435B4833
:1021C8000170089800F0BF0159480170099800F0A3
:1021D800BF0158480170089800F0400028B15448E1
:1021E800007840F04001524801700F98052806D148
:1021F8004948007840F00201474801701BE00F98F9
:10220800062803D00F98072800D014E04948007822
:1022180040F04001474801704348007800F0400012
:1022280000B9F9E70F98072805D13E48007800F073
:102238003F013C4801700F9818B10F98032800D04F
:102248002CE03948007800F00C0000B1F9E73A4872
:10225800006840F00101384801604FF0000137483C
:1022680001604FF08001364801604FF005013548A4
:1022780001604FF00101324801603148006800F008
:10228800800000B9F9E700212D4801602A4801685B
:102298006FF001000140284801602AE00F980128EA
:1022A80003D00F98022800D007E01F48007800F0FC
:1022B8000C00042800D0F8E71BE00F98042806D08B
:1022C8000F98062803D00F98052800D007E0164875
:1022D800007800F00C00082800D0F8E709E00F9813
:1022E800072806D11048007800F00C000C2800D010
:1022F800F8E7154801686FF00F0001400C9800F0EE
:102308000F0001431048016010B070474C90044022
:10231800FFF8FFFE08400640014006400050064016
:102328000C40064000400640064006400340064078
:102338000440064005400640388004400800044038
:0C234800000004400400044048800440F1
:101DF00081B002490248016001B07047C0D40100BF
:041E00004000FF1F80
:081DBC0081B0FEE701B07047A1
:101DC40081B072B60849086840F47000086000BF2A
:101DD40000BF00BF00BFF1EE100A40F44000E1EE86
:0C1DE400100A62B601B0704788ED00E004
:1073580000B5DFF814B0DFF814A0DFF814C0FAF7AE
:1073680093FC00BD704700BF0000FF1F3E00FF1FD9
:04737800F8720000A7
:1073D80000B5DFF810B0DFF810A0FAF7CDFC00BD5B
:0C73E800704700BF0000FF1F7800FF1F6F
:100400000000000000000000FFFFFFFF02FDFFFFF3
:10235400001060006000FFFFFFFFFFFFFFFFFFFFB3
:10236400FFFFFFFFFFFFFFFFFFFFFFFFFFFFFFFF79
:10237400FFFFFFFFFFFFFFFFFFFFFFFFFFFFFFFF69
:10238400FFFFFFFFFFFFFFFFFFFFFFFFFFFFFFFF59
:10239400FFFFFFFFFFFFFFFFFFFFFFFFFFFFFFFF49
:102F8400FFFFFFFFFFFFFFFF5DFF3CFF3CFF3CFF38
:102F94003CFF3CFF3CFF3CFF3CFF3CFF3CFF3CFF55
:102FA4003CFF3CFF3CFF3CFF3CFF3CFF3CFF3CFF45
:102FB4003CFF3CFF3CFF3CFF3CFF3CFF3CFF3CFF35
:102FC4003CFF3CFF3CFF3CFF3CFF3CFF3CFF3CFF25
:102FD4003CFF3CFF3CFF3CFF3CFF3CFF3CFF3CFF15
:102FE4005DFFFFFFFFFFFFFFFFFFFFFFFFFFFFFF8F
:102FF400FFFFFFFFFFFFFFFFFFFFFFFFFFFFFFFFDD
:10300400FFFFFFFFFFFFFFFFFFFFFFFFFFFFFFFFCC
:10301400FFFFFFFFFFFFFFFFFFFFFFFFFFFFFFFFBC
:10302400FFFFFFFFFFFFFFFFFFFFFFFFFFFFFFFFAC
:10303400FFFFFFFFFFFFFFFFFFFFFFFFFFFFFFFF9C
:10304400FFFFFFFF79FED3F4EFF3CFF3CFF3CFF31A
:10305400CFF3CFF3CFF3CFF3CFF3CFF3CFF3CFF35C
:10306400CFF3CFF3CFF3CFF3CFF3CFF3CFF3CFF34C
:10307400CFF3CFF3CFF3CFF3CFF3CFF3CFF3CFF33C
:10308400CFF3CFF3CFF3CFF3CFF3CFF3CFF3CFF32C
:10309400CFF3CFF3CFF3CFF3CFF3CFF3CFF3CFF31C
:1030A400EFF3D3F4BAFEFFFFFFFFFFFFFFFFFFFFC5
:1030B400FFFFFFFFFFFFFFFFFFFFFFFFFFFFFFFF1C
:1030C400FFFFFFFFFFFFFFFFFFFFFFFFFFFFFFFF0C
:1030D400FFFFFFFFFFFFFFFFFFFFFFFFFFFFFFFFFC
:1030E400FFFFFFFFFFFFFFFFFFFFFFFFFFFFFFFFEC
:1030F400FFFFFFFFFFFFFFFFFFFFFFFFFFFFFFFFDC
:10310400FFFF9AFECBF2E7E9CBEACBEACBEACBEAC4
:10311400CBEACBEACBEACBEACBEACBEACBEACBEA03
:10312400CBEACBEACBEACBEACBEACBEACBEACBEAF3
:10313400CBEACBEACBEACBEACBEACBEACBEACBEAE3
:10314400CBEACBEACBEACBEACBEACBEACBEACBEAD3
:10315400CBEACBEACBEACBEACBEACBEACBEACBEAC3
:10316400CBEAE7E90CF359FEFFFFFFFFFFFFFFFF88
:10317400FFFFFFFFFFFFFFFFFFFFFFFFFFFFFFFF5B
:10318400FFFFFFFFFFFFFFFFFFFFFFFFFFFFFFFF4B
:10319400FFFFFFFFFFFFFFFFFFFFFFFFFFFFFFFF3B
:1031A400FFFFFFFFFFFFFFFFFFFFFFFFFFFFFFFF2B
:1031B400FFFFFFFFFFFFFFFFFFFFFFFFFFFFFFFF1B
:1031C400DFFFCBF2A6E9F7FD5DFFFCFE1CFF1CFF51
:1031D4001CFF1CFF1CFF1CFF1CFF1CFF1CFF1CFF13
:1031E4001CFF1CFF1CFF1CFF1CFF1CFF1CFF1CFF03
:1031F4001CFF1CFF1CFF1CFF1CFF1CFF1CFF1CFFF3
:103204001CFF1CFF1CFF1CFF1CFF1CFF1CFF1CFFE2
:103214001CFF1CFF1CFF1CFF1CFF1CFF1CFFFBFEF4
:103224005DFF18FE86E96AF2FFFFFFFFFFFFFFFF65
:10323400FFFFFFFFFFFFFFFFFFFFFFFFFFFFFFFF9A
:10324400FFFFFFFFFFFFFFFFFFFFFFFFFFFFFFFF8A
:10325400FFFFFFFFFFFFFFFFFFFFFFFFFFFFFFFF7A
:10326400FFFFFFFFFFFFFFFFFFFFFFFFFFFFFFFF6A
:10327400FFFFFFFFFFFFFFFFFFFFFFFFFFFFFFFF5A
:10328400FBFE21E818FEFBFEB2F4AFF3EFF3F0F31C
:10329400EFF3EFF3EFF3EFF3EFF3EFF3EFF3F0F319
:1032A400F0F3F0F3F0F3F0F3F0F3F0F3F0F3F0F302
:1032B400F0F3F0F3F0F3EFF3EFF3EFF3F0F3F0F3F5
:1032C400EFF3EFF3EFF3EFF3F0F3F0F3F0F3F0F3E6
:1032D400F0F3F0F3F0F3F0F3F0F3F0F3EFF3AFF314
:1032E400B2F4FCFED7FD41E83CFFFFFFFFFFFFFF08
:1032F400FFFFFFFFFFFFFFFFFFFFFFFFFFFFFFFFDA
:10330400FFFFFFFFFFFFFFFFFFFFFFFFFFFFFFFFC9
:10331400FFFFFFFFFFFFFFFFFFFFFFFFFFFFFFFFB9
:10332400FFFFFFFFFFFFFFFFFFFFFFFFFFFFFFFFA9
:10333400FFFFFFFFFFFFFFFFFFFFFFFFFFFFFFFF99
:10334400F4F482E8FFFF6EF320E821E821E800E8C6
:1033540020E841E841E821E821E820E820E800E805
:1033640021E821E821E821E821E821E821E821E811
:1033740021E821E800E820E841E861E862E882E821
:1033840062E861E841E820E800E821E821E821E872
:1033940021E821E821E821E821E821E821E821E8E1
:1033A40020E88EF3FFFF25E992F4FFFFFFFFFFFF04
:1033B400FFFFFFFFFFFFFFFFFFFFFFFFFFFFFFFF19
:1033C400FFFFFFFFFFFFFFFFFFFFFFFFFFFFFFFF09
:1033D400FFFFFFFFFFFFFFFFFFFFFFFFFFFFFFFFF9
:1033E400FFFFFFFFFFFFFFFFFFFFFFFFFFFFFFFFE9
:1033F400FFFFFFFFFFFFFFFFFFFFFFFFFFFFFFFFD9
:1034040031F486E9FFFF29F262E8E4E8A3E8C3E8BF
:1034140086E9C8E9C7E9A7E9A7E986E945E9E3E850
:1034240083E8C4E8E4E8E4E8E4E8E4E8E4E8C3E8DA
:10343400A3E883E8C3E845E929EAABF2ECF20CF32C
:10344400ECF28AF208EA45E9C3E883E8A3E8C3E8B2
:10345400E4E8E4E8E4E8E4E8E4E8E4E8E4E8E4E808
:1034640062E809F2FFFFC8E910F4FFFFFFFFFFFF66
:10347400FFFFFFFFFFFFFFFFFFFFFFFFFFFFFFFF58
:10348400FFFFFFFFFFFFFFFFFFFFFFFFFFFFFFFF48
:10349400FFFFFFFFFFFFFFFFFFFFFFFFFFFFFFFF38
:1034A400FFFFFFFFFFFFFFFFFFFFFFFFFFFFFFFF28
:1034B400FFFFFFFFFFFFFFFFFFFFFFFFFFFFFFFF18
:1034C40051F466E9FFFF6AF262E882E804E9D7F59D
:1034D400BEFFBEFF9EFF9EFF7EFF7DFF5DFFBAFE27
:1034E4006AEA62E8C4E8E4E8E4E8E4E8A3E861E856
:1034F400A3E8ECF218FE5DFFFFFFFFFFFFFFFFFFF5
:10350400FFFFFFFFDFFF5DFFD7F5ECF2A3E862E802
:10351400A3E8E4E8E4E8E4E8E4E8E4E8E4E8E4E888
:1035240062E84AEAFFFFC7E930F4FFFFFFFFFFFF4D
:10353400FFFFFFFFFFFFFFFFFFFFFFFFFFFFFFFF97
:10354400FFFFFFFFFFFFFFFFFFFFFFFFFFFFFFFF87
:10355400FFFFFFFFFFFFFFFFFFFFFFFFFFFFFFFF77
:10356400FFFFFFFFFFFFFFFFFFFFFFFFFFFFFFFF67
:10357400FFFFFFFFFFFFFFFFFFFFFFFFFFFFFFFF57
:1035840051F466E9FFFF6AF221E8A3E8DBFEFFFFDE
:10359400FFFFFFFFFFFFFFFFFFFFFFFFFFFFFFFF37
:1035A400FFFF29F262E8E4E8E4E842E821E8B3F442
:1035B400DFFFFFFFFFFFFFFFFFFFFFFFFFFFFFFF37
:1035C400FFFFFFFFFFFFFFFFFFFFFFFFDFFF92F49F
:1035D40021E841E8E4E8E4E8E4E8E4E8E4E8E4E8ED
:1035E40062E86AF2FFFFC7E931F4FFFFFFFFFFFF64
:1035F400FFFFFFFFFFFFFFFFFFFFFFFFFFFFFFFFD7
:10360400FFFFFFFFFFFFFFFFFFFFFFFFFFFFFFFFC6
:10361400FFFFFFFFFFFFFFFFFFFFFFFFFFFFFFFFB6
:10362400FFFFFFFFFFFFFFFFFFFFFFFFFFFFFFFFA6
:10363400FFFFFFFFFFFFFFFFFFFFFFFFFFFFFFFF96
:1036440051F466E9FFFF6AF200E88EF3FFFFFFFF23
:10365400FFFFFFFFFFFFFFFFFFFFFFFFFFFFFFFF76
:10366400FFFF75F5C4E8C4E800E8C7E9DFFFFFFF22
:10367400FFFFFFFFFFFFFFFFFFFFFFFFFFFFFFFF56
:10368400FFFFFFFFFFFFFFFFFFFFFFFFFFFFFFFF46
:10369400DFFF08EA00E8E4E8E4E8E4E8E4E8E4E872
:1036A40062E86AF2FFFFC7E931F4FFFFFFFFFFFFA3
:1036B400FFFFFFFFFFFFFFFFFFFFFFFFFFFFFFFF16
:1036C400FFFFFFFFFFFFFFFFFFFFFFFFFFFFFFFF06
:1036D400FFFFFFFFFFFFFFFFFFFFFFFFFFFFFFFFF6
:1036E400FFFFFFFFFFFFFFFFFFFFFFFFFFFFFFFFE6
:1036F400FFFFFFFFFFFFFFFFFFFFFFFFFFFFFFFFD6
:1037040051F466E9FFFF49EA01E8B3F4FFFFFFFF64
:10371400FFFFFFFFFFFFFFFFFFFFFFFFFFFFFFFFB5
:10372400FFFFDBFE46E900E8A7E9BEFFFFFFFFFF5E
:10373400FFFFFFFFFFFFFFFFFFFFFFFFFFFFFFFF95
:10374400FFFFFFFFFFFFFFFFFFFFFFFFFFFFFFFF85
:10375400FFFFBEFF09EA00E8E4E8E4E8E4E8E4E89F
:1037640062E86AF2FFFFC7E931F4FFFFFFFFFFFFE2
:10377400FFFFFFFFFFFFFFFFFFFFFFFFFFFFFFFF55
:10378400FFFFFFFFFFFFFFFFFFFFFFFFFFFFFFFF45
:10379400FFFFFFFFFFFFFFFFFFFFFFFFFFFFFFFF35
:1037A400FFFFFFFFFFFFFFFFFFFFFFFFFFFFFFFF25
:1037B400FFFFFFFFFFFFFFFFFFFFFFFFFFFFFFFF15
:1037C40051F466E9FFFF49F221E814F5FFFF8EF397
:1037D400E3E8E3E8E3E8E3E8E3E8E3E8E3E009EA6D
:1037E400FFFF7DFFA3E8C3E85DFFFFFFFFFFFFFFCF
:1037F400FFFFFFFFFFFFFFFFFFFFFFFFFFFFFFFFD5
:10380400FFFFFFFFFFFFFFFFFFFFFFFFFFFFFFFFC4
:10381400FFFFFFFF5DFF6AF220E8E4E8E4E8E4E884
:1038240062E86AF2FFFFC7E931F4FFFFFFFFFFFF21
:10383400FFFFFFFFFFFFFFFFFFFFFFFFFFFFFFFF94
:10384400FFFFFFFFFFFFFFFFFFFFFFFFFFFFFFFF84
:10385400FFFFFFFFFFFFFFFFFFFFFFFFFFFFFFFF74
:10386400FFFFFFFFFFFFFFFFFFFFFFFFFFFFFFFF64
:10387400FFFFFFFFFFFFFFFFFFFFFFFFFFFFFFFF54
:1038840051F466E9FFFF49EA21E8F4F4FFFF3CFF45
:10389400BAFEBAFEBAFEBAFEBAFEBAFEBAFEFBFE23
:1038A400FFFFF0F321E859FEFFFFFFFFFFFFFFFFDB
:1038B400FFFFFFFFFFFFFFFFFFFFFFFFFFFFFFFF14
:1038C400FFFFFFFFFFFFFFFFFFFFFFFFFFFFFFFF04
:1038D400FFFFFFFFFFFF1CFF04E982E8E4E8E4E8E0
:1038E40062E86AF2FFFFC7E931F4FFFFFFFFFFFF61
:1038F400FFFFFFFFFFFFFFFFFFFFFFFFFFFFFFFFD4
:10390400FFFFFFFFFFFFFFFFFFFFFFFFFFFFFFFFC3
:10391400FFFFFFFFFFFFFFFFFFFFFFFFFFFFFFFFB3
:10392400FFFFFFFFFFFFFFFFFFFFFFFFFFFFFFFFA3
:10393400FFFFFFFFFFFFFFFFFFFFFFFFFFFFFFFF93
:1039440051F466E9FFFF6AF200E851F4FFFFFFFF5C
:10395400FFFFFFFFFFFFFFFFFFFFFFFFFFFFFFFF73
:103964007DFFE4E80CF3DFFFFFFFFFFFFFFFFFFF36
:10397400FFFFFFFFFFFFFFFFFFFFFFFFFFFFFFFF53
:10398400FFFFFFFFFFFFFFFFFFFFFFFFFFFFFFFF43
:10399400FFFFFFFFFFFFFFFF34F520E8E4E8E4E862
:1039A40062E86AF2FFFFC7E931F4FFFFFFFFFFFFA0
:1039B400FFFFFFFFFFFFFFFFFFFFFFFFFFFFFFFF13
:1039C400FFFFFFFFFFFFFFFFFFFFFFFFFFFFFFFF03
:1039D400FFFFFFFFFFFFFFFFFFFFFFFFFFFFFFFFF3
:1039E400FFFFFFFFFFFFFFFFFFFFFFFFFFFFFFFFE3
:1039F400FFFFFFFFFFFFFFFFFFFFFFFFFFFFFFFFD3
:103A040051F466E9FFFF6AF200E8C8E95DFFFFFFD1
:103A1400FFFFFFFFFFFFFFFFFFFFFFFFFFFFFFFFB2
:103A240034F521E859FEFFFFFFFFFFFFFFFFFFFF13
:103A3400FFFFFFFFFFFFFFFFFFFFFFFFFFFF59FE39
:103A44003CFFFFFFFFFFFFFFFFFFFFFFFFFFFFFF45
:103A5400FFFFFFFFFFFFFFFF7EFFC7E962E8E4E827
:103A640062E86AF2FFFFC7E931F4FFFFFFFFFFFFDF
:103A7400FFFFFFFFFFFFFFFFFFFFFFFFFFFFFFFF52
:103A8400FFFFFFFFFFFFFFFFFFFFFFFFFFFFFFFF42
:103A9400FFFFFFFFFFFFFFFFFFFFFFFFFFFFFFFF32
:103AA400FFFFFFFFFFFFFFFFFFFFFFFFFFFFFFFF22
:103AB400FFFFFFFFFFFFFFFFFFFFFFFFFFFFFFFF12
:103AC40051F466E9FFFF6AF242E882E80CF3FBFE78
:103AD400FFFFFFFFFFFFFFFFFFFFFFFFFFFFBEFF33
:103AE4000CF366E99EFFFFFFFFFFFFFFFFFFFFFFF1
:103AF400FFFFFFFFFFFFFFFFFFFFFFFF51F4E7E9B9
:103B04004AF2BAFEFFFFFFFFFFFFFFFFFFFFFFFFC9
:103B1400FFFFFFFFFFFFFFFFFFFF10F442E8C4E8D1
:103B240062E86AF2FFFFC7E931F4FFFFFFFFFFFF1E
:103B3400FFFFFFFFFFFFFFFFFFFFFFFFFFFFFFFF91
:103B4400FFFFFFFFFFFFFFFFFFFFFFFFFFFFFFFF81
:103B5400FFFFFFFFFFFFFFFFFFFFFFFFFFFFFFFF71
:103B6400FFFFFFFFFFFFFFFFFFFFFFFFFFFFFFFF61
:103B7400FFFFFFFFFFFFFFFFFFFFFFFFFFFFFFFF51
:103B840051F466E9FFFF6AF262E8A3E8A3E88AEA6F
:103B94004DF3AFF3CFF3AFF3AFF38EF32DF3EBF2BB
:103BA400E3E86EF3DFFFFFFFFFFFFFFFFFFFFFFF11
:103BB400FFFFFFFFFFFFFFFFFFFFDFFF66E941E8B5
:103BC40041E851F4FFFFFFFFFFFFFFFFFFFFFFFF8F
:103BD400FFFFFFFFFFFFFFFFFFFFB6FD82E8C3E823
:103BE40062E86AF2FFFFC7E931F4FFFFFFFFFFFF5E
:103BF400FFFFFFFFFFFFFFFFFFFFFFFFFFFFFFFFD1
:103C0400FFFFFFFFFFFFFFFFFFFFFFFFFFFFFFFFC0
:103C1400FFFFFFFFFFFFFFFFFFFFFFFFFFFFFFFFB0
:103C2400FFFFFFFFFFFFFFFFFFFFFFFFFFFFFFFFA0
:103C3400FFFFFFFFFFFFFFFFFFFFFFFFFFFFFFFF90
:103C440051F466E9FFFF4AF221E88EF392F492F40C
:103C5400B3F40CF382E8C4E8C3E8A3E883E862E8B9
:103C640021E814F5FFFFFFFFFFFFFFFFFFFFFFFF4A
:103C7400FFFFFFFFFFFFFFFFFFFFBEFF83E883E8B7
:103C840062E8CBF2FFFFFFFFFFFFFFFFFFFFFFFF35
:103C9400FFFFFFFFFFFFFFFFFFFFDBFE45E983E8B8
:103CA40062E86AF2FFFFC7E931F4FFFFFFFFFFFF9D
:103CB400FFFFFFFFFFFFFFFFFFFFFFFFFFFFFFFF10
:103CC400FFFFFFFFFFFFFFFFFFFFFFFFFFFFFFFF00
:103CD400FFFFFFFFFFFFFFFFFFFFFFFFFFFFFFFFF0
:103CE400FFFFFFFFFFFFFFFFFFFFFFFFFFFFFFFFE0
:103CF400FFFFFFFFFFFFFFFFFFFFFFFFFFFFFFFFD0
:103D040051F466E9FFFF6AF200E80CF3FCFEFFFFE2
:103D1400FFFFF7FD00E862E862E862E862E883E832
:103D240041E838FEFFFFFFFFFFFFFFFFFFFFFFFF3C
:103D3400FFFFFFFFFFFFFFFFFFFF7DFF62E8A3E838
:103D440062E829EAFFFFFFFFFFFFFFFFFFFFFFFF1E
:103D5400FFFFFFFFFFFFFFFFFFFF7DFF4AF262E867
:103D640062E86AF2FFFFC7E931F4FFFFFFFFFFFFDC
:103D7400FFFFFFFFFFFFFFFFFFFFFFFFFFFFFFFF4F
:103D8400FFFFFFFFFFFFFFFFFFFFFFFFFFFFFFFF3F
:103D9400FFFFFFFFFFFFFFFFFFFFFFFFFFFFFFFF2F
:103DA400FFFFFFFFFFFFFFFFFFFFFFFFFFFFFFFF1F
:103DB400FFFFFFFFFFFFFFFFFFFFFFFFFFFFFFFF0F
:103DC40051F466E9FFFF6AF201E8C7E938FEFFFF34
:103DD400FFFF9EFF8EF34DF34DF34DF3AFF329F246
:103DE40082E8BBFEFFFFFFFFFFFFFFFFFFFFFFFFB8
:103DF400FFFFFFFFFFFFFFFFFFFF3CFF62E8A3E8B9
:103E040082E8E8E9FFFFFFFFFFFFFFFFFFFFFFFF7F
:103E1400FFFFFFFFFFFFFFFFFFFFDFFF2DF321E8A1
:103E240062E86AF2FFFFC7E931F4FFFFFFFFFFFF1B
:103E3400FFFFFFFFFFFFFFFFFFFFFFFFFFFFFFFF8E
:103E4400FFFFFFFFFFFFFFFFFFFFFFFFFFFFFFFF7E
:103E5400FFFFFFFFFFFFFFFFFFFFFFFFFFFFFFFF6E
:103E6400FFFFFFFFFFFFFFFFFFFFFFFFFFFFFFFF5E
:103E7400FFFFFFFFFFFFFFFFFFFFFFFFFFFFFFFF4E
:103E840051F466E9FFFF6AF200E86EF3FBFEFFFF00
:103E9400FFFFFFFFBEFF3CFF3CFF3CFFBEFF71F492
:103EA400C3E8FBFEFFFFFFFFFFFFFFFFFFFFFFFF76
:103EB400FFFFFFFFFFFFFFFFFFFF1CFF62E8C3E8F8
:103EC40082E8C7E9FFFFFFFFFFFFFFFFFFFFFFFFE0
:103ED400FFFFFFFFFFFFFFFFFFFFFFFFCFF321E81F
:103EE40062E86AF2FFFFC7E931F4FFFFFFFFFFFF5B
:103EF400FFFFFFFFFFFFFFFFFFFFFFFFFFFFFFFFCE
:103F0400FFFFFFFFFFFFFFFFFFFFFFFFFFFFFFFFBD
:103F1400FFFFFFFFFFFFFFFFFFFFFFFFFFFFFFFFAD
:103F2400FFFFFFFFFFFFFFFFFFFFFFFFFFFFFFFF9D
:103F3400FFFFFFFFFFFFFFFFFFFFFFFFFFFFFFFF8D
:103F440051F466E9FFFF6AF200E831F4FFFFFFFF76
:103F5400FFFFFFFFFFFFFFFFFFFFFFFFFFFF72F405
:103F640005E91CFFFFFFFFFFFFFFFFFFFFFFFFFF50
:103F7400FFFFFFFFFFFFFFFFFFFF1CFF62E8C3E837
:103F840082E8C7E9FFFFFFFFFFFFFFFFFFFFFFFF1F
:103F9400FFFFFFFFFFFFFFFFFFFFFFFF92F421E89A
:103FA40062E86AF2FFFFC7E931F4FFFFFFFFFFFF9A
:103FB400FFFFFFFFFFFFFFFFFFFFFFFFFFFFFFFF0D
:103FC400FFFFFFFFFFFFFFFFFFFFFFFFFFFFFFFFFD
:103FD400FFFFFFFFFFFFFFFFFFFFFFFFFFFFFFFFED
:103FE400FFFFFFFFFFFFFFFFFFFFFFFFFFFFFFFFDD
:103FF400FFFFFFFFFFFFFFFFFFFFFFFFFFFFFFFFCD
:1040040051F466E9FFFF6AF200E831F4FFFFFFFFB5
:10401400FFFFFFFFFFFFFFFFFFFFFFFFFFFF31F485
:1040240066E93CFFFFFFFFFFFFFFFFFFFFFFFFFF0E
:10403400FFFFFFFFFFFFFFFFFFFF1CFF41E882E8D8
:1040440062E886E9FFFFFFFFFFFFFFFFFFFFFFFFBF
:10405400FFFFFFFFFFFFFFFFFFFFFFFFF4F482E816
:1040640042E86AF2FFFFC7E931F4FFFFFFFFFFFFF9
:10407400FFFFFFFFFFFFFFFFFFFFFFFFFFFFFFFF4C
:10408400FFFFFFFFFFFFFFFFFFFFFFFFFFFFFFFF3C
:10409400FFFFFFFFFFFFFFFFFFFFFFFFFFFFFFFF2C
:1040A400FFFFFFFFFFFFFFFFFFFFFFFFFFFFFFFF1C
:1040B400FFFFFFFFFFFFFFFFFFFFFFFFFFFFFFFF0C
:1040C40051F466E9FFFF6AF200E8AFF359FE18FE07
:1040D40018FE18FE38FE18FE18FE18FE59FEAFF33F
:1040E40086E93DFFFFFFFFFFFFFFFFFFFFFFFFFF2D
:1040F400FFFFFFFFFFFFFFFFFFFF1CFF24E925E990
:1041040025E908F2FFFFFFFFFFFFFFFFFFFFFFFFAF
:10411400FFFFFFFFFFFFFFFFFFFFFFFF14F5A3E813
:1041240042E86AF2FFFFC7E931F4FFFFFFFFFFFF38
:10413400FFFFFFFFFFFFFFFFFFFFFFFFFFFFFFFF8B
:10414400FFFFFFFFFFFFFFFFFFFFFFFFFFFFFFFF7B
:10415400FFFFFFFFFFFFFFFFFFFFFFFFFFFFFFFF6B
:10416400FFFFFFFFFFFFFFFFFFFFFFFFFFFFFFFF5B
:10417400FFFFFFFFFFFFFFFFFFFFFFFFFFFFFFFF4B
:1041840051F466E9FFFF6AF221E809EA6AF245E9B7
:1041940082E862E882E862E8C3E845E98AF2A7E9CE
:1041A400C7E95DFFFFFFFFFFFFFFFFFFFFFFFFFF0B
:1041B400FFFFFFFFFFFFFFFFFFFFBEFF55FD76FD83
:1041C40075FDD7FDFFFFFFFFFFFFFFFFFFFFFFFFB1
:1041D400FFFFFFFFFFFFFFFFFFFFFFFF34F5A3E833
:1041E40041E86AF2FFFFC7E931F4FFFFFFFFFFFF79
:1041F400FFFFFFFFFFFFFFFFFFFFFFFFFFFFFFFFCB
:10420400FFFFFFFFFFFFFFFFFFFFFFFFFFFFFFFFBA
:10421400FFFFFFFFFFFFFFFFFFFFFFFFFFFFFFFFAA
:10422400FFFFFFFFFFFFFFFFFFFFFFFFFFFFFFFF9A
:10423400FFFFFFFFFFFFFFFFFFFFFFFFFFFFFFFF8A
:1042440051F466E9FFFF6AF200E851F4FFFF7AFED9
:104254002DF324E9E4E886F110F49AFEFFFF31F42B
:1042640066E93CFFFFFFFFFFFFFFFFFFFFFFFFFFCC
:10427400FFFFFFFFFFFFFFFFFFFFFFFFFFFFFFFF4A
:10428400FFFFFFFFFFFFFFFFFFFFFFFFFFFFFFFF3A
:10429400FFFFFFFFFFFFFFFFFFFFFFFF35F5A3E871
:1042A40041E86AF2FFFFC7E931F4FFFFFFFFFFFFB8
:1042B400FFFFFFFFFFFFFFFFFFFFFFFFFFFFFFFF0A
:1042C400FFFFFFFFFFFFFFFFFFFFFFFFFFFFFFFFFA
:1042D400FFFFFFFFFFFFFFFFFFFFFFFFFFFFFFFFEA
:1042E400FFFFFFFFFFFFFFFFFFFFFFFFFFFFFFFFDA
:1042F400FFFFFFFFFFFFFFFFFFFFFFFFFFFFFFFFCA
:1043040051F466E9FFFF6AF200E810F4FFFFFFFFD3
:10431400FFFFFFFFDBFEFFFFFFFFFFFFFFFF10F4C8
:1043240066E93CFFFFFFFFFFFFFFFFFFFFFFFFFF0B
:10433400FFFFFFFFFFFFFFFFFFFFFFFFFFFFFFFF89
:10434400FFFFFFFFFFFFFFFFFFFFFFFFFFFFFFFF79
:10435400FFFFFFFFFFFFFFFFFFFFFFFF55F5C3E870
:1043640021E86AF2FFFFC7E931F4FFFFFFFFFFFF17
:10437400FFFFFFFFFFFFFFFFFFFFFFFFFFFFFFFF49
:10438400FFFFFFFFFFFFFFFFFFFFFFFFFFFFFFFF39
:10439400FFFFFFFFFFFFFFFFFFFFFFFFFFFFFFFF29
:1043A400FFFFFFFFFFFFFFFFFFFFFFFFFFFFFFFF19
:1043B400FFFFFFFFFFFFFFFFFFFFFFFFFFFFFFFF09
:1043C40051F466E9FFFF6AF200E8F0F3BFFFFFFF74
:1043D400FFFFFFFFFFFFFFFFFFFFFFFFFFFF51F4A2
:1043E40066E93CFFFFFFFFFFFFFFFFFFFFFFFFFF4B
:1043F400FFFFFFFFFFFFFFFFFFFFFFFFFFFFFFFFC9
:10440400FFFFFFFFFFFFFFFFFFFFFFFFFFFFFFFFB8
:10441400FFFFFFFFFFFFFFFFFFFFFFFF55F5C3E8AF
:1044240041E86AF2FFFFC7E931F4FFFFFFFFFFFF36
:10443400FFFFFFFFFFFFFFFFFFFFFFFFFFFFFFFF88
:10444400FFFFFFFFFFFFFFFFFFFFFFFFFFFFFFFF78
:10445400FFFFFFFFFFFFFFFFFFFFFFFFFFFFFFFF68
:10446400FFFFFFFFFFFFFFFFFFFFFFFFFFFFFFFF58
:10447400FFFFFFFFFFFFFFFFFFFFFFFFFFFFFFFF48
:1044840051F466E9FFFF6AF242E883E8A7E9B7F569
:10449400FFFFFFFFFFFFFFFFFFFF7DFF34F566E92E
:1044A400C7E95DFFFFFFFFFFFFFFFFFFFFFFFFFF08
:1044B400FFFFFFFFFFFFFFFFFFFFFFFFFFFFFFFF08
:1044C400FFFFFFFFFFFFFFFFFFFFFFFFFFFFFFFFF8
:1044D400FFFFFFFFFFFFFFFFFFFFFFFF55F5C3E8EF
:1044E40041E86AF2FFFFC7E931F4FFFFFFFFFFFF76
:1044F400FFFFFFFFFFFFFFFFFFFFFFFFFFFFFFFFC8
:10450400FFFFFFFFFFFFFFFFFFFFFFFFFFFFFFFFB7
:10451400FFFFFFFFFFFFFFFFFFFFFFFFFFFFFFFFA7
:10452400FFFFFFFFFFFFFFFFFFFFFFFFFFFFFFFF97
:10453400FFFFFFFFFFFFFFFFFFFFFFFFFFFFFFFF87
:1045440051F466E9FFFF6AF200E82DF318FE96F5D0
:104554009AFEFFFFFFFFFFFF3CFF96FD18FEECF203
:10456400A7E93DFFFFFFFFFFFFFFFFFFFFFFFFFF87
:10457400FFFFFFFFFFFFFFFFFFFFFFFFFFFFFFFF47
:10458400FFFFFFFFFFFFFFFFFFFFFFFFFFFFFFFF37
:10459400FFFFFFFFFFFFFFFFFFFFFFFF55F5C3E82E
:1045A40041E86AF2FFFFC7E931F4FFFFFFFFFFFFB5
:1045B400FFFFFFFFFFFFFFFFFFFFFFFFFFFFFFFF07
:1045C400FFFFFFFFFFFFFFFFFFFFFFFFFFFFFFFFF7
:1045D400FFFFFFFFFFFFFFFFFFFFFFFFFFFFFFFFE7
:1045E400FFFFFFFFFFFFFFFFFFFFFFFFFFFFFFFFD7
:1045F400FFFFFFFFFFFFFFFFFFFFFFFFFFFFFFFFC7
:1046040051F466E9FFFF6AF200E830F4DFFFBEFF11
:10461400DFFFFFFFFFFFFFFFFFFFBEFFDFFF10F421
:1046240066E93CFFFFFFFFFFFFFFFFFFFFFFFFFF08
:10463400FFFFFFFFFFFFFFFFFFFFFFFFFFFFFFFF86
:10464400FFFFFFFFFFFFFFFFFFFFFFFFFFFFFFFF76
:10465400FFFFFFFFFFFFFFFFFFFFFFFF76F5A3E86C
:1046640021E86AF2FFFFC7E931F4FFFFFFFFFFFF14
:10467400FFFFFFFFFFFFFFFFFFFFFFFFFFFFFFFF46
:10468400FFFFFFFFFFFFFFFFFFFFFFFFFFFFFFFF36
:10469400FFFFFFFFFFFFFFFFFFFFFFFFFFFFFFFF26
:1046A400FFFFFFFFFFFFFFFFFFFFFFFFFFFFFFFF16
:1046B400FFFFFFFFFFFFFFFFFFFFFFFFFFFFFFFF06
:1046C40051F466E9FFFF6AF200E810F4FFFFFFFF10
:1046D400FFFFFFFFFFFFFFFFFFFFFFFFFFFF10F4E0
:1046E40066E93CFFFFFFFFFFFFFFFFFFFFFFFFFF48
:1046F400FFFFFFFFFFFFFFFFFFFFDFFFBEFFBEFF68
:10470400BEFFBEFFBEFFBEFFBEFFBEFFBEFFBEFFBD
:10471400BEFFBEFFBEFFBEFFDFFFFFFF14F5C3E811
:1047240041E86AF2FFFFC7E931F4FFFFFFFFFFFF33
:10473400FFFFFFFFFFFFFFFFFFFFFFFFFFFFFFFF85
:10474400FFFFFFFFFFFFFFFFFFFFFFFFFFFFFFFF75
:10475400FFFFFFFFFFFFFFFFFFFFFFFFFFFFFFFF65
:10476400FFFFFFFFFFFFFFFFFFFFFFFFFFFFFFFF55
:10477400FFFFFFFFFFFFFFFFFFFFFFFFFFFFFFFF45
:1047840051F466E9FFFF6AF200E872F4FFFFFFFFED
:10479400FFFFFFFFFFFFFFFFFFFFFFFFFFFF71F4BE
:1047A40066E93CFFFFFFFFFFFFFFFFFFFFFFFFFF87
:1047B400FFFFFFFFFFFFFFFFFFFF1CFF86E9A6E9E6
:1047C400A6E9A6E986E986E986E986E986E986E92D
:1047D40086E986E986E986E9A6E9A6E905E9E4E841
:1047E40062E86AF2FFFFC7E931F4FFFFFFFFFFFF52
:1047F400FFFFFFFFFFFFFFFFFFFFFFFFFFFFFFFFC5
:10480400FFFFFFFFFFFFFFFFFFFFFFFFFFFFFFFFB4
:10481400FFFFFFFFFFFFFFFFFFFFFFFFFFFFFFFFA4
:10482400FFFFFFFFFFFFFFFFFFFFFFFFFFFFFFFF94
:10483400FFFFFFFFFFFFFFFFFFFFFFFFFFFFFFFF84
:1048440051F466E9FFFF6AF221E8E8E9ECF20CF3BF
:10485400ECF2ECF2ECF2ECF2ECF2ECF20CF387E9B1
:10486400C7E93DFFFFFFFFFFFFFFFFFFFFFFFFFF64
:10487400FFFFFFFFFFFFFFFFFFFF1CFF41E882E890
:10488400A3E8A3E862E841E841E841E841E841E8F7
:1048940041E841E841E841E841E841E862E8E4E808
:1048A40062E86AF2FFFFC7E931F4FFFFFFFFFFFF91
:1048B400FFFFFFFFFFFFFFFFFFFFFFFFFFFFFFFF04
:1048C400FFFFFFFFFFFFFFFFFFFFFFFFFFFFFFFFF4
:1048D400FFFFFFFFFFFFFFFFFFFFFFFFFFFFFFFFE4
:1048E400FFFFFFFFFFFFFFFFFFFFFFFFFFFFFFFFD4
:1048F400FFFFFFFFFFFFFFFFFFFFFFFFFFFFFFFFC4
:1049040051F466E9FFFF6AF200E8CBF2D7FD4AF200
:1049140071F476F555F555F555F555F5B7FDABF24A
:10492400A7E93DFFFFFFFFFFFFFFFFFFFFFFFFFFC3
:10493400FFFFFFFFFFFFFFFFFFFF1CFF62E8C3E86D
:10494400C4E8E4E886E909F2E8F1E8F1E8F1E8F11D
:10495400E8F1E8F1E8F1E8F1E8F108F286E9E4E8E1
:1049640062E86AF2FFFFC7E931F4FFFFFFFFFFFFD0
:10497400FFFFFFFFFFFFFFFFFFFFFFFFFFFFFFFF43
:10498400FFFFFFFFFFFFFFFFFFFFFFFFFFFFFFFF33
:10499400FFFFFFFFFFFFFFFFFFFFFFFFFFFFFFFF23
:1049A400FFFFFFFFFFFFFFFFFFFFFFFFFFFFFFFF13
:1049B400FFFFFFFFFFFFFFFFFFFFFFFFFFFFFFFF03
:1049C40051F466E9FFFF6AF200E8F0F3FFFF2DF30C
:1049D40079FEDFFFBEFFBEFFBEFFBEFFDFFFF0F3C9
:1049E40066E93CFFFFFFFFFFFFFFFFFFFFFFFFFF45
:1049F400FFFFFFFFFFFFFFFFFFFF1CFF62E8C3E8AD
:104A0400C3E8C4E871F418FEF8FDF8FDF8FDF8FDFC
:104A1400F8FDF8FDF8FDF8FDF8FD18FE72F4C3E8A2
:104A240041E86AF2FFFFC7E931F4FFFFFFFFFFFF30
:104A3400FFFFFFFFFFFFFFFFFFFFFFFFFFFFFFFF82
:104A4400FFFFFFFFFFFFFFFFFFFFFFFFFFFFFFFF72
:104A5400FFFFFFFFFFFFFFFFFFFFFFFFFFFFFFFF62
:104A6400FFFFFFFFFFFFFFFFFFFFFFFFFFFFFFFF52
:104A7400FFFFFFFFFFFFFFFFFFFFFFFFFFFFFFFF42
:104A840051F466E9FFFF6AF200E810F4FFFF4DF30A
:104A9400BAFEFFFFFFFFFFFFFFFFFFFFFFFF10F462
:104AA40066E93CFFFFFFFFFFFFFFFFFFFFFFFFFF84
:104AB400FFFFFFFFFFFFFFFFFFFF1CFF62E8C3E8EC
:104AC400A3E8C4E875F5FFFFFFFFFFFFFFFFFFFF4B
:104AD400FFFFFFFFFFFFFFFFFFFFFFFF96F5C3E8A8
:104AE40041E86AF2FFFFC7E931F4FFFFFFFFFFFF70
:104AF400FFFFFFFFFFFFFFFFFFFFFFFFFFFFFFFFC2
:104B0400FFFFFFFFFFFFFFFFFFFFFFFFFFFFFFFFB1
:104B1400FFFFFFFFFFFFFFFFFFFFFFFFFFFFFFFFA1
:104B2400FFFFFFFFFFFFFFFFFFFFFFFFFFFFFFFF91
:104B3400FFFFFFFFFFFFFFFFFFFFFFFFFFFFFFFF81
:104B440051F466E9FFFF6AF200E851F4FFFF8EF3C7
:104B54001CFFFFFFFFFFFFFFFFFFFFFFFFFF51F4FD
:104B640066E93CFFFFFFFFFFFFFFFFFFFFFFFFFFC3
:104B7400FFFFFFFFFFFFFFFFFFFF1CFF62E8C3E82B
:104B8400A3E8C4E834F5FFFFFFFFFFFFFFFFFFFFCB
:104B9400FFFFFFFFFFFFFFFFFFFFFFFF55F5C3E828
:104BA40021E86AF2FFFFC7E931F4FFFFFFFFFFFFCF
:104BB400FFFFFFFFFFFFFFFFFFFFFFFFFFFFFFFF01
:104BC400FFFFFFFFFFFFFFFFFFFFFFFFFFFFFFFFF1
:104BD400FFFFFFFFFFFFFFFFFFFFFFFFFFFFFFFFE1
:104BE400FFFFFFFFFFFFFFFFFFFFFFFFFFFFFFFFD1
:104BF400FFFFFFFFFFFFFFFFFFFFFFFFFFFFFFFFC1
:104C040051F466E9FFFF6AF221E8CBF271F408EA95
:104C140010F451F451F451F451F451F451F46AF292
:104C2400A7E93CFFFFFFFFFFFFFFFFFFFFFFFFFFC1
:104C3400FFFFFFFFFFFFFFFFFFFF1CFF62E8C3E86A
:104C4400A3E8C4E834F5FFFFFFFFFFFFFFFFFFFF0A
:104C5400FFFFFFFFFFFFFFFFFFFFFFFF55F5C3E867
:104C640041E86AF2FFFFC7E931F4FFFFFFFFFFFFEE
:104C7400FFFFFFFFFFFFFFFFFFFFFFFFFFFFFFFF40
:104C8400FFFFFFFFFFFFFFFFFFFFFFFFFFFFFFFF30
:104C9400FFFFFFFFFFFFFFFFFFFFFFFFFFFFFFFF20
:104CA400FFFFFFFFFFFFFFFFFFFFFFFFFFFFFFFF10
:104CB400FFFFFFFFFFFFFFFFFFFFFFFFFFFFFFFF00
:104CC40051F466E9FFFF6AF262E883E845E9AAF273
:104CD400EBF2EBF2EBF2EBF2EBF2EBF22CF386E914
:104CE400A7E93CFFFFFFFFFFFFFFFFFFFFFFFFFF01
:104CF400FFFFFFFFFFFFFFFFFFFF1CFF62E8C3E8AA
:104D0400A3E8C4E834F5FFFFFFFFFFFFFFFFFFFF49
:104D1400FFFFFFFFFFFFFFFFFFFFFFFF55F5C3E8A6
:104D240041E86AF2FFFFC7E931F4FFFFFFFFFFFF2D
:104D3400FFFFFFFFFFFFFFFFFFFFFFFFFFFFFFFF7F
:104D4400FFFFFFFFFFFFFFFFFFFFFFFFFFFFFFFF6F
:104D5400FFFFFFFFFFFFFFFFFFFFFFFFFFFFFFFF5F
:104D6400FFFFFFFFFFFFFFFFFFFFFFFFFFFFFFFF4F
:104D7400FFFFFFFFFFFFFFFFFFFFFFFFFFFFFFFF3F
:104D840051F466E9FFFF6AF241E825E951F4DBFEDC
:104D94003CFF3CFF3CFF3CFF3CFF3CFFBEFFF0F30D
:104DA40025E91CFFFFFFFFFFFFFFFFFFFFFFFFFFE2
:104DB400FFFFFFFFFFFFFFFFFFFF1CFF62E8C3E8E9
:104DC400A3E8C4E834F5FFFFFFFFFFFFFFFFFFFF89
:104DD400FFFFFFFFFFFFFFFFFFFFFFFF34F5A3E827
:104DE40041E86AF2FFFFC7E931F4FFFFFFFFFFFF6D
:104DF400FFFFFFFFFFFFFFFFFFFFFFFFFFFFFFFFBF
:104E0400FFFFFFFFFFFFFFFFFFFFFFFFFFFFFFFFAE
:104E1400FFFFFFFFFFFFFFFFFFFFFFFFFFFFFFFF9E
:104E2400FFFFFFFFFFFFFFFFFFFFFFFFFFFFFFFF8E
:104E3400FFFFFFFFFFFFFFFFFFFFFFFFFFFFFFFF7E
:104E440051F466E9FFFF6AF200E88EF3FFFFFFFF0B
:104E5400FFFFFFFFFFFFFFFFFFFFFFFFFFFFD3F495
:104E6400A3E8FBFEFFFFFFFFFFFFFFFFFFFFFFFFC6
:104E7400FFFFFFFFFFFFFFFFFFFF1CFF62E8C3E828
:104E8400A3E8C4E834F5FFFFFFFFFFFFFFFFFFFFC8
:104E9400FFFFFFFFFFFFFFFFFFFFFFFFF3F482E8C9
:104EA40042E86AF2FFFFC7E931F4FFFFFFFFFFFFAB
:104EB400FFFFFFFFFFFFFFFFFFFFFFFFFFFFFFFFFE
:104EC400FFFFFFFFFFFFFFFFFFFFFFFFFFFFFFFFEE
:104ED400FFFFFFFFFFFFFFFFFFFFFFFFFFFFFFFFDE
:104EE400FFFFFFFFFFFFFFFFFFFFFFFFFFFFFFFFCE
:104EF400FFFFFFFFFFFFFFFFFFFFFFFFFFFFFFFFBE
:104F040051F466E9FFFF49EA01E814F5FFFFFFFFEA
:104F1400FFFFFFFFFFFFFFFFFFFFFFFFFFFF35FD69
:104F240062E8BAFEFFFFFFFFFFFFFFFFFFFFFFFF87
:104F3400FFFFFFFFFFFFFFFFFFFF1CFF62E8C3E867
:104F4400A3E8C4E835F5FFFFFFFFFFFFFFFFFFFF06
:104F5400FFFFFFFFFFFFFFFFFFFFFFFF92F421E8CA
:104F640062E86AF2FFFFC7E931F4FFFFFFFFFFFFCA
:104F7400FFFFFFFFFFFFFFFFFFFFFFFFFFFFFFFF3D
:104F8400FFFFFFFFFFFFFFFFFFFFFFFFFFFFFFFF2D
:104F9400FFFFFFFFFFFFFFFFFFFFFFFFFFFFFFFF1D
:104FA400FFFFFFFFFFFFFFFFFFFFFFFFFFFFFFFF0D
:104FB400FFFFFFFFFFFFFFFFFFFFFFFFFFFFFFFFFD
:104FC40051F466E9FFFF4AEA01E8B3F4FFFF7DFF0D
:104FD400BBFEDBFEDBFEDBFEDBFEDBFEDBFE35F5D4
:104FE40042E859FEFFFFFFFFFFFFFFFFFFFFFFFF48
:104FF400FFFFFFFFFFFFFFFFFFFF3CFF42E8C3E8A7
:10500400A3E8E4E8B6F5FFFFFFFFFFFFFFFFFFFFA4
:10501400FFFFFFFFFFFFFFFFFFFFFFFF31F401E88A
:1050240062E86AF2FFFFC7E931F4FFFFFFFFFFFF09
:10503400FFFFFFFFFFFFFFFFFFFFFFFFFFFFFFFF7C
:10504400FFFFFFFFFFFFFFFFFFFFFFFFFFFFFFFF6C
:10505400FFFFFFFFFFFFFFFFFFFFFFFFFFFFFFFF5C
:10506400FFFFFFFFFFFFFFFFFFFFFFFFFFFFFFFF4C
:10507400FFFFFFFFFFFFFFFFFFFFFFFFFFFFFFFF3C
:1050840051F466E9FFFF6AF200E80CF39EFF76F53F
:1050940029EA29EA49F249F249F249F26AF2C7E9EE
:1050A40041E8B7FDFFFFFFFFFFFFFFFFFFFFFFFF2B
:1050B400FFFFFFFFFFFFFFFFFFFF9EFF82E8A3E864
:1050C400A3E804E979FEFFFFFFFFFFFFFFFFFFFFF7
:1050D400FFFFFFFFFFFFFFFFFFFFFFFF8EF321E84E
:1050E40062E86AF2FFFFC7E931F4FFFFFFFFFFFF49
:1050F400FFFFFFFFFFFFFFFFFFFFFFFFFFFFFFFFBC
:10510400FFFFFFFFFFFFFFFFFFFFFFFFFFFFFFFFAB
:10511400FFFFFFFFFFFFFFFFFFFFFFFFFFFFFFFF9B
:10512400FFFFFFFFFFFFFFFFFFFFFFFFFFFFFFFF8B
:10513400FFFFFFFFFFFFFFFFFFFFFFFFFFFFFFFF7B
:1051440051F466E9FFFF6AF242E820E876F559FE79
:105154004DF3ECF20CF30CF30CF30CF30CF3ECF254
:10516400C3E8F0F3FFFFFFFFFFFFFFFFFFFFFFFFB9
:10517400FFFFFFFFFFFFFFFFFFFFFFFF25E982E8BF
:1051840062E804E9BEFFFFFFFFFFFFFFFFFFFFFF31
:10519400FFFFFFFFFFFFFFFFFFFF7DFF29F262E834
:1051A40062E86AF2FFFFC7E931F4FFFFFFFFFFFF88
:1051B400FFFFFFFFFFFFFFFFFFFFFFFFFFFFFFFFFB
:1051C400FFFFFFFFFFFFFFFFFFFFFFFFFFFFFFFFEB
:1051D400FFFFFFFFFFFFFFFFFFFFFFFFFFFFFFFFDB
:1051E400FFFFFFFFFFFFFFFFFFFFFFFFFFFFFFFFCB
:1051F400FFFFFFFFFFFFFFFFFFFFFFFFFFFFFFFFBB
:1052040051F466E9FFFF6AF200E8A7E9BAFEFFFF7E
:10521400FFFFFFFFFFFFFFFFFFFFFFFFFFFFFFFF9A
:10522400ABF208EADFFFFFFFFFFFFFFFFFFFFFFF17
:10523400FFFFFFFFFFFFFFFFFFFFFFFFECF241E86F
:1052440041E80CF3FFFFFFFFFFFFFFFFFFFFFFFF3E
:10525400FFFFFFFFFFFFFFFFFFFF9AFEE4E8A3E865
:1052640062E86AF2FFFFC7E931F4FFFFFFFFFFFFC7
:10527400FFFFFFFFFFFFFFFFFFFFFFFFFFFFFFFF3A
:10528400FFFFFFFFFFFFFFFFFFFFFFFFFFFFFFFF2A
:10529400FFFFFFFFFFFFFFFFFFFFFFFFFFFFFFFF1A
:1052A400FFFFFFFFFFFFFFFFFFFFFFFFFFFFFFFF0A
:1052B400FFFFFFFFFFFFFFFFFFFFFFFFFFFFFFFFFA
:1052C40051F466E9FFFF4AEA00E8B3F4FFFFFFFF89
:1052D400FFFFFFFFFFFFFFFFFFFFFFFFFFFFFFFFDA
:1052E40072F400E81CFFFFFFFFFFFFFFFFFFFFFF5B
:1052F400FFFFFFFFFFFFFFFFFFFFFFFFFFFF76F54D
:1053040059FEFFFFFFFFFFFFFFFFFFFFFFFFFFFF50
:10531400FFFFFFFFFFFFFFFFFFFF31F401E8E4E8B9
:1053240062E86AF2FFFFC7E931F4FFFFFFFFFFFF06
:10533400FFFFFFFFFFFFFFFFFFFFFFFFFFFFFFFF79
:10534400FFFFFFFFFFFFFFFFFFFFFFFFFFFFFFFF69
:10535400FFFFFFFFFFFFFFFFFFFFFFFFFFFFFFFF59
:10536400FFFFFFFFFFFFFFFFFFFFFFFFFFFFFFFF49
:10537400FFFFFFFFFFFFFFFFFFFFFFFFFFFFFFFF39
:1053840051F466E9FFFF49EA21E834FDFFFFFFFF1E
:10539400FFFFFFFFFFFFFFFFFFFFFFFFFFFFFFFF19
:1053A400DFFF04E98AF2FFFFFFFFFFFFFFFFFFFFBC
:1053B400FFFFFFFFFFFFFFFFFFFFFFFFFFFFFFFFF9
:1053C400FFFFFFFFFFFFFFFFFFFFFFFFFFFFFFFFE9
:1053D400FFFFFFFFFFFFFFFF9EFF62E8A3E8E4E893
:1053E40062E86AF2FFFFC7E931F4FFFFFFFFFFFF46
:1053F400FFFFFFFFFFFFFFFFFFFFFFFFFFFFFFFFB9
:10540400FFFFFFFFFFFFFFFFFFFFFFFFFFFFFFFFA8
:10541400FFFFFFFFFFFFFFFFFFFFFFFFFFFFFFFF98
:10542400FFFFFFFFFFFFFFFFFFFFFFFFFFFFFFFF88
:10543400FFFFFFFFFFFFFFFFFFFFFFFFFFFFFFFF78
:1054440051F466E9FFFF6AF200E851F4FFFF9EFFA2
:1054540059FE38FE38FE38FE38FE38FE38FE59FE56
:10546400DBFE8AF221E8FBFEFFFFFFFFFFFFFFFFE9
:10547400FFFFFFFFFFFFFFFFFFFFFFFFFFFFFFFF38
:10548400FFFFFFFFFFFFFFFFFFFFFFFFFFFFFFFF28
:10549400FFFFFFFFFFFFFFFFF0F300E8E4E8E4E8AD
:1054A40062E86AF2FFFFC7E931F4FFFFFFFFFFFF85
:1054B400FFFFFFFFFFFFFFFFFFFFFFFFFFFFFFFFF8
:1054C400FFFFFFFFFFFFFFFFFFFFFFFFFFFFFFFFE8
:1054D400FFFFFFFFFFFFFFFFFFFFFFFFFFFFFFFFD8
:1054E400FFFFFFFFFFFFFFFFFFFFFFFFFFFFFFFFC8
:1054F400FFFFFFFFFFFFFFFFFFFFFFFFFFFFFFFFB8
:1055040051F466E9FFFF6AF201E825E91CFF92F411
:10551400E4E8E3E8E3E8E3E8E3E8E3E8E3E8E3E82E
:1055240004E982E800E804E9FFFFFFFFFFFFFFFF53
:10553400FFFFFFFFFFFFFFFFFFFFFFFFFFFFFFFF77
:10554400FFFFFFFFFFFFFFFFFFFFFFFFFFFFFFFF67
:10555400FFFFFFFFFFFFD7FD82E8C3E8E4E8E4E8CC
:1055640062E86AF2FFFFC7E931F4FFFFFFFFFFFFC4
:10557400FFFFFFFFFFFFFFFFFFFFFFFFFFFFFFFF37
:10558400FFFFFFFFFFFFFFFFFFFFFFFFFFFFFFFF27
:10559400FFFFFFFFFFFFFFFFFFFFFFFFFFFFFFFF17
:1055A400FFFFFFFFFFFFFFFFFFFFFFFFFFFFFFFF07
:1055B400FFFFFFFFFFFFFFFFFFFFFFFFFFFFFFFFF7
:1055C40051F466E9FFFF6AF200E86EF3DFFF3CFF87
:1055D40079FE79FE79FE79FE79FE79FE79FE79FE0F
:1055E40079FE79FEB6F500E849F2FFFFFFFFFFFF01
:1055F400FFFFFFFFFFFFFFFFFFFFFFFFFFFFFFFFB7
:10560400FFFFFFFFFFFFFFFFFFFFFFFFFFFFFFFFA6
:10561400FFFFFFFF9AFE04E9A3E8E4E8E4E8E4E816
:1056240062E86AF2FFFFC7E931F4FFFFFFFFFFFF03
:10563400FFFFFFFFFFFFFFFFFFFFFFFFFFFFFFFF76
:10564400FFFFFFFFFFFFFFFFFFFFFFFFFFFFFFFF66
:10565400FFFFFFFFFFFFFFFFFFFFFFFFFFFFFFFF56
:10566400FFFFFFFFFFFFFFFFFFFFFFFFFFFFFFFF46
:10567400FFFFFFFFFFFFFFFFFFFFFFFFFFFFFFFF36
:1056840051F466E9FFFF6AF200E810F4FFFFFFFF40
:10569400FFFFFFFFFFFFFFFFFFFFFFFFFFFFFFFF16
:1056A400FFFFFFFFBEFFD3F441E86AF23CFFFFFFB8
:1056B400FFFFFFFFFFFFFFFFFFFFFFFFFFFFFFFFF6
:1056C400FFFFFFFFFFFFFFFFFFFFFFFFFFFFFFFFE6
:1056D400FFFF79FE86E982E8E4E8E4E8E4E8E4E848
:1056E40062E86AF2FFFFC7E931F4FFFFFFFFFFFF43
:1056F400FFFFFFFFFFFFFFFFFFFFFFFFFFFFFFFFB6
:10570400FFFFFFFFFFFFFFFFFFFFFFFFFFFFFFFFA5
:10571400FFFFFFFFFFFFFFFFFFFFFFFFFFFFFFFF95
:10572400FFFFFFFFFFFFFFFFFFFFFFFFFFFFFFFF85
:10573400FFFFFFFFFFFFFFFFFFFFFFFFFFFFFFFF75
:1057440051F466E9FFFF6AF200E810F4FFFFFFFF7F
:10575400FFFFFFFFFFFFFFFFFFFFFFFFFFFFFFFF55
:10576400FFFFFFFFFFFF7DFF96F542E828EAB3F451
:10577400BEFFFFFFFFFFFFFFFFFFFFFFFFFFFFFF76
:10578400FFFFFFFFFFFFFFFFFFFFFFFFFFFF9EFF86
:1057940051F4C7E9A3E8C4E8E4E8E4E8E4E8E4E8A9
:1057A40062E86AF2FFFFC7E931F4FFFFFFFFFFFF82
:1057B400FFFFFFFFFFFFFFFFFFFFFFFFFFFFFFFFF5
:1057C400FFFFFFFFFFFFFFFFFFFFFFFFFFFFFFFFE5
:1057D400FFFFFFFFFFFFFFFFFFFFFFFFFFFFFFFFD5
:1057E400FFFFFFFFFFFFFFFFFFFFFFFFFFFFFFFFC5
:1057F400FFFFFFFFFFFFFFFFFFFFFFFFFFFFFFFFB5
:1058040051F466E9FFFF6AF200E810F4FFFFFFFFBE
:10581400FFFFFFFFFFFFFFFFFFFFFFFFFFFFFFFF94
:10582400FFFFFFFFFFFFFFFFFFFF14F508EA25E975
:10583400ABF210F459FE7DFFDFFFFFFFFFFFFFFF18
:10584400FFFFFFFFFFFFFFFF9EFFBAFE71F4ABF205
:1058540025E9A3E8E4E8E4E8E4E8E4E8E4E8E4E8E3
:1058640062E84AEAFFFFC7E930F4FFFFFFFFFFFFEA
:10587400FFFFFFFFFFFFFFFFFFFFFFFFFFFFFFFF34
:10588400FFFFFFFFFFFFFFFFFFFFFFFFFFFFFFFF24
:10589400FFFFFFFFFFFFFFFFFFFFFFFFFFFFFFFF14
:1058A400FFFFFFFFFFFFFFFFFFFFFFFFFFFFFFFF04
:1058B400FFFFFFFFFFFFFFFFFFFFFFFFFFFFFFFFF4
:1058C40031F466E9FFFF49F221E829EACFF3CFF387
:1058D400CFF3CFF3CFF3CFF3CFF3CFF3CFF3CFF3B4
:1058E400CFF3CFF3CFF3CFF3CFF3F0F36AF2A2E821
:1058F40062E805E949F2EBF28EF331F492F4B2F482
:10590400B2F492F451F4CFF30CF369F225E983E88D
:1059140083E8E4E8E4E8E4E8E4E8E4E8E4E8E4E884
:1059240062E829F2FFFFC7E910F4FFFFFFFFFFFF62
:10593400FFFFFFFFFFFFFFFFFFFFFFFFFFFFFFFF73
:10594400FFFFFFFFFFFFFFFFFFFFFFFFFFFFFFFF63
:10595400FFFFFFFFFFFFFFFFFFFFFFFFFFFFFFFF53
:10596400FFFFFFFFFFFFFFFFFFFFFFFFFFFFFFFF43
:10597400FFFFFFFFFFFFFFFFFFFFFFFFFFFFFFFF33
:10598400B2F4E4E8FFFFECF221E862E882E882E89E
:1059940082E882E882E882E882E882E882E882E8B3
:1059A40082E882E882E882E882E8A3E8E4E882E820
:1059B40062E841E800E800E841E8C3E804E924E9D2
:1059C40024E924E9E4E862E800E800E821E862E880
:1059D40062E862E862E862E862E862E862E862E873
:1059E40021E8ECF2FFFF66E951F4FFFFFFFFFFFF40
:1059F400FFFFFFFFFFFFFFFFFFFFFFFFFFFFFFFFB3
:105A0400FFFFFFFFFFFFFFFFFFFFFFFFFFFFFFFFA2
:105A1400FFFFFFFFFFFFFFFFFFFFFFFFFFFFFFFF92
:105A2400FFFFFFFFFFFFFFFFFFFFFFFFFFFFFFFF82
:105A3400FFFFFFFFFFFFFFFFFFFFFFFFFFFFFFFF72
:105A440038FE21E8FBFEB7FDABEA28F229F229F281
:105A540029F229F229F229F229F229F229F229F26A
:105A640029F229F229F229F229F229F229F229F25A
:105A740049F229F229F229F229F229F229F229F22A
:105A840029F229F229F229F229F229F229F229F23A
:105A940029F229F229F229F229F229F229F228F22B
:105AA400AAF2D7FDDBFE82E839FEFFFFFFFFFFFF0E
:105AB400FFFFFFFFFFFFFFFFFFFFFFFFFFFFFFFFF2
:105AC400FFFFFFFFFFFFFFFFFFFFFFFFFFFFFFFFE2
:105AD400FFFFFFFFFFFFFFFFFFFFFFFFFFFFFFFFD2
:105AE400FFFFFFFFFFFFFFFFFFFFFFFFFFFFFFFFC2
:105AF400FFFFFFFFFFFFFFFFFFFFFFFFFFFFFFFFB2
:105B04009EFFA7E96DF3DBFE9AFED7FDF7FDF8FDD6
:105B1400F8FDF8FDF8FDF8FDF8FDF8FDF8FDF8FDD9
:105B2400F8FDF8FDF8FDF8FDF8FDF8FDF8FDF8FDC9
:105B3400F8FDF8FDF8FDF8FDF8FDF8FDF8FDF8FDB9
:105B4400F8FDF8FDF8FDF8FDF8FDF8FDF8FDF8FDA9
:105B5400F8FDF8FDF8FDF8FDF8FDF8FDF7FDD7FDBB
:105B64007AFEFBFE4DF365E9FFFFFFFFFFFFFFFF3A
:105B7400FFFFFFFFFFFFFFFFFFFFFFFFFFFFFFFF31
:105B8400FFFFFFFFFFFFFFFFFFFFFFFFFFFFFFFF21
:105B9400FFFFFFFFFFFFFFFFFFFFFFFFFFFFFFFF11
:105BA400FFFFFFFFFFFFFFFFFFFFFFFFFFFFFFFF01
:105BB400FFFFFFFFFFFFFFFFFFFFFFFFFFFFFFFFF1
:105BC400FFFF55F586E96DF3F3F4F3F4F3F4F3F41E
:105BD400F3F4F3F4F3F4F3F4F3F4F3F4F3F4F3F489
:105BE400F3F4F3F4F3F4F3F4F3F4F3F4F3F4F3F479
:105BF400F3F4F3F4F3F4F3F4F3F4F3F4F3F4F3F469
:105C0400F3F4F3F4F3F4F3F4F3F4F3F4F3F4F3F458
:105C1400F3F4F3F4F3F4F3F4F3F4F3F4F3F4F3F448
:105C2400F3F48EF3A6E9F4F4FFFFFFFFFFFFFFFF99
:105C3400FFFFFFFFFFFFFFFFFFFFFFFFFFFFFFFF70
:105C4400FFFFFFFFFFFFFFFFFFFFFFFFFFFFFFFF60
:105C5400FFFFFFFFFFFFFFFFFFFFFFFFFFFFFFFF50
:105C6400FFFFFFFFFFFFFFFFFFFFFFFFFFFFFFFF40
:105C7400FFFFFFFFFFFFFFFFFFFFFFFFFFFFFFFF30
:105C8400FFFFFFFF34F58AEA28EA08EA08EA08EA8F
:105C940008EA08EA08EA08EA08EA08EA08EA08EA70
:105CA40008EA08EA08EA08EA08EA08EA08EA08EA60
:105CB40008EA08EA08EA08EA08EA08EA08EA08EA50
:105CC40008EA08EA08EA08EA08EA08EA08EA08EA40
:105CD40008EA08EA08EA08EA08EA08EA08EA08EA30
:105CE40028EA8AEA75FDFFFFFFFFFFFFFFFFFFFFC2
:105CF400FFFFFFFFFFFFFFFFFFFFFFFFFFFFFFFFB0
:105D0400FFFFFFFFFFFFFFFFFFFFFFFFFFFFFFFF9F
:105D1400FFFFFFFFFFFFFFFFFFFFFFFFFFFFFFFF8F
:105D2400FFFFFFFFFFFFFFFFFFFFFFFFFFFFFFFF7F
:105D3400FFFFFFFFFFFFFFFFFFFFFFFFFFFFFFFF6F
:105D4400FFFFFFFFFFFFDFFFDBFE9AFE9AFE9AFED6
:105D54009AFE9AFE9AFE9AFE9AFE9AFE9AFE9AFE7F
:105D64009AFE9AFE9AFE9AFE9AFE9AFE9AFE9AFE6F
:105D74009AFE9AFE9AFE9AFE9AFE9AFE9AFE9AFE5F
:105D84009AFE9AFE9AFE9AFE9AFE9AFE9AFE9AFE4F
:105D94009AFE9AFE9AFE9AFE9AFE9AFE9AFE9AFE3F
:105DA400BAFEDFFFFFFFFFFFFFFFFFFFFFFFFFFF65
:105DB400FFFFFFFFFFFFFFFFFFFFFFFFFFFFFFFFEF
:105DC400FFFFFFFFFFFFFFFFFFFFFFFFFFFFFFFFDF
:105DD400FFFFFFFFFFFFFFFFFFFFFFFFFFFFFFFFCF
:105DE400FFFFFFFFFFFFFFFFFFFFFFFFFFFFFFFFBF
:066B5400FFFFFFFFFFFF41
:106B5A00000020007F000D1003880100029501004B
:106B6A0003A2010007AF010005BC01000AC9010028
:106B7A0007E3010001F0010003FD0100030A02001E
:106B8A00051702000724020002310200033E020038
:106B9A00024B02000358020005650200047202005B
:106BAA00057F0200058C02000599020005A6020075
:106BBA0005B3020005C0020005CD020005DA020095
:106BCA0002E7020002F4020007010300070E0300B5
:106BDA00071B03000428030009350300064F0300BE
:106BEA00055C0300066903000676030005830300BB
:106BFA0005900300069D030006AA030003B70300DD
:106C0A0004C4030005D1030004DE030007EB0300FC
:106C1A0006F803000705040005120400071F040014
:106C2A00062C040005390400054604000653040036
:106C3A0005600400096D040005870400059404003A
:106C4A0005A1040003AE040003BB040003C804004A
:106C5A0007D5040006E2040003EF040005FC040063
:106C6A000509050004160500052305000530050081
:106C7A00033D0500054A05000557050001640500A6
:106C8A0002710500057E0500018B050007980500C5
:106C9A0005A5050005B2050005BF050005CC0500E0
:106CAA0003D9050004E6050003F305000500060004
:106CBA00050D0600071A060005270600053406001A
:106CCA0004410600044E0600025B06000468060042
:106CDA00077506000382060000000000000000009D
:106CEA00000000000000000002020202020200028C
:106CFA00000000000505050000000000000000007B
:106D0A00000028287E14143F0A0A00000000040428
:106D1A001E05050E14140F040400000000000046AE
:106D2A00004900290026009001500248028801000B
:106D3A00000000000000060909262911314E000052
:106D4A000000010101000000000000000000000432
:106D5A00020201010101010202040000010202040F
:106D6A0004040404020201000004150E15040000C4
:106D7A0000000000000000000808087F080808005A
:106D8A0000000000000000000000020202010000F2
:106D9A0000000000000700000000000000000000E2
:106DAA0000000000020200000000040404020202C3
:106DBA0002020101010000000E1111111111110E40
:106DCA000000000000040604040404040E0000008D
:106DDA0000000E1110080402011F00000000000E3E
:106DEA0011100C1010110E0000000000080C0A0906
:106DFA001F08080800000000001F01010F101011F1
:106E0A000E00000000000C02010F1111110E00000B
:106E1A000000001F1008080404020200000000001D
:106E2A000E11110E1111110E00000000000E1111A9
:106E3A00111E1008060000000000000002020000F7
:106E4A00020200000000000000020200000202022A
:106E5A00010000000040300C020C3040000000002D
:106E6A00000000007F007F00000000000000000218
:106E7A000C3040300C020000000000070808040231
:106E8A0002000200000000000000007C00820039BD
:106E9A0001250125012501F90002003C000000003E
:106EAA0000000C0C1212123F212100000000000FFA
:106EBA0011110F1111110F00000000003C02010115
:106ECA000101023C00000000000F112121212111C3
:106EDA000F00000000001F01010F0101011F000047
:106EEA000000001F01011F01010101000000000054
:106EFA003C0201013921223C00000000002121212D
:106F0A003F212121210000000000070202020202A3
:106F1A00020700000000000E080808080808070019
:106F2A000000000011090503030509110000000013
:106F3A0000010101010101010F000000000063636B
:106F4A0055554949414100000000002323252529C0
:106F5A0029313100000000001C2241414141221C1C
:106F6A0000000000000F1111110F010101000000C3
:106F7A0000001C2241414141221C10600000000F08
:106F8A001111110F09112100000000001E01010E4C
:106F9A001010100F00000000001F04040404040471
:106FAA00040000000000212121212121211E0000CE
:106FBA000000001111110A0A0A040400000000006E
:106FCA00000000110111011101AA00AA00AA00443F
:106FDA000044000000000000000011110A04040A25
:106FEA001111000000000011110A0A04040404002F
:106FFA00000000001F1008040402011F0000000026
:10700A00070101010101010101010700000101015C
:10701A000202020202040404000007040404040435
:10702A0004040404070000000814224100000000C0
:10703A0000000000000000000000000000003F0007
:10704A000002040000000000000000000000000030
:10705A00000E101E11111E000000000101010F1187
:10706A001111110F000000000000000E01010101C2
:10707A000E000000001010101E111111111E000048
:10708A0000000000000E111F01110E000000000692
:10709A000101070101010101000000000000001EBA
:1070AA00111111111E100E00000101010F11111111
:1070BA00111100000000000100010101010101009D
:1070CA0000000000020003020202020202010000A4
:1070DA000101010905030509110000000001010170
:1070EA0001010101010100000000000000374949C7
:1070FA00494949000000000000000F111111111147
:10710A00000000000000000E111111110E00000015
:10711A00000000000F111111110F01010000000001
:10712A00001E111111111E101000000000000503AD
:10713A0001010101000000000000000E01030C081B
:10714A00070000000000010107010101010600001B
:10715A00000000000011111111111E0000000000B2
:10716A00000011110A0A040400000000000000498E
:10717A00495555222200000000000000110A0404AB
:10718A000A110000000000000011110A0A0404029A
:10719A000200000000000F080402010F00000000B6
:1071AA00080404040403040404040800000202029C
:1071BA000202020202020202000001020202020CA0
:1071CA0002020202010000000000004649310000EC
:0F71DA000000000000070505050505050700007A
:1071EC00450200004702000046020000FFFFFFFFBF
:1071FC000000000000000000000000000000000083
:10720C000000000000000000000000000000000072
:10721C00000000000000080000000800000008004A
:10722C00FFFFFFFF00000000000000000000000056
:10723C000000000000000000000000000000000042
:0C724C0000000000000000000000000036
:10725800D9110000CD110000C1110000FD1100007E
:10726800F1110000E5110000CD17000045180000DD
:10727800511800002D180000391800005D18000092
:10728800FFFFFFFFFFFFFFFFFFFFFFFFFFFFFFFF06
:10729800FFFFFFFFFFFFFFFFFFFFFFFFFFFFFFFFF6
:1072A800FFFFFFFFFFFFFFFFFFFFFFFFFFFFFFFFE6
:1072B80002000000040000000600000008000000B2
:1072C80010000000200000004000000080000000C6
:1072D8000001000000020000000400000008000097
:1072E80000100000002000000040000000800000A6
:1072F80048656C6C6F2C007468697320697320741E
:0873080068652064656D6F00EB
:10731000666F72204F4C4544204320636C69636B59
:0673200000106F005F1277
:02732600B13282
:027328005F8084
:02732A0020053C
:02732C00F1323C
:02732E0001CF8D
:067330008A518AA0B55548
:107338000200000003000000050000000700000034
:087348003D080000FFFFFFFFFC
:0873500040420F00070000801D
:00000001FF
