:10000000CCEF0BF00000000000EF00F0000000005B
:0A0010000000000000000000F3D71C
:0E001C000001B8B102D08D9201D08D82120089
:0E002A000001B8B102D08B9801D08B88120073
:0E0038000001B8B102D08B9601D08B86120069
:0E0046000001B8B102D0899801D0898812005B
:0E0054000001B8B102D08B9E01D08B8E12003D
:0E0062000001B8B102D08A9201D08A82120049
:0E0070000001B8B102D0899401D08984120039
:0E007E000001B8B102D08B9401D08B84120027
:0E008C000001B8B102D08B9601D08B86120015
:0E009A000001B8B102D0899001D08980120017
:0E00A8000001B8B102D08B9601D08B861200F9
:0E00B6000001B8B102D08B9A01D08B8A1200E3
:0E00C4000001B8B102D08B9C01D08B8C1200D1
:0E00D2000001B8B102D08A9001D08A801200DD
:0E00E0000001B8B102D08B9801D08B881200BD
:0E00EE000001B8B102D0899201D089821200BF
:1000FC00B8C0C9FF016A0150000A05E1000EC7B083
:0C010C00010E016EF8D7C9CF01F01200FF
:10011800B8C06AFF016A0150000A05E1000E68B024
:0C012800010E016EF8D76ACF01F0120042
:0E0134000001B8B102D08B9E01D08B8E12005C
:0E0142000001B8B102D08B9201D08B82120066
:0E0150000001B8B102D08B9801D08B8812004C
:0E015E000001B8B102D08B9A01D08B8A12003A
:0E016C000001B8B102D08B9C01D08B8C120028
:0E017A000001B8B102D08A9401D08A8412002C
:0E0188000001B8B102D08F9001D08F8012001C
:0E0196000001B8B102D08B9A01D08B8A120002
:0E01A4000001B8B102D08F9401D08F841200F8
:0E01B2000001B8B102D08F9201D08F821200EE
:0E01C0000001B8B102D08B9601D08B861200E0
:0E01CE000001B8B102D08B9801D08B881200CE
:0E01DC000001B8B102D08B9601D08B861200C4
:0E01EA000001B8B102D08B9601D08B861200B6
:0E01F8000001B8B102D08B9801D08B881200A4
:0E0206000001B8B102D08B9801D08B88120095
:0E0214000001B8B102D08D9401D08D8412008B
:0E0222000001B8B102D08D9601D08D86120079
:0E0230000001B8B102D08D9001D08D80120077
:0E023E000001B8B102D08B9001D08B8012006D
:10024C00F250026EF29E0500FF6A0150FE6E0050E5
:08025C00FD6E02BEF28E1200DD
:10026400B2C0B6F0B3C0B7F0B4C000F0B5C001F08E
:10027400010E0001B45F000EB55B0050011013E0E5
:1002840063C0E1FF64C0E2FFB6C0E9FFB7C0EAFFA4
:10029400EECFE6FF61C000F062C001F0D5DF0001DF
:0802A400B64BB72BE1D71200A5
:1002AC00ACC0B0F0ADC0B1F074C0E1FF75C0E2FFFE
:1002BC00E66A72C000F073C001F0C2DF57C0E1FF04
:1002CC0058C0E2FFE66A55C000F056C001F0B8DF36
:1002DC00AB0E0001B26F000EB36F010EB46F000EC7
:1002EC00B56FBADF57C0E1FF58C0E2FF010EE66EF2
:1002FC0055C000F056C001F0A3DF0001AE51AF11A4
:10030C0009E0B0C0B2F0B1C0B3F0AEC0B4F0AFC051
:10031C00B5F0A2DF74C0E1FF75C0E2FF010EE66E1E
:0C032C0072C000F073C001F08BDF120003
:100338000B6A0A6A096A00500402F4CF09F0F3CF85
:1003480008F001500502F4CF0BF0F3CF0AF000508B
:100358000502F3500926F4500A22E86A0B220150DC
:100368000402F3500926F4500A22E86A0B2208C056
:1003780000F009C001F00AC002F00BC003F012003F
:10038800090E0B6E1E0E0C6EE40E0D6E0D2EFED7B2
:0C0398000C2EFCD70B2EFAD70000120030
:1003A400FF0E0001676FFF0E686FFF0E696FFF0E8F
:1003B4006A6FFC0E766F000E776FB80E786F000EC2
:1003C400796F949AA051040A02E1948601D094961C
:1003D4009488C66AC79CC79EA051C612A251C61271
:1003E400A151C712A25305E0A351000AD8B4C78C87
:0C03F40003D0A353D8A4C78CC68A120003
:100400005C0E0001A86FA051A25D046E056A000E8B
:10041000055AA151A35D006E016A000E015A8CDFDE
:1004200000C0A6F001C0A7F0A96BAA6BA05160089C
:1004300004E3A251600801E301D08BD0A151600810
:1004400004E3A351600801E301D083D0A051A25D71
:1004500004E3A151A35D01E301D07BD0A051100FB3
:100460003E6EA251100F3F6E3F06A1C040F0A3C0E8
:1004700041F0A305416EA5C000F0016AA95100102A
:10048000006E00C0A9F0FF0EA415006E0050AA1364
:10049000150EAB6F3E0EAC6F000EAD6F020EAE6F61
:1004A000000EAF6F03DF750E0001AB6F400EAC6F37
:1004B000000EAD6F020EAE6F000EAF6FF7DE74C0B0
:1004C000E1FF75C0E2FFE66A72C000F073C001F0A0
:1004D000BDDE57C0E1FF58C0E2FFE66A55C000F03C
:1004E00056C001F0B3DEA80E0001B26F000EB36F6C
:1004F000010EB46F000EB56FB5DE57C0E1FF58C0F6
:10050000E2FF010EE66E55C000F056C001F09EDE1F
:10051000A6C000F0A7C001F0010E0001A65F000E0A
:10052000A75B005001100AE0A90EB26F000EB36F76
:10053000020EB46F000EB56F95DEEAD774C0E1FF0E
:1005400075C0E2FF010EE66E72C000F073C001F0EC
:040550007DDE12003A
:100554005C0E0001A46FA56BA66BA051600804E3B8
:10056400A151600801E301D06DD0A051100F006EBD
:1005740000C03EF000C03FF0A1C040F0A1C041F077
:10058400A3C000F0016AA5510010006E00C0A5F0E0
:10059400FF0EA215006E0050A613150EAB6F3E0E93
:1005A400AC6F000EAD6F020EAE6F000EAF6F7CDE4F
:1005B400750E0001AB6F400EAC6F000EAD6F020EF6
:1005C400AE6F000EAF6F70DE74C0E1FF75C0E2FF66
:1005D400E66A72C000F073C001F036DE57C0E1FF76
:1005E40058C0E2FFE66A55C000F056C001F02CDEA8
:1005F400A40E0001B26F000EB36F010EB46F000EB3
:10060400B56F2EDE57C0E1FF58C0E2FF010EE66E63
:1006140055C000F056C001F017DEA50E0001B26F00
:10062400000EB36F020EB46F000EB56F19DE74C006
:10063400E1FF75C0E2FF010EE66E72C000F073C008
:0606440001F002DE1200CD
:10064A00150E0C6EC60E0D6E0D2EFED70C2EFCD797
:04065A00000012008A
:10065E0090C0F6FF91C0F7FF92C0F8FF0900F5CFEA
:10066E0084F00900F5CF85F00900F5CF86F009007A
:10067E00F5CF87F0080E00019025F66E000E912141
:10068E00F76E000E9221F86E0900F5CF72F0090098
:10069E00F5CF73F00900F5CF74F00900F5CF75F0C2
:1006AE00040E9025F66E000E9121F76E000E92212B
:1006BE00F86E0900F5CF59F00900F5CF5AF0090090
:1006CE00F5CF5BF00900F5CF5CF0180E9025F66EB5
:1006DE00000E9121F76E000E9221F86E0900F5CFF3
:1006EE0055F00900F5CF56F00900F5CF57F0090087
:1006FE00F5CF58F01C0E9025F66E000E9121F76E78
:10070E00000E9221F86E0900F5CF7CF00900F5CFAE
:10071E007DF00900F5CF7EF00900F5CF7FF01200D5
:10072E0090C0F6FF91C0F7FF92C0F8FF0900F5CF19
:10073E0061F00900F5CF62F00900F5CF63F0090012
:10074E00F5CF64F0040E00019025F66E000E912197
:10075E00F76E000E9221F86E0900F5CF80F00900B9
:10076E00F5CF81F00900F5CF82F00900F5CF83F0C7
:02077E00120067
:1007800090C0F6FF91C0F7FF92C0F8FF0900F5CFC7
:10079000A0F0040E00019025F66E000E9121F76E78
:1007A000000E9221F86E0900F5CFA1F0080E9025F9
:1007B000F66E000E9121F76E000E9221F86E090080
:1007C000F5CFA2F00C0E9025F66E000E9121F76E7B
:1007D000000E9221F86E0900F5CFA3F0E3DD000EC4
:0407E000006E120095
:1007E40057D0000191B102D0929201D0928276D07A
:1007F400000191B102D0929801D092886FD000018B
:1008040091B102D0969201D0968268D0000191B144
:1008140002D0949601D0948661D0000191B102D0A7
:10082400949801D094885AD0000191B102D0949A3E
:1008340001D0948A53D0000191B102D0949401D094
:1008440094844CD0000191B102D0939201D0938250
:1008540045D0000191B102D0949E01D0948E3ED037
:10086400000191B102D0949C01D0948C37D0000146
:1008740091B102D0949601D0948630D0000191B108
:1008840002D0949801D0948829D0010E006E28D00B
:1008940000019051000AA5E09051010AA9E090518D
:1008A400020AADE09051030AB1E09051040AB5E0A8
:1008B4009051050AB9E09051060ABDE09051070A2B
:1008C400C1E09051080AC5E09051090AC9E090516D
:1008D4000A0ACDE090510B0AD1E0D7D7000E006E82
:0208E400120000
:1008E60057D0000191B102D0929001D0928076D07B
:1008F600000191B102D0949001D094806FD0000194
:1009060091B102D0969001D0968068D0000191B145
:1009160002D0949601D0948661D0000191B102D0A4
:10092600949801D094885AD0000191B102D0949A3B
:1009360001D0948A53D0000191B102D0949201D093
:1009460094824CD0000191B102D0939001D0938053
:1009560045D0000191B102D0949E01D0948E3ED034
:10096600000191B102D0949C01D0948C37D0000143
:1009760091B102D0949601D0948630D0000191B105
:1009860002D0949801D0948829D0010E006E28D008
:1009960000019051000AA5E09051010AA9E090518A
:1009A600020AADE09051030AB1E09051040AB5E0A5
:1009B6009051050AB9E09051060ABDE09051070A28
:1009C600C1E09051080AC5E09051090AC9E090516A
:1009D6000A0ACDE090510B0AD1E0D7D7000E006E7F
:0209E6001200FD
:1009E80057D0000191B102D0929401D0928476D070
:1009F800000191B102D0969601D096866FD0000181
:100A080091B102D0969401D0968468D0000191B13A
:100A180002D0949601D0948661D0000191B102D0A1
:100A2800949801D094885AD0000191B102D0949A38
:100A380001D0948A53D0000191B102D0989001D08E
:100A480098804CD0000191B102D0939401D0938446
:100A580045D0000191B102D0989401D098843ED03D
:100A6800000191B102D0989201D0988237D000014C
:100A780091B102D0949601D0948630D0000191B102
:100A880002D0949801D0948829D0010E006E28D005
:100A980000019051000AA5E09051010AA9E0905187
:100AA800020AADE09051030AB1E09051040AB5E0A2
:100AB8009051050AB9E09051060ABDE09051070A25
:100AC800C1E09051080AC5E09051090AC9E0905167
:100AD8000A0ACDE090510B0AD1E0D7D7000E006E7C
:020AE8001200FA
:100AEA0090C0F6FF91C0F7FF92C0F8FF0900F5CF5A
:100AFA00A0F0040E00019025F66E000E9121F76E0B
:100B0A00000E9221F86E0900F5CFA1F0080E90258B
:100B1A00F66E000E9121F76E000E9221F86E090012
:100B2A00F5CFA2F00C0E9025F66E000E9121F76E0D
:100B3A00000E9221F86E0900F5CFA3F02EDC000E0C
:040B4A00006E120027
:100B4E0090C0F6FF91C0F7FF92C0F8FF0900F5CFF5
:100B5E00A0F0040E00019025F66E000E9121F76EA6
:100B6E00000E9221F86E0900F5CFA1F0080E902527
:100B7E00F66E000E9121F76E000E9221F86E0900AE
:100B8E00F5CFA2F00C0E9025F66E000E9121F76EA9
:100B9E00000E9221F86E0900F5CFA3F0D2EC01F011
:060BAE00000E006E1200B3
:100BB4007EC0E1FF7FC0E2FF60C0E6FF7CC000F0C2
:0A0BC4007DC001F026EC01F01200E4
:100BCE000001966B976B986B996B9A6B9B6B9C6BFA
:100BDE005450915D02E15350905D01E22FD191513D
:100BEE007B5D02E190517A5D01E228D15350905D18
:100BFE00016E54509159026E01C003F002C004F010
:100C0E00033603900436033603900436080E6D2522
:100C1E00006E000E6E21016E000E6F21026E0350EB
:100C2E0000240D6E045001200E6E000E02200F6E79
:100C3E000DC0F6FF0EC0F7FF0FC0F8FF0900F5CF8D
:100C4E0096F0010E0D24F66E000E0E20F76E000EBD
:100C5E000F20F86E0900F5CF00F000C009F0000E6D
:100C6E000A6E0B6E0C6E020E0D24F66E000E0E202A
:100C7E00F76E000E0F20F86E0900F5CF00F000C0E1
:100C8E0005F0000E066E076E086E07C003F006C074
:100C9E0002F005C001F0006A0050092601500A2238
:100CAE0002500B2203500C22030E0D24F66E000E82
:100CBE000E20F76E000E0F20F86E0900F5CF00F033
:100CCE0000C005F0000E066E076E086E06C003F03B
:100CDE0005C002F0006A016A095000260A5001227E
:100CEE000B5002220C5003226D510024936F6E5153
:100CFE000120946F6F510220956F5F50000A04E03F
:100D0E005F50020A01E050D06BC099F06CC09AF0AF
:100D1E00926B000E006E7151005C02E17051925D9B
:100D2E0034E25DC097F05EC098F09C6B606B96519C
:100D3E00605D27E29C5310E193C0F6FF94C0F7FF6D
:100D4E0095C0F8FF0900F5CF9BF0010E9327000E1A
:100D5E0094239523010E9C6F9C519B15006E0AE007
:100D6E0097C0A0F099C0A1F065C0A2F066C0A3F034
:100D7E00AAEC02F00001974B982B9C379C91602BAC
:100D8E00D6D7994B9A2B922BC4D75F50000A07E106
:100D9E00010E97255D6E000E98215E6E04D099C0EF
:100DAE006BF09AC06CF04AD05DC099F05EC09AF0BC
:100DBE00926B000E006E7151005C02E17051925DFB
:100DCE0037E26BC097F06CC098F09C6B606B9651DD
:100DDE00605D2AE29C51000A10E193C0F6FF94C0B8
:100DEE00F7FF95C0F8FF0900F5CF9BF0010E932792
:100DFE00000E94239523010E9C6F9C519B15006E43
:100E0E000AE099C0A0F097C0A1F065C0A2F066C03C
:100E1E00A3F0AAEC02F0010E0001975F000E985BA2
:100E2E009C379C91602BD3D7994B9A2B922BC1D781
:0E0E3E00010E975D6B6F000E98596C6F1200DD
:100E4C0000019C6B9D6B5C0E606F9E6B9F6B905159
:100E5C00925D046E056A000E055A9151935D006E09
:100E6C00016A000E015A9CEC01F000C097F001C021
:100E7C0098F0060E9425996F000E95219A6F000E2E
:100E8C0096219B6F9051600804E39251600801E336
:100E9C0001D0B2D09151600804E39351600801E392
:100EAC0001D0AAD09051925D04E39151935D01E37E
:100EBC0001D0A2D09051100F3E6E9251100F3F6E88
:100ECC003F0691C040F093C041F09305416E150E62
:100EDC00AB6F3E0EAC6F000EAD6F020EAE6F000E20
:100EEC00AF6F56EC01F0750E0001AB6F400EAC6F9E
:100EFC00000EAD6F020EAE6F000EAF6F56EC01F030
:100F0C0074C0E1FF75C0E2FFE66A72C000F073C006
:100F1C0001F026EC01F057C0E1FF58C0E2FFE66A91
:100F2C0055C000F056C001F026EC01F0600E000137
:100F3C00B26F000EB36F010EB46F000EB56F32ECD2
:100F4C0001F057C0E1FF58C0E2FF010EE66E55C03C
:100F5C0000F056C001F026EC01F097C000F098C0EC
:100F6C0001F0010E0001975F000E985B005001101C
:100F7C0037E0010E9C25006E000E9D21016E005085
:100F8C009925F66E01509A21F76E000E9B21F86E92
:100F9C000900F5CF9EF09C519925F66E9D519A2132
:100FAC00F76E000E9B21F86E0900F5CF9FF09E0E98
:100FBC00B26F000EB36F010EB46F000EB56F32EC52
:100FCC0001F09F0EB26F000EB36F010EB46F000EE6
:100FDC00B56F32EC01F0020E9C27000E9D23BDD79D
:100FEC0074C0E1FF75C0E2FF010EE66E72C000F046
:0A0FFC0073C001F026EC01F01200B2
:101006000001A06BA16B600EA26F600EA36F90C073
:0C101600A4F091C0A5F000EC02F0120064
:101022005BC0E1FF5CC0E2FF010EE66E59C000F05A
:101032005AC001F026EC01F025EC03F05BC0E1FFA1
:101042005CC0E2FFE66A59C000F05AC001F026EC2B
:1010520001F025EC03F05BC0E1FF5CC0E2FF010E92
:10106200E66E59C000F05AC001F026EC01F0C4EC63
:0410720001F0120077
:101076001CD089C090F08AC091F08BC092F064DDDC
:101086001FD089C090F08AC091F08BC092F02ADD03
:1010960017D089C090F08AC091F08BC092F0C0EC56
:1010A60003F00ED0010E006E0BD000018851000A2D
:1010B600E0E08851010AE5E08851020AEAE0F2D749
:0210C600120016
:1010C8008BC090F08CC091F0020E00018825F66E5E
:1010D800000E8921F76E000E8A21F86E0900F5CFFF
:1010E80000F000508B25926F040E8825F66E000ED6
:1010F8008921F76E000E8A21F86E0900F5CF00F0FD
:1011080000508C25936F88C094F089C095F08AC0F0
:0611180096F098DE1200C3
:10111E0017D089C090F08AC091F073EC04F01BD008
:10112E0089C090F08AC091F0F2EC03F014D089C01F
:10113E0090F08AC091F051DC0ED0010E006E0BD0F3
:10114E0000018851000AE5E08851010AE9E0885162
:08115E00020AEDE0F2D71200D5
:1011660088C0A0F089C0A1F08AC0A2F08BC0A3F00D
:0E1176008CC0A4F08DC0A5F000EC02F01200B9
:10118400010E0001606F14DD4ADFFD0E0001AB6F3C
:101194004A0EAC6F000EAD6F010EAE6F000EAF6F56
:1011A40056EC01F0FD0E0001AB6F4E0EAC6F000E5D
:1011B400AD6F010EAE6F000EAF6F56EC01F0AE0EC8
:1011C4000001AB6FAC6BAD6BAE6BAF6B56EC01F06B
:1011D400A00E0001AB6F440EAC6F000EAD6F010E9C
:1011E400AE6F000EAF6F56EC01F0CA0E0001AB6F8C
:1011F400520EAC6F000EAD6F010EAE6F000EAF6FEE
:1012040056EC01F0A10E0001AB6F450EAC6F000E61
:10121400AD6F010EAE6F000EAF6F56EC01F0A20E73
:101224000001AB6F420EAC6F000EAD6F010EAE6FDE
:10123400000EAF6F56EC01F0BE0E0001AB6F470E0F
:10124400AC6F000EAD6F010EAE6F000EAF6F56ECBB
:1012540001F0B30E0001AB6F460EAC6F000EAD6F24
:10126400010EAE6F000EAF6F56EC01F0B10E00012F
:10127400AB6F490EAC6F000EAD6F010EAE6F000E7A
:10128400AF6F56EC01F0B60E0001AB6F480EAC6FB9
:10129400000EAD6F010EAE6F000EAF6F56EC01F095
:1012A400C70E0001AB6F430EAC6F000EAD6F010EA5
:1012B400AE6F000EAF6F56EC01F0C10E0001AB6FC4
:1012C4004B0EAC6F000EAD6F030EAE6F000EAF6F22
:1012D40056EC01F0B40E0001AB6F4F0EAC6F000E74
:1012E400AD6F030EAE6F000EAF6F56EC01F0A60E9D
:1012F4000001AB6FAC6BAD6BAE6BAF6B56EC01F03A
:10130400AF0E0001AB6FAC6BAD6BAE6BAF6B56EC5D
:0C13140001F00001906B916B74DE120080
:101320008BC090F08CC091F08DC092F097EC03F0E0
:1013300088C090F089C091F08AC092F02FEC03F041
:1013400074C0E1FF75C0E2FF010EE66E72C000F0EE
:1013500073C001F026EC01F057C0E1FF58C0E2FF76
:10136000010EE66E55C000F056C001F026EC01F00B
:02137000120069
:1013720088C06DF089C06EF08AC06FF0020E000165
:101382008825F66E000E8921F76E000E8A21F86E0E
:101392000900F5CF04F0030E8825F66E000E8921B0
:1013A200F76E000E8A21F86E0900F5CF03F003C034
:1013B20001F0006A04500024536E000E0120546EA6
:1013C200040E8825F66E000E8921F76E000E8A2122
:1013D200F86E0900F5CF04F0050E8825F66E000EB2
:1013E2008921F76E000E8A21F86E0900F5CF03F00D
:1013F20003C001F0006A045000247A6F000E01203D
:101402007B6F060E8825F66E000E8921F76E000EA0
:101412008A21F86E0900F5CF70F0000E716F8BC053
:0C14220065F08CC066F08DC05FF0120019
:10142E0088C08EF089C08FF0000E00018B5D02E146
:10143E00600E8A5D07E2000E8D5D02E1600E8C5D2E
:10144E0001E201D01DD08AC05DF08BC05EF08CC071
:10145E006BF08DC06CF08EC0E9FF8FC0EAFFEE52CC
:10146E000FE08EC0E9FF8FC0EAFFEECF90F0000EC6
:10147E00916F000E916FE7EC05F08E4B8F2BEBD733
:02148E0012004A
:101490000001886B070E896F8A6B41DE0001886B43
:1014A000010E896F8A6B3BDE0001886B896B8A6B4A
:1014B00036DE0001886B020E896F8A6B30DE000118
:1014C000886B060E896F8A6B2ADE0001886BD90E45
:1014D000896F660E8A6F000E8B6FCDDD090E0B6E65
:1014E0001E0E0C6EE40E0D6E0D2EFED70C2EFCD7CC
:0814F0000B2EFAD700001200D8
:1014F8000900F5CFE6FF0006FBE10106F9E112005D
:101508003B0E0001886F660E896F000E8A6FE90E28
:101518008B6F660E8C6F000E8D6FFEDE2FDEFF0E5A
:101528000001906FFF0E916F6ADDAC0E0001886FAD
:101538005F0E896F000E8A6F8B6B8C6B000E8D6F40
:1015480014DF370E886F000E896F0F0E8A6F000E3A
:101558008B6F0A0E8C6F000E8D6F65DF260E886FFD
:10156800000E896F050E8A6F000E8B6F1E0E8C6F32
:10157800000E8D6F58DF150E886F000E896F050EEF
:101588008A6F000E8B6F2D0E8C6F000E8D6F4BDFE8
:10159800520E0B6E2B0E0C6E000E0D6E0D2EFED71E
:0C15A8000C2EFCD70B2EFAD7000012000E
:1015B400FF0E0001906FFF0E916F23DDC4EC01F06C
:1015C4000001886B896B600E8A6F600E8B6F000E52
:1015D4008C6FF00E8D6FC5DD290E0B6E960E0C6EA2
:1015E4007F0E0D6E0D2EFED70C2EFCD70B2EFAD7C8
:1015F400050E0001886F050E896F5B0E8A6F5B0E06
:101604008B6F000E8C6FFF0E8D6FABDD290E0B6E92
:10161400960E0C6E7F0E0D6E0D2EFED70C2EFCD783
:101624000B2EFAD70A0E0001886F0A0E896F560E28
:101634008A6F560E8B6FF00E8C6F000E8D6F91DDDE
:10164400290E0B6E960E0C6E7F0E0D6E0D2EFED7B0
:101654000C2EFCD70B2EFAD70F0E0001886F0F0E3D
:10166400896F510E8A6F510E8B6F0F0E8C6F0F0E98
:101674008D6F77DD290E0B6E960E0C6E7F0E0D6E40
:101684000D2EFED70C2EFCD70B2EFAD7140E00010C
:10169400886F140E896F4C0E8A6F4C0E8B6F000E80
:1016A4008C6FF00E8D6F5DDD290E0B6E960E0C6E39
:1016B4007F0E0D6E0D2EFED70C2EFCD70B2EFAD7F7
:1016C400190E0001886F190E896F470E8A6F470E35
:1016D4008B6F000E8C6FFF0E8D6F43DDC4EC01F039
:1016E400190E0001886F190E896F470E8A6F1B0E41
:1016F4008B6F8C6B8D6B35DDC4EC01F0190E000122
:10170400886F470E896F470E8A6F490E8B6F8C6BFB
:101714008D6B27DDC4EC01F0190E0001886F190EE2
:10172400896F1B0E8A6F470E8B6F8C6B8D6B19DD67
:10173400C4EC01F0440E0001886F190E896F470E46
:101744008A6F470E8B6F8C6B8D6B0BDDF40E0B6EFB
:10175400820E0C6E050E0D6E0D2EFED70C2EFCD7D0
:101764000B2EFAD7A60E0001886F170E896F000E94
:101774008A6F8B6B8C6BA6DCA30E0B6E570E0C6EF4
:10178400020E0D6E0D2EFED70C2EFCD70B2EFAD7A3
:04179400000012003F
:0E17980079EC33F079DEB4DE09DFFED7FFD73F
:1066F20010EE15F03E0E006E010E016E9B0EF66E50
:0E670200660EF76E000EF86E7CEC0AF01200C8
:1017A600001060006000FFFFFFFFFFFFFFFFFFFF6D
:1017B600FFFFFFFFFFFFFFFFFFFFFFFFFFFFFFFF33
:1017C600FFFFFFFFFFFFFFFFFFFFFFFFFFFFFFFF23
:1017D600FFFFFFFFFFFFFFFFFFFFFFFFFFFFFFFF13
:1017E600FFFFFFFFFFFFFFFFFFFFFFFFFFFFFFFF03
:1023D600FFFFFFFFFFFFFFFF5DFF3CFF3CFF3CFFF2
:1023E6003CFF3CFF3CFF3CFF3CFF3CFF3CFF3CFF0F
:1023F6003CFF3CFF3CFF3CFF3CFF3CFF3CFF3CFFFF
:102406003CFF3CFF3CFF3CFF3CFF3CFF3CFF3CFFEE
:102416003CFF3CFF3CFF3CFF3CFF3CFF3CFF3CFFDE
:102426003CFF3CFF3CFF3CFF3CFF3CFF3CFF3CFFCE
:102436005DFFFFFFFFFFFFFFFFFFFFFFFFFFFFFF48
:10244600FFFFFFFFFFFFFFFFFFFFFFFFFFFFFFFF96
:10245600FFFFFFFFFFFFFFFFFFFFFFFFFFFFFFFF86
:10246600FFFFFFFFFFFFFFFFFFFFFFFFFFFFFFFF76
:10247600FFFFFFFFFFFFFFFFFFFFFFFFFFFFFFFF66
:10248600FFFFFFFFFFFFFFFFFFFFFFFFFFFFFFFF56
:10249600FFFFFFFF79FED3F4EFF3CFF3CFF3CFF3D4
:1024A600CFF3CFF3CFF3CFF3CFF3CFF3CFF3CFF316
:1024B600CFF3CFF3CFF3CFF3CFF3CFF3CFF3CFF306
:1024C600CFF3CFF3CFF3CFF3CFF3CFF3CFF3CFF3F6
:1024D600CFF3CFF3CFF3CFF3CFF3CFF3CFF3CFF3E6
:1024E600CFF3CFF3CFF3CFF3CFF3CFF3CFF3CFF3D6
:1024F600EFF3D3F4BAFEFFFFFFFFFFFFFFFFFFFF7F
:10250600FFFFFFFFFFFFFFFFFFFFFFFFFFFFFFFFD5
:10251600FFFFFFFFFFFFFFFFFFFFFFFFFFFFFFFFC5
:10252600FFFFFFFFFFFFFFFFFFFFFFFFFFFFFFFFB5
:10253600FFFFFFFFFFFFFFFFFFFFFFFFFFFFFFFFA5
:10254600FFFFFFFFFFFFFFFFFFFFFFFFFFFFFFFF95
:10255600FFFF9AFECBF2E7E9CBEACBEACBEACBEA7E
:10256600CBEACBEACBEACBEACBEACBEACBEACBEABD
:10257600CBEACBEACBEACBEACBEACBEACBEACBEAAD
:10258600CBEACBEACBEACBEACBEACBEACBEACBEA9D
:10259600CBEACBEACBEACBEACBEACBEACBEACBEA8D
:1025A600CBEACBEACBEACBEACBEACBEACBEACBEA7D
:1025B600CBEAE7E90CF359FEFFFFFFFFFFFFFFFF42
:1025C600FFFFFFFFFFFFFFFFFFFFFFFFFFFFFFFF15
:1025D600FFFFFFFFFFFFFFFFFFFFFFFFFFFFFFFF05
:1025E600FFFFFFFFFFFFFFFFFFFFFFFFFFFFFFFFF5
:1025F600FFFFFFFFFFFFFFFFFFFFFFFFFFFFFFFFE5
:10260600FFFFFFFFFFFFFFFFFFFFFFFFFFFFFFFFD4
:10261600DFFFCBF2A6E9F7FD5DFFFCFE1CFF1CFF0A
:102626001CFF1CFF1CFF1CFF1CFF1CFF1CFF1CFFCC
:102636001CFF1CFF1CFF1CFF1CFF1CFF1CFF1CFFBC
:102646001CFF1CFF1CFF1CFF1CFF1CFF1CFF1CFFAC
:102656001CFF1CFF1CFF1CFF1CFF1CFF1CFF1CFF9C
:102666001CFF1CFF1CFF1CFF1CFF1CFF1CFFFBFEAE
:102676005DFF18FE86E96AF2FFFFFFFFFFFFFFFF1F
:10268600FFFFFFFFFFFFFFFFFFFFFFFFFFFFFFFF54
:10269600FFFFFFFFFFFFFFFFFFFFFFFFFFFFFFFF44
:1026A600FFFFFFFFFFFFFFFFFFFFFFFFFFFFFFFF34
:1026B600FFFFFFFFFFFFFFFFFFFFFFFFFFFFFFFF24
:1026C600FFFFFFFFFFFFFFFFFFFFFFFFFFFFFFFF14
:1026D600FBFE21E818FEFBFEB2F4AFF3EFF3F0F3D6
:1026E600EFF3EFF3EFF3EFF3EFF3EFF3EFF3F0F3D3
:1026F600F0F3F0F3F0F3F0F3F0F3F0F3F0F3F0F3BC
:10270600F0F3F0F3F0F3EFF3EFF3EFF3F0F3F0F3AE
:10271600EFF3EFF3EFF3EFF3F0F3F0F3F0F3F0F39F
:10272600F0F3F0F3F0F3F0F3F0F3F0F3EFF3AFF3CD
:10273600B2F4FCFED7FD41E83CFFFFFFFFFFFFFFC1
:10274600FFFFFFFFFFFFFFFFFFFFFFFFFFFFFFFF93
:10275600FFFFFFFFFFFFFFFFFFFFFFFFFFFFFFFF83
:10276600FFFFFFFFFFFFFFFFFFFFFFFFFFFFFFFF73
:10277600FFFFFFFFFFFFFFFFFFFFFFFFFFFFFFFF63
:10278600FFFFFFFFFFFFFFFFFFFFFFFFFFFFFFFF53
:10279600F4F482E8FFFF6EF320E821E821E800E880
:1027A60020E841E841E821E821E820E820E800E8BF
:1027B60021E821E821E821E821E821E821E821E8CB
:1027C60021E821E800E820E841E861E862E882E8DB
:1027D60062E861E841E820E800E821E821E821E82C
:1027E60021E821E821E821E821E821E821E821E89B
:1027F60020E88EF3FFFF25E992F4FFFFFFFFFFFFBE
:10280600FFFFFFFFFFFFFFFFFFFFFFFFFFFFFFFFD2
:10281600FFFFFFFFFFFFFFFFFFFFFFFFFFFFFFFFC2
:10282600FFFFFFFFFFFFFFFFFFFFFFFFFFFFFFFFB2
:10283600FFFFFFFFFFFFFFFFFFFFFFFFFFFFFFFFA2
:10284600FFFFFFFFFFFFFFFFFFFFFFFFFFFFFFFF92
:1028560031F486E9FFFF29F262E8E4E8A3E8C3E879
:1028660086E9C8E9C7E9A7E9A7E986E945E9E3E80A
:1028760083E8C4E8E4E8E4E8E4E8E4E8E4E8C3E894
:10288600A3E883E8C3E845E929EAABF2ECF20CF3E6
:10289600ECF28AF208EA45E9C3E883E8A3E8C3E86C
:1028A600E4E8E4E8E4E8E4E8E4E8E4E8E4E8E4E8C2
:1028B60062E809F2FFFFC8E910F4FFFFFFFFFFFF20
:1028C600FFFFFFFFFFFFFFFFFFFFFFFFFFFFFFFF12
:1028D600FFFFFFFFFFFFFFFFFFFFFFFFFFFFFFFF02
:1028E600FFFFFFFFFFFFFFFFFFFFFFFFFFFFFFFFF2
:1028F600FFFFFFFFFFFFFFFFFFFFFFFFFFFFFFFFE2
:10290600FFFFFFFFFFFFFFFFFFFFFFFFFFFFFFFFD1
:1029160051F466E9FFFF6AF262E882E804E9D7F556
:10292600BEFFBEFF9EFF9EFF7EFF7DFF5DFFBAFEE0
:102936006AEA62E8C4E8E4E8E4E8E4E8A3E861E80F
:10294600A3E8ECF218FE5DFFFFFFFFFFFFFFFFFFAE
:10295600FFFFFFFFDFFF5DFFD7F5ECF2A3E862E8BC
:10296600A3E8E4E8E4E8E4E8E4E8E4E8E4E8E4E842
:1029760062E84AEAFFFFC7E930F4FFFFFFFFFFFF07
:10298600FFFFFFFFFFFFFFFFFFFFFFFFFFFFFFFF51
:10299600FFFFFFFFFFFFFFFFFFFFFFFFFFFFFFFF41
:1029A600FFFFFFFFFFFFFFFFFFFFFFFFFFFFFFFF31
:1029B600FFFFFFFFFFFFFFFFFFFFFFFFFFFFFFFF21
:1029C600FFFFFFFFFFFFFFFFFFFFFFFFFFFFFFFF11
:1029D60051F466E9FFFF6AF221E8A3E8DBFEFFFF98
:1029E600FFFFFFFFFFFFFFFFFFFFFFFFFFFFFFFFF1
:1029F600FFFF29F262E8E4E8E4E842E821E8B3F4FC
:102A0600DFFFFFFFFFFFFFFFFFFFFFFFFFFFFFFFF0
:102A1600FFFFFFFFFFFFFFFFFFFFFFFFDFFF92F458
:102A260021E841E8E4E8E4E8E4E8E4E8E4E8E4E8A6
:102A360062E86AF2FFFFC7E931F4FFFFFFFFFFFF1D
:102A4600FFFFFFFFFFFFFFFFFFFFFFFFFFFFFFFF90
:102A5600FFFFFFFFFFFFFFFFFFFFFFFFFFFFFFFF80
:102A6600FFFFFFFFFFFFFFFFFFFFFFFFFFFFFFFF70
:102A7600FFFFFFFFFFFFFFFFFFFFFFFFFFFFFFFF60
:102A8600FFFFFFFFFFFFFFFFFFFFFFFFFFFFFFFF50
:102A960051F466E9FFFF6AF200E88EF3FFFFFFFFDD
:102AA600FFFFFFFFFFFFFFFFFFFFFFFFFFFFFFFF30
:102AB600FFFF75F5C4E8C4E800E8C7E9DFFFFFFFDC
:102AC600FFFFFFFFFFFFFFFFFFFFFFFFFFFFFFFF10
:102AD600FFFFFFFFFFFFFFFFFFFFFFFFFFFFFFFF00
:102AE600DFFF08EA00E8E4E8E4E8E4E8E4E8E4E82C
:102AF60062E86AF2FFFFC7E931F4FFFFFFFFFFFF5D
:102B0600FFFFFFFFFFFFFFFFFFFFFFFFFFFFFFFFCF
:102B1600FFFFFFFFFFFFFFFFFFFFFFFFFFFFFFFFBF
:102B2600FFFFFFFFFFFFFFFFFFFFFFFFFFFFFFFFAF
:102B3600FFFFFFFFFFFFFFFFFFFFFFFFFFFFFFFF9F
:102B4600FFFFFFFFFFFFFFFFFFFFFFFFFFFFFFFF8F
:102B560051F466E9FFFF49EA01E8B3F4FFFFFFFF1E
:102B6600FFFFFFFFFFFFFFFFFFFFFFFFFFFFFFFF6F
:102B7600FFFFDBFE46E900E8A7E9BEFFFFFFFFFF18
:102B8600FFFFFFFFFFFFFFFFFFFFFFFFFFFFFFFF4F
:102B9600FFFFFFFFFFFFFFFFFFFFFFFFFFFFFFFF3F
:102BA600FFFFBEFF09EA00E8E4E8E4E8E4E8E4E859
:102BB60062E86AF2FFFFC7E931F4FFFFFFFFFFFF9C
:102BC600FFFFFFFFFFFFFFFFFFFFFFFFFFFFFFFF0F
:102BD600FFFFFFFFFFFFFFFFFFFFFFFFFFFFFFFFFF
:102BE600FFFFFFFFFFFFFFFFFFFFFFFFFFFFFFFFEF
:102BF600FFFFFFFFFFFFFFFFFFFFFFFFFFFFFFFFDF
:102C0600FFFFFFFFFFFFFFFFFFFFFFFFFFFFFFFFCE
:102C160051F466E9FFFF49F221E814F5FFFF8EF350
:102C2600E3E8E3E8E3E8E3E8E3E8E3E8E3E009EA26
:102C3600FFFF7DFFA3E8C3E85DFFFFFFFFFFFFFF88
:102C4600FFFFFFFFFFFFFFFFFFFFFFFFFFFFFFFF8E
:102C5600FFFFFFFFFFFFFFFFFFFFFFFFFFFFFFFF7E
:102C6600FFFFFFFF5DFF6AF220E8E4E8E4E8E4E83E
:102C760062E86AF2FFFFC7E931F4FFFFFFFFFFFFDB
:102C8600FFFFFFFFFFFFFFFFFFFFFFFFFFFFFFFF4E
:102C9600FFFFFFFFFFFFFFFFFFFFFFFFFFFFFFFF3E
:102CA600FFFFFFFFFFFFFFFFFFFFFFFFFFFFFFFF2E
:102CB600FFFFFFFFFFFFFFFFFFFFFFFFFFFFFFFF1E
:102CC600FFFFFFFFFFFFFFFFFFFFFFFFFFFFFFFF0E
:102CD60051F466E9FFFF49EA21E8F4F4FFFF3CFFFF
:102CE600BAFEBAFEBAFEBAFEBAFEBAFEBAFEFBFEDD
:102CF600FFFFF0F321E859FEFFFFFFFFFFFFFFFF95
:102D0600FFFFFFFFFFFFFFFFFFFFFFFFFFFFFFFFCD
:102D1600FFFFFFFFFFFFFFFFFFFFFFFFFFFFFFFFBD
:102D2600FFFFFFFFFFFF1CFF04E982E8E4E8E4E899
:102D360062E86AF2FFFFC7E931F4FFFFFFFFFFFF1A
:102D4600FFFFFFFFFFFFFFFFFFFFFFFFFFFFFFFF8D
:102D5600FFFFFFFFFFFFFFFFFFFFFFFFFFFFFFFF7D
:102D6600FFFFFFFFFFFFFFFFFFFFFFFFFFFFFFFF6D
:102D7600FFFFFFFFFFFFFFFFFFFFFFFFFFFFFFFF5D
:102D8600FFFFFFFFFFFFFFFFFFFFFFFFFFFFFFFF4D
:102D960051F466E9FFFF6AF200E851F4FFFFFFFF16
:102DA600FFFFFFFFFFFFFFFFFFFFFFFFFFFFFFFF2D
:102DB6007DFFE4E80CF3DFFFFFFFFFFFFFFFFFFFF0
:102DC600FFFFFFFFFFFFFFFFFFFFFFFFFFFFFFFF0D
:102DD600FFFFFFFFFFFFFFFFFFFFFFFFFFFFFFFFFD
:102DE600FFFFFFFFFFFFFFFF34F520E8E4E8E4E81C
:102DF60062E86AF2FFFFC7E931F4FFFFFFFFFFFF5A
:102E0600FFFFFFFFFFFFFFFFFFFFFFFFFFFFFFFFCC
:102E1600FFFFFFFFFFFFFFFFFFFFFFFFFFFFFFFFBC
:102E2600FFFFFFFFFFFFFFFFFFFFFFFFFFFFFFFFAC
:102E3600FFFFFFFFFFFFFFFFFFFFFFFFFFFFFFFF9C
:102E4600FFFFFFFFFFFFFFFFFFFFFFFFFFFFFFFF8C
:102E560051F466E9FFFF6AF200E8C8E95DFFFFFF8B
:102E6600FFFFFFFFFFFFFFFFFFFFFFFFFFFFFFFF6C
:102E760034F521E859FEFFFFFFFFFFFFFFFFFFFFCD
:102E8600FFFFFFFFFFFFFFFFFFFFFFFFFFFF59FEF3
:102E96003CFFFFFFFFFFFFFFFFFFFFFFFFFFFFFFFF
:102EA600FFFFFFFFFFFFFFFF7EFFC7E962E8E4E8E1
:102EB60062E86AF2FFFFC7E931F4FFFFFFFFFFFF99
:102EC600FFFFFFFFFFFFFFFFFFFFFFFFFFFFFFFF0C
:102ED600FFFFFFFFFFFFFFFFFFFFFFFFFFFFFFFFFC
:102EE600FFFFFFFFFFFFFFFFFFFFFFFFFFFFFFFFEC
:102EF600FFFFFFFFFFFFFFFFFFFFFFFFFFFFFFFFDC
:102F0600FFFFFFFFFFFFFFFFFFFFFFFFFFFFFFFFCB
:102F160051F466E9FFFF6AF242E882E80CF3FBFE31
:102F2600FFFFFFFFFFFFFFFFFFFFFFFFFFFFBEFFEC
:102F36000CF366E99EFFFFFFFFFFFFFFFFFFFFFFAA
:102F4600FFFFFFFFFFFFFFFFFFFFFFFF51F4E7E972
:102F56004AF2BAFEFFFFFFFFFFFFFFFFFFFFFFFF83
:102F6600FFFFFFFFFFFFFFFFFFFF10F442E8C4E88B
:102F760062E86AF2FFFFC7E931F4FFFFFFFFFFFFD8
:102F8600FFFFFFFFFFFFFFFFFFFFFFFFFFFFFFFF4B
:102F9600FFFFFFFFFFFFFFFFFFFFFFFFFFFFFFFF3B
:102FA600FFFFFFFFFFFFFFFFFFFFFFFFFFFFFFFF2B
:102FB600FFFFFFFFFFFFFFFFFFFFFFFFFFFFFFFF1B
:102FC600FFFFFFFFFFFFFFFFFFFFFFFFFFFFFFFF0B
:102FD60051F466E9FFFF6AF262E8A3E8A3E88AEA29
:102FE6004DF3AFF3CFF3AFF3AFF38EF32DF3EBF275
:102FF600E3E86EF3DFFFFFFFFFFFFFFFFFFFFFFFCB
:10300600FFFFFFFFFFFFFFFFFFFFDFFF66E941E86E
:1030160041E851F4FFFFFFFFFFFFFFFFFFFFFFFF48
:10302600FFFFFFFFFFFFFFFFFFFFB6FD82E8C3E8DC
:1030360062E86AF2FFFFC7E931F4FFFFFFFFFFFF17
:10304600FFFFFFFFFFFFFFFFFFFFFFFFFFFFFFFF8A
:10305600FFFFFFFFFFFFFFFFFFFFFFFFFFFFFFFF7A
:10306600FFFFFFFFFFFFFFFFFFFFFFFFFFFFFFFF6A
:10307600FFFFFFFFFFFFFFFFFFFFFFFFFFFFFFFF5A
:10308600FFFFFFFFFFFFFFFFFFFFFFFFFFFFFFFF4A
:1030960051F466E9FFFF4AF221E88EF392F492F4C6
:1030A600B3F40CF382E8C4E8C3E8A3E883E862E873
:1030B60021E814F5FFFFFFFFFFFFFFFFFFFFFFFF04
:1030C600FFFFFFFFFFFFFFFFFFFFBEFF83E883E871
:1030D60062E8CBF2FFFFFFFFFFFFFFFFFFFFFFFFEF
:1030E600FFFFFFFFFFFFFFFFFFFFDBFE45E983E872
:1030F60062E86AF2FFFFC7E931F4FFFFFFFFFFFF57
:10310600FFFFFFFFFFFFFFFFFFFFFFFFFFFFFFFFC9
:10311600FFFFFFFFFFFFFFFFFFFFFFFFFFFFFFFFB9
:10312600FFFFFFFFFFFFFFFFFFFFFFFFFFFFFFFFA9
:10313600FFFFFFFFFFFFFFFFFFFFFFFFFFFFFFFF99
:10314600FFFFFFFFFFFFFFFFFFFFFFFFFFFFFFFF89
:1031560051F466E9FFFF6AF200E80CF3FCFEFFFF9C
:10316600FFFFF7FD00E862E862E862E862E883E8EC
:1031760041E838FEFFFFFFFFFFFFFFFFFFFFFFFFF6
:10318600FFFFFFFFFFFFFFFFFFFF7DFF62E8A3E8F2
:1031960062E829EAFFFFFFFFFFFFFFFFFFFFFFFFD8
:1031A600FFFFFFFFFFFFFFFFFFFF7DFF4AF262E821
:1031B60062E86AF2FFFFC7E931F4FFFFFFFFFFFF96
:1031C600FFFFFFFFFFFFFFFFFFFFFFFFFFFFFFFF09
:1031D600FFFFFFFFFFFFFFFFFFFFFFFFFFFFFFFFF9
:1031E600FFFFFFFFFFFFFFFFFFFFFFFFFFFFFFFFE9
:1031F600FFFFFFFFFFFFFFFFFFFFFFFFFFFFFFFFD9
:10320600FFFFFFFFFFFFFFFFFFFFFFFFFFFFFFFFC8
:1032160051F466E9FFFF6AF201E8C7E938FEFFFFED
:10322600FFFF9EFF8EF34DF34DF34DF3AFF329F2FF
:1032360082E8BBFEFFFFFFFFFFFFFFFFFFFFFFFF71
:10324600FFFFFFFFFFFFFFFFFFFF3CFF62E8A3E872
:1032560082E8E8E9FFFFFFFFFFFFFFFFFFFFFFFF39
:10326600FFFFFFFFFFFFFFFFFFFFDFFF2DF321E85B
:1032760062E86AF2FFFFC7E931F4FFFFFFFFFFFFD5
:10328600FFFFFFFFFFFFFFFFFFFFFFFFFFFFFFFF48
:10329600FFFFFFFFFFFFFFFFFFFFFFFFFFFFFFFF38
:1032A600FFFFFFFFFFFFFFFFFFFFFFFFFFFFFFFF28
:1032B600FFFFFFFFFFFFFFFFFFFFFFFFFFFFFFFF18
:1032C600FFFFFFFFFFFFFFFFFFFFFFFFFFFFFFFF08
:1032D60051F466E9FFFF6AF200E86EF3FBFEFFFFBA
:1032E600FFFFFFFFBEFF3CFF3CFF3CFFBEFF71F44C
:1032F600C3E8FBFEFFFFFFFFFFFFFFFFFFFFFFFF30
:10330600FFFFFFFFFFFFFFFFFFFF1CFF62E8C3E8B1
:1033160082E8C7E9FFFFFFFFFFFFFFFFFFFFFFFF99
:10332600FFFFFFFFFFFFFFFFFFFFFFFFCFF321E8D8
:1033360062E86AF2FFFFC7E931F4FFFFFFFFFFFF14
:10334600FFFFFFFFFFFFFFFFFFFFFFFFFFFFFFFF87
:10335600FFFFFFFFFFFFFFFFFFFFFFFFFFFFFFFF77
:10336600FFFFFFFFFFFFFFFFFFFFFFFFFFFFFFFF67
:10337600FFFFFFFFFFFFFFFFFFFFFFFFFFFFFFFF57
:10338600FFFFFFFFFFFFFFFFFFFFFFFFFFFFFFFF47
:1033960051F466E9FFFF6AF200E831F4FFFFFFFF30
:1033A600FFFFFFFFFFFFFFFFFFFFFFFFFFFF72F4BF
:1033B60005E91CFFFFFFFFFFFFFFFFFFFFFFFFFF0A
:1033C600FFFFFFFFFFFFFFFFFFFF1CFF62E8C3E8F1
:1033D60082E8C7E9FFFFFFFFFFFFFFFFFFFFFFFFD9
:1033E600FFFFFFFFFFFFFFFFFFFFFFFF92F421E854
:1033F60062E86AF2FFFFC7E931F4FFFFFFFFFFFF54
:10340600FFFFFFFFFFFFFFFFFFFFFFFFFFFFFFFFC6
:10341600FFFFFFFFFFFFFFFFFFFFFFFFFFFFFFFFB6
:10342600FFFFFFFFFFFFFFFFFFFFFFFFFFFFFFFFA6
:10343600FFFFFFFFFFFFFFFFFFFFFFFFFFFFFFFF96
:10344600FFFFFFFFFFFFFFFFFFFFFFFFFFFFFFFF86
:1034560051F466E9FFFF6AF200E831F4FFFFFFFF6F
:10346600FFFFFFFFFFFFFFFFFFFFFFFFFFFF31F43F
:1034760066E93CFFFFFFFFFFFFFFFFFFFFFFFFFFC8
:10348600FFFFFFFFFFFFFFFFFFFF1CFF41E882E892
:1034960062E886E9FFFFFFFFFFFFFFFFFFFFFFFF79
:1034A600FFFFFFFFFFFFFFFFFFFFFFFFF4F482E8D0
:1034B60042E86AF2FFFFC7E931F4FFFFFFFFFFFFB3
:1034C600FFFFFFFFFFFFFFFFFFFFFFFFFFFFFFFF06
:1034D600FFFFFFFFFFFFFFFFFFFFFFFFFFFFFFFFF6
:1034E600FFFFFFFFFFFFFFFFFFFFFFFFFFFFFFFFE6
:1034F600FFFFFFFFFFFFFFFFFFFFFFFFFFFFFFFFD6
:10350600FFFFFFFFFFFFFFFFFFFFFFFFFFFFFFFFC5
:1035160051F466E9FFFF6AF200E8AFF359FE18FEC0
:1035260018FE18FE38FE18FE18FE18FE59FEAFF3F8
:1035360086E93DFFFFFFFFFFFFFFFFFFFFFFFFFFE6
:10354600FFFFFFFFFFFFFFFFFFFF1CFF24E925E949
:1035560025E908F2FFFFFFFFFFFFFFFFFFFFFFFF69
:10356600FFFFFFFFFFFFFFFFFFFFFFFF14F5A3E8CD
:1035760042E86AF2FFFFC7E931F4FFFFFFFFFFFFF2
:10358600FFFFFFFFFFFFFFFFFFFFFFFFFFFFFFFF45
:10359600FFFFFFFFFFFFFFFFFFFFFFFFFFFFFFFF35
:1035A600FFFFFFFFFFFFFFFFFFFFFFFFFFFFFFFF25
:1035B600FFFFFFFFFFFFFFFFFFFFFFFFFFFFFFFF15
:1035C600FFFFFFFFFFFFFFFFFFFFFFFFFFFFFFFF05
:1035D60051F466E9FFFF6AF221E809EA6AF245E971
:1035E60082E862E882E862E8C3E845E98AF2A7E988
:1035F600C7E95DFFFFFFFFFFFFFFFFFFFFFFFFFFC5
:10360600FFFFFFFFFFFFFFFFFFFFBEFF55FD76FD3C
:1036160075FDD7FDFFFFFFFFFFFFFFFFFFFFFFFF6A
:10362600FFFFFFFFFFFFFFFFFFFFFFFF34F5A3E8EC
:1036360041E86AF2FFFFC7E931F4FFFFFFFFFFFF32
:10364600FFFFFFFFFFFFFFFFFFFFFFFFFFFFFFFF84
:10365600FFFFFFFFFFFFFFFFFFFFFFFFFFFFFFFF74
:10366600FFFFFFFFFFFFFFFFFFFFFFFFFFFFFFFF64
:10367600FFFFFFFFFFFFFFFFFFFFFFFFFFFFFFFF54
:10368600FFFFFFFFFFFFFFFFFFFFFFFFFFFFFFFF44
:1036960051F466E9FFFF6AF200E851F4FFFF7AFE93
:1036A6002DF324E9E4E886F110F49AFEFFFF31F4E5
:1036B60066E93CFFFFFFFFFFFFFFFFFFFFFFFFFF86
:1036C600FFFFFFFFFFFFFFFFFFFFFFFFFFFFFFFF04
:1036D600FFFFFFFFFFFFFFFFFFFFFFFFFFFFFFFFF4
:1036E600FFFFFFFFFFFFFFFFFFFFFFFF35F5A3E82B
:1036F60041E86AF2FFFFC7E931F4FFFFFFFFFFFF72
:10370600FFFFFFFFFFFFFFFFFFFFFFFFFFFFFFFFC3
:10371600FFFFFFFFFFFFFFFFFFFFFFFFFFFFFFFFB3
:10372600FFFFFFFFFFFFFFFFFFFFFFFFFFFFFFFFA3
:10373600FFFFFFFFFFFFFFFFFFFFFFFFFFFFFFFF93
:10374600FFFFFFFFFFFFFFFFFFFFFFFFFFFFFFFF83
:1037560051F466E9FFFF6AF200E810F4FFFFFFFF8D
:10376600FFFFFFFFDBFEFFFFFFFFFFFFFFFF10F482
:1037760066E93CFFFFFFFFFFFFFFFFFFFFFFFFFFC5
:10378600FFFFFFFFFFFFFFFFFFFFFFFFFFFFFFFF43
:10379600FFFFFFFFFFFFFFFFFFFFFFFFFFFFFFFF33
:1037A600FFFFFFFFFFFFFFFFFFFFFFFF55F5C3E82A
:1037B60021E86AF2FFFFC7E931F4FFFFFFFFFFFFD1
:1037C600FFFFFFFFFFFFFFFFFFFFFFFFFFFFFFFF03
:1037D600FFFFFFFFFFFFFFFFFFFFFFFFFFFFFFFFF3
:1037E600FFFFFFFFFFFFFFFFFFFFFFFFFFFFFFFFE3
:1037F600FFFFFFFFFFFFFFFFFFFFFFFFFFFFFFFFD3
:10380600FFFFFFFFFFFFFFFFFFFFFFFFFFFFFFFFC2
:1038160051F466E9FFFF6AF200E8F0F3BFFFFFFF2D
:10382600FFFFFFFFFFFFFFFFFFFFFFFFFFFF51F45B
:1038360066E93CFFFFFFFFFFFFFFFFFFFFFFFFFF04
:10384600FFFFFFFFFFFFFFFFFFFFFFFFFFFFFFFF82
:10385600FFFFFFFFFFFFFFFFFFFFFFFFFFFFFFFF72
:10386600FFFFFFFFFFFFFFFFFFFFFFFF55F5C3E869
:1038760041E86AF2FFFFC7E931F4FFFFFFFFFFFFF0
:10388600FFFFFFFFFFFFFFFFFFFFFFFFFFFFFFFF42
:10389600FFFFFFFFFFFFFFFFFFFFFFFFFFFFFFFF32
:1038A600FFFFFFFFFFFFFFFFFFFFFFFFFFFFFFFF22
:1038B600FFFFFFFFFFFFFFFFFFFFFFFFFFFFFFFF12
:1038C600FFFFFFFFFFFFFFFFFFFFFFFFFFFFFFFF02
:1038D60051F466E9FFFF6AF242E883E8A7E9B7F523
:1038E600FFFFFFFFFFFFFFFFFFFF7DFF34F566E9E8
:1038F600C7E95DFFFFFFFFFFFFFFFFFFFFFFFFFFC2
:10390600FFFFFFFFFFFFFFFFFFFFFFFFFFFFFFFFC1
:10391600FFFFFFFFFFFFFFFFFFFFFFFFFFFFFFFFB1
:10392600FFFFFFFFFFFFFFFFFFFFFFFF55F5C3E8A8
:1039360041E86AF2FFFFC7E931F4FFFFFFFFFFFF2F
:10394600FFFFFFFFFFFFFFFFFFFFFFFFFFFFFFFF81
:10395600FFFFFFFFFFFFFFFFFFFFFFFFFFFFFFFF71
:10396600FFFFFFFFFFFFFFFFFFFFFFFFFFFFFFFF61
:10397600FFFFFFFFFFFFFFFFFFFFFFFFFFFFFFFF51
:10398600FFFFFFFFFFFFFFFFFFFFFFFFFFFFFFFF41
:1039960051F466E9FFFF6AF200E82DF318FE96F58A
:1039A6009AFEFFFFFFFFFFFF3CFF96FD18FEECF2BD
:1039B600A7E93DFFFFFFFFFFFFFFFFFFFFFFFFFF41
:1039C600FFFFFFFFFFFFFFFFFFFFFFFFFFFFFFFF01
:1039D600FFFFFFFFFFFFFFFFFFFFFFFFFFFFFFFFF1
:1039E600FFFFFFFFFFFFFFFFFFFFFFFF55F5C3E8E8
:1039F60041E86AF2FFFFC7E931F4FFFFFFFFFFFF6F
:103A0600FFFFFFFFFFFFFFFFFFFFFFFFFFFFFFFFC0
:103A1600FFFFFFFFFFFFFFFFFFFFFFFFFFFFFFFFB0
:103A2600FFFFFFFFFFFFFFFFFFFFFFFFFFFFFFFFA0
:103A3600FFFFFFFFFFFFFFFFFFFFFFFFFFFFFFFF90
:103A4600FFFFFFFFFFFFFFFFFFFFFFFFFFFFFFFF80
:103A560051F466E9FFFF6AF200E830F4DFFFBEFFCB
:103A6600DFFFFFFFFFFFFFFFFFFFBEFFDFFF10F4DB
:103A760066E93CFFFFFFFFFFFFFFFFFFFFFFFFFFC2
:103A8600FFFFFFFFFFFFFFFFFFFFFFFFFFFFFFFF40
:103A9600FFFFFFFFFFFFFFFFFFFFFFFFFFFFFFFF30
:103AA600FFFFFFFFFFFFFFFFFFFFFFFF76F5A3E826
:103AB60021E86AF2FFFFC7E931F4FFFFFFFFFFFFCE
:103AC600FFFFFFFFFFFFFFFFFFFFFFFFFFFFFFFF00
:103AD600FFFFFFFFFFFFFFFFFFFFFFFFFFFFFFFFF0
:103AE600FFFFFFFFFFFFFFFFFFFFFFFFFFFFFFFFE0
:103AF600FFFFFFFFFFFFFFFFFFFFFFFFFFFFFFFFD0
:103B0600FFFFFFFFFFFFFFFFFFFFFFFFFFFFFFFFBF
:103B160051F466E9FFFF6AF200E810F4FFFFFFFFC9
:103B2600FFFFFFFFFFFFFFFFFFFFFFFFFFFF10F499
:103B360066E93CFFFFFFFFFFFFFFFFFFFFFFFFFF01
:103B4600FFFFFFFFFFFFFFFFFFFFDFFFBEFFBEFF21
:103B5600BEFFBEFFBEFFBEFFBEFFBEFFBEFFBEFF77
:103B6600BEFFBEFFBEFFBEFFDFFFFFFF14F5C3E8CB
:103B760041E86AF2FFFFC7E931F4FFFFFFFFFFFFED
:103B8600FFFFFFFFFFFFFFFFFFFFFFFFFFFFFFFF3F
:103B9600FFFFFFFFFFFFFFFFFFFFFFFFFFFFFFFF2F
:103BA600FFFFFFFFFFFFFFFFFFFFFFFFFFFFFFFF1F
:103BB600FFFFFFFFFFFFFFFFFFFFFFFFFFFFFFFF0F
:103BC600FFFFFFFFFFFFFFFFFFFFFFFFFFFFFFFFFF
:103BD60051F466E9FFFF6AF200E872F4FFFFFFFFA7
:103BE600FFFFFFFFFFFFFFFFFFFFFFFFFFFF71F478
:103BF60066E93CFFFFFFFFFFFFFFFFFFFFFFFFFF41
:103C0600FFFFFFFFFFFFFFFFFFFF1CFF86E9A6E99F
:103C1600A6E9A6E986E986E986E986E986E986E9E6
:103C260086E986E986E986E9A6E9A6E905E9E4E8FA
:103C360062E86AF2FFFFC7E931F4FFFFFFFFFFFF0B
:103C4600FFFFFFFFFFFFFFFFFFFFFFFFFFFFFFFF7E
:103C5600FFFFFFFFFFFFFFFFFFFFFFFFFFFFFFFF6E
:103C6600FFFFFFFFFFFFFFFFFFFFFFFFFFFFFFFF5E
:103C7600FFFFFFFFFFFFFFFFFFFFFFFFFFFFFFFF4E
:103C8600FFFFFFFFFFFFFFFFFFFFFFFFFFFFFFFF3E
:103C960051F466E9FFFF6AF221E8E8E9ECF20CF379
:103CA600ECF2ECF2ECF2ECF2ECF2ECF20CF387E96B
:103CB600C7E93DFFFFFFFFFFFFFFFFFFFFFFFFFF1E
:103CC600FFFFFFFFFFFFFFFFFFFF1CFF41E882E84A
:103CD600A3E8A3E862E841E841E841E841E841E8B1
:103CE60041E841E841E841E841E841E862E8E4E8C2
:103CF60062E86AF2FFFFC7E931F4FFFFFFFFFFFF4B
:103D0600FFFFFFFFFFFFFFFFFFFFFFFFFFFFFFFFBD
:103D1600FFFFFFFFFFFFFFFFFFFFFFFFFFFFFFFFAD
:103D2600FFFFFFFFFFFFFFFFFFFFFFFFFFFFFFFF9D
:103D3600FFFFFFFFFFFFFFFFFFFFFFFFFFFFFFFF8D
:103D4600FFFFFFFFFFFFFFFFFFFFFFFFFFFFFFFF7D
:103D560051F466E9FFFF6AF200E8CBF2D7FD4AF2BA
:103D660071F476F555F555F555F555F5B7FDABF204
:103D7600A7E93DFFFFFFFFFFFFFFFFFFFFFFFFFF7D
:103D8600FFFFFFFFFFFFFFFFFFFF1CFF62E8C3E827
:103D9600C4E8E4E886E909F2E8F1E8F1E8F1E8F1D7
:103DA600E8F1E8F1E8F1E8F1E8F108F286E9E4E89B
:103DB60062E86AF2FFFFC7E931F4FFFFFFFFFFFF8A
:103DC600FFFFFFFFFFFFFFFFFFFFFFFFFFFFFFFFFD
:103DD600FFFFFFFFFFFFFFFFFFFFFFFFFFFFFFFFED
:103DE600FFFFFFFFFFFFFFFFFFFFFFFFFFFFFFFFDD
:103DF600FFFFFFFFFFFFFFFFFFFFFFFFFFFFFFFFCD
:103E0600FFFFFFFFFFFFFFFFFFFFFFFFFFFFFFFFBC
:103E160051F466E9FFFF6AF200E8F0F3FFFF2DF3C5
:103E260079FEDFFFBEFFBEFFBEFFBEFFDFFFF0F382
:103E360066E93CFFFFFFFFFFFFFFFFFFFFFFFFFFFE
:103E4600FFFFFFFFFFFFFFFFFFFF1CFF62E8C3E866
:103E5600C3E8C4E871F418FEF8FDF8FDF8FDF8FDB6
:103E6600F8FDF8FDF8FDF8FDF8FD18FE72F4C3E85C
:103E760041E86AF2FFFFC7E931F4FFFFFFFFFFFFEA
:103E8600FFFFFFFFFFFFFFFFFFFFFFFFFFFFFFFF3C
:103E9600FFFFFFFFFFFFFFFFFFFFFFFFFFFFFFFF2C
:103EA600FFFFFFFFFFFFFFFFFFFFFFFFFFFFFFFF1C
:103EB600FFFFFFFFFFFFFFFFFFFFFFFFFFFFFFFF0C
:103EC600FFFFFFFFFFFFFFFFFFFFFFFFFFFFFFFFFC
:103ED60051F466E9FFFF6AF200E810F4FFFF4DF3C4
:103EE600BAFEFFFFFFFFFFFFFFFFFFFFFFFF10F41C
:103EF60066E93CFFFFFFFFFFFFFFFFFFFFFFFFFF3E
:103F0600FFFFFFFFFFFFFFFFFFFF1CFF62E8C3E8A5
:103F1600A3E8C4E875F5FFFFFFFFFFFFFFFFFFFF04
:103F2600FFFFFFFFFFFFFFFFFFFFFFFF96F5C3E861
:103F360041E86AF2FFFFC7E931F4FFFFFFFFFFFF29
:103F4600FFFFFFFFFFFFFFFFFFFFFFFFFFFFFFFF7B
:103F5600FFFFFFFFFFFFFFFFFFFFFFFFFFFFFFFF6B
:103F6600FFFFFFFFFFFFFFFFFFFFFFFFFFFFFFFF5B
:103F7600FFFFFFFFFFFFFFFFFFFFFFFFFFFFFFFF4B
:103F8600FFFFFFFFFFFFFFFFFFFFFFFFFFFFFFFF3B
:103F960051F466E9FFFF6AF200E851F4FFFF8EF381
:103FA6001CFFFFFFFFFFFFFFFFFFFFFFFFFF51F4B7
:103FB60066E93CFFFFFFFFFFFFFFFFFFFFFFFFFF7D
:103FC600FFFFFFFFFFFFFFFFFFFF1CFF62E8C3E8E5
:103FD600A3E8C4E834F5FFFFFFFFFFFFFFFFFFFF85
:103FE600FFFFFFFFFFFFFFFFFFFFFFFF55F5C3E8E2
:103FF60021E86AF2FFFFC7E931F4FFFFFFFFFFFF89
:10400600FFFFFFFFFFFFFFFFFFFFFFFFFFFFFFFFBA
:10401600FFFFFFFFFFFFFFFFFFFFFFFFFFFFFFFFAA
:10402600FFFFFFFFFFFFFFFFFFFFFFFFFFFFFFFF9A
:10403600FFFFFFFFFFFFFFFFFFFFFFFFFFFFFFFF8A
:10404600FFFFFFFFFFFFFFFFFFFFFFFFFFFFFFFF7A
:1040560051F466E9FFFF6AF221E8CBF271F408EA4F
:1040660010F451F451F451F451F451F451F46AF24C
:10407600A7E93CFFFFFFFFFFFFFFFFFFFFFFFFFF7B
:10408600FFFFFFFFFFFFFFFFFFFF1CFF62E8C3E824
:10409600A3E8C4E834F5FFFFFFFFFFFFFFFFFFFFC4
:1040A600FFFFFFFFFFFFFFFFFFFFFFFF55F5C3E821
:1040B60041E86AF2FFFFC7E931F4FFFFFFFFFFFFA8
:1040C600FFFFFFFFFFFFFFFFFFFFFFFFFFFFFFFFFA
:1040D600FFFFFFFFFFFFFFFFFFFFFFFFFFFFFFFFEA
:1040E600FFFFFFFFFFFFFFFFFFFFFFFFFFFFFFFFDA
:1040F600FFFFFFFFFFFFFFFFFFFFFFFFFFFFFFFFCA
:10410600FFFFFFFFFFFFFFFFFFFFFFFFFFFFFFFFB9
:1041160051F466E9FFFF6AF262E883E845E9AAF22C
:10412600EBF2EBF2EBF2EBF2EBF2EBF22CF386E9CD
:10413600A7E93CFFFFFFFFFFFFFFFFFFFFFFFFFFBA
:10414600FFFFFFFFFFFFFFFFFFFF1CFF62E8C3E863
:10415600A3E8C4E834F5FFFFFFFFFFFFFFFFFFFF03
:10416600FFFFFFFFFFFFFFFFFFFFFFFF55F5C3E860
:1041760041E86AF2FFFFC7E931F4FFFFFFFFFFFFE7
:10418600FFFFFFFFFFFFFFFFFFFFFFFFFFFFFFFF39
:10419600FFFFFFFFFFFFFFFFFFFFFFFFFFFFFFFF29
:1041A600FFFFFFFFFFFFFFFFFFFFFFFFFFFFFFFF19
:1041B600FFFFFFFFFFFFFFFFFFFFFFFFFFFFFFFF09
:1041C600FFFFFFFFFFFFFFFFFFFFFFFFFFFFFFFFF9
:1041D60051F466E9FFFF6AF241E825E951F4DBFE96
:1041E6003CFF3CFF3CFF3CFF3CFF3CFFBEFFF0F3C7
:1041F60025E91CFFFFFFFFFFFFFFFFFFFFFFFFFF9C
:10420600FFFFFFFFFFFFFFFFFFFF1CFF62E8C3E8A2
:10421600A3E8C4E834F5FFFFFFFFFFFFFFFFFFFF42
:10422600FFFFFFFFFFFFFFFFFFFFFFFF34F5A3E8E0
:1042360041E86AF2FFFFC7E931F4FFFFFFFFFFFF26
:10424600FFFFFFFFFFFFFFFFFFFFFFFFFFFFFFFF78
:10425600FFFFFFFFFFFFFFFFFFFFFFFFFFFFFFFF68
:10426600FFFFFFFFFFFFFFFFFFFFFFFFFFFFFFFF58
:10427600FFFFFFFFFFFFFFFFFFFFFFFFFFFFFFFF48
:10428600FFFFFFFFFFFFFFFFFFFFFFFFFFFFFFFF38
:1042960051F466E9FFFF6AF200E88EF3FFFFFFFFC5
:1042A600FFFFFFFFFFFFFFFFFFFFFFFFFFFFD3F44F
:1042B600A3E8FBFEFFFFFFFFFFFFFFFFFFFFFFFF80
:1042C600FFFFFFFFFFFFFFFFFFFF1CFF62E8C3E8E2
:1042D600A3E8C4E834F5FFFFFFFFFFFFFFFFFFFF82
:1042E600FFFFFFFFFFFFFFFFFFFFFFFFF3F482E883
:1042F60042E86AF2FFFFC7E931F4FFFFFFFFFFFF65
:10430600FFFFFFFFFFFFFFFFFFFFFFFFFFFFFFFFB7
:10431600FFFFFFFFFFFFFFFFFFFFFFFFFFFFFFFFA7
:10432600FFFFFFFFFFFFFFFFFFFFFFFFFFFFFFFF97
:10433600FFFFFFFFFFFFFFFFFFFFFFFFFFFFFFFF87
:10434600FFFFFFFFFFFFFFFFFFFFFFFFFFFFFFFF77
:1043560051F466E9FFFF49EA01E814F5FFFFFFFFA4
:10436600FFFFFFFFFFFFFFFFFFFFFFFFFFFF35FD23
:1043760062E8BAFEFFFFFFFFFFFFFFFFFFFFFFFF41
:10438600FFFFFFFFFFFFFFFFFFFF1CFF62E8C3E821
:10439600A3E8C4E835F5FFFFFFFFFFFFFFFFFFFFC0
:1043A600FFFFFFFFFFFFFFFFFFFFFFFF92F421E884
:1043B60062E86AF2FFFFC7E931F4FFFFFFFFFFFF84
:1043C600FFFFFFFFFFFFFFFFFFFFFFFFFFFFFFFFF7
:1043D600FFFFFFFFFFFFFFFFFFFFFFFFFFFFFFFFE7
:1043E600FFFFFFFFFFFFFFFFFFFFFFFFFFFFFFFFD7
:1043F600FFFFFFFFFFFFFFFFFFFFFFFFFFFFFFFFC7
:10440600FFFFFFFFFFFFFFFFFFFFFFFFFFFFFFFFB6
:1044160051F466E9FFFF4AEA01E8B3F4FFFF7DFFC6
:10442600BBFEDBFEDBFEDBFEDBFEDBFEDBFE35F58D
:1044360042E859FEFFFFFFFFFFFFFFFFFFFFFFFF01
:10444600FFFFFFFFFFFFFFFFFFFF3CFF42E8C3E860
:10445600A3E8E4E8B6F5FFFFFFFFFFFFFFFFFFFF5E
:10446600FFFFFFFFFFFFFFFFFFFFFFFF31F401E844
:1044760062E86AF2FFFFC7E931F4FFFFFFFFFFFFC3
:10448600FFFFFFFFFFFFFFFFFFFFFFFFFFFFFFFF36
:10449600FFFFFFFFFFFFFFFFFFFFFFFFFFFFFFFF26
:1044A600FFFFFFFFFFFFFFFFFFFFFFFFFFFFFFFF16
:1044B600FFFFFFFFFFFFFFFFFFFFFFFFFFFFFFFF06
:1044C600FFFFFFFFFFFFFFFFFFFFFFFFFFFFFFFFF6
:1044D60051F466E9FFFF6AF200E80CF39EFF76F5F9
:1044E60029EA29EA49F249F249F249F26AF2C7E9A8
:1044F60041E8B7FDFFFFFFFFFFFFFFFFFFFFFFFFE5
:10450600FFFFFFFFFFFFFFFFFFFF9EFF82E8A3E81D
:10451600A3E804E979FEFFFFFFFFFFFFFFFFFFFFB0
:10452600FFFFFFFFFFFFFFFFFFFFFFFF8EF321E807
:1045360062E86AF2FFFFC7E931F4FFFFFFFFFFFF02
:10454600FFFFFFFFFFFFFFFFFFFFFFFFFFFFFFFF75
:10455600FFFFFFFFFFFFFFFFFFFFFFFFFFFFFFFF65
:10456600FFFFFFFFFFFFFFFFFFFFFFFFFFFFFFFF55
:10457600FFFFFFFFFFFFFFFFFFFFFFFFFFFFFFFF45
:10458600FFFFFFFFFFFFFFFFFFFFFFFFFFFFFFFF35
:1045960051F466E9FFFF6AF242E820E876F559FE33
:1045A6004DF3ECF20CF30CF30CF30CF30CF3ECF20E
:1045B600C3E8F0F3FFFFFFFFFFFFFFFFFFFFFFFF73
:1045C600FFFFFFFFFFFFFFFFFFFFFFFF25E982E879
:1045D60062E804E9BEFFFFFFFFFFFFFFFFFFFFFFEB
:1045E600FFFFFFFFFFFFFFFFFFFF7DFF29F262E8EE
:1045F60062E86AF2FFFFC7E931F4FFFFFFFFFFFF42
:10460600FFFFFFFFFFFFFFFFFFFFFFFFFFFFFFFFB4
:10461600FFFFFFFFFFFFFFFFFFFFFFFFFFFFFFFFA4
:10462600FFFFFFFFFFFFFFFFFFFFFFFFFFFFFFFF94
:10463600FFFFFFFFFFFFFFFFFFFFFFFFFFFFFFFF84
:10464600FFFFFFFFFFFFFFFFFFFFFFFFFFFFFFFF74
:1046560051F466E9FFFF6AF200E8A7E9BAFEFFFF38
:10466600FFFFFFFFFFFFFFFFFFFFFFFFFFFFFFFF54
:10467600ABF208EADFFFFFFFFFFFFFFFFFFFFFFFD1
:10468600FFFFFFFFFFFFFFFFFFFFFFFFECF241E829
:1046960041E80CF3FFFFFFFFFFFFFFFFFFFFFFFFF8
:1046A600FFFFFFFFFFFFFFFFFFFF9AFEE4E8A3E81F
:1046B60062E86AF2FFFFC7E931F4FFFFFFFFFFFF81
:1046C600FFFFFFFFFFFFFFFFFFFFFFFFFFFFFFFFF4
:1046D600FFFFFFFFFFFFFFFFFFFFFFFFFFFFFFFFE4
:1046E600FFFFFFFFFFFFFFFFFFFFFFFFFFFFFFFFD4
:1046F600FFFFFFFFFFFFFFFFFFFFFFFFFFFFFFFFC4
:10470600FFFFFFFFFFFFFFFFFFFFFFFFFFFFFFFFB3
:1047160051F466E9FFFF4AEA00E8B3F4FFFFFFFF42
:10472600FFFFFFFFFFFFFFFFFFFFFFFFFFFFFFFF93
:1047360072F400E81CFFFFFFFFFFFFFFFFFFFFFF14
:10474600FFFFFFFFFFFFFFFFFFFFFFFFFFFF76F506
:1047560059FEFFFFFFFFFFFFFFFFFFFFFFFFFFFF0A
:10476600FFFFFFFFFFFFFFFFFFFF31F401E8E4E873
:1047760062E86AF2FFFFC7E931F4FFFFFFFFFFFFC0
:10478600FFFFFFFFFFFFFFFFFFFFFFFFFFFFFFFF33
:10479600FFFFFFFFFFFFFFFFFFFFFFFFFFFFFFFF23
:1047A600FFFFFFFFFFFFFFFFFFFFFFFFFFFFFFFF13
:1047B600FFFFFFFFFFFFFFFFFFFFFFFFFFFFFFFF03
:1047C600FFFFFFFFFFFFFFFFFFFFFFFFFFFFFFFFF3
:1047D60051F466E9FFFF49EA21E834FDFFFFFFFFD8
:1047E600FFFFFFFFFFFFFFFFFFFFFFFFFFFFFFFFD3
:1047F600DFFF04E98AF2FFFFFFFFFFFFFFFFFFFF76
:10480600FFFFFFFFFFFFFFFFFFFFFFFFFFFFFFFFB2
:10481600FFFFFFFFFFFFFFFFFFFFFFFFFFFFFFFFA2
:10482600FFFFFFFFFFFFFFFF9EFF62E8A3E8E4E84C
:1048360062E86AF2FFFFC7E931F4FFFFFFFFFFFFFF
:10484600FFFFFFFFFFFFFFFFFFFFFFFFFFFFFFFF72
:10485600FFFFFFFFFFFFFFFFFFFFFFFFFFFFFFFF62
:10486600FFFFFFFFFFFFFFFFFFFFFFFFFFFFFFFF52
:10487600FFFFFFFFFFFFFFFFFFFFFFFFFFFFFFFF42
:10488600FFFFFFFFFFFFFFFFFFFFFFFFFFFFFFFF32
:1048960051F466E9FFFF6AF200E851F4FFFF9EFF5C
:1048A60059FE38FE38FE38FE38FE38FE38FE59FE10
:1048B600DBFE8AF221E8FBFEFFFFFFFFFFFFFFFFA3
:1048C600FFFFFFFFFFFFFFFFFFFFFFFFFFFFFFFFF2
:1048D600FFFFFFFFFFFFFFFFFFFFFFFFFFFFFFFFE2
:1048E600FFFFFFFFFFFFFFFFF0F300E8E4E8E4E867
:1048F60062E86AF2FFFFC7E931F4FFFFFFFFFFFF3F
:10490600FFFFFFFFFFFFFFFFFFFFFFFFFFFFFFFFB1
:10491600FFFFFFFFFFFFFFFFFFFFFFFFFFFFFFFFA1
:10492600FFFFFFFFFFFFFFFFFFFFFFFFFFFFFFFF91
:10493600FFFFFFFFFFFFFFFFFFFFFFFFFFFFFFFF81
:10494600FFFFFFFFFFFFFFFFFFFFFFFFFFFFFFFF71
:1049560051F466E9FFFF6AF201E825E91CFF92F4CB
:10496600E4E8E3E8E3E8E3E8E3E8E3E8E3E8E3E8E8
:1049760004E982E800E804E9FFFFFFFFFFFFFFFF0D
:10498600FFFFFFFFFFFFFFFFFFFFFFFFFFFFFFFF31
:10499600FFFFFFFFFFFFFFFFFFFFFFFFFFFFFFFF21
:1049A600FFFFFFFFFFFFD7FD82E8C3E8E4E8E4E886
:1049B60062E86AF2FFFFC7E931F4FFFFFFFFFFFF7E
:1049C600FFFFFFFFFFFFFFFFFFFFFFFFFFFFFFFFF1
:1049D600FFFFFFFFFFFFFFFFFFFFFFFFFFFFFFFFE1
:1049E600FFFFFFFFFFFFFFFFFFFFFFFFFFFFFFFFD1
:1049F600FFFFFFFFFFFFFFFFFFFFFFFFFFFFFFFFC1
:104A0600FFFFFFFFFFFFFFFFFFFFFFFFFFFFFFFFB0
:104A160051F466E9FFFF6AF200E86EF3DFFF3CFF40
:104A260079FE79FE79FE79FE79FE79FE79FE79FEC8
:104A360079FE79FEB6F500E849F2FFFFFFFFFFFFBA
:104A4600FFFFFFFFFFFFFFFFFFFFFFFFFFFFFFFF70
:104A5600FFFFFFFFFFFFFFFFFFFFFFFFFFFFFFFF60
:104A6600FFFFFFFF9AFE04E9A3E8E4E8E4E8E4E8D0
:104A760062E86AF2FFFFC7E931F4FFFFFFFFFFFFBD
:104A8600FFFFFFFFFFFFFFFFFFFFFFFFFFFFFFFF30
:104A9600FFFFFFFFFFFFFFFFFFFFFFFFFFFFFFFF20
:104AA600FFFFFFFFFFFFFFFFFFFFFFFFFFFFFFFF10
:104AB600FFFFFFFFFFFFFFFFFFFFFFFFFFFFFFFF00
:104AC600FFFFFFFFFFFFFFFFFFFFFFFFFFFFFFFFF0
:104AD60051F466E9FFFF6AF200E810F4FFFFFFFFFA
:104AE600FFFFFFFFFFFFFFFFFFFFFFFFFFFFFFFFD0
:104AF600FFFFFFFFBEFFD3F441E86AF23CFFFFFF72
:104B0600FFFFFFFFFFFFFFFFFFFFFFFFFFFFFFFFAF
:104B1600FFFFFFFFFFFFFFFFFFFFFFFFFFFFFFFF9F
:104B2600FFFF79FE86E982E8E4E8E4E8E4E8E4E801
:104B360062E86AF2FFFFC7E931F4FFFFFFFFFFFFFC
:104B4600FFFFFFFFFFFFFFFFFFFFFFFFFFFFFFFF6F
:104B5600FFFFFFFFFFFFFFFFFFFFFFFFFFFFFFFF5F
:104B6600FFFFFFFFFFFFFFFFFFFFFFFFFFFFFFFF4F
:104B7600FFFFFFFFFFFFFFFFFFFFFFFFFFFFFFFF3F
:104B8600FFFFFFFFFFFFFFFFFFFFFFFFFFFFFFFF2F
:104B960051F466E9FFFF6AF200E810F4FFFFFFFF39
:104BA600FFFFFFFFFFFFFFFFFFFFFFFFFFFFFFFF0F
:104BB600FFFFFFFFFFFF7DFF96F542E828EAB3F40B
:104BC600BEFFFFFFFFFFFFFFFFFFFFFFFFFFFFFF30
:104BD600FFFFFFFFFFFFFFFFFFFFFFFFFFFF9EFF40
:104BE60051F4C7E9A3E8C4E8E4E8E4E8E4E8E4E863
:104BF60062E86AF2FFFFC7E931F4FFFFFFFFFFFF3C
:104C0600FFFFFFFFFFFFFFFFFFFFFFFFFFFFFFFFAE
:104C1600FFFFFFFFFFFFFFFFFFFFFFFFFFFFFFFF9E
:104C2600FFFFFFFFFFFFFFFFFFFFFFFFFFFFFFFF8E
:104C3600FFFFFFFFFFFFFFFFFFFFFFFFFFFFFFFF7E
:104C4600FFFFFFFFFFFFFFFFFFFFFFFFFFFFFFFF6E
:104C560051F466E9FFFF6AF200E810F4FFFFFFFF78
:104C6600FFFFFFFFFFFFFFFFFFFFFFFFFFFFFFFF4E
:104C7600FFFFFFFFFFFFFFFFFFFF14F508EA25E92F
:104C8600ABF210F459FE7DFFDFFFFFFFFFFFFFFFD2
:104C9600FFFFFFFFFFFFFFFF9EFFBAFE71F4ABF2BF
:104CA60025E9A3E8E4E8E4E8E4E8E4E8E4E8E4E89D
:104CB60062E84AEAFFFFC7E930F4FFFFFFFFFFFFA4
:104CC600FFFFFFFFFFFFFFFFFFFFFFFFFFFFFFFFEE
:104CD600FFFFFFFFFFFFFFFFFFFFFFFFFFFFFFFFDE
:104CE600FFFFFFFFFFFFFFFFFFFFFFFFFFFFFFFFCE
:104CF600FFFFFFFFFFFFFFFFFFFFFFFFFFFFFFFFBE
:104D0600FFFFFFFFFFFFFFFFFFFFFFFFFFFFFFFFAD
:104D160031F466E9FFFF49F221E829EACFF3CFF340
:104D2600CFF3CFF3CFF3CFF3CFF3CFF3CFF3CFF36D
:104D3600CFF3CFF3CFF3CFF3CFF3F0F36AF2A2E8DA
:104D460062E805E949F2EBF28EF331F492F4B2F43B
:104D5600B2F492F451F4CFF30CF369F225E983E847
:104D660083E8E4E8E4E8E4E8E4E8E4E8E4E8E4E83E
:104D760062E829F2FFFFC7E910F4FFFFFFFFFFFF1C
:104D8600FFFFFFFFFFFFFFFFFFFFFFFFFFFFFFFF2D
:104D9600FFFFFFFFFFFFFFFFFFFFFFFFFFFFFFFF1D
:104DA600FFFFFFFFFFFFFFFFFFFFFFFFFFFFFFFF0D
:104DB600FFFFFFFFFFFFFFFFFFFFFFFFFFFFFFFFFD
:104DC600FFFFFFFFFFFFFFFFFFFFFFFFFFFFFFFFED
:104DD600B2F4E4E8FFFFECF221E862E882E882E858
:104DE60082E882E882E882E882E882E882E882E86D
:104DF60082E882E882E882E882E8A3E8E4E882E8DA
:104E060062E841E800E800E841E8C3E804E924E98B
:104E160024E924E9E4E862E800E800E821E862E839
:104E260062E862E862E862E862E862E862E862E82C
:104E360021E8ECF2FFFF66E951F4FFFFFFFFFFFFF9
:104E4600FFFFFFFFFFFFFFFFFFFFFFFFFFFFFFFF6C
:104E5600FFFFFFFFFFFFFFFFFFFFFFFFFFFFFFFF5C
:104E6600FFFFFFFFFFFFFFFFFFFFFFFFFFFFFFFF4C
:104E7600FFFFFFFFFFFFFFFFFFFFFFFFFFFFFFFF3C
:104E8600FFFFFFFFFFFFFFFFFFFFFFFFFFFFFFFF2C
:104E960038FE21E8FBFEB7FDABEA28F229F229F23B
:104EA60029F229F229F229F229F229F229F229F224
:104EB60029F229F229F229F229F229F229F229F214
:104EC60049F229F229F229F229F229F229F229F2E4
:104ED60029F229F229F229F229F229F229F229F2F4
:104EE60029F229F229F229F229F229F229F228F2E5
:104EF600AAF2D7FDDBFE82E839FEFFFFFFFFFFFFC8
:104F0600FFFFFFFFFFFFFFFFFFFFFFFFFFFFFFFFAB
:104F1600FFFFFFFFFFFFFFFFFFFFFFFFFFFFFFFF9B
:104F2600FFFFFFFFFFFFFFFFFFFFFFFFFFFFFFFF8B
:104F3600FFFFFFFFFFFFFFFFFFFFFFFFFFFFFFFF7B
:104F4600FFFFFFFFFFFFFFFFFFFFFFFFFFFFFFFF6B
:104F56009EFFA7E96DF3DBFE9AFED7FDF7FDF8FD90
:104F6600F8FDF8FDF8FDF8FDF8FDF8FDF8FDF8FD93
:104F7600F8FDF8FDF8FDF8FDF8FDF8FDF8FDF8FD83
:104F8600F8FDF8FDF8FDF8FDF8FDF8FDF8FDF8FD73
:104F9600F8FDF8FDF8FDF8FDF8FDF8FDF8FDF8FD63
:104FA600F8FDF8FDF8FDF8FDF8FDF8FDF7FDD7FD75
:104FB6007AFEFBFE4DF365E9FFFFFFFFFFFFFFFFF4
:104FC600FFFFFFFFFFFFFFFFFFFFFFFFFFFFFFFFEB
:104FD600FFFFFFFFFFFFFFFFFFFFFFFFFFFFFFFFDB
:104FE600FFFFFFFFFFFFFFFFFFFFFFFFFFFFFFFFCB
:104FF600FFFFFFFFFFFFFFFFFFFFFFFFFFFFFFFFBB
:10500600FFFFFFFFFFFFFFFFFFFFFFFFFFFFFFFFAA
:10501600FFFF55F586E96DF3F3F4F3F4F3F4F3F4D7
:10502600F3F4F3F4F3F4F3F4F3F4F3F4F3F4F3F442
:10503600F3F4F3F4F3F4F3F4F3F4F3F4F3F4F3F432
:10504600F3F4F3F4F3F4F3F4F3F4F3F4F3F4F3F422
:10505600F3F4F3F4F3F4F3F4F3F4F3F4F3F4F3F412
:10506600F3F4F3F4F3F4F3F4F3F4F3F4F3F4F3F402
:10507600F3F48EF3A6E9F4F4FFFFFFFFFFFFFFFF53
:10508600FFFFFFFFFFFFFFFFFFFFFFFFFFFFFFFF2A
:10509600FFFFFFFFFFFFFFFFFFFFFFFFFFFFFFFF1A
:1050A600FFFFFFFFFFFFFFFFFFFFFFFFFFFFFFFF0A
:1050B600FFFFFFFFFFFFFFFFFFFFFFFFFFFFFFFFFA
:1050C600FFFFFFFFFFFFFFFFFFFFFFFFFFFFFFFFEA
:1050D600FFFFFFFF34F58AEA28EA08EA08EA08EA49
:1050E60008EA08EA08EA08EA08EA08EA08EA08EA2A
:1050F60008EA08EA08EA08EA08EA08EA08EA08EA1A
:1051060008EA08EA08EA08EA08EA08EA08EA08EA09
:1051160008EA08EA08EA08EA08EA08EA08EA08EAF9
:1051260008EA08EA08EA08EA08EA08EA08EA08EAE9
:1051360028EA8AEA75FDFFFFFFFFFFFFFFFFFFFF7B
:10514600FFFFFFFFFFFFFFFFFFFFFFFFFFFFFFFF69
:10515600FFFFFFFFFFFFFFFFFFFFFFFFFFFFFFFF59
:10516600FFFFFFFFFFFFFFFFFFFFFFFFFFFFFFFF49
:10517600FFFFFFFFFFFFFFFFFFFFFFFFFFFFFFFF39
:10518600FFFFFFFFFFFFFFFFFFFFFFFFFFFFFFFF29
:10519600FFFFFFFFFFFFDFFFDBFE9AFE9AFE9AFE90
:1051A6009AFE9AFE9AFE9AFE9AFE9AFE9AFE9AFE39
:1051B6009AFE9AFE9AFE9AFE9AFE9AFE9AFE9AFE29
:1051C6009AFE9AFE9AFE9AFE9AFE9AFE9AFE9AFE19
:1051D6009AFE9AFE9AFE9AFE9AFE9AFE9AFE9AFE09
:1051E6009AFE9AFE9AFE9AFE9AFE9AFE9AFE9AFEF9
:1051F600BAFEDFFFFFFFFFFFFFFFFFFFFFFFFFFF1F
:10520600FFFFFFFFFFFFFFFFFFFFFFFFFFFFFFFFA8
:10521600FFFFFFFFFFFFFFFFFFFFFFFFFFFFFFFF98
:10522600FFFFFFFFFFFFFFFFFFFFFFFFFFFFFFFF88
:10523600FFFFFFFFFFFFFFFFFFFFFFFFFFFFFFFF78
:065FA600FFFFFFFFFFFFFB
:105FAC00000020007F000D10038801000295010005
:105FBC0003A2010007AF010005BC01000AC90100E2
:105FCC0007E3010001F0010003FD0100030A0200D8
:105FDC00051702000724020002310200033E0200F2
:105FEC00024B020003580200056502000472020015
:105FFC00057F0200058C02000599020005A602002F
:10600C0005B3020005C0020005CD020005DA02004E
:10601C0002E7020002F4020007010300070E03006E
:10602C00071B03000428030009350300064F030077
:10603C00055C030006690300067603000583030074
:10604C0005900300069D030006AA030003B7030096
:10605C0004C4030005D1030004DE030007EB0300B6
:10606C0006F803000705040005120400071F0400CE
:10607C00062C0400053904000546040006530400F0
:10608C0005600400096D04000587040005940400F4
:10609C0005A1040003AE040003BB040003C8040004
:1060AC0007D5040006E2040003EF040005FC04001D
:1060BC00050905000416050005230500053005003B
:1060CC00033D0500054A0500055705000164050060
:1060DC0002710500057E0500018B0500079805007F
:1060EC0005A5050005B2050005BF050005CC05009A
:1060FC0003D9050004E6050003F3050005000600BE
:10610C00050D0600071A06000527060005340600D3
:10611C0004410600044E0600025B060004680600FB
:10612C000775060003820600000000000000000056
:10613C000000000000000000020202020202000245
:10614C000000000005050500000000000000000034
:10615C00000028287E14143F0A0A000000000404E2
:10616C001E05050E14140F04040000000000004668
:10617C0000490029002600900150024802880100C5
:10618C00000000000000060909262911314E00000C
:10619C0000000101010000000000000000000004EC
:1061AC0002020101010101020204000001020204C9
:1061BC0004040404020201000004150E150400007E
:1061CC0000000000000000000808087F0808080014
:1061DC0000000000000000000000020202010000AC
:1061EC00000000000007000000000000000000009C
:1061FC00000000000202000000000404040202027D
:10620C0002020101010000000E1111111111110EF9
:10621C000000000000040604040404040E00000046
:10622C0000000E1110080402011F00000000000EF7
:10623C0011100C1010110E0000000000080C0A09BF
:10624C001F08080800000000001F01010F101011AA
:10625C000E00000000000C02010F1111110E0000C5
:10626C000000001F100808040402020000000000D7
:10627C000E11110E1111110E00000000000E111163
:10628C00111E1008060000000000000002020000B1
:10629C0002020000000000000002020000020202E4
:1062AC00010000000040300C020C304000000000E7
:1062BC00000000007F007F000000000000000002D2
:1062CC000C3040300C0200000000000708080402EB
:1062DC0002000200000000000000007C0082003977
:1062EC0001250125012501F90002003C00000000F8
:1062FC0000000C0C1212123F212100000000000FB4
:10630C0011110F1111110F00000000003C020101CE
:10631C000101023C00000000000F1121212121117C
:10632C000F00000000001F01010F0101011F000000
:10633C000000001F01011F0101010100000000000D
:10634C003C0201013921223C0000000000212121E6
:10635C003F2121212100000000000702020202025D
:10636C00020700000000000E0808080808080700D3
:10637C0000000000110905030305091100000000CD
:10638C0000010101010101010F0000000000636325
:10639C00555549494141000000000023232525297A
:1063AC0029313100000000001C2241414141221CD6
:1063BC0000000000000F1111110F0101010000007D
:1063CC0000001C2241414141221C10600000000FC2
:1063DC001111110F09112100000000001E01010E06
:1063EC001010100F00000000001F0404040404042B
:1063FC00040000000000212121212121211E000088
:10640C000000001111110A0A0A0404000000000027
:10641C00000000110111011101AA00AA00AA0044F8
:10642C000044000000000000000011110A04040ADE
:10643C001111000000000011110A0A0404040400E8
:10644C00000000001F1008040402011F00000000DF
:10645C000701010101010101010107000001010116
:10646C0002020202020404040000070404040404EF
:10647C00040404040700000008142241000000007A
:10648C0000000000000000000000000000003F00C1
:10649C0000020400000000000000000000000000EA
:1064AC00000E101E11111E000000000101010F1141
:1064BC001111110F000000000000000E010101017C
:1064CC000E000000001010101E111111111E000002
:1064DC0000000000000E111F01110E00000000064C
:1064EC000101070101010101000000000000001E74
:1064FC00111111111E100E00000101010F111111CB
:10650C001111000000000001000101010101010056
:10651C00000000000200030202020202020100005D
:10652C000101010905030509110000000001010129
:10653C000101010101010000000000000037494980
:10654C00494949000000000000000F111111111100
:10655C00000000000000000E111111110E000000CF
:10656C00000000000F111111110F010100000000BB
:10657C00001E111111111E10100000000000050367
:10658C0001010101000000000000000E01030C08D5
:10659C0007000000000001010701010101060000D5
:1065AC00000000000011111111111E00000000006C
:1065BC00000011110A0A0404000000000000004948
:1065CC00495555222200000000000000110A040465
:1065DC000A110000000000000011110A0A04040254
:1065EC000200000000000F080402010F0000000070
:1065FC000804040404030404040408000002020256
:10660C000202020202020202000001020202020C59
:10661C0002020202010000000000004649310000A5
:0F662C0000000000000705050505050507000033
:10663B009A00B8003E02B8003002B800A800B800BB
:10664B005001B8005E01B8004201B800D200B8009A
:10665B003401B800C400B8003800B8002A00B800F4
:10666B00FFFFFFFFFFFFFFFFFFFFFFFFFFFFFFFF2F
:10667B00FFFFFFFFFFFFFFFFFFFFFFFFFFFFFFFF1F
:10668B00FFFFFFFFFFFFFFFFFFFFFFFFFFFFFFFF0F
:10669B00666F72204F4C4544204320636C69636BDB
:0166AB0000EE
:1066AC0074686973206973207468652064656D6F04
:0166BC0000DD
:0766BD0048656C6C6F2C00B6
:0266C400106F55
:0266C600005F73
:0166C80020B1
:0166C900CF01
:0166CA00329D
:0166CB00804E
:0166CC00F1DC
:0166CD0005C7
:0166CE0001CA
:0166CF003298
:0166D00012B7
:0366D1008A518A61
:0166D400B114
:0366D500A0B55518
:0166D8005F62
:1066D90000000000000000000000000001000000B0
:0866E900FC00B800FFFFFFFFF9
:020000040030CA
:0E00000015137F7CF98B91FFFFC0FFE0FF40DE
:00000001FF
